{
  "_format": "hh-sol-artifact-1",
  "contractName": "VestERC20Factory",
  "sourceName": "contracts/VestERC20Factory.sol",
  "abi": [
    {
      "inputs": [],
      "stateMutability": "nonpayable",
      "type": "constructor"
    },
    {
      "anonymous": false,
      "inputs": [
        {
          "indexed": true,
          "internalType": "address",
          "name": "previousOwner",
          "type": "address"
        },
        {
          "indexed": true,
          "internalType": "address",
          "name": "newOwner",
          "type": "address"
        }
      ],
      "name": "OwnershipTransferred",
      "type": "event"
    },
    {
      "inputs": [],
      "name": "VEST_CORE",
      "outputs": [
        {
          "internalType": "address",
          "name": "",
          "type": "address"
        }
      ],
      "stateMutability": "view",
      "type": "function"
    },
    {
      "inputs": [
        {
          "internalType": "string",
          "name": "_tokenName",
          "type": "string"
        },
        {
          "internalType": "string",
          "name": "_tokenSymbol",
          "type": "string"
        },
        {
          "internalType": "uint256",
          "name": "_tokenTotalSupply",
          "type": "uint256"
        }
      ],
      "name": "createERC20",
      "outputs": [
        {
          "internalType": "address",
          "name": "",
          "type": "address"
        }
      ],
      "stateMutability": "nonpayable",
      "type": "function"
    },
    {
      "inputs": [],
      "name": "owner",
      "outputs": [
        {
          "internalType": "address",
          "name": "",
          "type": "address"
        }
      ],
      "stateMutability": "view",
      "type": "function"
    },
    {
      "inputs": [],
      "name": "renounceOwnership",
      "outputs": [],
      "stateMutability": "nonpayable",
      "type": "function"
    },
    {
      "inputs": [
        {
          "internalType": "address",
          "name": "_core",
          "type": "address"
        }
      ],
      "name": "setCoreAddress",
      "outputs": [],
      "stateMutability": "nonpayable",
      "type": "function"
    },
    {
      "inputs": [
        {
          "internalType": "address",
          "name": "newOwner",
          "type": "address"
        }
      ],
      "name": "transferOwnership",
      "outputs": [],
      "stateMutability": "nonpayable",
      "type": "function"
    }
  ],
  "bytecode": "0x608060405234801561001057600080fd5b5061002d61002261003260201b60201c565b61003a60201b60201c565b6100fe565b600033905090565b60008060009054906101000a900473ffffffffffffffffffffffffffffffffffffffff169050816000806101000a81548173ffffffffffffffffffffffffffffffffffffffff021916908373ffffffffffffffffffffffffffffffffffffffff1602179055508173ffffffffffffffffffffffffffffffffffffffff168173ffffffffffffffffffffffffffffffffffffffff167f8be0079c531659141344cd1fd0a4f28419497f9722a3daafe3b4186f6b6457e060405160405180910390a35050565b6128458061010d6000396000f3fe60806040523480156200001157600080fd5b50600436106200006a5760003560e01c8063715018a6146200006f57806372e4352d146200007b5780638da5cb5b14620000b157806391aad23914620000d3578063f2fde38b14620000f3578063fad3876e1462000113575b600080fd5b6200007962000135565b005b620000996004803603810190620000939190620006b3565b620001c6565b604051620000a891906200079c565b60405180910390f35b620000bb62000299565b604051620000ca91906200079c565b60405180910390f35b620000f16004803603810190620000eb9190620007ea565b620002c2565b005b6200011160048036038101906200010b9190620007ea565b620003fc565b005b6200011d62000500565b6040516200012c91906200079c565b60405180910390f35b6200013f62000526565b73ffffffffffffffffffffffffffffffffffffffff166200015f62000299565b73ffffffffffffffffffffffffffffffffffffffff1614620001b8576040517f08c379a0000000000000000000000000000000000000000000000000000000008152600401620001af906200087d565b60405180910390fd5b620001c460006200052e565b565b6000600160009054906101000a900473ffffffffffffffffffffffffffffffffffffffff1673ffffffffffffffffffffffffffffffffffffffff163373ffffffffffffffffffffffffffffffffffffffff16146200022357600080fd5b60008686868686600160009054906101000a900473ffffffffffffffffffffffffffffffffffffffff166040516200025b90620005f2565b6200026c9695949392919062000903565b604051809103906000f08015801562000289573d6000803e3d6000fd5b5090508091505095945050505050565b60008060009054906101000a900473ffffffffffffffffffffffffffffffffffffffff16905090565b620002cc62000526565b73ffffffffffffffffffffffffffffffffffffffff16620002ec62000299565b73ffffffffffffffffffffffffffffffffffffffff161462000345576040517f08c379a00000000000000000000000000000000000000000000000000000000081526004016200033c906200087d565b60405180910390fd5b600073ffffffffffffffffffffffffffffffffffffffff168173ffffffffffffffffffffffffffffffffffffffff161415620003b8576040517f08c379a0000000000000000000000000000000000000000000000000000000008152600401620003af90620009b2565b60405180910390fd5b80600160006101000a81548173ffffffffffffffffffffffffffffffffffffffff021916908373ffffffffffffffffffffffffffffffffffffffff16021790555050565b6200040662000526565b73ffffffffffffffffffffffffffffffffffffffff166200042662000299565b73ffffffffffffffffffffffffffffffffffffffff16146200047f576040517f08c379a000000000000000000000000000000000000000000000000000000000815260040162000476906200087d565b60405180910390fd5b600073ffffffffffffffffffffffffffffffffffffffff168173ffffffffffffffffffffffffffffffffffffffff161415620004f2576040517f08c379a0000000000000000000000000000000000000000000000000000000008152600401620004e99062000a4a565b60405180910390fd5b620004fd816200052e565b50565b600160009054906101000a900473ffffffffffffffffffffffffffffffffffffffff1681565b600033905090565b60008060009054906101000a900473ffffffffffffffffffffffffffffffffffffffff169050816000806101000a81548173ffffffffffffffffffffffffffffffffffffffff021916908373ffffffffffffffffffffffffffffffffffffffff1602179055508173ffffffffffffffffffffffffffffffffffffffff168173ffffffffffffffffffffffffffffffffffffffff167f8be0079c531659141344cd1fd0a4f28419497f9722a3daafe3b4186f6b6457e060405160405180910390a35050565b611da38062000a6d83390190565b600080fd5b600080fd5b600080fd5b600080fd5b600080fd5b60008083601f8401126200063257620006316200060a565b5b8235905067ffffffffffffffff8111156200065257620006516200060f565b5b60208301915083600182028301111562000671576200067062000614565b5b9250929050565b6000819050919050565b6200068d8162000678565b81146200069957600080fd5b50565b600081359050620006ad8162000682565b92915050565b600080600080600060608688031215620006d257620006d162000600565b5b600086013567ffffffffffffffff811115620006f357620006f262000605565b5b620007018882890162000619565b9550955050602086013567ffffffffffffffff81111562000727576200072662000605565b5b620007358882890162000619565b935093505060406200074a888289016200069c565b9150509295509295909350565b600073ffffffffffffffffffffffffffffffffffffffff82169050919050565b6000620007848262000757565b9050919050565b620007968162000777565b82525050565b6000602082019050620007b360008301846200078b565b92915050565b620007c48162000777565b8114620007d057600080fd5b50565b600081359050620007e481620007b9565b92915050565b60006020828403121562000803576200080262000600565b5b60006200081384828501620007d3565b91505092915050565b600082825260208201905092915050565b7f4f776e61626c653a2063616c6c6572206973206e6f7420746865206f776e6572600082015250565b6000620008656020836200081c565b915062000872826200082d565b602082019050919050565b60006020820190508181036000830152620008988162000856565b9050919050565b82818337600083830152505050565b6000601f19601f8301169050919050565b6000620008cd83856200081c565b9350620008dc8385846200089f565b620008e783620008ae565b840190509392505050565b620008fd8162000678565b82525050565b600060808201905081810360008301526200092081888a620008bf565b9050818103602083015262000937818688620008bf565b9050620009486040830185620008f2565b6200095760608301846200078b565b979650505050505050565b7f464143544f52593a20434f5245204e4f54205a45524f20414444524553530000600082015250565b60006200099a601e836200081c565b9150620009a78262000962565b602082019050919050565b60006020820190508181036000830152620009cd816200098b565b9050919050565b7f4f776e61626c653a206e6577206f776e657220697320746865207a65726f206160008201527f6464726573730000000000000000000000000000000000000000000000000000602082015250565b600062000a326026836200081c565b915062000a3f82620009d4565b604082019050919050565b6000602082019050818103600083015262000a658162000a23565b905091905056fe60e06040523480156200001157600080fd5b5060405162001da338038062001da3833981810160405281019062000037919062000526565b8383601282600090805190602001906200005392919062000239565b5081600190805190602001906200006c92919062000239565b508060ff1660808160ff16815250504660a0818152505062000093620000b960201b60201c565b60c08181525050505050620000af81836200016560201b60201c565b5050505062000842565b60007f8b73c3c69bb8fe3d512ecc4cf759cc79239f7b179b0ffacaa9a75d522b39400f6000604051620000ed9190620006e6565b60405180910390206040518060400160405280600181526020017f31000000000000000000000000000000000000000000000000000000000000008152508051906020012046306040516020016200014a9594939291906200073c565b60405160208183030381529060405280519060200120905090565b8060026000828254620001799190620007c8565b9250508190555080600360008473ffffffffffffffffffffffffffffffffffffffff1673ffffffffffffffffffffffffffffffffffffffff168152602001908152602001600020600082825401925050819055508173ffffffffffffffffffffffffffffffffffffffff16600073ffffffffffffffffffffffffffffffffffffffff167fddf252ad1be2c89b69c2b068fc378daa952ba7f163c4a11628f55a4df523b3ef836040516200022d919062000825565b60405180910390a35050565b828054620002479062000605565b90600052602060002090601f0160209004810192826200026b5760008555620002b7565b82601f106200028657805160ff1916838001178555620002b7565b82800160010185558215620002b7579182015b82811115620002b657825182559160200191906001019062000299565b5b509050620002c69190620002ca565b5090565b5b80821115620002e5576000816000905550600101620002cb565b5090565b6000604051905090565b600080fd5b600080fd5b600080fd5b600080fd5b6000601f19601f8301169050919050565b7f4e487b7100000000000000000000000000000000000000000000000000000000600052604160045260246000fd5b620003528262000307565b810181811067ffffffffffffffff8211171562000374576200037362000318565b5b80604052505050565b600062000389620002e9565b905062000397828262000347565b919050565b600067ffffffffffffffff821115620003ba57620003b962000318565b5b620003c58262000307565b9050602081019050919050565b60005b83811015620003f2578082015181840152602081019050620003d5565b8381111562000402576000848401525b50505050565b60006200041f62000419846200039c565b6200037d565b9050828152602081018484840111156200043e576200043d62000302565b5b6200044b848285620003d2565b509392505050565b600082601f8301126200046b576200046a620002fd565b5b81516200047d84826020860162000408565b91505092915050565b6000819050919050565b6200049b8162000486565b8114620004a757600080fd5b50565b600081519050620004bb8162000490565b92915050565b600073ffffffffffffffffffffffffffffffffffffffff82169050919050565b6000620004ee82620004c1565b9050919050565b6200050081620004e1565b81146200050c57600080fd5b50565b6000815190506200052081620004f5565b92915050565b60008060008060808587031215620005435762000542620002f3565b5b600085015167ffffffffffffffff811115620005645762000563620002f8565b5b620005728782880162000453565b945050602085015167ffffffffffffffff811115620005965762000595620002f8565b5b620005a48782880162000453565b9350506040620005b787828801620004aa565b9250506060620005ca878288016200050f565b91505092959194509250565b7f4e487b7100000000000000000000000000000000000000000000000000000000600052602260045260246000fd5b600060028204905060018216806200061e57607f821691505b60208210811415620006355762000634620005d6565b5b50919050565b600081905092915050565b60008190508160005260206000209050919050565b600081546200066a8162000605565b6200067681866200063b565b94506001821660008114620006945760018114620006a657620006dd565b60ff19831686528186019350620006dd565b620006b18562000646565b60005b83811015620006d557815481890152600182019150602081019050620006b4565b838801955050505b50505092915050565b6000620006f482846200065b565b915081905092915050565b6000819050919050565b6200071481620006ff565b82525050565b620007258162000486565b82525050565b6200073681620004e1565b82525050565b600060a08201905062000753600083018862000709565b62000762602083018762000709565b62000771604083018662000709565b6200078060608301856200071a565b6200078f60808301846200072b565b9695505050505050565b7f4e487b7100000000000000000000000000000000000000000000000000000000600052601160045260246000fd5b6000620007d58262000486565b9150620007e28362000486565b9250827fffffffffffffffffffffffffffffffffffffffffffffffffffffffffffffffff038211156200081a576200081962000799565b5b828201905092915050565b60006020820190506200083c60008301846200071a565b92915050565b60805160a05160c051611531620008726000396000610716015260006106e2015260006106bc01526115316000f3fe608060405234801561001057600080fd5b50600436106100cf5760003560e01c80633644e5151161008c57806395d89b411161006657806395d89b411461022a578063a9059cbb14610248578063d505accf14610278578063dd62ed3e14610294576100cf565b80633644e515146101ac57806370a08231146101ca5780637ecebe00146101fa576100cf565b806306fdde03146100d4578063095ea7b3146100f257806318160ddd1461012257806323b872dd1461014057806330adf81f14610170578063313ce5671461018e575b600080fd5b6100dc6102c4565b6040516100e99190610d72565b60405180910390f35b61010c60048036038101906101079190610e2d565b610352565b6040516101199190610e88565b60405180910390f35b61012a610444565b6040516101379190610eb2565b60405180910390f35b61015a60048036038101906101559190610ecd565b61044a565b6040516101679190610e88565b60405180910390f35b610178610696565b6040516101859190610f39565b60405180910390f35b6101966106ba565b6040516101a39190610f70565b60405180910390f35b6101b46106de565b6040516101c19190610f39565b60405180910390f35b6101e460048036038101906101df9190610f8b565b61073b565b6040516101f19190610eb2565b60405180910390f35b610214600480360381019061020f9190610f8b565b610753565b6040516102219190610eb2565b60405180910390f35b61023261076b565b60405161023f9190610d72565b60405180910390f35b610262600480360381019061025d9190610e2d565b6107f9565b60405161026f9190610e88565b60405180910390f35b610292600480360381019061028d9190611010565b61090d565b005b6102ae60048036038101906102a991906110b2565b610c0c565b6040516102bb9190610eb2565b60405180910390f35b600080546102d190611121565b80601f01602080910402602001604051908101604052809291908181526020018280546102fd90611121565b801561034a5780601f1061031f5761010080835404028352916020019161034a565b820191906000526020600020905b81548152906001019060200180831161032d57829003601f168201915b505050505081565b600081600460003373ffffffffffffffffffffffffffffffffffffffff1673ffffffffffffffffffffffffffffffffffffffff16815260200190815260200160002060008573ffffffffffffffffffffffffffffffffffffffff1673ffffffffffffffffffffffffffffffffffffffff168152602001908152602001600020819055508273ffffffffffffffffffffffffffffffffffffffff163373ffffffffffffffffffffffffffffffffffffffff167f8c5be1e5ebec7d5bd14f71427d1e84f3dd0314c0f7b2291e5b200ac8c7c3b925846040516104329190610eb2565b60405180910390a36001905092915050565b60025481565b60007fffffffffffffffffffffffffffffffffffffffffffffffffffffffffffffffff600460008673ffffffffffffffffffffffffffffffffffffffff1673ffffffffffffffffffffffffffffffffffffffff16815260200190815260200160002060003373ffffffffffffffffffffffffffffffffffffffff1673ffffffffffffffffffffffffffffffffffffffff16815260200190815260200160002054146105835781600460008673ffffffffffffffffffffffffffffffffffffffff1673ffffffffffffffffffffffffffffffffffffffff16815260200190815260200160002060003373ffffffffffffffffffffffffffffffffffffffff1673ffffffffffffffffffffffffffffffffffffffff168152602001908152602001600020600082825461057b9190611182565b925050819055505b81600360008673ffffffffffffffffffffffffffffffffffffffff1673ffffffffffffffffffffffffffffffffffffffff16815260200190815260200160002060008282546105d29190611182565b9250508190555081600360008573ffffffffffffffffffffffffffffffffffffffff1673ffffffffffffffffffffffffffffffffffffffff168152602001908152602001600020600082825401925050819055508273ffffffffffffffffffffffffffffffffffffffff168473ffffffffffffffffffffffffffffffffffffffff167fddf252ad1be2c89b69c2b068fc378daa952ba7f163c4a11628f55a4df523b3ef846040516106839190610eb2565b60405180910390a3600190509392505050565b7f6e71edae12b1b97f4d1f60370fef10105fa2faae0126114a169c64845d6126c981565b7f000000000000000000000000000000000000000000000000000000000000000081565b60007f000000000000000000000000000000000000000000000000000000000000000046146107145761070f610c31565b610736565b7f00000000000000000000000000000000000000000000000000000000000000005b905090565b60036020528060005260406000206000915090505481565b60056020528060005260406000206000915090505481565b6001805461077890611121565b80601f01602080910402602001604051908101604052809291908181526020018280546107a490611121565b80156107f15780601f106107c6576101008083540402835291602001916107f1565b820191906000526020600020905b8154815290600101906020018083116107d457829003601f168201915b505050505081565b600081600360003373ffffffffffffffffffffffffffffffffffffffff1673ffffffffffffffffffffffffffffffffffffffff168152602001908152602001600020600082825461084a9190611182565b9250508190555081600360008573ffffffffffffffffffffffffffffffffffffffff1673ffffffffffffffffffffffffffffffffffffffff168152602001908152602001600020600082825401925050819055508273ffffffffffffffffffffffffffffffffffffffff163373ffffffffffffffffffffffffffffffffffffffff167fddf252ad1be2c89b69c2b068fc378daa952ba7f163c4a11628f55a4df523b3ef846040516108fb9190610eb2565b60405180910390a36001905092915050565b42841015610950576040517f08c379a000000000000000000000000000000000000000000000000000000000815260040161094790611202565b60405180910390fd5b600061095a6106de565b7f6e71edae12b1b97f4d1f60370fef10105fa2faae0126114a169c64845d6126c9898989600560008e73ffffffffffffffffffffffffffffffffffffffff1673ffffffffffffffffffffffffffffffffffffffff1681526020019081526020016000206000815480929190600101919050558a6040516020016109e296959493929190611231565b60405160208183030381529060405280519060200120604051602001610a0992919061130a565b604051602081830303815290604052805190602001209050600060018286868660405160008152602001604052604051610a469493929190611341565b6020604051602081039080840390855afa158015610a68573d6000803e3d6000fd5b505050602060405103519050600073ffffffffffffffffffffffffffffffffffffffff168173ffffffffffffffffffffffffffffffffffffffff1614158015610adc57508873ffffffffffffffffffffffffffffffffffffffff168173ffffffffffffffffffffffffffffffffffffffff16145b610b1b576040517f08c379a0000000000000000000000000000000000000000000000000000000008152600401610b12906113d2565b60405180910390fd5b86600460008373ffffffffffffffffffffffffffffffffffffffff1673ffffffffffffffffffffffffffffffffffffffff16815260200190815260200160002060008a73ffffffffffffffffffffffffffffffffffffffff1673ffffffffffffffffffffffffffffffffffffffff1681526020019081526020016000208190555050508573ffffffffffffffffffffffffffffffffffffffff168773ffffffffffffffffffffffffffffffffffffffff167f8c5be1e5ebec7d5bd14f71427d1e84f3dd0314c0f7b2291e5b200ac8c7c3b92587604051610bfb9190610eb2565b60405180910390a350505050505050565b6004602052816000526040600020602052806000526040600020600091509150505481565b60007f8b73c3c69bb8fe3d512ecc4cf759cc79239f7b179b0ffacaa9a75d522b39400f6000604051610c639190611491565b60405180910390206040518060400160405280600181526020017f3100000000000000000000000000000000000000000000000000000000000000815250805190602001204630604051602001610cbe9594939291906114a8565b60405160208183030381529060405280519060200120905090565b600081519050919050565b600082825260208201905092915050565b60005b83811015610d13578082015181840152602081019050610cf8565b83811115610d22576000848401525b50505050565b6000601f19601f8301169050919050565b6000610d4482610cd9565b610d4e8185610ce4565b9350610d5e818560208601610cf5565b610d6781610d28565b840191505092915050565b60006020820190508181036000830152610d8c8184610d39565b905092915050565b600080fd5b600073ffffffffffffffffffffffffffffffffffffffff82169050919050565b6000610dc482610d99565b9050919050565b610dd481610db9565b8114610ddf57600080fd5b50565b600081359050610df181610dcb565b92915050565b6000819050919050565b610e0a81610df7565b8114610e1557600080fd5b50565b600081359050610e2781610e01565b92915050565b60008060408385031215610e4457610e43610d94565b5b6000610e5285828601610de2565b9250506020610e6385828601610e18565b9150509250929050565b60008115159050919050565b610e8281610e6d565b82525050565b6000602082019050610e9d6000830184610e79565b92915050565b610eac81610df7565b82525050565b6000602082019050610ec76000830184610ea3565b92915050565b600080600060608486031215610ee657610ee5610d94565b5b6000610ef486828701610de2565b9350506020610f0586828701610de2565b9250506040610f1686828701610e18565b9150509250925092565b6000819050919050565b610f3381610f20565b82525050565b6000602082019050610f4e6000830184610f2a565b92915050565b600060ff82169050919050565b610f6a81610f54565b82525050565b6000602082019050610f856000830184610f61565b92915050565b600060208284031215610fa157610fa0610d94565b5b6000610faf84828501610de2565b91505092915050565b610fc181610f54565b8114610fcc57600080fd5b50565b600081359050610fde81610fb8565b92915050565b610fed81610f20565b8114610ff857600080fd5b50565b60008135905061100a81610fe4565b92915050565b600080600080600080600060e0888a03121561102f5761102e610d94565b5b600061103d8a828b01610de2565b975050602061104e8a828b01610de2565b965050604061105f8a828b01610e18565b95505060606110708a828b01610e18565b94505060806110818a828b01610fcf565b93505060a06110928a828b01610ffb565b92505060c06110a38a828b01610ffb565b91505092959891949750929550565b600080604083850312156110c9576110c8610d94565b5b60006110d785828601610de2565b92505060206110e885828601610de2565b9150509250929050565b7f4e487b7100000000000000000000000000000000000000000000000000000000600052602260045260246000fd5b6000600282049050600182168061113957607f821691505b6020821081141561114d5761114c6110f2565b5b50919050565b7f4e487b7100000000000000000000000000000000000000000000000000000000600052601160045260246000fd5b600061118d82610df7565b915061119883610df7565b9250828210156111ab576111aa611153565b5b828203905092915050565b7f5045524d49545f444541444c494e455f45585049524544000000000000000000600082015250565b60006111ec601783610ce4565b91506111f7826111b6565b602082019050919050565b6000602082019050818103600083015261121b816111df565b9050919050565b61122b81610db9565b82525050565b600060c0820190506112466000830189610f2a565b6112536020830188611222565b6112606040830187611222565b61126d6060830186610ea3565b61127a6080830185610ea3565b61128760a0830184610ea3565b979650505050505050565b600081905092915050565b7f1901000000000000000000000000000000000000000000000000000000000000600082015250565b60006112d3600283611292565b91506112de8261129d565b600282019050919050565b6000819050919050565b6113046112ff82610f20565b6112e9565b82525050565b6000611315826112c6565b915061132182856112f3565b60208201915061133182846112f3565b6020820191508190509392505050565b60006080820190506113566000830187610f2a565b6113636020830186610f61565b6113706040830185610f2a565b61137d6060830184610f2a565b95945050505050565b7f494e56414c49445f5045524d49545f5349474e41545552450000000000000000600082015250565b60006113bc601883610ce4565b91506113c782611386565b602082019050919050565b600060208201905081810360008301526113eb816113af565b9050919050565b600081905092915050565b60008190508160005260206000209050919050565b6000815461141f81611121565b61142981866113f2565b94506001821660008114611444576001811461145557611488565b60ff19831686528186019350611488565b61145e856113fd565b60005b8381101561148057815481890152600182019150602081019050611461565b838801955050505b50505092915050565b600061149d8284611412565b915081905092915050565b600060a0820190506114bd6000830188610f2a565b6114ca6020830187610f2a565b6114d76040830186610f2a565b6114e46060830185610ea3565b6114f16080830184611222565b969550505050505056fea26469706673582212205bf7701d92a2f2081397f548db19e7857eb83a0dd406d173951da76c57ee00b164736f6c634300080a0033a2646970667358221220783e399c8a251b27d1e82435ede37754f8252a31a092fbac653d242d355af43164736f6c634300080a0033",
  "linkReferences": {},
  "deployedLinkReferences": {}
}