{
  "_format": "hh-sol-artifact-1",
  "contractName": "VestCore",
  "sourceName": "contracts/VestCore.sol",
  "abi": [
    {
      "inputs": [],
      "stateMutability": "nonpayable",
      "type": "constructor"
    },
    {
      "anonymous": false,
      "inputs": [
        {
          "indexed": true,
          "internalType": "address",
          "name": "previousOwner",
          "type": "address"
        },
        {
          "indexed": true,
          "internalType": "address",
          "name": "newOwner",
          "type": "address"
        }
      ],
      "name": "OwnershipTransferred",
      "type": "event"
    },
    {
      "anonymous": false,
      "inputs": [
        {
          "indexed": false,
          "internalType": "uint256",
          "name": "vBoxID",
          "type": "uint256"
        },
        {
          "indexed": false,
          "internalType": "address",
          "name": "token",
          "type": "address"
        },
        {
          "indexed": false,
          "internalType": "address",
          "name": "creator",
          "type": "address"
        }
      ],
      "name": "VestingBoxCreated",
      "type": "event"
    },
    {
      "inputs": [],
      "name": "SCALE",
      "outputs": [
        {
          "internalType": "uint256",
          "name": "",
          "type": "uint256"
        }
      ],
      "stateMutability": "view",
      "type": "function"
    },
    {
      "inputs": [
        {
          "internalType": "address",
          "name": "_token",
          "type": "address"
        },
        {
          "internalType": "uint256",
          "name": "_totalAmount",
          "type": "uint256"
        },
        {
          "internalType": "uint256[]",
          "name": "_amounts",
          "type": "uint256[]"
        },
        {
          "internalType": "address[]",
          "name": "_recipients",
          "type": "address[]"
        },
        {
          "internalType": "uint256[]",
          "name": "_startTimes",
          "type": "uint256[]"
        },
        {
          "internalType": "uint256[]",
          "name": "_endTimes",
          "type": "uint256[]"
        }
      ],
      "name": "createVestingBoxWithExistingToken",
      "outputs": [
        {
          "internalType": "bool",
          "name": "success",
          "type": "bool"
        }
      ],
      "stateMutability": "nonpayable",
      "type": "function"
    },
    {
      "inputs": [],
      "name": "fee",
      "outputs": [
        {
          "internalType": "uint256",
          "name": "",
          "type": "uint256"
        }
      ],
      "stateMutability": "view",
      "type": "function"
    },
    {
      "inputs": [
        {
          "internalType": "uint256",
          "name": "_vestingBoxId",
          "type": "uint256"
        }
      ],
      "name": "getVestingBox",
      "outputs": [
        {
          "components": [
            {
              "internalType": "address",
              "name": "token",
              "type": "address"
            },
            {
              "internalType": "address[]",
              "name": "recipients",
              "type": "address[]"
            },
            {
              "internalType": "uint256[]",
              "name": "amounts",
              "type": "uint256[]"
            },
            {
              "internalType": "uint256[]",
              "name": "withdrawn",
              "type": "uint256[]"
            },
            {
              "internalType": "uint256[]",
              "name": "startTimes",
              "type": "uint256[]"
            },
            {
              "internalType": "uint256[]",
              "name": "endTimes",
              "type": "uint256[]"
            }
          ],
          "internalType": "struct VestCore.VestingBox",
          "name": "vestingBox",
          "type": "tuple"
        }
      ],
      "stateMutability": "view",
      "type": "function"
    },
    {
      "inputs": [],
      "name": "owner",
      "outputs": [
        {
          "internalType": "address",
          "name": "",
          "type": "address"
        }
      ],
      "stateMutability": "view",
      "type": "function"
    },
    {
      "inputs": [],
      "name": "renounceOwnership",
      "outputs": [],
      "stateMutability": "nonpayable",
      "type": "function"
    },
    {
      "inputs": [
        {
          "internalType": "address",
          "name": "newOwner",
          "type": "address"
        }
      ],
      "name": "transferOwnership",
      "outputs": [],
      "stateMutability": "nonpayable",
      "type": "function"
    }
  ],
  "bytecode": "0x608060405266038d7ea4c68000600155600060025534801561002057600080fd5b5061003d61003261004260201b60201c565b61004a60201b60201c565b61010e565b600033905090565b60008060009054906101000a900473ffffffffffffffffffffffffffffffffffffffff169050816000806101000a81548173ffffffffffffffffffffffffffffffffffffffff021916908373ffffffffffffffffffffffffffffffffffffffff1602179055508173ffffffffffffffffffffffffffffffffffffffff168173ffffffffffffffffffffffffffffffffffffffff167f8be0079c531659141344cd1fd0a4f28419497f9722a3daafe3b4186f6b6457e060405160405180910390a35050565b6114a78061011d6000396000f3fe608060405234801561001057600080fd5b506004361061007d5760003560e01c8063ddca3f431161005b578063ddca3f43146100da578063eced5526146100f8578063f2fde38b14610116578063fd5ec925146101325761007d565b8063715018a6146100825780638da5cb5b1461008c578063c68482a7146100aa575b600080fd5b61008a610162565b005b6100946101ea565b6040516100a19190610c94565b60405180910390f35b6100c460048036038101906100bf9190610cef565b610213565b6040516100d19190610f3d565b60405180910390f35b6100e26104a0565b6040516100ef9190610f6e565b60405180910390f35b6101006104a6565b60405161010d9190610f6e565b60405180910390f35b610130600480360381019061012b9190610fb5565b6104b2565b005b61014c6004803603810190610147919061109d565b6105aa565b60405161015991906111c8565b60405180910390f35b61016a610a47565b73ffffffffffffffffffffffffffffffffffffffff166101886101ea565b73ffffffffffffffffffffffffffffffffffffffff16146101de576040517f08c379a00000000000000000000000000000000000000000000000000000000081526004016101d590611240565b60405180910390fd5b6101e86000610a4f565b565b60008060009054906101000a900473ffffffffffffffffffffffffffffffffffffffff16905090565b61021b610b13565b6000821161022857600080fd5b60025482111561023757600080fd5b600360008381526020019081526020016000206040518060c00160405290816000820160009054906101000a900473ffffffffffffffffffffffffffffffffffffffff1673ffffffffffffffffffffffffffffffffffffffff1673ffffffffffffffffffffffffffffffffffffffff1681526020016001820180548060200260200160405190810160405280929190818152602001828054801561033057602002820191906000526020600020905b8160009054906101000a900473ffffffffffffffffffffffffffffffffffffffff1673ffffffffffffffffffffffffffffffffffffffff16815260200190600101908083116102e6575b505050505081526020016002820180548060200260200160405190810160405280929190818152602001828054801561038857602002820191906000526020600020905b815481526020019060010190808311610374575b50505050508152602001600382018054806020026020016040519081016040528092919081815260200182805480156103e057602002820191906000526020600020905b8154815260200190600101908083116103cc575b505050505081526020016004820180548060200260200160405190810160405280929190818152602001828054801561043857602002820191906000526020600020905b815481526020019060010190808311610424575b505050505081526020016005820180548060200260200160405190810160405280929190818152602001828054801561049057602002820191906000526020600020905b81548152602001906001019080831161047c575b5050505050815250509050919050565b60015481565b670de0b6b3a764000081565b6104ba610a47565b73ffffffffffffffffffffffffffffffffffffffff166104d86101ea565b73ffffffffffffffffffffffffffffffffffffffff161461052e576040517f08c379a000000000000000000000000000000000000000000000000000000000815260040161052590611240565b60405180910390fd5b600073ffffffffffffffffffffffffffffffffffffffff168173ffffffffffffffffffffffffffffffffffffffff16141561059e576040517f08c379a0000000000000000000000000000000000000000000000000000000008152600401610595906112d2565b60405180910390fd5b6105a781610a4f565b50565b600080878790509050600073ffffffffffffffffffffffffffffffffffffffff168c73ffffffffffffffffffffffffffffffffffffffff161415610623576040517f08c379a000000000000000000000000000000000000000000000000000000000815260040161061a9061133e565b60405180910390fd5b60008b11610666576040517f08c379a000000000000000000000000000000000000000000000000000000000815260040161065d906113aa565b60405180910390fd5b600081116106a9576040517f08c379a00000000000000000000000000000000000000000000000000000000081526004016106a0906113aa565b60405180910390fd5b8989905081146106ee576040517f08c379a00000000000000000000000000000000000000000000000000000000081526004016106e5906113aa565b60405180910390fd5b858590508114610733576040517f08c379a000000000000000000000000000000000000000000000000000000000815260040161072a906113aa565b60405180910390fd5b838390508114610778576040517f08c379a000000000000000000000000000000000000000000000000000000000815260040161076f906113aa565b60405180910390fd5b60006040518060c001604052808e73ffffffffffffffffffffffffffffffffffffffff1681526020018a8a80806020026020016040519081016040528093929190818152602001838360200280828437600081840152601f19601f8201169050808301925050505050505081526020018c8c80806020026020016040519081016040528093929190818152602001838360200280828437600081840152601f19601f8201169050808301925050505050505081526020018367ffffffffffffffff811115610849576108486113ca565b5b6040519080825280602002602001820160405280156108775781602001602082028036833780820191505090505b508152602001888880806020026020016040519081016040528093929190818152602001838360200280828437600081840152601f19601f820116905080830192505050505050508152602001868680806020026020016040519081016040528093929190818152602001838360200280828437600081840152601f19601f82011690508083019250505050505050815250905060005b8281101561092957808061092190611428565b91505061090e565b506002600081548092919061093d90611428565b91905055508060036000600254815260200190815260200160002060008201518160000160006101000a81548173ffffffffffffffffffffffffffffffffffffffff021916908373ffffffffffffffffffffffffffffffffffffffff16021790555060208201518160010190805190602001906109bb929190610b5f565b5060408201518160020190805190602001906109d8929190610be9565b5060608201518160030190805190602001906109f5929190610be9565b506080820151816004019080519060200190610a12929190610be9565b5060a0820151816005019080519060200190610a2f929190610be9565b509050506001925050509a9950505050505050505050565b600033905090565b60008060009054906101000a900473ffffffffffffffffffffffffffffffffffffffff169050816000806101000a81548173ffffffffffffffffffffffffffffffffffffffff021916908373ffffffffffffffffffffffffffffffffffffffff1602179055508173ffffffffffffffffffffffffffffffffffffffff168173ffffffffffffffffffffffffffffffffffffffff167f8be0079c531659141344cd1fd0a4f28419497f9722a3daafe3b4186f6b6457e060405160405180910390a35050565b6040518060c00160405280600073ffffffffffffffffffffffffffffffffffffffff16815260200160608152602001606081526020016060815260200160608152602001606081525090565b828054828255906000526020600020908101928215610bd8579160200282015b82811115610bd75782518260006101000a81548173ffffffffffffffffffffffffffffffffffffffff021916908373ffffffffffffffffffffffffffffffffffffffff16021790555091602001919060010190610b7f565b5b509050610be59190610c36565b5090565b828054828255906000526020600020908101928215610c25579160200282015b82811115610c24578251825591602001919060010190610c09565b5b509050610c329190610c36565b5090565b5b80821115610c4f576000816000905550600101610c37565b5090565b600073ffffffffffffffffffffffffffffffffffffffff82169050919050565b6000610c7e82610c53565b9050919050565b610c8e81610c73565b82525050565b6000602082019050610ca96000830184610c85565b92915050565b600080fd5b600080fd5b6000819050919050565b610ccc81610cb9565b8114610cd757600080fd5b50565b600081359050610ce981610cc3565b92915050565b600060208284031215610d0557610d04610caf565b5b6000610d1384828501610cda565b91505092915050565b610d2581610c73565b82525050565b600081519050919050565b600082825260208201905092915050565b6000819050602082019050919050565b6000610d638383610d1c565b60208301905092915050565b6000602082019050919050565b6000610d8782610d2b565b610d918185610d36565b9350610d9c83610d47565b8060005b83811015610dcd578151610db48882610d57565b9750610dbf83610d6f565b925050600181019050610da0565b5085935050505092915050565b600081519050919050565b600082825260208201905092915050565b6000819050602082019050919050565b610e0f81610cb9565b82525050565b6000610e218383610e06565b60208301905092915050565b6000602082019050919050565b6000610e4582610dda565b610e4f8185610de5565b9350610e5a83610df6565b8060005b83811015610e8b578151610e728882610e15565b9750610e7d83610e2d565b925050600181019050610e5e565b5085935050505092915050565b600060c083016000830151610eb06000860182610d1c565b5060208301518482036020860152610ec88282610d7c565b91505060408301518482036040860152610ee28282610e3a565b91505060608301518482036060860152610efc8282610e3a565b91505060808301518482036080860152610f168282610e3a565b91505060a083015184820360a0860152610f308282610e3a565b9150508091505092915050565b60006020820190508181036000830152610f578184610e98565b905092915050565b610f6881610cb9565b82525050565b6000602082019050610f836000830184610f5f565b92915050565b610f9281610c73565b8114610f9d57600080fd5b50565b600081359050610faf81610f89565b92915050565b600060208284031215610fcb57610fca610caf565b5b6000610fd984828501610fa0565b91505092915050565b600080fd5b600080fd5b600080fd5b60008083601f84011261100757611006610fe2565b5b8235905067ffffffffffffffff81111561102457611023610fe7565b5b6020830191508360208202830111156110405761103f610fec565b5b9250929050565b60008083601f84011261105d5761105c610fe2565b5b8235905067ffffffffffffffff81111561107a57611079610fe7565b5b60208301915083602082028301111561109657611095610fec565b5b9250929050565b60008060008060008060008060008060c08b8d0312156110c0576110bf610caf565b5b60006110ce8d828e01610fa0565b9a505060206110df8d828e01610cda565b99505060408b013567ffffffffffffffff811115611100576110ff610cb4565b5b61110c8d828e01610ff1565b985098505060608b013567ffffffffffffffff81111561112f5761112e610cb4565b5b61113b8d828e01611047565b965096505060808b013567ffffffffffffffff81111561115e5761115d610cb4565b5b61116a8d828e01610ff1565b945094505060a08b013567ffffffffffffffff81111561118d5761118c610cb4565b5b6111998d828e01610ff1565b92509250509295989b9194979a5092959850565b60008115159050919050565b6111c2816111ad565b82525050565b60006020820190506111dd60008301846111b9565b92915050565b600082825260208201905092915050565b7f4f776e61626c653a2063616c6c6572206973206e6f7420746865206f776e6572600082015250565b600061122a6020836111e3565b9150611235826111f4565b602082019050919050565b600060208201905081810360008301526112598161121d565b9050919050565b7f4f776e61626c653a206e6577206f776e657220697320746865207a65726f206160008201527f6464726573730000000000000000000000000000000000000000000000000000602082015250565b60006112bc6026836111e3565b91506112c782611260565b604082019050919050565b600060208201905081810360008301526112eb816112af565b9050919050565b7f564553543a205a45524f2041444452204e4f5420544f4b454e00000000000000600082015250565b60006113286019836111e3565b9150611333826112f2565b602082019050919050565b600060208201905081810360008301526113578161131b565b9050919050565b7f564553543a000000000000000000000000000000000000000000000000000000600082015250565b60006113946005836111e3565b915061139f8261135e565b602082019050919050565b600060208201905081810360008301526113c381611387565b9050919050565b7f4e487b7100000000000000000000000000000000000000000000000000000000600052604160045260246000fd5b7f4e487b7100000000000000000000000000000000000000000000000000000000600052601160045260246000fd5b600061143382610cb9565b91507fffffffffffffffffffffffffffffffffffffffffffffffffffffffffffffffff821415611466576114656113f9565b5b60018201905091905056fea2646970667358221220d93d915ed8979c519e7a0e8b72bc53c5df255332b62d7c4bf941f9a9da2889d464736f6c634300080a0033",
  "linkReferences": {},
  "deployedLinkReferences": {}
}