{
  "_format": "hh-sol-artifact-1",
  "contractName": "VestCore",
  "sourceName": "contracts/VestCore.sol",
  "abi": [
    {
      "inputs": [],
      "stateMutability": "nonpayable",
      "type": "constructor"
    },
    {
      "anonymous": false,
      "inputs": [
        {
          "indexed": true,
          "internalType": "address",
          "name": "previousOwner",
          "type": "address"
        },
        {
          "indexed": true,
          "internalType": "address",
          "name": "newOwner",
          "type": "address"
        }
      ],
      "name": "OwnershipTransferred",
      "type": "event"
    },
    {
      "anonymous": false,
      "inputs": [
        {
          "indexed": false,
          "internalType": "uint256",
          "name": "vBoxID",
          "type": "uint256"
        },
        {
          "indexed": false,
          "internalType": "address",
          "name": "token",
          "type": "address"
        },
        {
          "indexed": false,
          "internalType": "address",
          "name": "creator",
          "type": "address"
        }
      ],
      "name": "VestingBoxCreated",
      "type": "event"
    },
    {
      "inputs": [],
      "name": "ETH",
      "outputs": [
        {
          "internalType": "address",
          "name": "",
          "type": "address"
        }
      ],
      "stateMutability": "view",
      "type": "function"
    },
    {
      "inputs": [],
      "name": "SCALE",
      "outputs": [
        {
          "internalType": "uint256",
          "name": "",
          "type": "uint256"
        }
      ],
      "stateMutability": "view",
      "type": "function"
    },
    {
      "inputs": [
        {
          "internalType": "uint256",
          "name": "_vBoxId",
          "type": "uint256"
        },
        {
          "internalType": "uint256",
          "name": "_amountToClaim",
          "type": "uint256"
        }
      ],
      "name": "claimVestedTokens",
      "outputs": [
        {
          "internalType": "bool",
          "name": "success",
          "type": "bool"
        }
      ],
      "stateMutability": "nonpayable",
      "type": "function"
    },
    {
      "inputs": [
        {
          "internalType": "uint256",
          "name": "_totalAmount",
          "type": "uint256"
        },
        {
          "components": [
            {
              "internalType": "address",
              "name": "token",
              "type": "address"
            },
            {
              "internalType": "address[]",
              "name": "admins",
              "type": "address[]"
            },
            {
              "internalType": "address[]",
              "name": "recipients",
              "type": "address[]"
            }
          ],
          "internalType": "struct VestCore.VestingBox",
          "name": "_vBox",
          "type": "tuple"
        },
        {
          "components": [
            {
              "internalType": "uint256",
              "name": "amount",
              "type": "uint256"
            },
            {
              "internalType": "uint256",
              "name": "withdrawn",
              "type": "uint256"
            },
            {
              "internalType": "uint128",
              "name": "startTime",
              "type": "uint128"
            },
            {
              "internalType": "uint128",
              "name": "endTime",
              "type": "uint128"
            }
          ],
          "internalType": "struct VestCore.VestingBoxAccount[]",
          "name": "_vBoxAccounts",
          "type": "tuple[]"
        }
      ],
      "name": "createVestingBoxWithExistingToken",
      "outputs": [
        {
          "internalType": "bool",
          "name": "success",
          "type": "bool"
        }
      ],
      "stateMutability": "nonpayable",
      "type": "function"
    },
    {
      "inputs": [
        {
          "internalType": "uint256",
          "name": "_totalAmount",
          "type": "uint256"
        },
        {
          "components": [
            {
              "internalType": "address",
              "name": "token",
              "type": "address"
            },
            {
              "internalType": "address[]",
              "name": "admins",
              "type": "address[]"
            },
            {
              "internalType": "address[]",
              "name": "recipients",
              "type": "address[]"
            }
          ],
          "internalType": "struct VestCore.VestingBox",
          "name": "_vBox",
          "type": "tuple"
        },
        {
          "components": [
            {
              "internalType": "uint256",
              "name": "amount",
              "type": "uint256"
            },
            {
              "internalType": "uint256",
              "name": "withdrawn",
              "type": "uint256"
            },
            {
              "internalType": "uint128",
              "name": "startTime",
              "type": "uint128"
            },
            {
              "internalType": "uint128",
              "name": "endTime",
              "type": "uint128"
            }
          ],
          "internalType": "struct VestCore.VestingBoxAccount[]",
          "name": "_vBoxAccounts",
          "type": "tuple[]"
        },
        {
          "internalType": "string",
          "name": "_tokenName",
          "type": "string"
        },
        {
          "internalType": "string",
          "name": "_tokenSymbol",
          "type": "string"
        },
        {
          "internalType": "uint256",
          "name": "_tokenTotalSupply",
          "type": "uint256"
        }
      ],
      "name": "createVestingBoxWithNewToken",
      "outputs": [
        {
          "internalType": "bool",
          "name": "success",
          "type": "bool"
        }
      ],
      "stateMutability": "nonpayable",
      "type": "function"
    },
    {
      "inputs": [],
      "name": "fee",
      "outputs": [
        {
          "internalType": "uint256",
          "name": "",
          "type": "uint256"
        }
      ],
      "stateMutability": "view",
      "type": "function"
    },
    {
      "inputs": [
        {
          "internalType": "address",
          "name": "_token",
          "type": "address"
        }
      ],
      "name": "getAssetHeldForVesting",
      "outputs": [
        {
          "internalType": "uint256",
          "name": "",
          "type": "uint256"
        }
      ],
      "stateMutability": "view",
      "type": "function"
    },
    {
      "inputs": [
        {
          "internalType": "address",
          "name": "_token",
          "type": "address"
        }
      ],
      "name": "getProtocolFeesEarned",
      "outputs": [
        {
          "internalType": "uint256",
          "name": "",
          "type": "uint256"
        }
      ],
      "stateMutability": "view",
      "type": "function"
    },
    {
      "inputs": [
        {
          "internalType": "uint256",
          "name": "_vestingBoxId",
          "type": "uint256"
        }
      ],
      "name": "getVestingBox",
      "outputs": [
        {
          "components": [
            {
              "internalType": "address",
              "name": "token",
              "type": "address"
            },
            {
              "internalType": "address[]",
              "name": "admins",
              "type": "address[]"
            },
            {
              "internalType": "address[]",
              "name": "recipients",
              "type": "address[]"
            }
          ],
          "internalType": "struct VestCore.VestingBox",
          "name": "vestingBox",
          "type": "tuple"
        }
      ],
      "stateMutability": "view",
      "type": "function"
    },
    {
      "inputs": [
        {
          "internalType": "uint256",
          "name": "_vBoxId",
          "type": "uint256"
        },
        {
          "internalType": "address",
          "name": "_account",
          "type": "address"
        }
      ],
      "name": "getWithdrawableAmount",
      "outputs": [
        {
          "internalType": "uint256",
          "name": "",
          "type": "uint256"
        }
      ],
      "stateMutability": "view",
      "type": "function"
    },
    {
      "inputs": [],
      "name": "owner",
      "outputs": [
        {
          "internalType": "address",
          "name": "",
          "type": "address"
        }
      ],
      "stateMutability": "view",
      "type": "function"
    },
    {
      "inputs": [],
      "name": "renounceOwnership",
      "outputs": [],
      "stateMutability": "nonpayable",
      "type": "function"
    },
    {
      "inputs": [
        {
          "internalType": "uint256",
          "name": "_fee",
          "type": "uint256"
        }
      ],
      "name": "setFee",
      "outputs": [],
      "stateMutability": "nonpayable",
      "type": "function"
    },
    {
      "inputs": [
        {
          "internalType": "address",
          "name": "newOwner",
          "type": "address"
        }
      ],
      "name": "transferOwnership",
      "outputs": [],
      "stateMutability": "nonpayable",
      "type": "function"
    },
    {
      "inputs": [],
      "name": "vBoxCount",
      "outputs": [
        {
          "internalType": "uint256",
          "name": "",
          "type": "uint256"
        }
      ],
      "stateMutability": "view",
      "type": "function"
    },
    {
      "inputs": [
        {
          "internalType": "uint256",
          "name": "_amount",
          "type": "uint256"
        },
        {
          "internalType": "address",
          "name": "_to",
          "type": "address"
        }
      ],
      "name": "withdrawETHFees",
      "outputs": [],
      "stateMutability": "nonpayable",
      "type": "function"
    },
    {
      "inputs": [
        {
          "internalType": "address",
          "name": "_token",
          "type": "address"
        },
        {
          "internalType": "uint256",
          "name": "_amount",
          "type": "uint256"
        },
        {
          "internalType": "address",
          "name": "_to",
          "type": "address"
        }
      ],
      "name": "withdrawTokenFees",
      "outputs": [],
      "stateMutability": "nonpayable",
      "type": "function"
    }
  ],
  "bytecode": "0x608060405266038d7ea4c68000600155600060025573eeeeeeeeeeeeeeeeeeeeeeeeeeeeeeeeeeeeeeee600360006101000a81548173ffffffffffffffffffffffffffffffffffffffff021916908373ffffffffffffffffffffffffffffffffffffffff1602179055503480156200007657600080fd5b50620000976200008b6200009d60201b60201c565b620000a560201b60201c565b62000169565b600033905090565b60008060009054906101000a900473ffffffffffffffffffffffffffffffffffffffff169050816000806101000a81548173ffffffffffffffffffffffffffffffffffffffff021916908373ffffffffffffffffffffffffffffffffffffffff1602179055508173ffffffffffffffffffffffffffffffffffffffff168173ffffffffffffffffffffffffffffffffffffffff167f8be0079c531659141344cd1fd0a4f28419497f9722a3daafe3b4186f6b6457e060405160405180910390a35050565b612edb80620001796000396000f3fe608060405234801561001057600080fd5b506004361061010b5760003560e01c80638da5cb5b116100a2578063c68482a711610071578063c68482a7146102ca578063ddca3f43146102fa578063e9b3663e14610318578063eced552614610336578063f2fde38b146103545761010b565b80638da5cb5b1461023057806394e4bb421461024e57806395be54981461027e578063c65300061461029a5761010b565b806369fe0e2d116100de57806369fe0e2d146101d0578063715018a6146101ec57806371b4e6e7146101f65780638322fff2146102125761010b565b80633336289f14610110578063359cd45e146101405780634a918a0c1461017057806351887239146101a0575b600080fd5b61012a60048036038101906101259190611ca1565b610370565b6040516101379190611d4c565b60405180910390f35b61015a60048036038101906101559190611dc5565b6103e5565b6040516101679190611e14565b60405180910390f35b61018a60048036038101906101859190611e2f565b6107b8565b6040516101979190611e14565b60405180910390f35b6101ba60048036038101906101b59190611e5c565b610950565b6040516101c79190611d4c565b60405180910390f35b6101ea60048036038101906101e59190611e9c565b6109b8565b005b6101f4610a89565b005b610210600480360381019061020b9190611dc5565b610b11565b005b61021a610ced565b6040516102279190611ed8565b60405180910390f35b610238610d13565b6040516102459190611ed8565b60405180910390f35b610268600480360381019061026391906122c1565b610d3c565b6040516102759190611d4c565b60405180910390f35b610298600480360381019061029391906123c8565b610d9a565b005b6102b460048036038101906102af9190611e2f565b610fa0565b6040516102c19190611e14565b60405180910390f35b6102e460048036038101906102df9190611e9c565b610fe9565b6040516102f19190612530565b60405180910390f35b6103026111a4565b60405161030f9190611e14565b60405180910390f35b6103206111aa565b60405161032d9190611e14565b60405180910390f35b61033e6111b0565b60405161034b9190611e14565b60405180910390f35b61036e60048036038101906103699190611e2f565b6111bc565b005b60006103dc858561038090612552565b8585808060200260200160405190810160405280939291908181526020016000905b828210156103d2578484839050608002018036038101906103c39190612565565b815260200190600101906103a2565b50505050506112b4565b50949350505050565b60006005600084815260200190815260200160002060008373ffffffffffffffffffffffffffffffffffffffff1673ffffffffffffffffffffffffffffffffffffffff16815260200190815260200160002060020160109054906101000a90046fffffffffffffffffffffffffffffffff166fffffffffffffffffffffffffffffffff164210610528576005600084815260200190815260200160002060008373ffffffffffffffffffffffffffffffffffffffff1673ffffffffffffffffffffffffffffffffffffffff168152602001908152602001600020600101546005600085815260200190815260200160002060008473ffffffffffffffffffffffffffffffffffffffff1673ffffffffffffffffffffffffffffffffffffffff1681526020019081526020016000206000015461052191906125c1565b90506107b2565b60006005600085815260200190815260200160002060008473ffffffffffffffffffffffffffffffffffffffff1673ffffffffffffffffffffffffffffffffffffffff16815260200190815260200160002060020160009054906101000a90046fffffffffffffffffffffffffffffffff166fffffffffffffffffffffffffffffffff16426105b791906125c1565b905060006005600086815260200190815260200160002060008573ffffffffffffffffffffffffffffffffffffffff1673ffffffffffffffffffffffffffffffffffffffff16815260200190815260200160002060020160009054906101000a90046fffffffffffffffffffffffffffffffff166005600087815260200190815260200160002060008673ffffffffffffffffffffffffffffffffffffffff1673ffffffffffffffffffffffffffffffffffffffff16815260200190815260200160002060020160109054906101000a90046fffffffffffffffffffffffffffffffff166106a591906125f5565b6fffffffffffffffffffffffffffffffff1690506000670de0b6b3a7640000826106cf9190612629565b670de0b6b3a764000084600560008a815260200190815260200160002060008973ffffffffffffffffffffffffffffffffffffffff1673ffffffffffffffffffffffffffffffffffffffff168152602001908152602001600020600001546107379190612629565b6107419190612629565b61074b91906126b2565b90506005600087815260200190815260200160002060008673ffffffffffffffffffffffffffffffffffffffff1673ffffffffffffffffffffffffffffffffffffffff16815260200190815260200160002060010154816107ac91906125c1565b93505050505b92915050565b6000600360009054906101000a900473ffffffffffffffffffffffffffffffffffffffff1673ffffffffffffffffffffffffffffffffffffffff168273ffffffffffffffffffffffffffffffffffffffff1614156108845760076000600360009054906101000a900473ffffffffffffffffffffffffffffffffffffffff1673ffffffffffffffffffffffffffffffffffffffff1673ffffffffffffffffffffffffffffffffffffffff168152602001908152602001600020544761087d91906125c1565b905061094b565b600760008373ffffffffffffffffffffffffffffffffffffffff1673ffffffffffffffffffffffffffffffffffffffff168152602001908152602001600020548273ffffffffffffffffffffffffffffffffffffffff166370a08231306040518263ffffffff1660e01b81526004016108fd9190611ed8565b602060405180830381865afa15801561091a573d6000803e3d6000fd5b505050506040513d601f19601f8201168201806040525081019061093e91906126f8565b61094891906125c1565b90505b919050565b60008061095d84336103e5565b9050828110156109a2576040517f08c379a000000000000000000000000000000000000000000000000000000000815260040161099990612782565b60405180910390fd5b6109ac84846117a6565b50600191505092915050565b6109c0611a16565b73ffffffffffffffffffffffffffffffffffffffff166109de610d13565b73ffffffffffffffffffffffffffffffffffffffff1614610a34576040517f08c379a0000000000000000000000000000000000000000000000000000000008152600401610a2b906127ee565b60405180910390fd5b670de0b6b3a7640000811115610a7f576040517f08c379a0000000000000000000000000000000000000000000000000000000008152600401610a769061285a565b60405180910390fd5b8060018190555050565b610a91611a16565b73ffffffffffffffffffffffffffffffffffffffff16610aaf610d13565b73ffffffffffffffffffffffffffffffffffffffff1614610b05576040517f08c379a0000000000000000000000000000000000000000000000000000000008152600401610afc906127ee565b60405180910390fd5b610b0f6000611a1e565b565b610b19611a16565b73ffffffffffffffffffffffffffffffffffffffff16610b37610d13565b73ffffffffffffffffffffffffffffffffffffffff1614610b8d576040517f08c379a0000000000000000000000000000000000000000000000000000000008152600401610b84906127ee565b60405180910390fd5b8160076000600360009054906101000a900473ffffffffffffffffffffffffffffffffffffffff1673ffffffffffffffffffffffffffffffffffffffff1673ffffffffffffffffffffffffffffffffffffffff1681526020019081526020016000205447610bfb91906125c1565b1015610c3c576040517f08c379a0000000000000000000000000000000000000000000000000000000008152600401610c33906128c6565b60405180910390fd5b60008173ffffffffffffffffffffffffffffffffffffffff1683604051610c6290612917565b60006040518083038185875af1925050503d8060008114610c9f576040519150601f19603f3d011682016040523d82523d6000602084013e610ca4565b606091505b5050905080610ce8576040517f08c379a0000000000000000000000000000000000000000000000000000000008152600401610cdf90612978565b60405180910390fd5b505050565b600360009054906101000a900473ffffffffffffffffffffffffffffffffffffffff1681565b60008060009054906101000a900473ffffffffffffffffffffffffffffffffffffffff16905090565b6000610d4b8686868686611ae2565b886000019073ffffffffffffffffffffffffffffffffffffffff16908173ffffffffffffffffffffffffffffffffffffffff1681525050610d8d8989896112b4565b5098975050505050505050565b610da2611a16565b73ffffffffffffffffffffffffffffffffffffffff16610dc0610d13565b73ffffffffffffffffffffffffffffffffffffffff1614610e16576040517f08c379a0000000000000000000000000000000000000000000000000000000008152600401610e0d906127ee565b60405180910390fd5b81600760008573ffffffffffffffffffffffffffffffffffffffff1673ffffffffffffffffffffffffffffffffffffffff168152602001908152602001600020548473ffffffffffffffffffffffffffffffffffffffff166370a08231306040518263ffffffff1660e01b8152600401610e909190611ed8565b602060405180830381865afa158015610ead573d6000803e3d6000fd5b505050506040513d601f19601f82011682018060405250810190610ed191906126f8565b610edb91906125c1565b1015610f1c576040517f08c379a0000000000000000000000000000000000000000000000000000000008152600401610f13906128c6565b60405180910390fd5b8273ffffffffffffffffffffffffffffffffffffffff1663a9059cbb82846040518363ffffffff1660e01b8152600401610f57929190612998565b6020604051808303816000875af1158015610f76573d6000803e3d6000fd5b505050506040513d601f19601f82011682018060405250810190610f9a91906129ed565b50505050565b6000600760008373ffffffffffffffffffffffffffffffffffffffff1673ffffffffffffffffffffffffffffffffffffffff168152602001908152602001600020549050919050565b610ff1611af0565b60008211610ffe57600080fd5b60025482111561100d57600080fd5b600460008381526020019081526020016000206040518060600160405290816000820160009054906101000a900473ffffffffffffffffffffffffffffffffffffffff1673ffffffffffffffffffffffffffffffffffffffff1673ffffffffffffffffffffffffffffffffffffffff1681526020016001820180548060200260200160405190810160405280929190818152602001828054801561110657602002820191906000526020600020905b8160009054906101000a900473ffffffffffffffffffffffffffffffffffffffff1673ffffffffffffffffffffffffffffffffffffffff16815260200190600101908083116110bc575b505050505081526020016002820180548060200260200160405190810160405280929190818152602001828054801561119457602002820191906000526020600020905b8160009054906101000a900473ffffffffffffffffffffffffffffffffffffffff1673ffffffffffffffffffffffffffffffffffffffff168152602001906001019080831161114a575b5050505050815250509050919050565b60015481565b60025481565b670de0b6b3a764000081565b6111c4611a16565b73ffffffffffffffffffffffffffffffffffffffff166111e2610d13565b73ffffffffffffffffffffffffffffffffffffffff1614611238576040517f08c379a000000000000000000000000000000000000000000000000000000000815260040161122f906127ee565b60405180910390fd5b600073ffffffffffffffffffffffffffffffffffffffff168173ffffffffffffffffffffffffffffffffffffffff1614156112a8576040517f08c379a000000000000000000000000000000000000000000000000000000000815260040161129f90612a8c565b60405180910390fd5b6112b181611a1e565b50565b60008073ffffffffffffffffffffffffffffffffffffffff16836000015173ffffffffffffffffffffffffffffffffffffffff161415611329576040517f08c379a000000000000000000000000000000000000000000000000000000000815260040161132090612af8565b60405180910390fd5b6000841161136c576040517f08c379a000000000000000000000000000000000000000000000000000000000815260040161136390612b64565b60405180910390fd5b6000836040015151116113b4576040517f08c379a00000000000000000000000000000000000000000000000000000000081526004016113ab90612bd0565b60405180910390fd5b8151836040015151146113fc576040517f08c379a00000000000000000000000000000000000000000000000000000000081526004016113f390612c3c565b60405180910390fd5b6000805b83518110156114485783818151811061141c5761141b612c5c565b5b602002602001015160000151826114339190612c8b565b9150808061144090612ce1565b915050611400565b5084811461148b576040517f08c379a000000000000000000000000000000000000000000000000000000000815260040161148290612d76565b60405180910390fd5b836000015173ffffffffffffffffffffffffffffffffffffffff166323b872dd3330886040518463ffffffff1660e01b81526004016114cc93929190612d96565b6020604051808303816000875af11580156114eb573d6000803e3d6000fd5b505050506040513d601f19601f8201168201806040525081019061150f91906129ed565b61154e576040517f08c379a000000000000000000000000000000000000000000000000000000000815260040161154590612e19565b60405180910390fd5b6002600081548092919061156190612ce1565b91905055508360046000600254815260200190815260200160002060008201518160000160006101000a81548173ffffffffffffffffffffffffffffffffffffffff021916908373ffffffffffffffffffffffffffffffffffffffff16021790555060208201518160010190805190602001906115df929190611b27565b5060408201518160020190805190602001906115fc929190611b27565b5090505060005b835181101561173f5783818151811061161f5761161e612c5c565b5b602002602001015160056000600254815260200190815260200160002060008760400151848151811061165557611654612c5c565b5b602002602001015173ffffffffffffffffffffffffffffffffffffffff1673ffffffffffffffffffffffffffffffffffffffff168152602001908152602001600020600082015181600001556020820151816001015560408201518160020160006101000a8154816fffffffffffffffffffffffffffffffff02191690836fffffffffffffffffffffffffffffffff16021790555060608201518160020160106101000a8154816fffffffffffffffffffffffffffffffff02191690836fffffffffffffffffffffffffffffffff160217905550905050808061173790612ce1565b915050611603565b508460076000866000015173ffffffffffffffffffffffffffffffffffffffff1673ffffffffffffffffffffffffffffffffffffffff16815260200190815260200160002060008282546117939190612c8b565b9250508190555060019150509392505050565b60008060009050826005600086815260200190815260200160002060003373ffffffffffffffffffffffffffffffffffffffff1673ffffffffffffffffffffffffffffffffffffffff16815260200190815260200160002060010160008282546118109190612c8b565b92505081905550600360009054906101000a900473ffffffffffffffffffffffffffffffffffffffff1673ffffffffffffffffffffffffffffffffffffffff166004600086815260200190815260200160002060000160009054906101000a900473ffffffffffffffffffffffffffffffffffffffff1673ffffffffffffffffffffffffffffffffffffffff161415611914573373ffffffffffffffffffffffffffffffffffffffff16836040516118c790612917565b60006040518083038185875af1925050503d8060008114611904576040519150601f19603f3d011682016040523d82523d6000602084013e611909565b606091505b5050809150506119cb565b6004600085815260200190815260200160002060000160009054906101000a900473ffffffffffffffffffffffffffffffffffffffff1673ffffffffffffffffffffffffffffffffffffffff1663a9059cbb33856040518363ffffffff1660e01b8152600401611985929190612998565b6020604051808303816000875af11580156119a4573d6000803e3d6000fd5b505050506040513d601f19601f820116820180604052508101906119c891906129ed565b90505b80611a0b576040517f08c379a0000000000000000000000000000000000000000000000000000000008152600401611a0290612e85565b60405180910390fd5b600191505092915050565b600033905090565b60008060009054906101000a900473ffffffffffffffffffffffffffffffffffffffff169050816000806101000a81548173ffffffffffffffffffffffffffffffffffffffff021916908373ffffffffffffffffffffffffffffffffffffffff1602179055508173ffffffffffffffffffffffffffffffffffffffff168173ffffffffffffffffffffffffffffffffffffffff167f8be0079c531659141344cd1fd0a4f28419497f9722a3daafe3b4186f6b6457e060405160405180910390a35050565b600030905095945050505050565b6040518060600160405280600073ffffffffffffffffffffffffffffffffffffffff16815260200160608152602001606081525090565b828054828255906000526020600020908101928215611ba0579160200282015b82811115611b9f5782518260006101000a81548173ffffffffffffffffffffffffffffffffffffffff021916908373ffffffffffffffffffffffffffffffffffffffff16021790555091602001919060010190611b47565b5b509050611bad9190611bb1565b5090565b5b80821115611bca576000816000905550600101611bb2565b5090565b6000604051905090565b600080fd5b600080fd5b6000819050919050565b611bf581611be2565b8114611c0057600080fd5b50565b600081359050611c1281611bec565b92915050565b600080fd5b600060608284031215611c3357611c32611c18565b5b81905092915050565b600080fd5b600080fd5b600080fd5b60008083601f840112611c6157611c60611c3c565b5b8235905067ffffffffffffffff811115611c7e57611c7d611c41565b5b602083019150836080820283011115611c9a57611c99611c46565b5b9250929050565b60008060008060608587031215611cbb57611cba611bd8565b5b6000611cc987828801611c03565b945050602085013567ffffffffffffffff811115611cea57611ce9611bdd565b5b611cf687828801611c1d565b935050604085013567ffffffffffffffff811115611d1757611d16611bdd565b5b611d2387828801611c4b565b925092505092959194509250565b60008115159050919050565b611d4681611d31565b82525050565b6000602082019050611d616000830184611d3d565b92915050565b600073ffffffffffffffffffffffffffffffffffffffff82169050919050565b6000611d9282611d67565b9050919050565b611da281611d87565b8114611dad57600080fd5b50565b600081359050611dbf81611d99565b92915050565b60008060408385031215611ddc57611ddb611bd8565b5b6000611dea85828601611c03565b9250506020611dfb85828601611db0565b9150509250929050565b611e0e81611be2565b82525050565b6000602082019050611e296000830184611e05565b92915050565b600060208284031215611e4557611e44611bd8565b5b6000611e5384828501611db0565b91505092915050565b60008060408385031215611e7357611e72611bd8565b5b6000611e8185828601611c03565b9250506020611e9285828601611c03565b9150509250929050565b600060208284031215611eb257611eb1611bd8565b5b6000611ec084828501611c03565b91505092915050565b611ed281611d87565b82525050565b6000602082019050611eed6000830184611ec9565b92915050565b600080fd5b6000601f19601f8301169050919050565b7f4e487b7100000000000000000000000000000000000000000000000000000000600052604160045260246000fd5b611f4182611ef8565b810181811067ffffffffffffffff82111715611f6057611f5f611f09565b5b80604052505050565b6000611f73611bce565b9050611f7f8282611f38565b919050565b600080fd5b600067ffffffffffffffff821115611fa457611fa3611f09565b5b602082029050602081019050919050565b6000611fc8611fc384611f89565b611f69565b90508083825260208201905060208402830185811115611feb57611fea611c46565b5b835b8181101561201457806120008882611db0565b845260208401935050602081019050611fed565b5050509392505050565b600082601f83011261203357612032611c3c565b5b8135612043848260208601611fb5565b91505092915050565b60006060828403121561206257612061611ef3565b5b61206c6060611f69565b9050600061207c84828501611db0565b600083015250602082013567ffffffffffffffff8111156120a05761209f611f84565b5b6120ac8482850161201e565b602083015250604082013567ffffffffffffffff8111156120d0576120cf611f84565b5b6120dc8482850161201e565b60408301525092915050565b600067ffffffffffffffff82111561210357612102611f09565b5b602082029050602081019050919050565b60006fffffffffffffffffffffffffffffffff82169050919050565b61213981612114565b811461214457600080fd5b50565b60008135905061215681612130565b92915050565b60006080828403121561217257612171611ef3565b5b61217c6080611f69565b9050600061218c84828501611c03565b60008301525060206121a084828501611c03565b60208301525060406121b484828501612147565b60408301525060606121c884828501612147565b60608301525092915050565b60006121e76121e2846120e8565b611f69565b9050808382526020820190506080840283018581111561220a57612209611c46565b5b835b81811015612233578061221f888261215c565b84526020840193505060808101905061220c565b5050509392505050565b600082601f83011261225257612251611c3c565b5b81356122628482602086016121d4565b91505092915050565b60008083601f84011261228157612280611c3c565b5b8235905067ffffffffffffffff81111561229e5761229d611c41565b5b6020830191508360018202830111156122ba576122b9611c46565b5b9250929050565b60008060008060008060008060c0898b0312156122e1576122e0611bd8565b5b60006122ef8b828c01611c03565b985050602089013567ffffffffffffffff8111156123105761230f611bdd565b5b61231c8b828c0161204c565b975050604089013567ffffffffffffffff81111561233d5761233c611bdd565b5b6123498b828c0161223d565b965050606089013567ffffffffffffffff81111561236a57612369611bdd565b5b6123768b828c0161226b565b9550955050608089013567ffffffffffffffff81111561239957612398611bdd565b5b6123a58b828c0161226b565b935093505060a06123b88b828c01611c03565b9150509295985092959890939650565b6000806000606084860312156123e1576123e0611bd8565b5b60006123ef86828701611db0565b935050602061240086828701611c03565b925050604061241186828701611db0565b9150509250925092565b61242481611d87565b82525050565b600081519050919050565b600082825260208201905092915050565b6000819050602082019050919050565b6000612462838361241b565b60208301905092915050565b6000602082019050919050565b60006124868261242a565b6124908185612435565b935061249b83612446565b8060005b838110156124cc5781516124b38882612456565b97506124be8361246e565b92505060018101905061249f565b5085935050505092915050565b60006060830160008301516124f1600086018261241b565b5060208301518482036020860152612509828261247b565b91505060408301518482036040860152612523828261247b565b9150508091505092915050565b6000602082019050818103600083015261254a81846124d9565b905092915050565b600061255e368361204c565b9050919050565b60006080828403121561257b5761257a611bd8565b5b60006125898482850161215c565b91505092915050565b7f4e487b7100000000000000000000000000000000000000000000000000000000600052601160045260246000fd5b60006125cc82611be2565b91506125d783611be2565b9250828210156125ea576125e9612592565b5b828203905092915050565b600061260082612114565b915061260b83612114565b92508282101561261e5761261d612592565b5b828203905092915050565b600061263482611be2565b915061263f83611be2565b9250817fffffffffffffffffffffffffffffffffffffffffffffffffffffffffffffffff048311821515161561267857612677612592565b5b828202905092915050565b7f4e487b7100000000000000000000000000000000000000000000000000000000600052601260045260246000fd5b60006126bd82611be2565b91506126c883611be2565b9250826126d8576126d7612683565b5b828204905092915050565b6000815190506126f281611bec565b92915050565b60006020828403121561270e5761270d611bd8565b5b600061271c848285016126e3565b91505092915050565b600082825260208201905092915050565b7f564553543a20574954484452415741424c4520544f4f204c4f57000000000000600082015250565b600061276c601a83612725565b915061277782612736565b602082019050919050565b6000602082019050818103600083015261279b8161275f565b9050919050565b7f4f776e61626c653a2063616c6c6572206973206e6f7420746865206f776e6572600082015250565b60006127d8602083612725565b91506127e3826127a2565b602082019050919050565b60006020820190508181036000830152612807816127cb565b9050919050565b7f564553543a20464545204d555354204245203c20313030250000000000000000600082015250565b6000612844601883612725565b915061284f8261280e565b602082019050919050565b6000602082019050818103600083015261287381612837565b9050919050565b7f564553543a20414d4f554e5420544f4f20484947480000000000000000000000600082015250565b60006128b0601583612725565b91506128bb8261287a565b602082019050919050565b600060208201905081810360008301526128df816128a3565b9050919050565b600081905092915050565b50565b60006129016000836128e6565b915061290c826128f1565b600082019050919050565b6000612922826128f4565b9150819050919050565b7f564553543a20455448205452414e53464552204641494c454400000000000000600082015250565b6000612962601983612725565b915061296d8261292c565b602082019050919050565b6000602082019050818103600083015261299181612955565b9050919050565b60006040820190506129ad6000830185611ec9565b6129ba6020830184611e05565b9392505050565b6129ca81611d31565b81146129d557600080fd5b50565b6000815190506129e7816129c1565b92915050565b600060208284031215612a0357612a02611bd8565b5b6000612a11848285016129d8565b91505092915050565b7f4f776e61626c653a206e6577206f776e657220697320746865207a65726f206160008201527f6464726573730000000000000000000000000000000000000000000000000000602082015250565b6000612a76602683612725565b9150612a8182612a1a565b604082019050919050565b60006020820190508181036000830152612aa581612a69565b9050919050565b7f564553543a205a45524f2041444452204e4f5420544f4b454e00000000000000600082015250565b6000612ae2601983612725565b9150612aed82612aac565b602082019050919050565b60006020820190508181036000830152612b1181612ad5565b9050919050565b7f564553543a2043414e4e4f542056455354203020414d4f554e54000000000000600082015250565b6000612b4e601a83612725565b9150612b5982612b18565b602082019050919050565b60006020820190508181036000830152612b7d81612b41565b9050919050565b7f564553543a204e4f20524543495049454e545300000000000000000000000000600082015250565b6000612bba601383612725565b9150612bc582612b84565b602082019050919050565b60006020820190508181036000830152612be981612bad565b9050919050565b7f564553543a2057524f4e47204143434f554e5453204152524159204c454e0000600082015250565b6000612c26601e83612725565b9150612c3182612bf0565b602082019050919050565b60006020820190508181036000830152612c5581612c19565b9050919050565b7f4e487b7100000000000000000000000000000000000000000000000000000000600052603260045260246000fd5b6000612c9682611be2565b9150612ca183611be2565b9250827fffffffffffffffffffffffffffffffffffffffffffffffffffffffffffffffff03821115612cd657612cd5612592565b5b828201905092915050565b6000612cec82611be2565b91507fffffffffffffffffffffffffffffffffffffffffffffffffffffffffffffffff821415612d1f57612d1e612592565b5b600182019050919050565b7f564553543a20414d4f554e545320444f4e542053554d20544f20544f54414c00600082015250565b6000612d60601f83612725565b9150612d6b82612d2a565b602082019050919050565b60006020820190508181036000830152612d8f81612d53565b9050919050565b6000606082019050612dab6000830186611ec9565b612db86020830185611ec9565b612dc56040830184611e05565b949350505050565b7f564553543a20544f4b454e205452414e53464552204641494c45440000000000600082015250565b6000612e03601b83612725565b9150612e0e82612dcd565b602082019050919050565b60006020820190508181036000830152612e3281612df6565b9050919050565b7f564553543a205749544844524157204641494c45440000000000000000000000600082015250565b6000612e6f601583612725565b9150612e7a82612e39565b602082019050919050565b60006020820190508181036000830152612e9e81612e62565b905091905056fea26469706673582212205515ea1a4dd96ddc0b6147d8c08904c8beb73ece50cd0171d436d45ffcdb02fd64736f6c634300080a0033",
  "linkReferences": {},
  "deployedLinkReferences": {}
}