{
  "_format": "hh-sol-artifact-1",
  "contractName": "VestCore",
  "sourceName": "contracts/VestCore.sol",
  "abi": [
    {
      "inputs": [],
      "stateMutability": "nonpayable",
      "type": "constructor"
    },
    {
      "anonymous": false,
      "inputs": [
        {
          "indexed": true,
          "internalType": "address",
          "name": "previousOwner",
          "type": "address"
        },
        {
          "indexed": true,
          "internalType": "address",
          "name": "newOwner",
          "type": "address"
        }
      ],
      "name": "OwnershipTransferred",
      "type": "event"
    },
    {
      "anonymous": false,
      "inputs": [
        {
          "indexed": false,
          "internalType": "uint256",
          "name": "vBoxID",
          "type": "uint256"
        },
        {
          "indexed": false,
          "internalType": "address",
          "name": "token",
          "type": "address"
        },
        {
          "indexed": false,
          "internalType": "address",
          "name": "creator",
          "type": "address"
        }
      ],
      "name": "VestingBoxCreated",
      "type": "event"
    },
    {
      "inputs": [],
      "name": "ETH",
      "outputs": [
        {
          "internalType": "address",
          "name": "",
          "type": "address"
        }
      ],
      "stateMutability": "view",
      "type": "function"
    },
    {
      "inputs": [],
      "name": "SCALE",
      "outputs": [
        {
          "internalType": "uint256",
          "name": "",
          "type": "uint256"
        }
      ],
      "stateMutability": "view",
      "type": "function"
    },
    {
      "inputs": [
        {
          "internalType": "address",
          "name": "_token",
          "type": "address"
        },
        {
          "internalType": "uint256",
          "name": "_totalAmount",
          "type": "uint256"
        },
        {
          "internalType": "address[]",
          "name": "_recipients",
          "type": "address[]"
        },
        {
          "internalType": "uint256[]",
          "name": "_amounts",
          "type": "uint256[]"
        },
        {
          "internalType": "uint256[]",
          "name": "_startTimes",
          "type": "uint256[]"
        },
        {
          "internalType": "uint256[]",
          "name": "_endTimes",
          "type": "uint256[]"
        }
      ],
      "name": "createVestingBoxWithExistingToken",
      "outputs": [
        {
          "internalType": "bool",
          "name": "success",
          "type": "bool"
        }
      ],
      "stateMutability": "nonpayable",
      "type": "function"
    },
    {
      "inputs": [],
      "name": "fee",
      "outputs": [
        {
          "internalType": "uint256",
          "name": "",
          "type": "uint256"
        }
      ],
      "stateMutability": "view",
      "type": "function"
    },
    {
      "inputs": [
        {
          "internalType": "address",
          "name": "_token",
          "type": "address"
        }
      ],
      "name": "getProtocolFeesEarned",
      "outputs": [
        {
          "internalType": "uint256",
          "name": "",
          "type": "uint256"
        }
      ],
      "stateMutability": "view",
      "type": "function"
    },
    {
      "inputs": [
        {
          "internalType": "uint256",
          "name": "_vestingBoxId",
          "type": "uint256"
        }
      ],
      "name": "getVestingBox",
      "outputs": [
        {
          "components": [
            {
              "internalType": "address",
              "name": "token",
              "type": "address"
            },
            {
              "internalType": "address[]",
              "name": "recipients",
              "type": "address[]"
            },
            {
              "internalType": "uint256[]",
              "name": "amounts",
              "type": "uint256[]"
            },
            {
              "internalType": "uint256[]",
              "name": "withdrawn",
              "type": "uint256[]"
            },
            {
              "internalType": "uint256[]",
              "name": "startTimes",
              "type": "uint256[]"
            },
            {
              "internalType": "uint256[]",
              "name": "endTimes",
              "type": "uint256[]"
            }
          ],
          "internalType": "struct VestCore.VestingBox",
          "name": "vestingBox",
          "type": "tuple"
        }
      ],
      "stateMutability": "view",
      "type": "function"
    },
    {
      "inputs": [],
      "name": "owner",
      "outputs": [
        {
          "internalType": "address",
          "name": "",
          "type": "address"
        }
      ],
      "stateMutability": "view",
      "type": "function"
    },
    {
      "inputs": [],
      "name": "renounceOwnership",
      "outputs": [],
      "stateMutability": "nonpayable",
      "type": "function"
    },
    {
      "inputs": [
        {
          "internalType": "address",
          "name": "newOwner",
          "type": "address"
        }
      ],
      "name": "transferOwnership",
      "outputs": [],
      "stateMutability": "nonpayable",
      "type": "function"
    },
    {
      "inputs": [],
      "name": "vBoxCount",
      "outputs": [
        {
          "internalType": "uint256",
          "name": "",
          "type": "uint256"
        }
      ],
      "stateMutability": "view",
      "type": "function"
    },
    {
      "inputs": [
        {
          "internalType": "uint256",
          "name": "_amount",
          "type": "uint256"
        },
        {
          "internalType": "address",
          "name": "_to",
          "type": "address"
        }
      ],
      "name": "withdrawETHFees",
      "outputs": [],
      "stateMutability": "nonpayable",
      "type": "function"
    },
    {
      "inputs": [
        {
          "internalType": "address",
          "name": "_token",
          "type": "address"
        },
        {
          "internalType": "uint256",
          "name": "_amount",
          "type": "uint256"
        },
        {
          "internalType": "address",
          "name": "_to",
          "type": "address"
        }
      ],
      "name": "withdrawTokenFees",
      "outputs": [],
      "stateMutability": "nonpayable",
      "type": "function"
    }
  ],
  "bytecode": "0x608060405266038d7ea4c68000600155600060025573eeeeeeeeeeeeeeeeeeeeeeeeeeeeeeeeeeeeeeee600360006101000a81548173ffffffffffffffffffffffffffffffffffffffff021916908373ffffffffffffffffffffffffffffffffffffffff16021790555034801561007557600080fd5b5061009261008761009760201b60201c565b61009f60201b60201c565b610163565b600033905090565b60008060009054906101000a900473ffffffffffffffffffffffffffffffffffffffff169050816000806101000a81548173ffffffffffffffffffffffffffffffffffffffff021916908373ffffffffffffffffffffffffffffffffffffffff1602179055508173ffffffffffffffffffffffffffffffffffffffff168173ffffffffffffffffffffffffffffffffffffffff167f8be0079c531659141344cd1fd0a4f28419497f9722a3daafe3b4186f6b6457e060405160405180910390a35050565b6121bc80620001736000396000f3fe608060405234801561001057600080fd5b50600436106100b45760003560e01c806395be54981161007157806395be54981461017b578063c68482a714610197578063ddca3f43146101c7578063e9b3663e146101e5578063eced552614610203578063f2fde38b14610221576100b4565b80634a918a0c146100b95780634be887de146100e9578063715018a61461011957806371b4e6e7146101235780638322fff21461013f5780638da5cb5b1461015d575b600080fd5b6100d360048036038101906100ce9190611425565b61023d565b6040516100e0919061146b565b60405180910390f35b61010360048036038101906100fe919061156d565b610286565b6040516101109190611698565b60405180910390f35b61012161097d565b005b61013d600480360381019061013891906116b3565b610a05565b005b610147610bed565b6040516101549190611702565b60405180910390f35b610165610c13565b6040516101729190611702565b60405180910390f35b6101956004803603810190610190919061171d565b610c3c565b005b6101b160048036038101906101ac9190611770565b610e14565b6040516101be91906119be565b60405180910390f35b6101cf6110a1565b6040516101dc919061146b565b60405180910390f35b6101ed6110a7565b6040516101fa919061146b565b60405180910390f35b61020b6110ad565b604051610218919061146b565b60405180910390f35b61023b60048036038101906102369190611425565b6110b9565b005b6000600660008373ffffffffffffffffffffffffffffffffffffffff1673ffffffffffffffffffffffffffffffffffffffff168152602001908152602001600020549050919050565b600080898990509050600073ffffffffffffffffffffffffffffffffffffffff168c73ffffffffffffffffffffffffffffffffffffffff1614156102ff576040517f08c379a00000000000000000000000000000000000000000000000000000000081526004016102f690611a3d565b60405180910390fd5b60008b11610342576040517f08c379a000000000000000000000000000000000000000000000000000000000815260040161033990611aa9565b60405180910390fd5b60008111610385576040517f08c379a000000000000000000000000000000000000000000000000000000000815260040161037c90611b15565b60405180910390fd5b8787905081146103ca576040517f08c379a00000000000000000000000000000000000000000000000000000000081526004016103c190611b81565b60405180910390fd5b85859050811461040f576040517f08c379a000000000000000000000000000000000000000000000000000000000815260040161040690611bed565b60405180910390fd5b838390508114610454576040517f08c379a000000000000000000000000000000000000000000000000000000000815260040161044b90611c59565b60405180910390fd5b6000805b8281101561049a5789898281811061047357610472611c79565b5b90506020020135826104859190611cd7565b9150808061049290611d2d565b915050610458565b508b81146104dd576040517f08c379a00000000000000000000000000000000000000000000000000000000081526004016104d490611dc2565b60405180910390fd5b8c73ffffffffffffffffffffffffffffffffffffffff166323b872dd33308f6040518463ffffffff1660e01b815260040161051a93929190611de2565b6020604051808303816000875af1158015610539573d6000803e3d6000fd5b505050506040513d601f19601f8201168201806040525081019061055d9190611e45565b61059c576040517f08c379a000000000000000000000000000000000000000000000000000000000815260040161059390611ebe565b60405180910390fd5b60006040518060c001604052808f73ffffffffffffffffffffffffffffffffffffffff1681526020018d8d80806020026020016040519081016040528093929190818152602001838360200280828437600081840152601f19601f8201169050808301925050505050505081526020018b8b80806020026020016040519081016040528093929190818152602001838360200280828437600081840152601f19601f8201169050808301925050505050505081526020018467ffffffffffffffff81111561066d5761066c611ede565b5b60405190808252806020026020018201604052801561069b5781602001602082028036833780820191505090505b508152602001898980806020026020016040519081016040528093929190818152602001838360200280828437600081840152601f19601f820116905080830192505050505050508152602001878780806020026020016040519081016040528093929190818152602001838360200280828437600081840152601f19601f8201169050808301925050505050505081525090506002600081548092919061074290611d2d565b91905055508060046000600254815260200190815260200160002060008201518160000160006101000a81548173ffffffffffffffffffffffffffffffffffffffff021916908373ffffffffffffffffffffffffffffffffffffffff16021790555060208201518160010190805190602001906107c092919061127d565b5060408201518160020190805190602001906107dd929190611307565b5060608201518160030190805190602001906107fa929190611307565b506080820151816004019080519060200190610817929190611307565b5060a0820151816005019080519060200190610834929190611307565b5090505060005b838110156109675760405180608001604052808c8c8481811061086157610860611c79565b5b905060200201358152602001600081526020018a8a8481811061088757610886611c79565b5b9050602002013581526020018888848181106108a6576108a5611c79565b5b9050602002013581525060056000600254815260200190815260200160002060008f8f858181106108da576108d9611c79565b5b90506020020160208101906108ef9190611425565b73ffffffffffffffffffffffffffffffffffffffff1673ffffffffffffffffffffffffffffffffffffffff16815260200190815260200160002060008201518160000155602082015181600101556040820151816002015560608201518160030155905050808061095f90611d2d565b91505061083b565b50600193505050509a9950505050505050505050565b6109856111b1565b73ffffffffffffffffffffffffffffffffffffffff166109a3610c13565b73ffffffffffffffffffffffffffffffffffffffff16146109f9576040517f08c379a00000000000000000000000000000000000000000000000000000000081526004016109f090611f59565b60405180910390fd5b610a0360006111b9565b565b610a0d6111b1565b73ffffffffffffffffffffffffffffffffffffffff16610a2b610c13565b73ffffffffffffffffffffffffffffffffffffffff1614610a81576040517f08c379a0000000000000000000000000000000000000000000000000000000008152600401610a7890611f59565b60405180910390fd5b81471015610ac4576040517f08c379a0000000000000000000000000000000000000000000000000000000008152600401610abb90611fc5565b60405180910390fd5b8160066000600360009054906101000a900473ffffffffffffffffffffffffffffffffffffffff1673ffffffffffffffffffffffffffffffffffffffff1673ffffffffffffffffffffffffffffffffffffffff1681526020019081526020016000206000828254610b359190611fe5565b9250508190555060008173ffffffffffffffffffffffffffffffffffffffff1683604051610b629061204a565b60006040518083038185875af1925050503d8060008114610b9f576040519150601f19603f3d011682016040523d82523d6000602084013e610ba4565b606091505b5050905080610be8576040517f08c379a0000000000000000000000000000000000000000000000000000000008152600401610bdf906120ab565b60405180910390fd5b505050565b600360009054906101000a900473ffffffffffffffffffffffffffffffffffffffff1681565b60008060009054906101000a900473ffffffffffffffffffffffffffffffffffffffff16905090565b610c446111b1565b73ffffffffffffffffffffffffffffffffffffffff16610c62610c13565b73ffffffffffffffffffffffffffffffffffffffff1614610cb8576040517f08c379a0000000000000000000000000000000000000000000000000000000008152600401610caf90611f59565b60405180910390fd5b81600660008573ffffffffffffffffffffffffffffffffffffffff1673ffffffffffffffffffffffffffffffffffffffff168152602001908152602001600020541015610d3a576040517f08c379a0000000000000000000000000000000000000000000000000000000008152600401610d3190611fc5565b60405180910390fd5b81600660008573ffffffffffffffffffffffffffffffffffffffff1673ffffffffffffffffffffffffffffffffffffffff1681526020019081526020016000206000828254610d899190611fe5565b925050819055508273ffffffffffffffffffffffffffffffffffffffff1663a9059cbb82846040518363ffffffff1660e01b8152600401610dcb9291906120cb565b6020604051808303816000875af1158015610dea573d6000803e3d6000fd5b505050506040513d601f19601f82011682018060405250810190610e0e9190611e45565b50505050565b610e1c611354565b60008211610e2957600080fd5b600254821115610e3857600080fd5b600460008381526020019081526020016000206040518060c00160405290816000820160009054906101000a900473ffffffffffffffffffffffffffffffffffffffff1673ffffffffffffffffffffffffffffffffffffffff1673ffffffffffffffffffffffffffffffffffffffff16815260200160018201805480602002602001604051908101604052809291908181526020018280548015610f3157602002820191906000526020600020905b8160009054906101000a900473ffffffffffffffffffffffffffffffffffffffff1673ffffffffffffffffffffffffffffffffffffffff1681526020019060010190808311610ee7575b5050505050815260200160028201805480602002602001604051908101604052809291908181526020018280548015610f8957602002820191906000526020600020905b815481526020019060010190808311610f75575b5050505050815260200160038201805480602002602001604051908101604052809291908181526020018280548015610fe157602002820191906000526020600020905b815481526020019060010190808311610fcd575b505050505081526020016004820180548060200260200160405190810160405280929190818152602001828054801561103957602002820191906000526020600020905b815481526020019060010190808311611025575b505050505081526020016005820180548060200260200160405190810160405280929190818152602001828054801561109157602002820191906000526020600020905b81548152602001906001019080831161107d575b5050505050815250509050919050565b60015481565b60025481565b670de0b6b3a764000081565b6110c16111b1565b73ffffffffffffffffffffffffffffffffffffffff166110df610c13565b73ffffffffffffffffffffffffffffffffffffffff1614611135576040517f08c379a000000000000000000000000000000000000000000000000000000000815260040161112c90611f59565b60405180910390fd5b600073ffffffffffffffffffffffffffffffffffffffff168173ffffffffffffffffffffffffffffffffffffffff1614156111a5576040517f08c379a000000000000000000000000000000000000000000000000000000000815260040161119c90612166565b60405180910390fd5b6111ae816111b9565b50565b600033905090565b60008060009054906101000a900473ffffffffffffffffffffffffffffffffffffffff169050816000806101000a81548173ffffffffffffffffffffffffffffffffffffffff021916908373ffffffffffffffffffffffffffffffffffffffff1602179055508173ffffffffffffffffffffffffffffffffffffffff168173ffffffffffffffffffffffffffffffffffffffff167f8be0079c531659141344cd1fd0a4f28419497f9722a3daafe3b4186f6b6457e060405160405180910390a35050565b8280548282559060005260206000209081019282156112f6579160200282015b828111156112f55782518260006101000a81548173ffffffffffffffffffffffffffffffffffffffff021916908373ffffffffffffffffffffffffffffffffffffffff1602179055509160200191906001019061129d565b5b50905061130391906113a0565b5090565b828054828255906000526020600020908101928215611343579160200282015b82811115611342578251825591602001919060010190611327565b5b50905061135091906113a0565b5090565b6040518060c00160405280600073ffffffffffffffffffffffffffffffffffffffff16815260200160608152602001606081526020016060815260200160608152602001606081525090565b5b808211156113b95760008160009055506001016113a1565b5090565b600080fd5b600080fd5b600073ffffffffffffffffffffffffffffffffffffffff82169050919050565b60006113f2826113c7565b9050919050565b611402816113e7565b811461140d57600080fd5b50565b60008135905061141f816113f9565b92915050565b60006020828403121561143b5761143a6113bd565b5b600061144984828501611410565b91505092915050565b6000819050919050565b61146581611452565b82525050565b6000602082019050611480600083018461145c565b92915050565b61148f81611452565b811461149a57600080fd5b50565b6000813590506114ac81611486565b92915050565b600080fd5b600080fd5b600080fd5b60008083601f8401126114d7576114d66114b2565b5b8235905067ffffffffffffffff8111156114f4576114f36114b7565b5b6020830191508360208202830111156115105761150f6114bc565b5b9250929050565b60008083601f84011261152d5761152c6114b2565b5b8235905067ffffffffffffffff81111561154a576115496114b7565b5b602083019150836020820283011115611566576115656114bc565b5b9250929050565b60008060008060008060008060008060c08b8d0312156115905761158f6113bd565b5b600061159e8d828e01611410565b9a505060206115af8d828e0161149d565b99505060408b013567ffffffffffffffff8111156115d0576115cf6113c2565b5b6115dc8d828e016114c1565b985098505060608b013567ffffffffffffffff8111156115ff576115fe6113c2565b5b61160b8d828e01611517565b965096505060808b013567ffffffffffffffff81111561162e5761162d6113c2565b5b61163a8d828e01611517565b945094505060a08b013567ffffffffffffffff81111561165d5761165c6113c2565b5b6116698d828e01611517565b92509250509295989b9194979a5092959850565b60008115159050919050565b6116928161167d565b82525050565b60006020820190506116ad6000830184611689565b92915050565b600080604083850312156116ca576116c96113bd565b5b60006116d88582860161149d565b92505060206116e985828601611410565b9150509250929050565b6116fc816113e7565b82525050565b600060208201905061171760008301846116f3565b92915050565b600080600060608486031215611736576117356113bd565b5b600061174486828701611410565b93505060206117558682870161149d565b925050604061176686828701611410565b9150509250925092565b600060208284031215611786576117856113bd565b5b60006117948482850161149d565b91505092915050565b6117a6816113e7565b82525050565b600081519050919050565b600082825260208201905092915050565b6000819050602082019050919050565b60006117e4838361179d565b60208301905092915050565b6000602082019050919050565b6000611808826117ac565b61181281856117b7565b935061181d836117c8565b8060005b8381101561184e57815161183588826117d8565b9750611840836117f0565b925050600181019050611821565b5085935050505092915050565b600081519050919050565b600082825260208201905092915050565b6000819050602082019050919050565b61189081611452565b82525050565b60006118a28383611887565b60208301905092915050565b6000602082019050919050565b60006118c68261185b565b6118d08185611866565b93506118db83611877565b8060005b8381101561190c5781516118f38882611896565b97506118fe836118ae565b9250506001810190506118df565b5085935050505092915050565b600060c083016000830151611931600086018261179d565b506020830151848203602086015261194982826117fd565b9150506040830151848203604086015261196382826118bb565b9150506060830151848203606086015261197d82826118bb565b9150506080830151848203608086015261199782826118bb565b91505060a083015184820360a08601526119b182826118bb565b9150508091505092915050565b600060208201905081810360008301526119d88184611919565b905092915050565b600082825260208201905092915050565b7f564553543a205a45524f2041444452204e4f5420544f4b454e00000000000000600082015250565b6000611a276019836119e0565b9150611a32826119f1565b602082019050919050565b60006020820190508181036000830152611a5681611a1a565b9050919050565b7f564553543a2043414e4e4f542056455354203020414d4f554e54000000000000600082015250565b6000611a93601a836119e0565b9150611a9e82611a5d565b602082019050919050565b60006020820190508181036000830152611ac281611a86565b9050919050565b7f564553543a204e4f20524543495049454e545300000000000000000000000000600082015250565b6000611aff6013836119e0565b9150611b0a82611ac9565b602082019050919050565b60006020820190508181036000830152611b2e81611af2565b9050919050565b7f564553543a2057524f4e4720414d4f554e5453204152524159204c454e475448600082015250565b6000611b6b6020836119e0565b9150611b7682611b35565b602082019050919050565b60006020820190508181036000830152611b9a81611b5e565b9050919050565b7f564553543a2057524f4e472053544152542054494d4553204c454e4754480000600082015250565b6000611bd7601e836119e0565b9150611be282611ba1565b602082019050919050565b60006020820190508181036000830152611c0681611bca565b9050919050565b7f564553543a2057524f4e4720454e442054494d4553204c454e47544800000000600082015250565b6000611c43601c836119e0565b9150611c4e82611c0d565b602082019050919050565b60006020820190508181036000830152611c7281611c36565b9050919050565b7f4e487b7100000000000000000000000000000000000000000000000000000000600052603260045260246000fd5b7f4e487b7100000000000000000000000000000000000000000000000000000000600052601160045260246000fd5b6000611ce282611452565b9150611ced83611452565b9250827fffffffffffffffffffffffffffffffffffffffffffffffffffffffffffffffff03821115611d2257611d21611ca8565b5b828201905092915050565b6000611d3882611452565b91507fffffffffffffffffffffffffffffffffffffffffffffffffffffffffffffffff821415611d6b57611d6a611ca8565b5b600182019050919050565b7f564553543a20414d4f554e545320444f4e542053554d20544f20544f54414c00600082015250565b6000611dac601f836119e0565b9150611db782611d76565b602082019050919050565b60006020820190508181036000830152611ddb81611d9f565b9050919050565b6000606082019050611df760008301866116f3565b611e0460208301856116f3565b611e11604083018461145c565b949350505050565b611e228161167d565b8114611e2d57600080fd5b50565b600081519050611e3f81611e19565b92915050565b600060208284031215611e5b57611e5a6113bd565b5b6000611e6984828501611e30565b91505092915050565b7f564553543a20544f4b454e205452414e53464552204641494c45440000000000600082015250565b6000611ea8601b836119e0565b9150611eb382611e72565b602082019050919050565b60006020820190508181036000830152611ed781611e9b565b9050919050565b7f4e487b7100000000000000000000000000000000000000000000000000000000600052604160045260246000fd5b7f4f776e61626c653a2063616c6c6572206973206e6f7420746865206f776e6572600082015250565b6000611f436020836119e0565b9150611f4e82611f0d565b602082019050919050565b60006020820190508181036000830152611f7281611f36565b9050919050565b7f564553543a20414d4f554e5420544f4f20484947480000000000000000000000600082015250565b6000611faf6015836119e0565b9150611fba82611f79565b602082019050919050565b60006020820190508181036000830152611fde81611fa2565b9050919050565b6000611ff082611452565b9150611ffb83611452565b92508282101561200e5761200d611ca8565b5b828203905092915050565b600081905092915050565b50565b6000612034600083612019565b915061203f82612024565b600082019050919050565b600061205582612027565b9150819050919050565b7f564553543a20455448205452414e53464552204641494c454400000000000000600082015250565b60006120956019836119e0565b91506120a08261205f565b602082019050919050565b600060208201905081810360008301526120c481612088565b9050919050565b60006040820190506120e060008301856116f3565b6120ed602083018461145c565b9392505050565b7f4f776e61626c653a206e6577206f776e657220697320746865207a65726f206160008201527f6464726573730000000000000000000000000000000000000000000000000000602082015250565b60006121506026836119e0565b915061215b826120f4565b604082019050919050565b6000602082019050818103600083015261217f81612143565b905091905056fea2646970667358221220d2e24ac46f76ca60ff48d0ddfc9d03b11be44f4de69445f83092f7558c1016e264736f6c634300080a0033",
  "linkReferences": {},
  "deployedLinkReferences": {}
}