{
  "_format": "hh-sol-artifact-1",
  "contractName": "VestCore",
  "sourceName": "contracts/VestCore.sol",
  "abi": [
    {
      "inputs": [],
      "stateMutability": "nonpayable",
      "type": "constructor"
    },
    {
      "anonymous": false,
      "inputs": [
        {
          "indexed": true,
          "internalType": "uint256",
          "name": "vBoxID",
          "type": "uint256"
        },
        {
          "indexed": true,
          "internalType": "address",
          "name": "account",
          "type": "address"
        },
        {
          "indexed": false,
          "internalType": "uint256",
          "name": "amount",
          "type": "uint256"
        },
        {
          "indexed": false,
          "internalType": "uint128",
          "name": "startTime",
          "type": "uint128"
        },
        {
          "indexed": false,
          "internalType": "uint128",
          "name": "endTime",
          "type": "uint128"
        }
      ],
      "name": "AccountAddedToVestingBox",
      "type": "event"
    },
    {
      "anonymous": false,
      "inputs": [
        {
          "indexed": true,
          "internalType": "uint256",
          "name": "vBoxID",
          "type": "uint256"
        },
        {
          "indexed": true,
          "internalType": "address",
          "name": "account",
          "type": "address"
        },
        {
          "indexed": false,
          "internalType": "uint256",
          "name": "amountVested",
          "type": "uint256"
        },
        {
          "indexed": false,
          "internalType": "uint256",
          "name": "amountForfeited",
          "type": "uint256"
        }
      ],
      "name": "AccountRemovedFromVestingBox",
      "type": "event"
    },
    {
      "anonymous": false,
      "inputs": [
        {
          "indexed": false,
          "internalType": "address",
          "name": "tokenAddress",
          "type": "address"
        }
      ],
      "name": "ERC20Created",
      "type": "event"
    },
    {
      "anonymous": false,
      "inputs": [
        {
          "indexed": false,
          "internalType": "uint256",
          "name": "oldFee",
          "type": "uint256"
        },
        {
          "indexed": false,
          "internalType": "uint256",
          "name": "newFee",
          "type": "uint256"
        }
      ],
      "name": "FeeChanged",
      "type": "event"
    },
    {
      "anonymous": false,
      "inputs": [
        {
          "indexed": false,
          "internalType": "address",
          "name": "token",
          "type": "address"
        },
        {
          "indexed": false,
          "internalType": "uint256",
          "name": "feesEarned",
          "type": "uint256"
        }
      ],
      "name": "FeesEarned",
      "type": "event"
    },
    {
      "anonymous": false,
      "inputs": [
        {
          "indexed": false,
          "internalType": "address",
          "name": "token",
          "type": "address"
        },
        {
          "indexed": false,
          "internalType": "uint256",
          "name": "feesWithdrawn",
          "type": "uint256"
        },
        {
          "indexed": false,
          "internalType": "address",
          "name": "_to",
          "type": "address"
        }
      ],
      "name": "FeesWithdrawn",
      "type": "event"
    },
    {
      "anonymous": false,
      "inputs": [
        {
          "indexed": true,
          "internalType": "address",
          "name": "previousOwner",
          "type": "address"
        },
        {
          "indexed": true,
          "internalType": "address",
          "name": "newOwner",
          "type": "address"
        }
      ],
      "name": "OwnershipTransferred",
      "type": "event"
    },
    {
      "anonymous": false,
      "inputs": [
        {
          "indexed": true,
          "internalType": "uint256",
          "name": "vBoxID",
          "type": "uint256"
        },
        {
          "indexed": true,
          "internalType": "address",
          "name": "token",
          "type": "address"
        },
        {
          "indexed": false,
          "internalType": "uint256",
          "name": "amountClaimed",
          "type": "uint256"
        },
        {
          "indexed": false,
          "internalType": "address",
          "name": "recipient",
          "type": "address"
        }
      ],
      "name": "VestedTokensClaimed",
      "type": "event"
    },
    {
      "anonymous": false,
      "inputs": [
        {
          "indexed": true,
          "internalType": "uint256",
          "name": "vBoxID",
          "type": "uint256"
        },
        {
          "indexed": false,
          "internalType": "address",
          "name": "account",
          "type": "address"
        },
        {
          "indexed": false,
          "internalType": "bool",
          "name": "isAdmin",
          "type": "bool"
        }
      ],
      "name": "VestingBoxAdminSet",
      "type": "event"
    },
    {
      "anonymous": false,
      "inputs": [
        {
          "indexed": true,
          "internalType": "uint256",
          "name": "vBoxID",
          "type": "uint256"
        },
        {
          "indexed": true,
          "internalType": "address",
          "name": "token",
          "type": "address"
        },
        {
          "indexed": false,
          "internalType": "address",
          "name": "creator",
          "type": "address"
        },
        {
          "indexed": false,
          "internalType": "uint256",
          "name": "totalBoxAmount",
          "type": "uint256"
        }
      ],
      "name": "VestingBoxCreated",
      "type": "event"
    },
    {
      "inputs": [],
      "name": "ETH",
      "outputs": [
        {
          "internalType": "address",
          "name": "",
          "type": "address"
        }
      ],
      "stateMutability": "view",
      "type": "function"
    },
    {
      "inputs": [],
      "name": "SCALE",
      "outputs": [
        {
          "internalType": "uint256",
          "name": "",
          "type": "uint256"
        }
      ],
      "stateMutability": "view",
      "type": "function"
    },
    {
      "inputs": [
        {
          "internalType": "uint256",
          "name": "_vBoxId",
          "type": "uint256"
        },
        {
          "internalType": "address",
          "name": "_recipient",
          "type": "address"
        },
        {
          "components": [
            {
              "internalType": "uint256",
              "name": "amount",
              "type": "uint256"
            },
            {
              "internalType": "uint256",
              "name": "withdrawn",
              "type": "uint256"
            },
            {
              "internalType": "uint128",
              "name": "startTime",
              "type": "uint128"
            },
            {
              "internalType": "uint128",
              "name": "endTime",
              "type": "uint128"
            }
          ],
          "internalType": "struct VestCore.VestingBoxAccount",
          "name": "_vBoxAccount",
          "type": "tuple"
        }
      ],
      "name": "addAccountToVestingBox",
      "outputs": [],
      "stateMutability": "nonpayable",
      "type": "function"
    },
    {
      "inputs": [
        {
          "internalType": "address",
          "name": "",
          "type": "address"
        }
      ],
      "name": "assetsHeldForVesting",
      "outputs": [
        {
          "internalType": "uint256",
          "name": "",
          "type": "uint256"
        }
      ],
      "stateMutability": "view",
      "type": "function"
    },
    {
      "inputs": [
        {
          "internalType": "uint256",
          "name": "_beforeFeeAmount",
          "type": "uint256"
        }
      ],
      "name": "calcAfterFeeAmount",
      "outputs": [
        {
          "internalType": "uint256",
          "name": "",
          "type": "uint256"
        }
      ],
      "stateMutability": "view",
      "type": "function"
    },
    {
      "inputs": [
        {
          "internalType": "uint256",
          "name": "_afterFeeAmount",
          "type": "uint256"
        }
      ],
      "name": "calcBeforeFeeAmount",
      "outputs": [
        {
          "internalType": "uint256",
          "name": "",
          "type": "uint256"
        }
      ],
      "stateMutability": "view",
      "type": "function"
    },
    {
      "inputs": [
        {
          "internalType": "uint256",
          "name": "_vBoxId",
          "type": "uint256"
        },
        {
          "internalType": "uint256",
          "name": "_amountClaimedAfterFee",
          "type": "uint256"
        }
      ],
      "name": "claimVestedTokens",
      "outputs": [
        {
          "internalType": "bool",
          "name": "",
          "type": "bool"
        }
      ],
      "stateMutability": "nonpayable",
      "type": "function"
    },
    {
      "inputs": [
        {
          "internalType": "uint256",
          "name": "_totalAmount",
          "type": "uint256"
        },
        {
          "components": [
            {
              "internalType": "address",
              "name": "token",
              "type": "address"
            },
            {
              "internalType": "address",
              "name": "creator",
              "type": "address"
            }
          ],
          "internalType": "struct VestCore.VestingBox",
          "name": "_vBox",
          "type": "tuple"
        },
        {
          "components": [
            {
              "internalType": "uint256",
              "name": "amount",
              "type": "uint256"
            },
            {
              "internalType": "uint256",
              "name": "withdrawn",
              "type": "uint256"
            },
            {
              "internalType": "uint128",
              "name": "startTime",
              "type": "uint128"
            },
            {
              "internalType": "uint128",
              "name": "endTime",
              "type": "uint128"
            }
          ],
          "internalType": "struct VestCore.VestingBoxAccount[]",
          "name": "_vBoxAccounts",
          "type": "tuple[]"
        },
        {
          "components": [
            {
              "internalType": "address[]",
              "name": "admins",
              "type": "address[]"
            },
            {
              "internalType": "address[]",
              "name": "recipients",
              "type": "address[]"
            }
          ],
          "internalType": "struct VestCore.VestingBoxAddresses",
          "name": "_vBoxAddresses",
          "type": "tuple"
        }
      ],
      "name": "createVestingBoxWithETH",
      "outputs": [
        {
          "internalType": "bool",
          "name": "",
          "type": "bool"
        }
      ],
      "stateMutability": "payable",
      "type": "function"
    },
    {
      "inputs": [
        {
          "internalType": "uint256",
          "name": "_totalAmount",
          "type": "uint256"
        },
        {
          "components": [
            {
              "internalType": "address",
              "name": "token",
              "type": "address"
            },
            {
              "internalType": "address",
              "name": "creator",
              "type": "address"
            }
          ],
          "internalType": "struct VestCore.VestingBox",
          "name": "_vBox",
          "type": "tuple"
        },
        {
          "components": [
            {
              "internalType": "uint256",
              "name": "amount",
              "type": "uint256"
            },
            {
              "internalType": "uint256",
              "name": "withdrawn",
              "type": "uint256"
            },
            {
              "internalType": "uint128",
              "name": "startTime",
              "type": "uint128"
            },
            {
              "internalType": "uint128",
              "name": "endTime",
              "type": "uint128"
            }
          ],
          "internalType": "struct VestCore.VestingBoxAccount[]",
          "name": "_vBoxAccounts",
          "type": "tuple[]"
        },
        {
          "components": [
            {
              "internalType": "address[]",
              "name": "admins",
              "type": "address[]"
            },
            {
              "internalType": "address[]",
              "name": "recipients",
              "type": "address[]"
            }
          ],
          "internalType": "struct VestCore.VestingBoxAddresses",
          "name": "_vBoxAddresses",
          "type": "tuple"
        }
      ],
      "name": "createVestingBoxWithExistingToken",
      "outputs": [
        {
          "internalType": "bool",
          "name": "",
          "type": "bool"
        }
      ],
      "stateMutability": "nonpayable",
      "type": "function"
    },
    {
      "inputs": [
        {
          "internalType": "uint256",
          "name": "_totalAmount",
          "type": "uint256"
        },
        {
          "components": [
            {
              "internalType": "address",
              "name": "token",
              "type": "address"
            },
            {
              "internalType": "address",
              "name": "creator",
              "type": "address"
            }
          ],
          "internalType": "struct VestCore.VestingBox",
          "name": "_vBox",
          "type": "tuple"
        },
        {
          "components": [
            {
              "internalType": "uint256",
              "name": "amount",
              "type": "uint256"
            },
            {
              "internalType": "uint256",
              "name": "withdrawn",
              "type": "uint256"
            },
            {
              "internalType": "uint128",
              "name": "startTime",
              "type": "uint128"
            },
            {
              "internalType": "uint128",
              "name": "endTime",
              "type": "uint128"
            }
          ],
          "internalType": "struct VestCore.VestingBoxAccount[]",
          "name": "_vBoxAccounts",
          "type": "tuple[]"
        },
        {
          "components": [
            {
              "internalType": "address[]",
              "name": "admins",
              "type": "address[]"
            },
            {
              "internalType": "address[]",
              "name": "recipients",
              "type": "address[]"
            }
          ],
          "internalType": "struct VestCore.VestingBoxAddresses",
          "name": "_vBoxAddresses",
          "type": "tuple"
        },
        {
          "internalType": "string",
          "name": "_tokenName",
          "type": "string"
        },
        {
          "internalType": "string",
          "name": "_tokenSymbol",
          "type": "string"
        },
        {
          "internalType": "uint256",
          "name": "_tokenTotalSupply",
          "type": "uint256"
        }
      ],
      "name": "createVestingBoxWithNewToken",
      "outputs": [
        {
          "internalType": "bool",
          "name": "",
          "type": "bool"
        }
      ],
      "stateMutability": "nonpayable",
      "type": "function"
    },
    {
      "inputs": [],
      "name": "fee",
      "outputs": [
        {
          "internalType": "uint256",
          "name": "",
          "type": "uint256"
        }
      ],
      "stateMutability": "view",
      "type": "function"
    },
    {
      "inputs": [
        {
          "internalType": "address",
          "name": "_token",
          "type": "address"
        }
      ],
      "name": "getProtocolFeesEarned",
      "outputs": [
        {
          "internalType": "uint256",
          "name": "",
          "type": "uint256"
        }
      ],
      "stateMutability": "view",
      "type": "function"
    },
    {
      "inputs": [
        {
          "internalType": "uint256",
          "name": "_vBoxId",
          "type": "uint256"
        },
        {
          "internalType": "address",
          "name": "_account",
          "type": "address"
        }
      ],
      "name": "getVestedAmount",
      "outputs": [
        {
          "internalType": "uint256",
          "name": "",
          "type": "uint256"
        }
      ],
      "stateMutability": "view",
      "type": "function"
    },
    {
      "inputs": [
        {
          "internalType": "uint256",
          "name": "_vBoxId",
          "type": "uint256"
        },
        {
          "internalType": "address",
          "name": "_account",
          "type": "address"
        }
      ],
      "name": "getWithdrawableAmount",
      "outputs": [
        {
          "internalType": "uint256",
          "name": "",
          "type": "uint256"
        }
      ],
      "stateMutability": "view",
      "type": "function"
    },
    {
      "inputs": [
        {
          "internalType": "uint256",
          "name": "",
          "type": "uint256"
        },
        {
          "internalType": "address",
          "name": "",
          "type": "address"
        }
      ],
      "name": "isAdminOfVBox",
      "outputs": [
        {
          "internalType": "bool",
          "name": "",
          "type": "bool"
        }
      ],
      "stateMutability": "view",
      "type": "function"
    },
    {
      "inputs": [],
      "name": "owner",
      "outputs": [
        {
          "internalType": "address",
          "name": "",
          "type": "address"
        }
      ],
      "stateMutability": "view",
      "type": "function"
    },
    {
      "inputs": [
        {
          "internalType": "uint256",
          "name": "_vBoxId",
          "type": "uint256"
        },
        {
          "internalType": "address",
          "name": "_account",
          "type": "address"
        }
      ],
      "name": "removeAccountFromVestingBox",
      "outputs": [],
      "stateMutability": "nonpayable",
      "type": "function"
    },
    {
      "inputs": [],
      "name": "renounceOwnership",
      "outputs": [],
      "stateMutability": "nonpayable",
      "type": "function"
    },
    {
      "inputs": [
        {
          "internalType": "uint256",
          "name": "_fee",
          "type": "uint256"
        }
      ],
      "name": "setFee",
      "outputs": [],
      "stateMutability": "nonpayable",
      "type": "function"
    },
    {
      "inputs": [
        {
          "internalType": "contract IVestERC20Factory",
          "name": "_newFactory",
          "type": "address"
        }
      ],
      "name": "setTokenFactory",
      "outputs": [],
      "stateMutability": "nonpayable",
      "type": "function"
    },
    {
      "inputs": [
        {
          "internalType": "uint256",
          "name": "_vBoxId",
          "type": "uint256"
        },
        {
          "internalType": "address",
          "name": "_account",
          "type": "address"
        },
        {
          "internalType": "bool",
          "name": "_isAdmin",
          "type": "bool"
        }
      ],
      "name": "setVestingBoxAdmin",
      "outputs": [],
      "stateMutability": "nonpayable",
      "type": "function"
    },
    {
      "inputs": [],
      "name": "tokenFactory",
      "outputs": [
        {
          "internalType": "contract IVestERC20Factory",
          "name": "",
          "type": "address"
        }
      ],
      "stateMutability": "view",
      "type": "function"
    },
    {
      "inputs": [
        {
          "internalType": "address",
          "name": "newOwner",
          "type": "address"
        }
      ],
      "name": "transferOwnership",
      "outputs": [],
      "stateMutability": "nonpayable",
      "type": "function"
    },
    {
      "inputs": [
        {
          "internalType": "uint256",
          "name": "",
          "type": "uint256"
        },
        {
          "internalType": "address",
          "name": "",
          "type": "address"
        }
      ],
      "name": "vBoxAccounts",
      "outputs": [
        {
          "internalType": "uint256",
          "name": "amount",
          "type": "uint256"
        },
        {
          "internalType": "uint256",
          "name": "withdrawn",
          "type": "uint256"
        },
        {
          "internalType": "uint128",
          "name": "startTime",
          "type": "uint128"
        },
        {
          "internalType": "uint128",
          "name": "endTime",
          "type": "uint128"
        }
      ],
      "stateMutability": "view",
      "type": "function"
    },
    {
      "inputs": [],
      "name": "vBoxCount",
      "outputs": [
        {
          "internalType": "uint256",
          "name": "",
          "type": "uint256"
        }
      ],
      "stateMutability": "view",
      "type": "function"
    },
    {
      "inputs": [
        {
          "internalType": "uint256",
          "name": "",
          "type": "uint256"
        }
      ],
      "name": "vBoxes",
      "outputs": [
        {
          "internalType": "address",
          "name": "token",
          "type": "address"
        },
        {
          "internalType": "address",
          "name": "creator",
          "type": "address"
        }
      ],
      "stateMutability": "view",
      "type": "function"
    },
    {
      "inputs": [
        {
          "internalType": "uint256",
          "name": "_amount",
          "type": "uint256"
        },
        {
          "internalType": "address",
          "name": "_to",
          "type": "address"
        }
      ],
      "name": "withdrawETHFees",
      "outputs": [],
      "stateMutability": "nonpayable",
      "type": "function"
    },
    {
      "inputs": [
        {
          "internalType": "address",
          "name": "_token",
          "type": "address"
        },
        {
          "internalType": "uint256",
          "name": "_amount",
          "type": "uint256"
        },
        {
          "internalType": "address",
          "name": "_to",
          "type": "address"
        }
      ],
      "name": "withdrawTokenFees",
      "outputs": [],
      "stateMutability": "nonpayable",
      "type": "function"
    }
  ],
  "bytecode": "0x608060405266038d7ea4c68000600155600060025573eeeeeeeeeeeeeeeeeeeeeeeeeeeeeeeeeeeeeeee600460006101000a81548173ffffffffffffffffffffffffffffffffffffffff021916908373ffffffffffffffffffffffffffffffffffffffff1602179055503480156200007657600080fd5b50620000976200008b6200009d60201b60201c565b620000a560201b60201c565b62000169565b600033905090565b60008060009054906101000a900473ffffffffffffffffffffffffffffffffffffffff169050816000806101000a81548173ffffffffffffffffffffffffffffffffffffffff021916908373ffffffffffffffffffffffffffffffffffffffff1602179055508173ffffffffffffffffffffffffffffffffffffffff168173ffffffffffffffffffffffffffffffffffffffff167f8be0079c531659141344cd1fd0a4f28419497f9722a3daafe3b4186f6b6457e060405160405180910390a35050565b61494980620001796000396000f3fe6080604052600436106101b75760003560e01c80638cfe046e116100ec578063d3d072cc1161008a578063e9b3663e11610064578063e9b3663e14610685578063ec4d26cf146106b0578063eced5526146106d9578063f2fde38b14610704576101b7565b8063d3d072cc14610606578063ddca3f431461062f578063e77772fe1461065a576101b7565b8063b63922ed116100c6578063b63922ed14610511578063b92c1b6c1461054e578063c8c507421461058c578063ce21131a146105c9576101b7565b80638cfe046e146104945780638da5cb5b146104bd57806395be5498146104e8576101b7565b806356be3a601161015957806371b4e6e71161013357806371b4e6e7146103c357806379c626b6146103ec578063816d6280146104295780638322fff214610469576101b7565b806356be3a601461034657806369fe0e2d14610383578063715018a6146103ac576101b7565b80633c966fc1116101955780633c966fc1146102525780634a918a0c1461028f5780634edaf0e3146102cc5780635188723914610309576101b7565b80632f73a9f8146101bc578063359cd45e146101e55780633c89d06b14610222575b600080fd5b3480156101c857600080fd5b506101e360048036038101906101de919061321e565b61072d565b005b3480156101f157600080fd5b5061020c600480360381019061020791906132ad565b6107ed565b60405161021991906132fc565b60405180910390f35b61023c600480360381019061023791906135a9565b6109f0565b6040516102499190613663565b60405180910390f35b34801561025e57600080fd5b50610279600480360381019061027491906132ad565b610a64565b6040516102869190613663565b60405180910390f35b34801561029b57600080fd5b506102b660048036038101906102b1919061367e565b610a93565b6040516102c391906132fc565b60405180910390f35b3480156102d857600080fd5b506102f360048036038101906102ee919061367e565b610c2b565b60405161030091906132fc565b60405180910390f35b34801561031557600080fd5b50610330600480360381019061032b91906136ab565b610c43565b60405161033d9190613663565b60405180910390f35b34801561035257600080fd5b5061036d60048036038101906103689190613746565b610d79565b60405161037a9190613663565b60405180910390f35b34801561038f57600080fd5b506103aa60048036038101906103a59190613861565b610ddc565b005b3480156103b857600080fd5b506103c1610eed565b005b3480156103cf57600080fd5b506103ea60048036038101906103e591906132ad565b610f75565b005b3480156103f857600080fd5b50610413600480360381019061040e9190613861565b6111ae565b60405161042091906132fc565b60405180910390f35b34801561043557600080fd5b50610450600480360381019061044b91906132ad565b6111eb565b604051610460949392919061389d565b60405180910390f35b34801561047557600080fd5b5061047e611260565b60405161048b91906138f1565b60405180910390f35b3480156104a057600080fd5b506104bb60048036038101906104b6919061390c565b611286565b005b3480156104c957600080fd5b506104d2611699565b6040516104df91906138f1565b60405180910390f35b3480156104f457600080fd5b5061050f600480360381019061050a919061395f565b6116c2565b005b34801561051d57600080fd5b5061053860048036038101906105339190613861565b611903565b60405161054591906132fc565b60405180910390f35b34801561055a57600080fd5b5061057560048036038101906105709190613861565b611940565b6040516105839291906139b2565b60405180910390f35b34801561059857600080fd5b506105b360048036038101906105ae91906132ad565b6119a4565b6040516105c091906132fc565b60405180910390f35b3480156105d557600080fd5b506105f060048036038101906105eb91906135a9565b611b79565b6040516105fd9190613663565b60405180910390f35b34801561061257600080fd5b5061062d60048036038101906106289190613a07565b611b93565b005b34801561063b57600080fd5b50610644611cdb565b60405161065191906132fc565b60405180910390f35b34801561066657600080fd5b5061066f611ce1565b60405161067c9190613ab9565b60405180910390f35b34801561069157600080fd5b5061069a611d07565b6040516106a791906132fc565b60405180910390f35b3480156106bc57600080fd5b506106d760048036038101906106d291906132ad565b611d0d565b005b3480156106e557600080fd5b506106ee6121e5565b6040516106fb91906132fc565b60405180910390f35b34801561071057600080fd5b5061072b6004803603810190610726919061367e565b6121f1565b005b6107356122e9565b73ffffffffffffffffffffffffffffffffffffffff16610753611699565b73ffffffffffffffffffffffffffffffffffffffff16146107a9576040517f08c379a00000000000000000000000000000000000000000000000000000000081526004016107a090613b31565b60405180910390fd5b80600360006101000a81548173ffffffffffffffffffffffffffffffffffffffff021916908373ffffffffffffffffffffffffffffffffffffffff16021790555050565b6000806006600085815260200190815260200160002060008473ffffffffffffffffffffffffffffffffffffffff1673ffffffffffffffffffffffffffffffffffffffff16815260200190815260200160002060405180608001604052908160008201548152602001600182015481526020016002820160009054906101000a90046fffffffffffffffffffffffffffffffff166fffffffffffffffffffffffffffffffff166fffffffffffffffffffffffffffffffff1681526020016002820160109054906101000a90046fffffffffffffffffffffffffffffffff166fffffffffffffffffffffffffffffffff166fffffffffffffffffffffffffffffffff1681525050905080606001516fffffffffffffffffffffffffffffffff1642106109365761092e816020015182600001516109299190613b80565b611903565b9150506109ea565b600081604001516fffffffffffffffffffffffffffffffff164261095a9190613b80565b90506000826040015183606001516109729190613bb4565b6fffffffffffffffffffffffffffffffff1690506000670de0b6b3a76400008261099c9190613be8565b670de0b6b3a76400008486600001516109b59190613be8565b6109bf9190613be8565b6109c99190613c71565b90506109e38460200151826109de9190613b80565b611903565b9450505050505b92915050565b6000600460009054906101000a900473ffffffffffffffffffffffffffffffffffffffff16846000019073ffffffffffffffffffffffffffffffffffffffff16908173ffffffffffffffffffffffffffffffffffffffff1681525050610a5a8585858560006122f1565b9050949350505050565b60076020528160005260406000206020528060005260406000206000915091509054906101000a900460ff1681565b6000600460009054906101000a900473ffffffffffffffffffffffffffffffffffffffff1673ffffffffffffffffffffffffffffffffffffffff168273ffffffffffffffffffffffffffffffffffffffff161415610b5f5760086000600460009054906101000a900473ffffffffffffffffffffffffffffffffffffffff1673ffffffffffffffffffffffffffffffffffffffff1673ffffffffffffffffffffffffffffffffffffffff1681526020019081526020016000205447610b589190613b80565b9050610c26565b600860008373ffffffffffffffffffffffffffffffffffffffff1673ffffffffffffffffffffffffffffffffffffffff168152602001908152602001600020548273ffffffffffffffffffffffffffffffffffffffff166370a08231306040518263ffffffff1660e01b8152600401610bd891906138f1565b602060405180830381865afa158015610bf5573d6000803e3d6000fd5b505050506040513d601f19601f82011682018060405250810190610c199190613cb7565b610c239190613b80565b90505b919050565b60086020528060005260406000206000915090505481565b600080610c5084336107ed565b905082811015610c95576040517f08c379a0000000000000000000000000000000000000000000000000000000008152600401610c8c90613d30565b60405180910390fd5b610cd36040518060400160405280600c81526020017f574954484452415741424c4500000000000000000000000000000000000000008152506129eb565b610cdc81612a84565b610ce68484612b1d565b506005600085815260200190815260200160002060000160009054906101000a900473ffffffffffffffffffffffffffffffffffffffff1673ffffffffffffffffffffffffffffffffffffffff16847f8eb0865c9da68f6f207dae091828f315df4736814a358375142237af0e0d374b8533604051610d66929190613d50565b60405180910390a3600191505092915050565b6000610d888686868686612de2565b896000019073ffffffffffffffffffffffffffffffffffffffff16908173ffffffffffffffffffffffffffffffffffffffff1681525050610dcd8a8a8a8a60016122f1565b90509998505050505050505050565b610de46122e9565b73ffffffffffffffffffffffffffffffffffffffff16610e02611699565b73ffffffffffffffffffffffffffffffffffffffff1614610e58576040517f08c379a0000000000000000000000000000000000000000000000000000000008152600401610e4f90613b31565b60405180910390fd5b60006001549050670de0b6b3a76400008210610ea9576040517f08c379a0000000000000000000000000000000000000000000000000000000008152600401610ea090613dc5565b60405180910390fd5b816001819055507f5fc463da23c1b063e66f9e352006a7fbe8db7223c455dc429e881a2dfe2f94f18183604051610ee1929190613de5565b60405180910390a15050565b610ef56122e9565b73ffffffffffffffffffffffffffffffffffffffff16610f13611699565b73ffffffffffffffffffffffffffffffffffffffff1614610f69576040517f08c379a0000000000000000000000000000000000000000000000000000000008152600401610f6090613b31565b60405180910390fd5b610f736000612ed1565b565b610f7d6122e9565b73ffffffffffffffffffffffffffffffffffffffff16610f9b611699565b73ffffffffffffffffffffffffffffffffffffffff1614610ff1576040517f08c379a0000000000000000000000000000000000000000000000000000000008152600401610fe890613b31565b60405180910390fd5b8160086000600460009054906101000a900473ffffffffffffffffffffffffffffffffffffffff1673ffffffffffffffffffffffffffffffffffffffff1673ffffffffffffffffffffffffffffffffffffffff168152602001908152602001600020544761105f9190613b80565b10156110a0576040517f08c379a000000000000000000000000000000000000000000000000000000000815260040161109790613e5a565b60405180910390fd5b60008173ffffffffffffffffffffffffffffffffffffffff16836040516110c690613eab565b60006040518083038185875af1925050503d8060008114611103576040519150601f19603f3d011682016040523d82523d6000602084013e611108565b606091505b505090508061114c576040517f08c379a000000000000000000000000000000000000000000000000000000000815260040161114390613f0c565b60405180910390fd5b7f87044da2612407bc001bb0985725dcc651a0dc71eaabfd1d7e8617ca85a8c19c600460009054906101000a900473ffffffffffffffffffffffffffffffffffffffff1684846040516111a193929190613f2c565b60405180910390a1505050565b6000600154670de0b6b3a76400006111c69190613b80565b670de0b6b3a7640000836111da9190613be8565b6111e49190613c71565b9050919050565b6006602052816000526040600020602052806000526040600020600091509150508060000154908060010154908060020160009054906101000a90046fffffffffffffffffffffffffffffffff16908060020160109054906101000a90046fffffffffffffffffffffffffffffffff16905084565b600460009054906101000a900473ffffffffffffffffffffffffffffffffffffffff1681565b82336007600083815260200190815260200160002060008273ffffffffffffffffffffffffffffffffffffffff1673ffffffffffffffffffffffffffffffffffffffff16815260200190815260200160002060009054906101000a900460ff16611325576040517f08c379a000000000000000000000000000000000000000000000000000000000815260040161131c90613faf565b60405180910390fd5b60006006600087815260200190815260200160002060008673ffffffffffffffffffffffffffffffffffffffff1673ffffffffffffffffffffffffffffffffffffffff16815260200190815260200160002060000154146113bb576040517f08c379a00000000000000000000000000000000000000000000000000000000081526004016113b29061401b565b60405180910390fd5b6113c483612f95565b6005600086815260200190815260200160002060000160009054906101000a900473ffffffffffffffffffffffffffffffffffffffff1673ffffffffffffffffffffffffffffffffffffffff166323b872dd333086600001516040518463ffffffff1660e01b815260040161143b9392919061403b565b6020604051808303816000875af115801561145a573d6000803e3d6000fd5b505050506040513d601f19601f8201168201806040525081019061147e9190614087565b6114bd576040517f08c379a00000000000000000000000000000000000000000000000000000000081526004016114b490614100565b60405180910390fd5b826006600087815260200190815260200160002060008673ffffffffffffffffffffffffffffffffffffffff1673ffffffffffffffffffffffffffffffffffffffff168152602001908152602001600020600082015181600001556020820151816001015560408201518160020160006101000a8154816fffffffffffffffffffffffffffffffff02191690836fffffffffffffffffffffffffffffffff16021790555060608201518160020160106101000a8154816fffffffffffffffffffffffffffffffff02191690836fffffffffffffffffffffffffffffffff1602179055509050508260000151600860006005600089815260200190815260200160002060000160009054906101000a900473ffffffffffffffffffffffffffffffffffffffff1673ffffffffffffffffffffffffffffffffffffffff1673ffffffffffffffffffffffffffffffffffffffff168152602001908152602001600020600082825461162c9190614120565b925050819055508373ffffffffffffffffffffffffffffffffffffffff16857f236863ed9b5b67391d1853c2b5e55b684b717ef915bbb6d230a449be56125e0e85600001518660400151876060015160405161168a93929190614176565b60405180910390a35050505050565b60008060009054906101000a900473ffffffffffffffffffffffffffffffffffffffff16905090565b6116ca6122e9565b73ffffffffffffffffffffffffffffffffffffffff166116e8611699565b73ffffffffffffffffffffffffffffffffffffffff161461173e576040517f08c379a000000000000000000000000000000000000000000000000000000000815260040161173590613b31565b60405180910390fd5b81600860008573ffffffffffffffffffffffffffffffffffffffff1673ffffffffffffffffffffffffffffffffffffffff168152602001908152602001600020548473ffffffffffffffffffffffffffffffffffffffff166370a08231306040518263ffffffff1660e01b81526004016117b891906138f1565b602060405180830381865afa1580156117d5573d6000803e3d6000fd5b505050506040513d601f19601f820116820180604052508101906117f99190613cb7565b6118039190613b80565b1015611844576040517f08c379a000000000000000000000000000000000000000000000000000000000815260040161183b90613e5a565b60405180910390fd5b8273ffffffffffffffffffffffffffffffffffffffff1663a9059cbb82846040518363ffffffff1660e01b815260040161187f9291906141ad565b6020604051808303816000875af115801561189e573d6000803e3d6000fd5b505050506040513d601f19601f820116820180604052508101906118c29190614087565b507f87044da2612407bc001bb0985725dcc651a0dc71eaabfd1d7e8617ca85a8c19c8383836040516118f693929190613f2c565b60405180910390a1505050565b6000670de0b6b3a7640000600154670de0b6b3a76400006119249190613b80565b8361192f9190613be8565b6119399190613c71565b9050919050565b60056020528060005260406000206000915090508060000160009054906101000a900473ffffffffffffffffffffffffffffffffffffffff16908060010160009054906101000a900473ffffffffffffffffffffffffffffffffffffffff16905082565b6000806006600085815260200190815260200160002060008473ffffffffffffffffffffffffffffffffffffffff1673ffffffffffffffffffffffffffffffffffffffff16815260200190815260200160002060405180608001604052908160008201548152602001600182015481526020016002820160009054906101000a90046fffffffffffffffffffffffffffffffff166fffffffffffffffffffffffffffffffff166fffffffffffffffffffffffffffffffff1681526020016002820160109054906101000a90046fffffffffffffffffffffffffffffffff166fffffffffffffffffffffffffffffffff166fffffffffffffffffffffffffffffffff1681525050905080606001516fffffffffffffffffffffffffffffffff164210611ad6578060000151915050611b73565b600081604001516fffffffffffffffffffffffffffffffff1642611afa9190613b80565b9050600082604001518360600151611b129190613bb4565b6fffffffffffffffffffffffffffffffff1690506000670de0b6b3a764000082611b3c9190613be8565b670de0b6b3a7640000848660000151611b559190613be8565b611b5f9190613be8565b611b699190613c71565b9050809450505050505b92915050565b6000611b898585858560006122f1565b9050949350505050565b82336007600083815260200190815260200160002060008273ffffffffffffffffffffffffffffffffffffffff1673ffffffffffffffffffffffffffffffffffffffff16815260200190815260200160002060009054906101000a900460ff16611c32576040517f08c379a0000000000000000000000000000000000000000000000000000000008152600401611c2990613faf565b60405180910390fd5b826007600087815260200190815260200160002060008673ffffffffffffffffffffffffffffffffffffffff1673ffffffffffffffffffffffffffffffffffffffff16815260200190815260200160002060006101000a81548160ff021916908315150217905550847f3f82e6ad49df50c375ed08891b7f6c57d8827a148033a02f32ca1ae3aa265a428585604051611ccc9291906141d6565b60405180910390a25050505050565b60015481565b600360009054906101000a900473ffffffffffffffffffffffffffffffffffffffff1681565b60025481565b81336007600083815260200190815260200160002060008273ffffffffffffffffffffffffffffffffffffffff1673ffffffffffffffffffffffffffffffffffffffff16815260200190815260200160002060009054906101000a900460ff16611dac576040517f08c379a0000000000000000000000000000000000000000000000000000000008152600401611da390613faf565b60405180910390fd5b60006006600086815260200190815260200160002060008573ffffffffffffffffffffffffffffffffffffffff1673ffffffffffffffffffffffffffffffffffffffff16815260200190815260200160002060405180608001604052908160008201548152602001600182015481526020016002820160009054906101000a90046fffffffffffffffffffffffffffffffff166fffffffffffffffffffffffffffffffff166fffffffffffffffffffffffffffffffff1681526020016002820160109054906101000a90046fffffffffffffffffffffffffffffffff166fffffffffffffffffffffffffffffffff166fffffffffffffffffffffffffffffffff168152505090506000600560008781526020019081526020016000206040518060400160405290816000820160009054906101000a900473ffffffffffffffffffffffffffffffffffffffff1673ffffffffffffffffffffffffffffffffffffffff1673ffffffffffffffffffffffffffffffffffffffff1681526020016001820160009054906101000a900473ffffffffffffffffffffffffffffffffffffffff1673ffffffffffffffffffffffffffffffffffffffff1673ffffffffffffffffffffffffffffffffffffffff168152505090504282606001516fffffffffffffffffffffffffffffffff1611611fd9576040517f08c379a0000000000000000000000000000000000000000000000000000000008152600401611fd09061424b565b60405180910390fd5b600082600001519050611fec87876119a4565b8360000181815250504283606001906fffffffffffffffffffffffffffffffff1690816fffffffffffffffffffffffffffffffff168152505060008360000151826120379190613b80565b9050600061204482611903565b9050600081836120549190613b80565b90506120648560000151846130a5565b508160086000876000015173ffffffffffffffffffffffffffffffffffffffff1673ffffffffffffffffffffffffffffffffffffffff16815260200190815260200160002060008282546120b89190613b80565b92505081905550846000015173ffffffffffffffffffffffffffffffffffffffff1663a9059cbb8660200151846040518363ffffffff1660e01b81526004016121029291906141ad565b6020604051808303816000875af1158015612121573d6000803e3d6000fd5b505050506040513d601f19601f820116820180604052508101906121459190614087565b612184576040517f08c379a000000000000000000000000000000000000000000000000000000000815260040161217b906142b7565b60405180910390fd5b8873ffffffffffffffffffffffffffffffffffffffff168a7fad772910df1874c8842aff0676e9915104973cf4a210c66a8149079c1851e3cd8860000151866040516121d1929190613de5565b60405180910390a350505050505050505050565b670de0b6b3a764000081565b6121f96122e9565b73ffffffffffffffffffffffffffffffffffffffff16612217611699565b73ffffffffffffffffffffffffffffffffffffffff161461226d576040517f08c379a000000000000000000000000000000000000000000000000000000000815260040161226490613b31565b60405180910390fd5b600073ffffffffffffffffffffffffffffffffffffffff168173ffffffffffffffffffffffffffffffffffffffff1614156122dd576040517f08c379a00000000000000000000000000000000000000000000000000000000081526004016122d490614349565b60405180910390fd5b6122e681612ed1565b50565b600033905090565b6000808611612335576040517f08c379a000000000000000000000000000000000000000000000000000000000815260040161232c906143b5565b60405180910390fd5b600083806020019061234791906143e4565b905011612389576040517f08c379a000000000000000000000000000000000000000000000000000000000815260040161238090614493565b60405180910390fd5b835183806020019061239b91906143e4565b9050146123dd576040517f08c379a00000000000000000000000000000000000000000000000000000000081526004016123d4906144ff565b60405180910390fd5b600460009054906101000a900473ffffffffffffffffffffffffffffffffffffffff1673ffffffffffffffffffffffffffffffffffffffff16856000015173ffffffffffffffffffffffffffffffffffffffff16141561247b578534101561247a576040517f08c379a00000000000000000000000000000000000000000000000000000000081526004016124719061456b565b60405180910390fd5b5b6000805b85518110156124c75785818151811061249b5761249a61458b565b5b602002602001015160000151826124b29190614120565b915080806124bf906145ba565b91505061247f565b5086811461250a576040517f08c379a00000000000000000000000000000000000000000000000000000000081526004016125019061464f565b60405180910390fd5b600460009054906101000a900473ffffffffffffffffffffffffffffffffffffffff1673ffffffffffffffffffffffffffffffffffffffff16866000015173ffffffffffffffffffffffffffffffffffffffff161415801561256a575082155b1561263357856000015173ffffffffffffffffffffffffffffffffffffffff166323b872dd33308a6040518463ffffffff1660e01b81526004016125b09392919061403b565b6020604051808303816000875af11580156125cf573d6000803e3d6000fd5b505050506040513d601f19601f820116820180604052508101906125f39190614087565b612632576040517f08c379a000000000000000000000000000000000000000000000000000000000815260040161262990614100565b60405180910390fd5b5b60026000815480929190612646906145ba565b91905055508560056000600254815260200190815260200160002060008201518160000160006101000a81548173ffffffffffffffffffffffffffffffffffffffff021916908373ffffffffffffffffffffffffffffffffffffffff16021790555060208201518160010160006101000a81548173ffffffffffffffffffffffffffffffffffffffff021916908373ffffffffffffffffffffffffffffffffffffffff16021790555090505060005b855181101561286b576127218682815181106127145761271361458b565b5b6020026020010151612f95565b8581815181106127345761273361458b565b5b6020026020010151600660006002548152602001908152602001600020600087806020019061276391906143e4565b858181106127745761277361458b565b5b9050602002016020810190612789919061367e565b73ffffffffffffffffffffffffffffffffffffffff1673ffffffffffffffffffffffffffffffffffffffff168152602001908152602001600020600082015181600001556020820151816001015560408201518160020160006101000a8154816fffffffffffffffffffffffffffffffff02191690836fffffffffffffffffffffffffffffffff16021790555060608201518160020160106101000a8154816fffffffffffffffffffffffffffffffff02191690836fffffffffffffffffffffffffffffffff1602179055509050508080612863906145ba565b9150506126f5565b5060005b855181101561292b57600160076000600254815260200190815260200160002060008780600001906128a191906143e4565b858181106128b2576128b161458b565b5b90506020020160208101906128c7919061367e565b73ffffffffffffffffffffffffffffffffffffffff1673ffffffffffffffffffffffffffffffffffffffff16815260200190815260200160002060006101000a81548160ff0219169083151502179055508080612923906145ba565b91505061286f565b508660086000886000015173ffffffffffffffffffffffffffffffffffffffff1673ffffffffffffffffffffffffffffffffffffffff168152602001908152602001600020600082825461297f9190614120565b92505081905550856000015173ffffffffffffffffffffffffffffffffffffffff166002547f09f269811cffd09fb630ee319c1b845625b319c2446953fc766a761a64c47bc4338a6040516129d59291906141ad565b60405180910390a3600191505095945050505050565b612a81816040516024016129ff91906146e6565b6040516020818303038152906040527f41304fac000000000000000000000000000000000000000000000000000000007bffffffffffffffffffffffffffffffffffffffffffffffffffffffff19166020820180517bffffffffffffffffffffffffffffffffffffffffffffffffffffffff8381831617835250505050613171565b50565b612b1a81604051602401612a9891906132fc565b6040516020818303038152906040527ff5b1bba9000000000000000000000000000000000000000000000000000000007bffffffffffffffffffffffffffffffffffffffffffffffffffffffff19166020820180517bffffffffffffffffffffffffffffffffffffffffffffffffffffffff8381831617835250505050613171565b50565b6000806000905060006005600086815260200190815260200160002060000160009054906101000a900473ffffffffffffffffffffffffffffffffffffffff1690506000612b6a856111ae565b90506000612b7883836130a5565b9050612b8386612a84565b612b8c81612a84565b80600860008573ffffffffffffffffffffffffffffffffffffffff1673ffffffffffffffffffffffffffffffffffffffff1681526020019081526020016000206000828254612bdb9190613b80565b92505081905550816006600089815260200190815260200160002060003373ffffffffffffffffffffffffffffffffffffffff1673ffffffffffffffffffffffffffffffffffffffff1681526020019081526020016000206001016000828254612c459190614120565b92505081905550600460009054906101000a900473ffffffffffffffffffffffffffffffffffffffff1673ffffffffffffffffffffffffffffffffffffffff168373ffffffffffffffffffffffffffffffffffffffff161415612d13573373ffffffffffffffffffffffffffffffffffffffff1686604051612cc690613eab565b60006040518083038185875af1925050503d8060008114612d03576040519150601f19603f3d011682016040523d82523d6000602084013e612d08565b606091505b505080945050612d94565b8273ffffffffffffffffffffffffffffffffffffffff1663a9059cbb33886040518363ffffffff1660e01b8152600401612d4e9291906141ad565b6020604051808303816000875af1158015612d6d573d6000803e3d6000fd5b505050506040513d601f19601f82011682018060405250810190612d919190614087565b93505b83612dd4576040517f08c379a0000000000000000000000000000000000000000000000000000000008152600401612dcb90614754565b60405180910390fd5b600194505050505092915050565b600080600360009054906101000a900473ffffffffffffffffffffffffffffffffffffffff1673ffffffffffffffffffffffffffffffffffffffff166372e4352d88888888886040518663ffffffff1660e01b8152600401612e489594939291906147b0565b6020604051808303816000875af1158015612e67573d6000803e3d6000fd5b505050506040513d601f19601f82011682018060405250810190612e8b919061480e565b90507f41039c8b82bb5a365f56b4f9d87cee99e069b450bfdc3d87696fcd87783f24c181604051612ebc91906138f1565b60405180910390a18091505095945050505050565b60008060009054906101000a900473ffffffffffffffffffffffffffffffffffffffff169050816000806101000a81548173ffffffffffffffffffffffffffffffffffffffff021916908373ffffffffffffffffffffffffffffffffffffffff1602179055508173ffffffffffffffffffffffffffffffffffffffff168173ffffffffffffffffffffffffffffffffffffffff167f8be0079c531659141344cd1fd0a4f28419497f9722a3daafe3b4186f6b6457e060405160405180910390a35050565b80606001516fffffffffffffffffffffffffffffffff1681604001516fffffffffffffffffffffffffffffffff1610613003576040517f08c379a0000000000000000000000000000000000000000000000000000000008152600401612ffa90614887565b60405180910390fd5b4281606001516fffffffffffffffffffffffffffffffff161161305b576040517f08c379a0000000000000000000000000000000000000000000000000000000008152600401613052906148f3565b60405180910390fd5b60008160000151116130a2576040517f08c379a0000000000000000000000000000000000000000000000000000000008152600401613099906143b5565b60405180910390fd5b50565b60008060015414156130b95781905061316b565b60006130c483611903565b9050600081846130d49190613b80565b905080600860008773ffffffffffffffffffffffffffffffffffffffff1673ffffffffffffffffffffffffffffffffffffffff16815260200190815260200160002060008282546131259190613b80565b925050819055507fb45e9da67b01ce03fb67208335da576c75af6443e886268b76b79afb01349a55858260405161315d9291906141ad565b60405180910390a181925050505b92915050565b60008151905060006a636f6e736f6c652e6c6f679050602083016000808483855afa5050505050565b6000604051905090565b600080fd5b600080fd5b600073ffffffffffffffffffffffffffffffffffffffff82169050919050565b60006131d9826131ae565b9050919050565b60006131eb826131ce565b9050919050565b6131fb816131e0565b811461320657600080fd5b50565b600081359050613218816131f2565b92915050565b600060208284031215613234576132336131a4565b5b600061324284828501613209565b91505092915050565b6000819050919050565b61325e8161324b565b811461326957600080fd5b50565b60008135905061327b81613255565b92915050565b61328a816131ce565b811461329557600080fd5b50565b6000813590506132a781613281565b92915050565b600080604083850312156132c4576132c36131a4565b5b60006132d28582860161326c565b92505060206132e385828601613298565b9150509250929050565b6132f68161324b565b82525050565b600060208201905061331160008301846132ed565b92915050565b600080fd5b6000601f19601f8301169050919050565b7f4e487b7100000000000000000000000000000000000000000000000000000000600052604160045260246000fd5b6133658261331c565b810181811067ffffffffffffffff821117156133845761338361332d565b5b80604052505050565b600061339761319a565b90506133a3828261335c565b919050565b6000604082840312156133be576133bd613317565b5b6133c8604061338d565b905060006133d884828501613298565b60008301525060206133ec84828501613298565b60208301525092915050565b600080fd5b600067ffffffffffffffff8211156134185761341761332d565b5b602082029050602081019050919050565b600080fd5b60006fffffffffffffffffffffffffffffffff82169050919050565b6134538161342e565b811461345e57600080fd5b50565b6000813590506134708161344a565b92915050565b60006080828403121561348c5761348b613317565b5b613496608061338d565b905060006134a68482850161326c565b60008301525060206134ba8482850161326c565b60208301525060406134ce84828501613461565b60408301525060606134e284828501613461565b60608301525092915050565b60006135016134fc846133fd565b61338d565b9050808382526020820190506080840283018581111561352457613523613429565b5b835b8181101561354d57806135398882613476565b845260208401935050608081019050613526565b5050509392505050565b600082601f83011261356c5761356b6133f8565b5b813561357c8482602086016134ee565b91505092915050565b600080fd5b6000604082840312156135a05761359f613585565b5b81905092915050565b60008060008060a085870312156135c3576135c26131a4565b5b60006135d18782880161326c565b94505060206135e2878288016133a8565b935050606085013567ffffffffffffffff811115613603576136026131a9565b5b61360f87828801613557565b925050608085013567ffffffffffffffff8111156136305761362f6131a9565b5b61363c8782880161358a565b91505092959194509250565b60008115159050919050565b61365d81613648565b82525050565b60006020820190506136786000830184613654565b92915050565b600060208284031215613694576136936131a4565b5b60006136a284828501613298565b91505092915050565b600080604083850312156136c2576136c16131a4565b5b60006136d08582860161326c565b92505060206136e18582860161326c565b9150509250929050565b600080fd5b60008083601f840112613706576137056133f8565b5b8235905067ffffffffffffffff811115613723576137226136eb565b5b60208301915083600182028301111561373f5761373e613429565b5b9250929050565b60008060008060008060008060006101008a8c031215613769576137686131a4565b5b60006137778c828d0161326c565b99505060206137888c828d016133a8565b98505060608a013567ffffffffffffffff8111156137a9576137a86131a9565b5b6137b58c828d01613557565b97505060808a013567ffffffffffffffff8111156137d6576137d56131a9565b5b6137e28c828d0161358a565b96505060a08a013567ffffffffffffffff811115613803576138026131a9565b5b61380f8c828d016136f0565b955095505060c08a013567ffffffffffffffff811115613832576138316131a9565b5b61383e8c828d016136f0565b935093505060e06138518c828d0161326c565b9150509295985092959850929598565b600060208284031215613877576138766131a4565b5b60006138858482850161326c565b91505092915050565b6138978161342e565b82525050565b60006080820190506138b260008301876132ed565b6138bf60208301866132ed565b6138cc604083018561388e565b6138d9606083018461388e565b95945050505050565b6138eb816131ce565b82525050565b600060208201905061390660008301846138e2565b92915050565b600080600060c08486031215613925576139246131a4565b5b60006139338682870161326c565b935050602061394486828701613298565b925050604061395586828701613476565b9150509250925092565b600080600060608486031215613978576139776131a4565b5b600061398686828701613298565b93505060206139978682870161326c565b92505060406139a886828701613298565b9150509250925092565b60006040820190506139c760008301856138e2565b6139d460208301846138e2565b9392505050565b6139e481613648565b81146139ef57600080fd5b50565b600081359050613a01816139db565b92915050565b600080600060608486031215613a2057613a1f6131a4565b5b6000613a2e8682870161326c565b9350506020613a3f86828701613298565b9250506040613a50868287016139f2565b9150509250925092565b6000819050919050565b6000613a7f613a7a613a75846131ae565b613a5a565b6131ae565b9050919050565b6000613a9182613a64565b9050919050565b6000613aa382613a86565b9050919050565b613ab381613a98565b82525050565b6000602082019050613ace6000830184613aaa565b92915050565b600082825260208201905092915050565b7f4f776e61626c653a2063616c6c6572206973206e6f7420746865206f776e6572600082015250565b6000613b1b602083613ad4565b9150613b2682613ae5565b602082019050919050565b60006020820190508181036000830152613b4a81613b0e565b9050919050565b7f4e487b7100000000000000000000000000000000000000000000000000000000600052601160045260246000fd5b6000613b8b8261324b565b9150613b968361324b565b925082821015613ba957613ba8613b51565b5b828203905092915050565b6000613bbf8261342e565b9150613bca8361342e565b925082821015613bdd57613bdc613b51565b5b828203905092915050565b6000613bf38261324b565b9150613bfe8361324b565b9250817fffffffffffffffffffffffffffffffffffffffffffffffffffffffffffffffff0483118215151615613c3757613c36613b51565b5b828202905092915050565b7f4e487b7100000000000000000000000000000000000000000000000000000000600052601260045260246000fd5b6000613c7c8261324b565b9150613c878361324b565b925082613c9757613c96613c42565b5b828204905092915050565b600081519050613cb181613255565b92915050565b600060208284031215613ccd57613ccc6131a4565b5b6000613cdb84828501613ca2565b91505092915050565b7f564553543a204e4f5420454e4f55474820564553544544000000000000000000600082015250565b6000613d1a601783613ad4565b9150613d2582613ce4565b602082019050919050565b60006020820190508181036000830152613d4981613d0d565b9050919050565b6000604082019050613d6560008301856132ed565b613d7260208301846138e2565b9392505050565b7f564553543a20464545204d555354204245203c20313030250000000000000000600082015250565b6000613daf601883613ad4565b9150613dba82613d79565b602082019050919050565b60006020820190508181036000830152613dde81613da2565b9050919050565b6000604082019050613dfa60008301856132ed565b613e0760208301846132ed565b9392505050565b7f564553543a20414d4f554e5420544f4f20484947480000000000000000000000600082015250565b6000613e44601583613ad4565b9150613e4f82613e0e565b602082019050919050565b60006020820190508181036000830152613e7381613e37565b9050919050565b600081905092915050565b50565b6000613e95600083613e7a565b9150613ea082613e85565b600082019050919050565b6000613eb682613e88565b9150819050919050565b7f564553543a20455448205452414e53464552204641494c454400000000000000600082015250565b6000613ef6601983613ad4565b9150613f0182613ec0565b602082019050919050565b60006020820190508181036000830152613f2581613ee9565b9050919050565b6000606082019050613f4160008301866138e2565b613f4e60208301856132ed565b613f5b60408301846138e2565b949350505050565b7f564553543a204e4f542056424f582041444d494e000000000000000000000000600082015250565b6000613f99601483613ad4565b9150613fa482613f63565b602082019050919050565b60006020820190508181036000830152613fc881613f8c565b9050919050565b7f564553543a204143434f554e5420414c524541445920494e20424f5800000000600082015250565b6000614005601c83613ad4565b915061401082613fcf565b602082019050919050565b6000602082019050818103600083015261403481613ff8565b9050919050565b600060608201905061405060008301866138e2565b61405d60208301856138e2565b61406a60408301846132ed565b949350505050565b600081519050614081816139db565b92915050565b60006020828403121561409d5761409c6131a4565b5b60006140ab84828501614072565b91505092915050565b7f564553543a20544f4b454e205452414e53464552204641494c45440000000000600082015250565b60006140ea601b83613ad4565b91506140f5826140b4565b602082019050919050565b60006020820190508181036000830152614119816140dd565b9050919050565b600061412b8261324b565b91506141368361324b565b9250827fffffffffffffffffffffffffffffffffffffffffffffffffffffffffffffffff0382111561416b5761416a613b51565b5b828201905092915050565b600060608201905061418b60008301866132ed565b614198602083018561388e565b6141a5604083018461388e565b949350505050565b60006040820190506141c260008301856138e2565b6141cf60208301846132ed565b9392505050565b60006040820190506141eb60008301856138e2565b6141f86020830184613654565b9392505050565b7f564553543a20414c52454144592046554c4c5920564553544544000000000000600082015250565b6000614235601a83613ad4565b9150614240826141ff565b602082019050919050565b6000602082019050818103600083015261426481614228565b9050919050565b7f564553543a20464f524645495420544f4b454e53204641494c45440000000000600082015250565b60006142a1601b83613ad4565b91506142ac8261426b565b602082019050919050565b600060208201905081810360008301526142d081614294565b9050919050565b7f4f776e61626c653a206e6577206f776e657220697320746865207a65726f206160008201527f6464726573730000000000000000000000000000000000000000000000000000602082015250565b6000614333602683613ad4565b915061433e826142d7565b604082019050919050565b6000602082019050818103600083015261436281614326565b9050919050565b7f564553543a2043414e4e4f542056455354203020414d4f554e54000000000000600082015250565b600061439f601a83613ad4565b91506143aa82614369565b602082019050919050565b600060208201905081810360008301526143ce81614392565b9050919050565b600080fd5b600080fd5b600080fd5b60008083356001602003843603038112614401576144006143d5565b5b80840192508235915067ffffffffffffffff821115614423576144226143da565b5b60208301925060208202360383131561443f5761443e6143df565b5b509250929050565b7f564553543a204e4f20524543495049454e545300000000000000000000000000600082015250565b600061447d601383613ad4565b915061448882614447565b602082019050919050565b600060208201905081810360008301526144ac81614470565b9050919050565b7f564553543a2057524f4e47204143434f554e5453204152524159204c454e0000600082015250565b60006144e9601e83613ad4565b91506144f4826144b3565b602082019050919050565b60006020820190508181036000830152614518816144dc565b9050919050565b7f564553543a2045544820414d4f554e5420544f4f204c4f570000000000000000600082015250565b6000614555601883613ad4565b91506145608261451f565b602082019050919050565b6000602082019050818103600083015261458481614548565b9050919050565b7f4e487b7100000000000000000000000000000000000000000000000000000000600052603260045260246000fd5b60006145c58261324b565b91507fffffffffffffffffffffffffffffffffffffffffffffffffffffffffffffffff8214156145f8576145f7613b51565b5b600182019050919050565b7f564553543a20414d4f554e545320444f4e542053554d20544f20544f54414c00600082015250565b6000614639601f83613ad4565b915061464482614603565b602082019050919050565b600060208201905081810360008301526146688161462c565b9050919050565b600081519050919050565b60005b8381101561469857808201518184015260208101905061467d565b838111156146a7576000848401525b50505050565b60006146b88261466f565b6146c28185613ad4565b93506146d281856020860161467a565b6146db8161331c565b840191505092915050565b6000602082019050818103600083015261470081846146ad565b905092915050565b7f564553543a205749544844524157204641494c45440000000000000000000000600082015250565b600061473e601583613ad4565b915061474982614708565b602082019050919050565b6000602082019050818103600083015261476d81614731565b9050919050565b82818337600083830152505050565b600061478f8385613ad4565b935061479c838584614774565b6147a58361331c565b840190509392505050565b600060608201905081810360008301526147cb818789614783565b905081810360208301526147e0818587614783565b90506147ef60408301846132ed565b9695505050505050565b60008151905061480881613281565b92915050565b600060208284031215614824576148236131a4565b5b6000614832848285016147f9565b91505092915050565b7f564553543a2053544152542054494d4520414654455220454e442054494d4500600082015250565b6000614871601f83613ad4565b915061487c8261483b565b602082019050919050565b600060208201905081810360008301526148a081614864565b9050919050565b7f564553543a20454e442054494d4520494e205448452050415354000000000000600082015250565b60006148dd601a83613ad4565b91506148e8826148a7565b602082019050919050565b6000602082019050818103600083015261490c816148d0565b905091905056fea2646970667358221220823ffc8beff2ad73088f1f057ffdccdab7ad42e2f2e559861c0109a9beaadb9c64736f6c634300080a0033",
  "linkReferences": {},
  "deployedLinkReferences": {}
}