{
  "_format": "hh-sol-artifact-1",
  "contractName": "VestCore",
  "sourceName": "contracts/VestCore.sol",
  "abi": [
    {
      "inputs": [],
      "stateMutability": "nonpayable",
      "type": "constructor"
    },
    {
      "anonymous": false,
      "inputs": [
        {
          "indexed": true,
          "internalType": "uint256",
          "name": "vBoxID",
          "type": "uint256"
        },
        {
          "indexed": true,
          "internalType": "address",
          "name": "account",
          "type": "address"
        },
        {
          "indexed": false,
          "internalType": "uint256",
          "name": "amount",
          "type": "uint256"
        },
        {
          "indexed": false,
          "internalType": "uint128",
          "name": "startTime",
          "type": "uint128"
        },
        {
          "indexed": false,
          "internalType": "uint128",
          "name": "endTime",
          "type": "uint128"
        }
      ],
      "name": "AccountAddedToVestingBox",
      "type": "event"
    },
    {
      "anonymous": false,
      "inputs": [
        {
          "indexed": true,
          "internalType": "uint256",
          "name": "vBoxID",
          "type": "uint256"
        },
        {
          "indexed": true,
          "internalType": "address",
          "name": "account",
          "type": "address"
        },
        {
          "indexed": false,
          "internalType": "uint256",
          "name": "amountVested",
          "type": "uint256"
        },
        {
          "indexed": false,
          "internalType": "uint256",
          "name": "amountForfeited",
          "type": "uint256"
        }
      ],
      "name": "AccountRemovedFromVestingBox",
      "type": "event"
    },
    {
      "anonymous": false,
      "inputs": [
        {
          "indexed": false,
          "internalType": "address",
          "name": "tokenAddress",
          "type": "address"
        }
      ],
      "name": "ERC20Created",
      "type": "event"
    },
    {
      "anonymous": false,
      "inputs": [
        {
          "indexed": false,
          "internalType": "uint256",
          "name": "oldFee",
          "type": "uint256"
        },
        {
          "indexed": false,
          "internalType": "uint256",
          "name": "newFee",
          "type": "uint256"
        }
      ],
      "name": "FeesSet",
      "type": "event"
    },
    {
      "anonymous": false,
      "inputs": [
        {
          "indexed": false,
          "internalType": "address",
          "name": "token",
          "type": "address"
        },
        {
          "indexed": false,
          "internalType": "uint256",
          "name": "amount",
          "type": "uint256"
        },
        {
          "indexed": false,
          "internalType": "address",
          "name": "_to",
          "type": "address"
        }
      ],
      "name": "FeesWithdrawn",
      "type": "event"
    },
    {
      "anonymous": false,
      "inputs": [
        {
          "indexed": true,
          "internalType": "address",
          "name": "previousOwner",
          "type": "address"
        },
        {
          "indexed": true,
          "internalType": "address",
          "name": "newOwner",
          "type": "address"
        }
      ],
      "name": "OwnershipTransferred",
      "type": "event"
    },
    {
      "anonymous": false,
      "inputs": [
        {
          "indexed": true,
          "internalType": "uint256",
          "name": "vBoxID",
          "type": "uint256"
        },
        {
          "indexed": true,
          "internalType": "address",
          "name": "token",
          "type": "address"
        },
        {
          "indexed": false,
          "internalType": "uint256",
          "name": "amountClaimed",
          "type": "uint256"
        },
        {
          "indexed": false,
          "internalType": "address",
          "name": "recipient",
          "type": "address"
        }
      ],
      "name": "VestedTokensClaimed",
      "type": "event"
    },
    {
      "anonymous": false,
      "inputs": [
        {
          "indexed": true,
          "internalType": "uint256",
          "name": "vBoxID",
          "type": "uint256"
        },
        {
          "indexed": false,
          "internalType": "address",
          "name": "account",
          "type": "address"
        },
        {
          "indexed": false,
          "internalType": "bool",
          "name": "isAdmin",
          "type": "bool"
        }
      ],
      "name": "VestingBoxAdminSet",
      "type": "event"
    },
    {
      "anonymous": false,
      "inputs": [
        {
          "indexed": true,
          "internalType": "uint256",
          "name": "vBoxID",
          "type": "uint256"
        },
        {
          "indexed": true,
          "internalType": "address",
          "name": "token",
          "type": "address"
        },
        {
          "indexed": false,
          "internalType": "address",
          "name": "creator",
          "type": "address"
        },
        {
          "indexed": false,
          "internalType": "uint256",
          "name": "totalBoxAmount",
          "type": "uint256"
        }
      ],
      "name": "VestingBoxCreated",
      "type": "event"
    },
    {
      "inputs": [],
      "name": "ETH",
      "outputs": [
        {
          "internalType": "address",
          "name": "",
          "type": "address"
        }
      ],
      "stateMutability": "view",
      "type": "function"
    },
    {
      "inputs": [],
      "name": "SCALE",
      "outputs": [
        {
          "internalType": "uint256",
          "name": "",
          "type": "uint256"
        }
      ],
      "stateMutability": "view",
      "type": "function"
    },
    {
      "inputs": [
        {
          "internalType": "uint256",
          "name": "_vBoxId",
          "type": "uint256"
        },
        {
          "internalType": "address",
          "name": "_recipient",
          "type": "address"
        },
        {
          "components": [
            {
              "internalType": "uint256",
              "name": "amount",
              "type": "uint256"
            },
            {
              "internalType": "uint256",
              "name": "withdrawn",
              "type": "uint256"
            },
            {
              "internalType": "uint128",
              "name": "startTime",
              "type": "uint128"
            },
            {
              "internalType": "uint128",
              "name": "endTime",
              "type": "uint128"
            }
          ],
          "internalType": "struct VestCore.VestingBoxAccount",
          "name": "_vBoxAccount",
          "type": "tuple"
        }
      ],
      "name": "addAccountToVestingBox",
      "outputs": [],
      "stateMutability": "nonpayable",
      "type": "function"
    },
    {
      "inputs": [
        {
          "internalType": "uint256",
          "name": "_vBoxId",
          "type": "uint256"
        },
        {
          "internalType": "uint256",
          "name": "_amountToClaim",
          "type": "uint256"
        }
      ],
      "name": "claimVestedTokens",
      "outputs": [
        {
          "internalType": "bool",
          "name": "",
          "type": "bool"
        }
      ],
      "stateMutability": "nonpayable",
      "type": "function"
    },
    {
      "inputs": [
        {
          "internalType": "uint256",
          "name": "_totalAmount",
          "type": "uint256"
        },
        {
          "components": [
            {
              "internalType": "address",
              "name": "token",
              "type": "address"
            },
            {
              "internalType": "address",
              "name": "creator",
              "type": "address"
            }
          ],
          "internalType": "struct VestCore.VestingBox",
          "name": "_vBox",
          "type": "tuple"
        },
        {
          "components": [
            {
              "internalType": "uint256",
              "name": "amount",
              "type": "uint256"
            },
            {
              "internalType": "uint256",
              "name": "withdrawn",
              "type": "uint256"
            },
            {
              "internalType": "uint128",
              "name": "startTime",
              "type": "uint128"
            },
            {
              "internalType": "uint128",
              "name": "endTime",
              "type": "uint128"
            }
          ],
          "internalType": "struct VestCore.VestingBoxAccount[]",
          "name": "_vBoxAccounts",
          "type": "tuple[]"
        },
        {
          "components": [
            {
              "internalType": "address[]",
              "name": "admins",
              "type": "address[]"
            },
            {
              "internalType": "address[]",
              "name": "recipients",
              "type": "address[]"
            }
          ],
          "internalType": "struct VestCore.VestingBoxAddresses",
          "name": "_vBoxAddresses",
          "type": "tuple"
        }
      ],
      "name": "createVestingBoxWithETH",
      "outputs": [
        {
          "internalType": "bool",
          "name": "",
          "type": "bool"
        }
      ],
      "stateMutability": "payable",
      "type": "function"
    },
    {
      "inputs": [
        {
          "internalType": "uint256",
          "name": "_totalAmount",
          "type": "uint256"
        },
        {
          "components": [
            {
              "internalType": "address",
              "name": "token",
              "type": "address"
            },
            {
              "internalType": "address",
              "name": "creator",
              "type": "address"
            }
          ],
          "internalType": "struct VestCore.VestingBox",
          "name": "_vBox",
          "type": "tuple"
        },
        {
          "components": [
            {
              "internalType": "uint256",
              "name": "amount",
              "type": "uint256"
            },
            {
              "internalType": "uint256",
              "name": "withdrawn",
              "type": "uint256"
            },
            {
              "internalType": "uint128",
              "name": "startTime",
              "type": "uint128"
            },
            {
              "internalType": "uint128",
              "name": "endTime",
              "type": "uint128"
            }
          ],
          "internalType": "struct VestCore.VestingBoxAccount[]",
          "name": "_vBoxAccounts",
          "type": "tuple[]"
        },
        {
          "components": [
            {
              "internalType": "address[]",
              "name": "admins",
              "type": "address[]"
            },
            {
              "internalType": "address[]",
              "name": "recipients",
              "type": "address[]"
            }
          ],
          "internalType": "struct VestCore.VestingBoxAddresses",
          "name": "_vBoxAddresses",
          "type": "tuple"
        }
      ],
      "name": "createVestingBoxWithExistingToken",
      "outputs": [
        {
          "internalType": "bool",
          "name": "",
          "type": "bool"
        }
      ],
      "stateMutability": "nonpayable",
      "type": "function"
    },
    {
      "inputs": [
        {
          "internalType": "uint256",
          "name": "_totalAmount",
          "type": "uint256"
        },
        {
          "components": [
            {
              "internalType": "address",
              "name": "token",
              "type": "address"
            },
            {
              "internalType": "address",
              "name": "creator",
              "type": "address"
            }
          ],
          "internalType": "struct VestCore.VestingBox",
          "name": "_vBox",
          "type": "tuple"
        },
        {
          "components": [
            {
              "internalType": "uint256",
              "name": "amount",
              "type": "uint256"
            },
            {
              "internalType": "uint256",
              "name": "withdrawn",
              "type": "uint256"
            },
            {
              "internalType": "uint128",
              "name": "startTime",
              "type": "uint128"
            },
            {
              "internalType": "uint128",
              "name": "endTime",
              "type": "uint128"
            }
          ],
          "internalType": "struct VestCore.VestingBoxAccount[]",
          "name": "_vBoxAccounts",
          "type": "tuple[]"
        },
        {
          "components": [
            {
              "internalType": "address[]",
              "name": "admins",
              "type": "address[]"
            },
            {
              "internalType": "address[]",
              "name": "recipients",
              "type": "address[]"
            }
          ],
          "internalType": "struct VestCore.VestingBoxAddresses",
          "name": "_vBoxAddresses",
          "type": "tuple"
        },
        {
          "internalType": "string",
          "name": "_tokenName",
          "type": "string"
        },
        {
          "internalType": "string",
          "name": "_tokenSymbol",
          "type": "string"
        },
        {
          "internalType": "uint256",
          "name": "_tokenTotalSupply",
          "type": "uint256"
        }
      ],
      "name": "createVestingBoxWithNewToken",
      "outputs": [
        {
          "internalType": "bool",
          "name": "",
          "type": "bool"
        }
      ],
      "stateMutability": "nonpayable",
      "type": "function"
    },
    {
      "inputs": [],
      "name": "fee",
      "outputs": [
        {
          "internalType": "uint256",
          "name": "",
          "type": "uint256"
        }
      ],
      "stateMutability": "view",
      "type": "function"
    },
    {
      "inputs": [
        {
          "internalType": "address",
          "name": "_token",
          "type": "address"
        }
      ],
      "name": "getAssetHeldForVesting",
      "outputs": [
        {
          "internalType": "uint256",
          "name": "",
          "type": "uint256"
        }
      ],
      "stateMutability": "view",
      "type": "function"
    },
    {
      "inputs": [
        {
          "internalType": "address",
          "name": "_token",
          "type": "address"
        }
      ],
      "name": "getProtocolFeesEarned",
      "outputs": [
        {
          "internalType": "uint256",
          "name": "",
          "type": "uint256"
        }
      ],
      "stateMutability": "view",
      "type": "function"
    },
    {
      "inputs": [
        {
          "internalType": "uint256",
          "name": "_vBoxId",
          "type": "uint256"
        },
        {
          "internalType": "address",
          "name": "_account",
          "type": "address"
        }
      ],
      "name": "getVestedAmount",
      "outputs": [
        {
          "internalType": "uint256",
          "name": "",
          "type": "uint256"
        }
      ],
      "stateMutability": "view",
      "type": "function"
    },
    {
      "inputs": [
        {
          "internalType": "uint256",
          "name": "_vestingBoxId",
          "type": "uint256"
        }
      ],
      "name": "getVestingBox",
      "outputs": [
        {
          "components": [
            {
              "internalType": "address",
              "name": "token",
              "type": "address"
            },
            {
              "internalType": "address",
              "name": "creator",
              "type": "address"
            }
          ],
          "internalType": "struct VestCore.VestingBox",
          "name": "vestingBox",
          "type": "tuple"
        }
      ],
      "stateMutability": "view",
      "type": "function"
    },
    {
      "inputs": [
        {
          "internalType": "uint256",
          "name": "_vBoxId",
          "type": "uint256"
        },
        {
          "internalType": "address",
          "name": "_account",
          "type": "address"
        }
      ],
      "name": "getWithdrawableAmount",
      "outputs": [
        {
          "internalType": "uint256",
          "name": "",
          "type": "uint256"
        }
      ],
      "stateMutability": "view",
      "type": "function"
    },
    {
      "inputs": [],
      "name": "owner",
      "outputs": [
        {
          "internalType": "address",
          "name": "",
          "type": "address"
        }
      ],
      "stateMutability": "view",
      "type": "function"
    },
    {
      "inputs": [
        {
          "internalType": "uint256",
          "name": "_vBoxId",
          "type": "uint256"
        },
        {
          "internalType": "address",
          "name": "_account",
          "type": "address"
        }
      ],
      "name": "removeAccountFromVestingBox",
      "outputs": [],
      "stateMutability": "nonpayable",
      "type": "function"
    },
    {
      "inputs": [],
      "name": "renounceOwnership",
      "outputs": [],
      "stateMutability": "nonpayable",
      "type": "function"
    },
    {
      "inputs": [
        {
          "internalType": "uint256",
          "name": "_fee",
          "type": "uint256"
        }
      ],
      "name": "setFee",
      "outputs": [],
      "stateMutability": "nonpayable",
      "type": "function"
    },
    {
      "inputs": [
        {
          "internalType": "contract IVestERC20Factory",
          "name": "_newFactory",
          "type": "address"
        }
      ],
      "name": "setTokenFactory",
      "outputs": [],
      "stateMutability": "nonpayable",
      "type": "function"
    },
    {
      "inputs": [
        {
          "internalType": "uint256",
          "name": "_vBoxId",
          "type": "uint256"
        },
        {
          "internalType": "address",
          "name": "_account",
          "type": "address"
        },
        {
          "internalType": "bool",
          "name": "_isAdmin",
          "type": "bool"
        }
      ],
      "name": "setVestingBoxAdmin",
      "outputs": [],
      "stateMutability": "nonpayable",
      "type": "function"
    },
    {
      "inputs": [],
      "name": "tokenFactory",
      "outputs": [
        {
          "internalType": "contract IVestERC20Factory",
          "name": "",
          "type": "address"
        }
      ],
      "stateMutability": "view",
      "type": "function"
    },
    {
      "inputs": [
        {
          "internalType": "address",
          "name": "newOwner",
          "type": "address"
        }
      ],
      "name": "transferOwnership",
      "outputs": [],
      "stateMutability": "nonpayable",
      "type": "function"
    },
    {
      "inputs": [],
      "name": "vBoxCount",
      "outputs": [
        {
          "internalType": "uint256",
          "name": "",
          "type": "uint256"
        }
      ],
      "stateMutability": "view",
      "type": "function"
    },
    {
      "inputs": [
        {
          "internalType": "uint256",
          "name": "_amount",
          "type": "uint256"
        },
        {
          "internalType": "address",
          "name": "_to",
          "type": "address"
        }
      ],
      "name": "withdrawETHFees",
      "outputs": [],
      "stateMutability": "nonpayable",
      "type": "function"
    },
    {
      "inputs": [
        {
          "internalType": "address",
          "name": "_token",
          "type": "address"
        },
        {
          "internalType": "uint256",
          "name": "_amount",
          "type": "uint256"
        },
        {
          "internalType": "address",
          "name": "_to",
          "type": "address"
        }
      ],
      "name": "withdrawTokenFees",
      "outputs": [],
      "stateMutability": "nonpayable",
      "type": "function"
    }
  ],
  "bytecode": "0x608060405266038d7ea4c68000600155600060025573eeeeeeeeeeeeeeeeeeeeeeeeeeeeeeeeeeeeeeee600460006101000a81548173ffffffffffffffffffffffffffffffffffffffff021916908373ffffffffffffffffffffffffffffffffffffffff1602179055503480156200007657600080fd5b50620000976200008b6200009d60201b60201c565b620000a560201b60201c565b62000169565b600033905090565b60008060009054906101000a900473ffffffffffffffffffffffffffffffffffffffff169050816000806101000a81548173ffffffffffffffffffffffffffffffffffffffff021916908373ffffffffffffffffffffffffffffffffffffffff1602179055508173ffffffffffffffffffffffffffffffffffffffff168173ffffffffffffffffffffffffffffffffffffffff167f8be0079c531659141344cd1fd0a4f28419497f9722a3daafe3b4186f6b6457e060405160405180910390a35050565b6145f580620001796000396000f3fe60806040526004361061014b5760003560e01c806395be5498116100b6578063ddca3f431161006f578063ddca3f43146104cb578063e77772fe146104f6578063e9b3663e14610521578063ec4d26cf1461054c578063eced552614610575578063f2fde38b146105a05761014b565b806395be549814610385578063c6530006146103ae578063c68482a7146103eb578063c8c5074214610428578063ce21131a14610465578063d3d072cc146104a25761014b565b806369fe0e2d1161010857806369fe0e2d1461029d578063715018a6146102c657806371b4e6e7146102dd5780638322fff2146103065780638cfe046e146103315780638da5cb5b1461035a5761014b565b80632f73a9f814610150578063359cd45e146101795780633c89d06b146101b65780634a918a0c146101e6578063518872391461022357806356be3a6014610260575b600080fd5b34801561015c57600080fd5b5061017760048036038101906101729190612f43565b6105c9565b005b34801561018557600080fd5b506101a0600480360381019061019b9190612fd2565b6106f9565b6040516101ad9190613021565b60405180910390f35b6101d060048036038101906101cb91906132ce565b610acc565b6040516101dd9190613388565b60405180910390f35b3480156101f257600080fd5b5061020d600480360381019061020891906133a3565b610b40565b60405161021a9190613021565b60405180910390f35b34801561022f57600080fd5b5061024a600480360381019061024591906133d0565b610cd8565b6040516102579190613388565b60405180910390f35b34801561026c57600080fd5b506102876004803603810190610282919061346b565b610dc7565b6040516102949190613388565b60405180910390f35b3480156102a957600080fd5b506102c460048036038101906102bf9190613586565b610e2a565b005b3480156102d257600080fd5b506102db610efb565b005b3480156102e957600080fd5b5061030460048036038101906102ff9190612fd2565b610f83565b005b34801561031257600080fd5b5061031b61115f565b60405161032891906135c2565b60405180910390f35b34801561033d57600080fd5b50610358600480360381019061035391906135dd565b611185565b005b34801561036657600080fd5b5061036f611598565b60405161037c91906135c2565b60405180910390f35b34801561039157600080fd5b506103ac60048036038101906103a79190613630565b6115c1565b005b3480156103ba57600080fd5b506103d560048036038101906103d091906133a3565b6117c7565b6040516103e29190613021565b60405180910390f35b3480156103f757600080fd5b50610412600480360381019061040d9190613586565b611810565b60405161041f91906136c1565b60405180910390f35b34801561043457600080fd5b5061044f600480360381019061044a9190612fd2565b611905565b60405161045c9190613021565b60405180910390f35b34801561047157600080fd5b5061048c600480360381019061048791906132ce565b611c1c565b6040516104999190613388565b60405180910390f35b3480156104ae57600080fd5b506104c960048036038101906104c49190613708565b611c36565b005b3480156104d757600080fd5b506104e0611d7e565b6040516104ed9190613021565b60405180910390f35b34801561050257600080fd5b5061050b611d84565b60405161051891906137ba565b60405180910390f35b34801561052d57600080fd5b50610536611daa565b6040516105439190613021565b60405180910390f35b34801561055857600080fd5b50610573600480360381019061056e9190612fd2565b611db0565b005b34801561058157600080fd5b5061058a612200565b6040516105979190613021565b60405180910390f35b3480156105ac57600080fd5b506105c760048036038101906105c291906133a3565b61220c565b005b6105d1612304565b73ffffffffffffffffffffffffffffffffffffffff166105ef611598565b73ffffffffffffffffffffffffffffffffffffffff1614610645576040517f08c379a000000000000000000000000000000000000000000000000000000000815260040161063c90613832565b60405180910390fd5b600073ffffffffffffffffffffffffffffffffffffffff168173ffffffffffffffffffffffffffffffffffffffff1614156106b5576040517f08c379a00000000000000000000000000000000000000000000000000000000081526004016106ac9061389e565b60405180910390fd5b80600360006101000a81548173ffffffffffffffffffffffffffffffffffffffff021916908373ffffffffffffffffffffffffffffffffffffffff16021790555050565b60006006600084815260200190815260200160002060008373ffffffffffffffffffffffffffffffffffffffff1673ffffffffffffffffffffffffffffffffffffffff16815260200190815260200160002060020160109054906101000a90046fffffffffffffffffffffffffffffffff166fffffffffffffffffffffffffffffffff16421061083c576006600084815260200190815260200160002060008373ffffffffffffffffffffffffffffffffffffffff1673ffffffffffffffffffffffffffffffffffffffff168152602001908152602001600020600101546006600085815260200190815260200160002060008473ffffffffffffffffffffffffffffffffffffffff1673ffffffffffffffffffffffffffffffffffffffff1681526020019081526020016000206000015461083591906138ed565b9050610ac6565b60006006600085815260200190815260200160002060008473ffffffffffffffffffffffffffffffffffffffff1673ffffffffffffffffffffffffffffffffffffffff16815260200190815260200160002060020160009054906101000a90046fffffffffffffffffffffffffffffffff166fffffffffffffffffffffffffffffffff16426108cb91906138ed565b905060006006600086815260200190815260200160002060008573ffffffffffffffffffffffffffffffffffffffff1673ffffffffffffffffffffffffffffffffffffffff16815260200190815260200160002060020160009054906101000a90046fffffffffffffffffffffffffffffffff166006600087815260200190815260200160002060008673ffffffffffffffffffffffffffffffffffffffff1673ffffffffffffffffffffffffffffffffffffffff16815260200190815260200160002060020160109054906101000a90046fffffffffffffffffffffffffffffffff166109b99190613921565b6fffffffffffffffffffffffffffffffff1690506000670de0b6b3a7640000826109e39190613955565b670de0b6b3a764000084600660008a815260200190815260200160002060008973ffffffffffffffffffffffffffffffffffffffff1673ffffffffffffffffffffffffffffffffffffffff16815260200190815260200160002060000154610a4b9190613955565b610a559190613955565b610a5f91906139de565b90506006600087815260200190815260200160002060008673ffffffffffffffffffffffffffffffffffffffff1673ffffffffffffffffffffffffffffffffffffffff1681526020019081526020016000206001015481610ac091906138ed565b93505050505b92915050565b6000600460009054906101000a900473ffffffffffffffffffffffffffffffffffffffff16846000019073ffffffffffffffffffffffffffffffffffffffff16908173ffffffffffffffffffffffffffffffffffffffff1681525050610b3685858585600061230c565b9050949350505050565b6000600460009054906101000a900473ffffffffffffffffffffffffffffffffffffffff1673ffffffffffffffffffffffffffffffffffffffff168273ffffffffffffffffffffffffffffffffffffffff161415610c0c5760086000600460009054906101000a900473ffffffffffffffffffffffffffffffffffffffff1673ffffffffffffffffffffffffffffffffffffffff1673ffffffffffffffffffffffffffffffffffffffff1681526020019081526020016000205447610c0591906138ed565b9050610cd3565b600860008373ffffffffffffffffffffffffffffffffffffffff1673ffffffffffffffffffffffffffffffffffffffff168152602001908152602001600020548273ffffffffffffffffffffffffffffffffffffffff166370a08231306040518263ffffffff1660e01b8152600401610c8591906135c2565b602060405180830381865afa158015610ca2573d6000803e3d6000fd5b505050506040513d601f19601f82011682018060405250810190610cc69190613a24565b610cd091906138ed565b90505b919050565b600080610ce584336106f9565b905082811015610d2a576040517f08c379a0000000000000000000000000000000000000000000000000000000008152600401610d2190613a9d565b60405180910390fd5b610d348484612946565b506005600085815260200190815260200160002060000160009054906101000a900473ffffffffffffffffffffffffffffffffffffffff1673ffffffffffffffffffffffffffffffffffffffff16847f8eb0865c9da68f6f207dae091828f315df4736814a358375142237af0e0d374b8533604051610db4929190613abd565b60405180910390a3600191505092915050565b6000610dd68686868686612bb6565b896000019073ffffffffffffffffffffffffffffffffffffffff16908173ffffffffffffffffffffffffffffffffffffffff1681525050610e1b8a8a8a8a600161230c565b90509998505050505050505050565b610e32612304565b73ffffffffffffffffffffffffffffffffffffffff16610e50611598565b73ffffffffffffffffffffffffffffffffffffffff1614610ea6576040517f08c379a0000000000000000000000000000000000000000000000000000000008152600401610e9d90613832565b60405180910390fd5b670de0b6b3a7640000811115610ef1576040517f08c379a0000000000000000000000000000000000000000000000000000000008152600401610ee890613b32565b60405180910390fd5b8060018190555050565b610f03612304565b73ffffffffffffffffffffffffffffffffffffffff16610f21611598565b73ffffffffffffffffffffffffffffffffffffffff1614610f77576040517f08c379a0000000000000000000000000000000000000000000000000000000008152600401610f6e90613832565b60405180910390fd5b610f816000612ca5565b565b610f8b612304565b73ffffffffffffffffffffffffffffffffffffffff16610fa9611598565b73ffffffffffffffffffffffffffffffffffffffff1614610fff576040517f08c379a0000000000000000000000000000000000000000000000000000000008152600401610ff690613832565b60405180910390fd5b8160086000600460009054906101000a900473ffffffffffffffffffffffffffffffffffffffff1673ffffffffffffffffffffffffffffffffffffffff1673ffffffffffffffffffffffffffffffffffffffff168152602001908152602001600020544761106d91906138ed565b10156110ae576040517f08c379a00000000000000000000000000000000000000000000000000000000081526004016110a590613b9e565b60405180910390fd5b60008173ffffffffffffffffffffffffffffffffffffffff16836040516110d490613bef565b60006040518083038185875af1925050503d8060008114611111576040519150601f19603f3d011682016040523d82523d6000602084013e611116565b606091505b505090508061115a576040517f08c379a000000000000000000000000000000000000000000000000000000000815260040161115190613c50565b60405180910390fd5b505050565b600460009054906101000a900473ffffffffffffffffffffffffffffffffffffffff1681565b82336007600083815260200190815260200160002060008273ffffffffffffffffffffffffffffffffffffffff1673ffffffffffffffffffffffffffffffffffffffff16815260200190815260200160002060009054906101000a900460ff16611224576040517f08c379a000000000000000000000000000000000000000000000000000000000815260040161121b90613cbc565b60405180910390fd5b60006006600087815260200190815260200160002060008673ffffffffffffffffffffffffffffffffffffffff1673ffffffffffffffffffffffffffffffffffffffff16815260200190815260200160002060000154146112ba576040517f08c379a00000000000000000000000000000000000000000000000000000000081526004016112b190613d28565b60405180910390fd5b6112c383612d69565b6005600086815260200190815260200160002060000160009054906101000a900473ffffffffffffffffffffffffffffffffffffffff1673ffffffffffffffffffffffffffffffffffffffff166323b872dd333086600001516040518463ffffffff1660e01b815260040161133a93929190613d48565b6020604051808303816000875af1158015611359573d6000803e3d6000fd5b505050506040513d601f19601f8201168201806040525081019061137d9190613d94565b6113bc576040517f08c379a00000000000000000000000000000000000000000000000000000000081526004016113b390613e0d565b60405180910390fd5b826006600087815260200190815260200160002060008673ffffffffffffffffffffffffffffffffffffffff1673ffffffffffffffffffffffffffffffffffffffff168152602001908152602001600020600082015181600001556020820151816001015560408201518160020160006101000a8154816fffffffffffffffffffffffffffffffff02191690836fffffffffffffffffffffffffffffffff16021790555060608201518160020160106101000a8154816fffffffffffffffffffffffffffffffff02191690836fffffffffffffffffffffffffffffffff1602179055509050508260000151600860006005600089815260200190815260200160002060000160009054906101000a900473ffffffffffffffffffffffffffffffffffffffff1673ffffffffffffffffffffffffffffffffffffffff1673ffffffffffffffffffffffffffffffffffffffff168152602001908152602001600020600082825461152b9190613e2d565b925050819055508373ffffffffffffffffffffffffffffffffffffffff16857f236863ed9b5b67391d1853c2b5e55b684b717ef915bbb6d230a449be56125e0e85600001518660400151876060015160405161158993929190613e92565b60405180910390a35050505050565b60008060009054906101000a900473ffffffffffffffffffffffffffffffffffffffff16905090565b6115c9612304565b73ffffffffffffffffffffffffffffffffffffffff166115e7611598565b73ffffffffffffffffffffffffffffffffffffffff161461163d576040517f08c379a000000000000000000000000000000000000000000000000000000000815260040161163490613832565b60405180910390fd5b81600860008573ffffffffffffffffffffffffffffffffffffffff1673ffffffffffffffffffffffffffffffffffffffff168152602001908152602001600020548473ffffffffffffffffffffffffffffffffffffffff166370a08231306040518263ffffffff1660e01b81526004016116b791906135c2565b602060405180830381865afa1580156116d4573d6000803e3d6000fd5b505050506040513d601f19601f820116820180604052508101906116f89190613a24565b61170291906138ed565b1015611743576040517f08c379a000000000000000000000000000000000000000000000000000000000815260040161173a90613b9e565b60405180910390fd5b8273ffffffffffffffffffffffffffffffffffffffff1663a9059cbb82846040518363ffffffff1660e01b815260040161177e929190613ec9565b6020604051808303816000875af115801561179d573d6000803e3d6000fd5b505050506040513d601f19601f820116820180604052508101906117c19190613d94565b50505050565b6000600860008373ffffffffffffffffffffffffffffffffffffffff1673ffffffffffffffffffffffffffffffffffffffff168152602001908152602001600020549050919050565b611818612e79565b6000821161182557600080fd5b60025482111561183457600080fd5b600560008381526020019081526020016000206040518060400160405290816000820160009054906101000a900473ffffffffffffffffffffffffffffffffffffffff1673ffffffffffffffffffffffffffffffffffffffff1673ffffffffffffffffffffffffffffffffffffffff1681526020016001820160009054906101000a900473ffffffffffffffffffffffffffffffffffffffff1673ffffffffffffffffffffffffffffffffffffffff1673ffffffffffffffffffffffffffffffffffffffff16815250509050919050565b60006006600084815260200190815260200160002060008373ffffffffffffffffffffffffffffffffffffffff1673ffffffffffffffffffffffffffffffffffffffff16815260200190815260200160002060020160109054906101000a90046fffffffffffffffffffffffffffffffff166fffffffffffffffffffffffffffffffff1642106119ea576006600084815260200190815260200160002060008373ffffffffffffffffffffffffffffffffffffffff1673ffffffffffffffffffffffffffffffffffffffff168152602001908152602001600020600001549050611c16565b60006006600085815260200190815260200160002060008473ffffffffffffffffffffffffffffffffffffffff1673ffffffffffffffffffffffffffffffffffffffff16815260200190815260200160002060020160009054906101000a90046fffffffffffffffffffffffffffffffff166fffffffffffffffffffffffffffffffff1642611a7991906138ed565b905060006006600086815260200190815260200160002060008573ffffffffffffffffffffffffffffffffffffffff1673ffffffffffffffffffffffffffffffffffffffff16815260200190815260200160002060020160009054906101000a90046fffffffffffffffffffffffffffffffff166006600087815260200190815260200160002060008673ffffffffffffffffffffffffffffffffffffffff1673ffffffffffffffffffffffffffffffffffffffff16815260200190815260200160002060020160109054906101000a90046fffffffffffffffffffffffffffffffff16611b679190613921565b6fffffffffffffffffffffffffffffffff1690506000670de0b6b3a764000082611b919190613955565b670de0b6b3a764000084600660008a815260200190815260200160002060008973ffffffffffffffffffffffffffffffffffffffff1673ffffffffffffffffffffffffffffffffffffffff16815260200190815260200160002060000154611bf99190613955565b611c039190613955565b611c0d91906139de565b90508093505050505b92915050565b6000611c2c85858585600061230c565b9050949350505050565b82336007600083815260200190815260200160002060008273ffffffffffffffffffffffffffffffffffffffff1673ffffffffffffffffffffffffffffffffffffffff16815260200190815260200160002060009054906101000a900460ff16611cd5576040517f08c379a0000000000000000000000000000000000000000000000000000000008152600401611ccc90613cbc565b60405180910390fd5b826007600087815260200190815260200160002060008673ffffffffffffffffffffffffffffffffffffffff1673ffffffffffffffffffffffffffffffffffffffff16815260200190815260200160002060006101000a81548160ff021916908315150217905550847f3f82e6ad49df50c375ed08891b7f6c57d8827a148033a02f32ca1ae3aa265a428585604051611d6f929190613ef2565b60405180910390a25050505050565b60015481565b600360009054906101000a900473ffffffffffffffffffffffffffffffffffffffff1681565b60025481565b81336007600083815260200190815260200160002060008273ffffffffffffffffffffffffffffffffffffffff1673ffffffffffffffffffffffffffffffffffffffff16815260200190815260200160002060009054906101000a900460ff16611e4f576040517f08c379a0000000000000000000000000000000000000000000000000000000008152600401611e4690613cbc565b60405180910390fd5b60006006600086815260200190815260200160002060008573ffffffffffffffffffffffffffffffffffffffff1673ffffffffffffffffffffffffffffffffffffffff16815260200190815260200160002060405180608001604052908160008201548152602001600182015481526020016002820160009054906101000a90046fffffffffffffffffffffffffffffffff166fffffffffffffffffffffffffffffffff166fffffffffffffffffffffffffffffffff1681526020016002820160109054906101000a90046fffffffffffffffffffffffffffffffff166fffffffffffffffffffffffffffffffff166fffffffffffffffffffffffffffffffff168152505090506000600560008781526020019081526020016000206040518060400160405290816000820160009054906101000a900473ffffffffffffffffffffffffffffffffffffffff1673ffffffffffffffffffffffffffffffffffffffff1673ffffffffffffffffffffffffffffffffffffffff1681526020016001820160009054906101000a900473ffffffffffffffffffffffffffffffffffffffff1673ffffffffffffffffffffffffffffffffffffffff1673ffffffffffffffffffffffffffffffffffffffff168152505090504282606001516fffffffffffffffffffffffffffffffff161161207c576040517f08c379a000000000000000000000000000000000000000000000000000000000815260040161207390613f67565b60405180910390fd5b60008260000151905061208f8787611905565b8360000181815250504283606001906fffffffffffffffffffffffffffffffff1690816fffffffffffffffffffffffffffffffff168152505060008360000151826120da91906138ed565b9050826000015173ffffffffffffffffffffffffffffffffffffffff1663a9059cbb8460200151836040518363ffffffff1660e01b815260040161211f929190613ec9565b6020604051808303816000875af115801561213e573d6000803e3d6000fd5b505050506040513d601f19601f820116820180604052508101906121629190613d94565b6121a1576040517f08c379a000000000000000000000000000000000000000000000000000000000815260040161219890613fd3565b60405180910390fd5b8673ffffffffffffffffffffffffffffffffffffffff16887fad772910df1874c8842aff0676e9915104973cf4a210c66a8149079c1851e3cd8660000151846040516121ee929190613ff3565b60405180910390a35050505050505050565b670de0b6b3a764000081565b612214612304565b73ffffffffffffffffffffffffffffffffffffffff16612232611598565b73ffffffffffffffffffffffffffffffffffffffff1614612288576040517f08c379a000000000000000000000000000000000000000000000000000000000815260040161227f90613832565b60405180910390fd5b600073ffffffffffffffffffffffffffffffffffffffff168173ffffffffffffffffffffffffffffffffffffffff1614156122f8576040517f08c379a00000000000000000000000000000000000000000000000000000000081526004016122ef9061408e565b60405180910390fd5b61230181612ca5565b50565b600033905090565b6000808611612350576040517f08c379a0000000000000000000000000000000000000000000000000000000008152600401612347906140fa565b60405180910390fd5b60008380602001906123629190614129565b9050116123a4576040517f08c379a000000000000000000000000000000000000000000000000000000000815260040161239b906141d8565b60405180910390fd5b83518380602001906123b69190614129565b9050146123f8576040517f08c379a00000000000000000000000000000000000000000000000000000000081526004016123ef90614244565b60405180910390fd5b600460009054906101000a900473ffffffffffffffffffffffffffffffffffffffff1673ffffffffffffffffffffffffffffffffffffffff16856000015173ffffffffffffffffffffffffffffffffffffffff1614156124965785341015612495576040517f08c379a000000000000000000000000000000000000000000000000000000000815260040161248c906142b0565b60405180910390fd5b5b6000805b85518110156124e2578581815181106124b6576124b56142d0565b5b602002602001015160000151826124cd9190613e2d565b915080806124da906142ff565b91505061249a565b50868114612525576040517f08c379a000000000000000000000000000000000000000000000000000000000815260040161251c90614394565b60405180910390fd5b600460009054906101000a900473ffffffffffffffffffffffffffffffffffffffff1673ffffffffffffffffffffffffffffffffffffffff16866000015173ffffffffffffffffffffffffffffffffffffffff1614158015612585575082155b1561264e57856000015173ffffffffffffffffffffffffffffffffffffffff166323b872dd33308a6040518463ffffffff1660e01b81526004016125cb93929190613d48565b6020604051808303816000875af11580156125ea573d6000803e3d6000fd5b505050506040513d601f19601f8201168201806040525081019061260e9190613d94565b61264d576040517f08c379a000000000000000000000000000000000000000000000000000000000815260040161264490613e0d565b60405180910390fd5b5b60026000815480929190612661906142ff565b91905055508560056000600254815260200190815260200160002060008201518160000160006101000a81548173ffffffffffffffffffffffffffffffffffffffff021916908373ffffffffffffffffffffffffffffffffffffffff16021790555060208201518160010160006101000a81548173ffffffffffffffffffffffffffffffffffffffff021916908373ffffffffffffffffffffffffffffffffffffffff16021790555090505060005b85518110156128865761273c86828151811061272f5761272e6142d0565b5b6020026020010151612d69565b85818151811061274f5761274e6142d0565b5b6020026020010151600660006002548152602001908152602001600020600087806020019061277e9190614129565b8581811061278f5761278e6142d0565b5b90506020020160208101906127a491906133a3565b73ffffffffffffffffffffffffffffffffffffffff1673ffffffffffffffffffffffffffffffffffffffff168152602001908152602001600020600082015181600001556020820151816001015560408201518160020160006101000a8154816fffffffffffffffffffffffffffffffff02191690836fffffffffffffffffffffffffffffffff16021790555060608201518160020160106101000a8154816fffffffffffffffffffffffffffffffff02191690836fffffffffffffffffffffffffffffffff160217905550905050808061287e906142ff565b915050612710565b508660086000886000015173ffffffffffffffffffffffffffffffffffffffff1673ffffffffffffffffffffffffffffffffffffffff16815260200190815260200160002060008282546128da9190613e2d565b92505081905550856000015173ffffffffffffffffffffffffffffffffffffffff166002547f09f269811cffd09fb630ee319c1b845625b319c2446953fc766a761a64c47bc4338a604051612930929190613ec9565b60405180910390a3600191505095945050505050565b60008060009050826006600086815260200190815260200160002060003373ffffffffffffffffffffffffffffffffffffffff1673ffffffffffffffffffffffffffffffffffffffff16815260200190815260200160002060010160008282546129b09190613e2d565b92505081905550600460009054906101000a900473ffffffffffffffffffffffffffffffffffffffff1673ffffffffffffffffffffffffffffffffffffffff166005600086815260200190815260200160002060000160009054906101000a900473ffffffffffffffffffffffffffffffffffffffff1673ffffffffffffffffffffffffffffffffffffffff161415612ab4573373ffffffffffffffffffffffffffffffffffffffff1683604051612a6790613bef565b60006040518083038185875af1925050503d8060008114612aa4576040519150601f19603f3d011682016040523d82523d6000602084013e612aa9565b606091505b505080915050612b6b565b6005600085815260200190815260200160002060000160009054906101000a900473ffffffffffffffffffffffffffffffffffffffff1673ffffffffffffffffffffffffffffffffffffffff1663a9059cbb33856040518363ffffffff1660e01b8152600401612b25929190613ec9565b6020604051808303816000875af1158015612b44573d6000803e3d6000fd5b505050506040513d601f19601f82011682018060405250810190612b689190613d94565b90505b80612bab576040517f08c379a0000000000000000000000000000000000000000000000000000000008152600401612ba290614400565b60405180910390fd5b600191505092915050565b600080600360009054906101000a900473ffffffffffffffffffffffffffffffffffffffff1673ffffffffffffffffffffffffffffffffffffffff166372e4352d88888888886040518663ffffffff1660e01b8152600401612c1c95949392919061445c565b6020604051808303816000875af1158015612c3b573d6000803e3d6000fd5b505050506040513d601f19601f82011682018060405250810190612c5f91906144ba565b90507f41039c8b82bb5a365f56b4f9d87cee99e069b450bfdc3d87696fcd87783f24c181604051612c9091906135c2565b60405180910390a18091505095945050505050565b60008060009054906101000a900473ffffffffffffffffffffffffffffffffffffffff169050816000806101000a81548173ffffffffffffffffffffffffffffffffffffffff021916908373ffffffffffffffffffffffffffffffffffffffff1602179055508173ffffffffffffffffffffffffffffffffffffffff168173ffffffffffffffffffffffffffffffffffffffff167f8be0079c531659141344cd1fd0a4f28419497f9722a3daafe3b4186f6b6457e060405160405180910390a35050565b80606001516fffffffffffffffffffffffffffffffff1681604001516fffffffffffffffffffffffffffffffff1610612dd7576040517f08c379a0000000000000000000000000000000000000000000000000000000008152600401612dce90614533565b60405180910390fd5b4281606001516fffffffffffffffffffffffffffffffff1611612e2f576040517f08c379a0000000000000000000000000000000000000000000000000000000008152600401612e269061459f565b60405180910390fd5b6000816000015111612e76576040517f08c379a0000000000000000000000000000000000000000000000000000000008152600401612e6d906140fa565b60405180910390fd5b50565b6040518060400160405280600073ffffffffffffffffffffffffffffffffffffffff168152602001600073ffffffffffffffffffffffffffffffffffffffff1681525090565b6000604051905090565b600080fd5b600080fd5b600073ffffffffffffffffffffffffffffffffffffffff82169050919050565b6000612efe82612ed3565b9050919050565b6000612f1082612ef3565b9050919050565b612f2081612f05565b8114612f2b57600080fd5b50565b600081359050612f3d81612f17565b92915050565b600060208284031215612f5957612f58612ec9565b5b6000612f6784828501612f2e565b91505092915050565b6000819050919050565b612f8381612f70565b8114612f8e57600080fd5b50565b600081359050612fa081612f7a565b92915050565b612faf81612ef3565b8114612fba57600080fd5b50565b600081359050612fcc81612fa6565b92915050565b60008060408385031215612fe957612fe8612ec9565b5b6000612ff785828601612f91565b925050602061300885828601612fbd565b9150509250929050565b61301b81612f70565b82525050565b60006020820190506130366000830184613012565b92915050565b600080fd5b6000601f19601f8301169050919050565b7f4e487b7100000000000000000000000000000000000000000000000000000000600052604160045260246000fd5b61308a82613041565b810181811067ffffffffffffffff821117156130a9576130a8613052565b5b80604052505050565b60006130bc612ebf565b90506130c88282613081565b919050565b6000604082840312156130e3576130e261303c565b5b6130ed60406130b2565b905060006130fd84828501612fbd565b600083015250602061311184828501612fbd565b60208301525092915050565b600080fd5b600067ffffffffffffffff82111561313d5761313c613052565b5b602082029050602081019050919050565b600080fd5b60006fffffffffffffffffffffffffffffffff82169050919050565b61317881613153565b811461318357600080fd5b50565b6000813590506131958161316f565b92915050565b6000608082840312156131b1576131b061303c565b5b6131bb60806130b2565b905060006131cb84828501612f91565b60008301525060206131df84828501612f91565b60208301525060406131f384828501613186565b604083015250606061320784828501613186565b60608301525092915050565b600061322661322184613122565b6130b2565b905080838252602082019050608084028301858111156132495761324861314e565b5b835b81811015613272578061325e888261319b565b84526020840193505060808101905061324b565b5050509392505050565b600082601f8301126132915761329061311d565b5b81356132a1848260208601613213565b91505092915050565b600080fd5b6000604082840312156132c5576132c46132aa565b5b81905092915050565b60008060008060a085870312156132e8576132e7612ec9565b5b60006132f687828801612f91565b9450506020613307878288016130cd565b935050606085013567ffffffffffffffff81111561332857613327612ece565b5b6133348782880161327c565b925050608085013567ffffffffffffffff81111561335557613354612ece565b5b613361878288016132af565b91505092959194509250565b60008115159050919050565b6133828161336d565b82525050565b600060208201905061339d6000830184613379565b92915050565b6000602082840312156133b9576133b8612ec9565b5b60006133c784828501612fbd565b91505092915050565b600080604083850312156133e7576133e6612ec9565b5b60006133f585828601612f91565b925050602061340685828601612f91565b9150509250929050565b600080fd5b60008083601f84011261342b5761342a61311d565b5b8235905067ffffffffffffffff81111561344857613447613410565b5b6020830191508360018202830111156134645761346361314e565b5b9250929050565b60008060008060008060008060006101008a8c03121561348e5761348d612ec9565b5b600061349c8c828d01612f91565b99505060206134ad8c828d016130cd565b98505060608a013567ffffffffffffffff8111156134ce576134cd612ece565b5b6134da8c828d0161327c565b97505060808a013567ffffffffffffffff8111156134fb576134fa612ece565b5b6135078c828d016132af565b96505060a08a013567ffffffffffffffff81111561352857613527612ece565b5b6135348c828d01613415565b955095505060c08a013567ffffffffffffffff81111561355757613556612ece565b5b6135638c828d01613415565b935093505060e06135768c828d01612f91565b9150509295985092959850929598565b60006020828403121561359c5761359b612ec9565b5b60006135aa84828501612f91565b91505092915050565b6135bc81612ef3565b82525050565b60006020820190506135d760008301846135b3565b92915050565b600080600060c084860312156135f6576135f5612ec9565b5b600061360486828701612f91565b935050602061361586828701612fbd565b92505060406136268682870161319b565b9150509250925092565b60008060006060848603121561364957613648612ec9565b5b600061365786828701612fbd565b935050602061366886828701612f91565b925050604061367986828701612fbd565b9150509250925092565b61368c81612ef3565b82525050565b6040820160008201516136a86000850182613683565b5060208201516136bb6020850182613683565b50505050565b60006040820190506136d66000830184613692565b92915050565b6136e58161336d565b81146136f057600080fd5b50565b600081359050613702816136dc565b92915050565b60008060006060848603121561372157613720612ec9565b5b600061372f86828701612f91565b935050602061374086828701612fbd565b9250506040613751868287016136f3565b9150509250925092565b6000819050919050565b600061378061377b61377684612ed3565b61375b565b612ed3565b9050919050565b600061379282613765565b9050919050565b60006137a482613787565b9050919050565b6137b481613799565b82525050565b60006020820190506137cf60008301846137ab565b92915050565b600082825260208201905092915050565b7f4f776e61626c653a2063616c6c6572206973206e6f7420746865206f776e6572600082015250565b600061381c6020836137d5565b9150613827826137e6565b602082019050919050565b6000602082019050818103600083015261384b8161380f565b9050919050565b7f564553543a20464143544f5259204e4f54205a45524f20414444524553530000600082015250565b6000613888601e836137d5565b915061389382613852565b602082019050919050565b600060208201905081810360008301526138b78161387b565b9050919050565b7f4e487b7100000000000000000000000000000000000000000000000000000000600052601160045260246000fd5b60006138f882612f70565b915061390383612f70565b925082821015613916576139156138be565b5b828203905092915050565b600061392c82613153565b915061393783613153565b92508282101561394a576139496138be565b5b828203905092915050565b600061396082612f70565b915061396b83612f70565b9250817fffffffffffffffffffffffffffffffffffffffffffffffffffffffffffffffff04831182151516156139a4576139a36138be565b5b828202905092915050565b7f4e487b7100000000000000000000000000000000000000000000000000000000600052601260045260246000fd5b60006139e982612f70565b91506139f483612f70565b925082613a0457613a036139af565b5b828204905092915050565b600081519050613a1e81612f7a565b92915050565b600060208284031215613a3a57613a39612ec9565b5b6000613a4884828501613a0f565b91505092915050565b7f564553543a204e4f5420454e4f55474820564553544544000000000000000000600082015250565b6000613a876017836137d5565b9150613a9282613a51565b602082019050919050565b60006020820190508181036000830152613ab681613a7a565b9050919050565b6000604082019050613ad26000830185613012565b613adf60208301846135b3565b9392505050565b7f564553543a20464545204d555354204245203c20313030250000000000000000600082015250565b6000613b1c6018836137d5565b9150613b2782613ae6565b602082019050919050565b60006020820190508181036000830152613b4b81613b0f565b9050919050565b7f564553543a20414d4f554e5420544f4f20484947480000000000000000000000600082015250565b6000613b886015836137d5565b9150613b9382613b52565b602082019050919050565b60006020820190508181036000830152613bb781613b7b565b9050919050565b600081905092915050565b50565b6000613bd9600083613bbe565b9150613be482613bc9565b600082019050919050565b6000613bfa82613bcc565b9150819050919050565b7f564553543a20455448205452414e53464552204641494c454400000000000000600082015250565b6000613c3a6019836137d5565b9150613c4582613c04565b602082019050919050565b60006020820190508181036000830152613c6981613c2d565b9050919050565b7f564553543a204e4f542056424f582041444d494e000000000000000000000000600082015250565b6000613ca66014836137d5565b9150613cb182613c70565b602082019050919050565b60006020820190508181036000830152613cd581613c99565b9050919050565b7f564553543a204143434f554e5420414c524541445920494e20424f5800000000600082015250565b6000613d12601c836137d5565b9150613d1d82613cdc565b602082019050919050565b60006020820190508181036000830152613d4181613d05565b9050919050565b6000606082019050613d5d60008301866135b3565b613d6a60208301856135b3565b613d776040830184613012565b949350505050565b600081519050613d8e816136dc565b92915050565b600060208284031215613daa57613da9612ec9565b5b6000613db884828501613d7f565b91505092915050565b7f564553543a20544f4b454e205452414e53464552204641494c45440000000000600082015250565b6000613df7601b836137d5565b9150613e0282613dc1565b602082019050919050565b60006020820190508181036000830152613e2681613dea565b9050919050565b6000613e3882612f70565b9150613e4383612f70565b9250827fffffffffffffffffffffffffffffffffffffffffffffffffffffffffffffffff03821115613e7857613e776138be565b5b828201905092915050565b613e8c81613153565b82525050565b6000606082019050613ea76000830186613012565b613eb46020830185613e83565b613ec16040830184613e83565b949350505050565b6000604082019050613ede60008301856135b3565b613eeb6020830184613012565b9392505050565b6000604082019050613f0760008301856135b3565b613f146020830184613379565b9392505050565b7f564553543a20414c52454144592046554c4c5920564553544544000000000000600082015250565b6000613f51601a836137d5565b9150613f5c82613f1b565b602082019050919050565b60006020820190508181036000830152613f8081613f44565b9050919050565b7f564553543a20464f524645495420544f4b454e53204641494c45440000000000600082015250565b6000613fbd601b836137d5565b9150613fc882613f87565b602082019050919050565b60006020820190508181036000830152613fec81613fb0565b9050919050565b60006040820190506140086000830185613012565b6140156020830184613012565b9392505050565b7f4f776e61626c653a206e6577206f776e657220697320746865207a65726f206160008201527f6464726573730000000000000000000000000000000000000000000000000000602082015250565b60006140786026836137d5565b91506140838261401c565b604082019050919050565b600060208201905081810360008301526140a78161406b565b9050919050565b7f564553543a2043414e4e4f542056455354203020414d4f554e54000000000000600082015250565b60006140e4601a836137d5565b91506140ef826140ae565b602082019050919050565b60006020820190508181036000830152614113816140d7565b9050919050565b600080fd5b600080fd5b600080fd5b600080833560016020038436030381126141465761414561411a565b5b80840192508235915067ffffffffffffffff8211156141685761416761411f565b5b60208301925060208202360383131561418457614183614124565b5b509250929050565b7f564553543a204e4f20524543495049454e545300000000000000000000000000600082015250565b60006141c26013836137d5565b91506141cd8261418c565b602082019050919050565b600060208201905081810360008301526141f1816141b5565b9050919050565b7f564553543a2057524f4e47204143434f554e5453204152524159204c454e0000600082015250565b600061422e601e836137d5565b9150614239826141f8565b602082019050919050565b6000602082019050818103600083015261425d81614221565b9050919050565b7f564553543a2045544820414d4f554e5420544f4f204c4f570000000000000000600082015250565b600061429a6018836137d5565b91506142a582614264565b602082019050919050565b600060208201905081810360008301526142c98161428d565b9050919050565b7f4e487b7100000000000000000000000000000000000000000000000000000000600052603260045260246000fd5b600061430a82612f70565b91507fffffffffffffffffffffffffffffffffffffffffffffffffffffffffffffffff82141561433d5761433c6138be565b5b600182019050919050565b7f564553543a20414d4f554e545320444f4e542053554d20544f20544f54414c00600082015250565b600061437e601f836137d5565b915061438982614348565b602082019050919050565b600060208201905081810360008301526143ad81614371565b9050919050565b7f564553543a205749544844524157204641494c45440000000000000000000000600082015250565b60006143ea6015836137d5565b91506143f5826143b4565b602082019050919050565b60006020820190508181036000830152614419816143dd565b9050919050565b82818337600083830152505050565b600061443b83856137d5565b9350614448838584614420565b61445183613041565b840190509392505050565b6000606082019050818103600083015261447781878961442f565b9050818103602083015261448c81858761442f565b905061449b6040830184613012565b9695505050505050565b6000815190506144b481612fa6565b92915050565b6000602082840312156144d0576144cf612ec9565b5b60006144de848285016144a5565b91505092915050565b7f564553543a2053544152542054494d4520414654455220454e442054494d4500600082015250565b600061451d601f836137d5565b9150614528826144e7565b602082019050919050565b6000602082019050818103600083015261454c81614510565b9050919050565b7f564553543a20454e442054494d4520494e205448452050415354000000000000600082015250565b6000614589601a836137d5565b915061459482614553565b602082019050919050565b600060208201905081810360008301526145b88161457c565b905091905056fea264697066735822122029aece38aa6da1319e0bc254c3ef350e1898d7652917935a01b9ba4ae3bf6c8f64736f6c634300080a0033",
  "linkReferences": {},
  "deployedLinkReferences": {}
}