{
  "_format": "hh-sol-artifact-1",
  "contractName": "VestCore",
  "sourceName": "contracts/VestCore.sol",
  "abi": [
    {
      "inputs": [],
      "stateMutability": "nonpayable",
      "type": "constructor"
    },
    {
      "anonymous": false,
      "inputs": [
        {
          "indexed": true,
          "internalType": "address",
          "name": "previousOwner",
          "type": "address"
        },
        {
          "indexed": true,
          "internalType": "address",
          "name": "newOwner",
          "type": "address"
        }
      ],
      "name": "OwnershipTransferred",
      "type": "event"
    },
    {
      "anonymous": false,
      "inputs": [
        {
          "indexed": false,
          "internalType": "uint256",
          "name": "vBoxID",
          "type": "uint256"
        },
        {
          "indexed": false,
          "internalType": "address",
          "name": "token",
          "type": "address"
        },
        {
          "indexed": false,
          "internalType": "address",
          "name": "creator",
          "type": "address"
        }
      ],
      "name": "VestingBoxCreated",
      "type": "event"
    },
    {
      "inputs": [],
      "name": "ETH",
      "outputs": [
        {
          "internalType": "address",
          "name": "",
          "type": "address"
        }
      ],
      "stateMutability": "view",
      "type": "function"
    },
    {
      "inputs": [],
      "name": "SCALE",
      "outputs": [
        {
          "internalType": "uint256",
          "name": "",
          "type": "uint256"
        }
      ],
      "stateMutability": "view",
      "type": "function"
    },
    {
      "inputs": [
        {
          "internalType": "uint256",
          "name": "_vBoxId",
          "type": "uint256"
        },
        {
          "internalType": "uint256",
          "name": "_amountToClaim",
          "type": "uint256"
        }
      ],
      "name": "claimVestedTokens",
      "outputs": [
        {
          "internalType": "bool",
          "name": "success",
          "type": "bool"
        }
      ],
      "stateMutability": "nonpayable",
      "type": "function"
    },
    {
      "inputs": [
        {
          "internalType": "uint256",
          "name": "_totalAmount",
          "type": "uint256"
        },
        {
          "components": [
            {
              "internalType": "address",
              "name": "token",
              "type": "address"
            },
            {
              "internalType": "address[]",
              "name": "admins",
              "type": "address[]"
            },
            {
              "internalType": "address[]",
              "name": "recipients",
              "type": "address[]"
            }
          ],
          "internalType": "struct VestCore.VestingBox",
          "name": "_vBox",
          "type": "tuple"
        },
        {
          "components": [
            {
              "internalType": "uint256",
              "name": "amount",
              "type": "uint256"
            },
            {
              "internalType": "uint256",
              "name": "withdrawn",
              "type": "uint256"
            },
            {
              "internalType": "uint128",
              "name": "startTime",
              "type": "uint128"
            },
            {
              "internalType": "uint128",
              "name": "endTime",
              "type": "uint128"
            }
          ],
          "internalType": "struct VestCore.VestingBoxAccount[]",
          "name": "_vBoxAccounts",
          "type": "tuple[]"
        }
      ],
      "name": "createVestingBoxWithExistingToken",
      "outputs": [
        {
          "internalType": "bool",
          "name": "success",
          "type": "bool"
        }
      ],
      "stateMutability": "nonpayable",
      "type": "function"
    },
    {
      "inputs": [],
      "name": "fee",
      "outputs": [
        {
          "internalType": "uint256",
          "name": "",
          "type": "uint256"
        }
      ],
      "stateMutability": "view",
      "type": "function"
    },
    {
      "inputs": [
        {
          "internalType": "address",
          "name": "_token",
          "type": "address"
        }
      ],
      "name": "getProtocolFeesEarned",
      "outputs": [
        {
          "internalType": "uint256",
          "name": "",
          "type": "uint256"
        }
      ],
      "stateMutability": "view",
      "type": "function"
    },
    {
      "inputs": [
        {
          "internalType": "uint256",
          "name": "_vestingBoxId",
          "type": "uint256"
        }
      ],
      "name": "getVestingBox",
      "outputs": [
        {
          "components": [
            {
              "internalType": "address",
              "name": "token",
              "type": "address"
            },
            {
              "internalType": "address[]",
              "name": "admins",
              "type": "address[]"
            },
            {
              "internalType": "address[]",
              "name": "recipients",
              "type": "address[]"
            }
          ],
          "internalType": "struct VestCore.VestingBox",
          "name": "vestingBox",
          "type": "tuple"
        }
      ],
      "stateMutability": "view",
      "type": "function"
    },
    {
      "inputs": [
        {
          "internalType": "uint256",
          "name": "_vBoxId",
          "type": "uint256"
        },
        {
          "internalType": "address",
          "name": "_account",
          "type": "address"
        }
      ],
      "name": "getWithdrawableAmount",
      "outputs": [
        {
          "internalType": "uint256",
          "name": "",
          "type": "uint256"
        }
      ],
      "stateMutability": "view",
      "type": "function"
    },
    {
      "inputs": [],
      "name": "owner",
      "outputs": [
        {
          "internalType": "address",
          "name": "",
          "type": "address"
        }
      ],
      "stateMutability": "view",
      "type": "function"
    },
    {
      "inputs": [],
      "name": "renounceOwnership",
      "outputs": [],
      "stateMutability": "nonpayable",
      "type": "function"
    },
    {
      "inputs": [
        {
          "internalType": "address",
          "name": "newOwner",
          "type": "address"
        }
      ],
      "name": "transferOwnership",
      "outputs": [],
      "stateMutability": "nonpayable",
      "type": "function"
    },
    {
      "inputs": [],
      "name": "vBoxCount",
      "outputs": [
        {
          "internalType": "uint256",
          "name": "",
          "type": "uint256"
        }
      ],
      "stateMutability": "view",
      "type": "function"
    },
    {
      "inputs": [
        {
          "internalType": "uint256",
          "name": "_amount",
          "type": "uint256"
        },
        {
          "internalType": "address",
          "name": "_to",
          "type": "address"
        }
      ],
      "name": "withdrawETHFees",
      "outputs": [],
      "stateMutability": "nonpayable",
      "type": "function"
    },
    {
      "inputs": [
        {
          "internalType": "address",
          "name": "_token",
          "type": "address"
        },
        {
          "internalType": "uint256",
          "name": "_amount",
          "type": "uint256"
        },
        {
          "internalType": "address",
          "name": "_to",
          "type": "address"
        }
      ],
      "name": "withdrawTokenFees",
      "outputs": [],
      "stateMutability": "nonpayable",
      "type": "function"
    }
  ],
  "bytecode": "0x608060405266038d7ea4c68000600155600060025573eeeeeeeeeeeeeeeeeeeeeeeeeeeeeeeeeeeeeeee600360006101000a81548173ffffffffffffffffffffffffffffffffffffffff021916908373ffffffffffffffffffffffffffffffffffffffff1602179055503480156200007657600080fd5b50620000976200008b6200009d60201b60201c565b620000a560201b60201c565b62000169565b600033905090565b60008060009054906101000a900473ffffffffffffffffffffffffffffffffffffffff169050816000806101000a81548173ffffffffffffffffffffffffffffffffffffffff021916908373ffffffffffffffffffffffffffffffffffffffff1602179055508173ffffffffffffffffffffffffffffffffffffffff168173ffffffffffffffffffffffffffffffffffffffff167f8be0079c531659141344cd1fd0a4f28419497f9722a3daafe3b4186f6b6457e060405160405180910390a35050565b612c3f80620001796000396000f3fe608060405234801561001057600080fd5b50600436106100ea5760003560e01c80638da5cb5b1161008c578063ddca3f4311610066578063ddca3f431461025d578063e9b3663e1461027b578063eced552614610299578063f2fde38b146102b7576100ea565b80638da5cb5b146101f357806395be549814610211578063c68482a71461022d576100ea565b806351887239116100c8578063518872391461017f578063715018a6146101af57806371b4e6e7146101b95780638322fff2146101d5576100ea565b80633336289f146100ef578063359cd45e1461011f5780634a918a0c1461014f575b600080fd5b610109600480360381019061010491906118b9565b6102d3565b6040516101169190611964565b60405180910390f35b610139600480360381019061013491906119dd565b610726565b6040516101469190611a2c565b60405180910390f35b61016960048036038101906101649190611a47565b610af9565b6040516101769190611a2c565b60405180910390f35b61019960048036038101906101949190611a74565b610c91565b6040516101a69190611964565b60405180910390f35b6101b7610cf9565b005b6101d360048036038101906101ce91906119dd565b610d81565b005b6101dd610f5d565b6040516101ea9190611ac3565b60405180910390f35b6101fb610f83565b6040516102089190611ac3565b60405180910390f35b61022b60048036038101906102269190611ade565b610fac565b005b61024760048036038101906102429190611b31565b6111b2565b6040516102549190611c73565b60405180910390f35b61026561136d565b6040516102729190611a2c565b60405180910390f35b610283611373565b6040516102909190611a2c565b60405180910390f35b6102a1611379565b6040516102ae9190611a2c565b60405180910390f35b6102d160048036038101906102cc9190611a47565b611385565b005b60008073ffffffffffffffffffffffffffffffffffffffff168460000160208101906102ff9190611a47565b73ffffffffffffffffffffffffffffffffffffffff161415610356576040517f08c379a000000000000000000000000000000000000000000000000000000000815260040161034d90611cf2565b60405180910390fd5b60008511610399576040517f08c379a000000000000000000000000000000000000000000000000000000000815260040161039090611d5e565b60405180910390fd5b60008480604001906103ab9190611d8d565b9050116103ed576040517f08c379a00000000000000000000000000000000000000000000000000000000081526004016103e490611e3c565b60405180910390fd5b828290508480604001906104019190611d8d565b905014610443576040517f08c379a000000000000000000000000000000000000000000000000000000000815260040161043a90611ea8565b60405180910390fd5b6000805b8484905081101561048f5784848281811061046557610464611ec8565b5b905060800201600001358261047a9190611f26565b9150808061048790611f7c565b915050610447565b508581146104d2576040517f08c379a00000000000000000000000000000000000000000000000000000000081526004016104c990612011565b60405180910390fd5b8460000160208101906104e59190611a47565b73ffffffffffffffffffffffffffffffffffffffff166323b872dd3330896040518463ffffffff1660e01b815260040161052193929190612031565b6020604051808303816000875af1158015610540573d6000803e3d6000fd5b505050506040513d601f19601f820116820180604052508101906105649190612094565b6105a3576040517f08c379a000000000000000000000000000000000000000000000000000000000815260040161059a9061210d565b60405180910390fd5b600260008154809291906105b690611f7c565b91905055508460046000600254815260200190815260200160002081816105dd9190612587565b90505060005b848490508110156106b05784848281811061060157610600611ec8565b5b905060800201600560006002548152602001908152602001600020600088806040019061062e9190611d8d565b8581811061063f5761063e611ec8565b5b90506020020160208101906106549190611a47565b73ffffffffffffffffffffffffffffffffffffffff1673ffffffffffffffffffffffffffffffffffffffff168152602001908152602001600020818161069a91906127d4565b90505080806106a890611f7c565b9150506105e3565b5085600760008760000160208101906106c99190611a47565b73ffffffffffffffffffffffffffffffffffffffff1673ffffffffffffffffffffffffffffffffffffffff16815260200190815260200160002060008282546107129190611f26565b925050819055506001915050949350505050565b60006005600084815260200190815260200160002060008373ffffffffffffffffffffffffffffffffffffffff1673ffffffffffffffffffffffffffffffffffffffff16815260200190815260200160002060020160109054906101000a90046fffffffffffffffffffffffffffffffff166fffffffffffffffffffffffffffffffff164210610869576005600084815260200190815260200160002060008373ffffffffffffffffffffffffffffffffffffffff1673ffffffffffffffffffffffffffffffffffffffff168152602001908152602001600020600101546005600085815260200190815260200160002060008473ffffffffffffffffffffffffffffffffffffffff1673ffffffffffffffffffffffffffffffffffffffff1681526020019081526020016000206000015461086291906127e2565b9050610af3565b60006005600085815260200190815260200160002060008473ffffffffffffffffffffffffffffffffffffffff1673ffffffffffffffffffffffffffffffffffffffff16815260200190815260200160002060020160009054906101000a90046fffffffffffffffffffffffffffffffff166fffffffffffffffffffffffffffffffff16426108f891906127e2565b905060006005600086815260200190815260200160002060008573ffffffffffffffffffffffffffffffffffffffff1673ffffffffffffffffffffffffffffffffffffffff16815260200190815260200160002060020160009054906101000a90046fffffffffffffffffffffffffffffffff166005600087815260200190815260200160002060008673ffffffffffffffffffffffffffffffffffffffff1673ffffffffffffffffffffffffffffffffffffffff16815260200190815260200160002060020160109054906101000a90046fffffffffffffffffffffffffffffffff166109e69190612816565b6fffffffffffffffffffffffffffffffff1690506000670de0b6b3a764000082610a109190612247565b670de0b6b3a764000084600560008a815260200190815260200160002060008973ffffffffffffffffffffffffffffffffffffffff1673ffffffffffffffffffffffffffffffffffffffff16815260200190815260200160002060000154610a789190612247565b610a829190612247565b610a8c9190612879565b90506005600087815260200190815260200160002060008673ffffffffffffffffffffffffffffffffffffffff1673ffffffffffffffffffffffffffffffffffffffff1681526020019081526020016000206001015481610aed91906127e2565b93505050505b92915050565b6000600360009054906101000a900473ffffffffffffffffffffffffffffffffffffffff1673ffffffffffffffffffffffffffffffffffffffff168273ffffffffffffffffffffffffffffffffffffffff161415610bc55760076000600360009054906101000a900473ffffffffffffffffffffffffffffffffffffffff1673ffffffffffffffffffffffffffffffffffffffff1673ffffffffffffffffffffffffffffffffffffffff1681526020019081526020016000205447610bbe91906127e2565b9050610c8c565b600760008373ffffffffffffffffffffffffffffffffffffffff1673ffffffffffffffffffffffffffffffffffffffff168152602001908152602001600020548273ffffffffffffffffffffffffffffffffffffffff166370a08231306040518263ffffffff1660e01b8152600401610c3e9190611ac3565b602060405180830381865afa158015610c5b573d6000803e3d6000fd5b505050506040513d601f19601f82011682018060405250810190610c7f91906128bf565b610c8991906127e2565b90505b919050565b600080610c9e8433610726565b905082811015610ce3576040517f08c379a0000000000000000000000000000000000000000000000000000000008152600401610cda90612938565b60405180910390fd5b610ced848461147d565b50600191505092915050565b610d016116ed565b73ffffffffffffffffffffffffffffffffffffffff16610d1f610f83565b73ffffffffffffffffffffffffffffffffffffffff1614610d75576040517f08c379a0000000000000000000000000000000000000000000000000000000008152600401610d6c906129a4565b60405180910390fd5b610d7f60006116f5565b565b610d896116ed565b73ffffffffffffffffffffffffffffffffffffffff16610da7610f83565b73ffffffffffffffffffffffffffffffffffffffff1614610dfd576040517f08c379a0000000000000000000000000000000000000000000000000000000008152600401610df4906129a4565b60405180910390fd5b8160076000600360009054906101000a900473ffffffffffffffffffffffffffffffffffffffff1673ffffffffffffffffffffffffffffffffffffffff1673ffffffffffffffffffffffffffffffffffffffff1681526020019081526020016000205447610e6b91906127e2565b1015610eac576040517f08c379a0000000000000000000000000000000000000000000000000000000008152600401610ea390612a10565b60405180910390fd5b60008173ffffffffffffffffffffffffffffffffffffffff1683604051610ed290612a61565b60006040518083038185875af1925050503d8060008114610f0f576040519150601f19603f3d011682016040523d82523d6000602084013e610f14565b606091505b5050905080610f58576040517f08c379a0000000000000000000000000000000000000000000000000000000008152600401610f4f90612ac2565b60405180910390fd5b505050565b600360009054906101000a900473ffffffffffffffffffffffffffffffffffffffff1681565b60008060009054906101000a900473ffffffffffffffffffffffffffffffffffffffff16905090565b610fb46116ed565b73ffffffffffffffffffffffffffffffffffffffff16610fd2610f83565b73ffffffffffffffffffffffffffffffffffffffff1614611028576040517f08c379a000000000000000000000000000000000000000000000000000000000815260040161101f906129a4565b60405180910390fd5b81600760008573ffffffffffffffffffffffffffffffffffffffff1673ffffffffffffffffffffffffffffffffffffffff168152602001908152602001600020548473ffffffffffffffffffffffffffffffffffffffff166370a08231306040518263ffffffff1660e01b81526004016110a29190611ac3565b602060405180830381865afa1580156110bf573d6000803e3d6000fd5b505050506040513d601f19601f820116820180604052508101906110e391906128bf565b6110ed91906127e2565b101561112e576040517f08c379a000000000000000000000000000000000000000000000000000000000815260040161112590612a10565b60405180910390fd5b8273ffffffffffffffffffffffffffffffffffffffff1663a9059cbb82846040518363ffffffff1660e01b8152600401611169929190612ae2565b6020604051808303816000875af1158015611188573d6000803e3d6000fd5b505050506040513d601f19601f820116820180604052508101906111ac9190612094565b50505050565b6111ba6117b9565b600082116111c757600080fd5b6002548211156111d657600080fd5b600460008381526020019081526020016000206040518060600160405290816000820160009054906101000a900473ffffffffffffffffffffffffffffffffffffffff1673ffffffffffffffffffffffffffffffffffffffff1673ffffffffffffffffffffffffffffffffffffffff168152602001600182018054806020026020016040519081016040528092919081815260200182805480156112cf57602002820191906000526020600020905b8160009054906101000a900473ffffffffffffffffffffffffffffffffffffffff1673ffffffffffffffffffffffffffffffffffffffff1681526020019060010190808311611285575b505050505081526020016002820180548060200260200160405190810160405280929190818152602001828054801561135d57602002820191906000526020600020905b8160009054906101000a900473ffffffffffffffffffffffffffffffffffffffff1673ffffffffffffffffffffffffffffffffffffffff1681526020019060010190808311611313575b5050505050815250509050919050565b60015481565b60025481565b670de0b6b3a764000081565b61138d6116ed565b73ffffffffffffffffffffffffffffffffffffffff166113ab610f83565b73ffffffffffffffffffffffffffffffffffffffff1614611401576040517f08c379a00000000000000000000000000000000000000000000000000000000081526004016113f8906129a4565b60405180910390fd5b600073ffffffffffffffffffffffffffffffffffffffff168173ffffffffffffffffffffffffffffffffffffffff161415611471576040517f08c379a000000000000000000000000000000000000000000000000000000000815260040161146890612b7d565b60405180910390fd5b61147a816116f5565b50565b60008060009050826005600086815260200190815260200160002060003373ffffffffffffffffffffffffffffffffffffffff1673ffffffffffffffffffffffffffffffffffffffff16815260200190815260200160002060010160008282546114e79190611f26565b92505081905550600360009054906101000a900473ffffffffffffffffffffffffffffffffffffffff1673ffffffffffffffffffffffffffffffffffffffff166004600086815260200190815260200160002060000160009054906101000a900473ffffffffffffffffffffffffffffffffffffffff1673ffffffffffffffffffffffffffffffffffffffff1614156115eb573373ffffffffffffffffffffffffffffffffffffffff168360405161159e90612a61565b60006040518083038185875af1925050503d80600081146115db576040519150601f19603f3d011682016040523d82523d6000602084013e6115e0565b606091505b5050809150506116a2565b6004600085815260200190815260200160002060000160009054906101000a900473ffffffffffffffffffffffffffffffffffffffff1673ffffffffffffffffffffffffffffffffffffffff1663a9059cbb33856040518363ffffffff1660e01b815260040161165c929190612ae2565b6020604051808303816000875af115801561167b573d6000803e3d6000fd5b505050506040513d601f19601f8201168201806040525081019061169f9190612094565b90505b806116e2576040517f08c379a00000000000000000000000000000000000000000000000000000000081526004016116d990612be9565b60405180910390fd5b600191505092915050565b600033905090565b60008060009054906101000a900473ffffffffffffffffffffffffffffffffffffffff169050816000806101000a81548173ffffffffffffffffffffffffffffffffffffffff021916908373ffffffffffffffffffffffffffffffffffffffff1602179055508173ffffffffffffffffffffffffffffffffffffffff168173ffffffffffffffffffffffffffffffffffffffff167f8be0079c531659141344cd1fd0a4f28419497f9722a3daafe3b4186f6b6457e060405160405180910390a35050565b6040518060600160405280600073ffffffffffffffffffffffffffffffffffffffff16815260200160608152602001606081525090565b600080fd5b600080fd5b6000819050919050565b61180d816117fa565b811461181857600080fd5b50565b60008135905061182a81611804565b92915050565b600080fd5b60006060828403121561184b5761184a611830565b5b81905092915050565b600080fd5b600080fd5b600080fd5b60008083601f84011261187957611878611854565b5b8235905067ffffffffffffffff81111561189657611895611859565b5b6020830191508360808202830111156118b2576118b161185e565b5b9250929050565b600080600080606085870312156118d3576118d26117f0565b5b60006118e18782880161181b565b945050602085013567ffffffffffffffff811115611902576119016117f5565b5b61190e87828801611835565b935050604085013567ffffffffffffffff81111561192f5761192e6117f5565b5b61193b87828801611863565b925092505092959194509250565b60008115159050919050565b61195e81611949565b82525050565b60006020820190506119796000830184611955565b92915050565b600073ffffffffffffffffffffffffffffffffffffffff82169050919050565b60006119aa8261197f565b9050919050565b6119ba8161199f565b81146119c557600080fd5b50565b6000813590506119d7816119b1565b92915050565b600080604083850312156119f4576119f36117f0565b5b6000611a028582860161181b565b9250506020611a13858286016119c8565b9150509250929050565b611a26816117fa565b82525050565b6000602082019050611a416000830184611a1d565b92915050565b600060208284031215611a5d57611a5c6117f0565b5b6000611a6b848285016119c8565b91505092915050565b60008060408385031215611a8b57611a8a6117f0565b5b6000611a998582860161181b565b9250506020611aaa8582860161181b565b9150509250929050565b611abd8161199f565b82525050565b6000602082019050611ad86000830184611ab4565b92915050565b600080600060608486031215611af757611af66117f0565b5b6000611b05868287016119c8565b9350506020611b168682870161181b565b9250506040611b27868287016119c8565b9150509250925092565b600060208284031215611b4757611b466117f0565b5b6000611b558482850161181b565b91505092915050565b611b678161199f565b82525050565b600081519050919050565b600082825260208201905092915050565b6000819050602082019050919050565b6000611ba58383611b5e565b60208301905092915050565b6000602082019050919050565b6000611bc982611b6d565b611bd38185611b78565b9350611bde83611b89565b8060005b83811015611c0f578151611bf68882611b99565b9750611c0183611bb1565b925050600181019050611be2565b5085935050505092915050565b6000606083016000830151611c346000860182611b5e565b5060208301518482036020860152611c4c8282611bbe565b91505060408301518482036040860152611c668282611bbe565b9150508091505092915050565b60006020820190508181036000830152611c8d8184611c1c565b905092915050565b600082825260208201905092915050565b7f564553543a205a45524f2041444452204e4f5420544f4b454e00000000000000600082015250565b6000611cdc601983611c95565b9150611ce782611ca6565b602082019050919050565b60006020820190508181036000830152611d0b81611ccf565b9050919050565b7f564553543a2043414e4e4f542056455354203020414d4f554e54000000000000600082015250565b6000611d48601a83611c95565b9150611d5382611d12565b602082019050919050565b60006020820190508181036000830152611d7781611d3b565b9050919050565b600080fd5b600080fd5b600080fd5b60008083356001602003843603038112611daa57611da9611d7e565b5b80840192508235915067ffffffffffffffff821115611dcc57611dcb611d83565b5b602083019250602082023603831315611de857611de7611d88565b5b509250929050565b7f564553543a204e4f20524543495049454e545300000000000000000000000000600082015250565b6000611e26601383611c95565b9150611e3182611df0565b602082019050919050565b60006020820190508181036000830152611e5581611e19565b9050919050565b7f564553543a2057524f4e47204143434f554e5453204152524159204c454e0000600082015250565b6000611e92601e83611c95565b9150611e9d82611e5c565b602082019050919050565b60006020820190508181036000830152611ec181611e85565b9050919050565b7f4e487b7100000000000000000000000000000000000000000000000000000000600052603260045260246000fd5b7f4e487b7100000000000000000000000000000000000000000000000000000000600052601160045260246000fd5b6000611f31826117fa565b9150611f3c836117fa565b9250827fffffffffffffffffffffffffffffffffffffffffffffffffffffffffffffffff03821115611f7157611f70611ef7565b5b828201905092915050565b6000611f87826117fa565b91507fffffffffffffffffffffffffffffffffffffffffffffffffffffffffffffffff821415611fba57611fb9611ef7565b5b600182019050919050565b7f564553543a20414d4f554e545320444f4e542053554d20544f20544f54414c00600082015250565b6000611ffb601f83611c95565b915061200682611fc5565b602082019050919050565b6000602082019050818103600083015261202a81611fee565b9050919050565b60006060820190506120466000830186611ab4565b6120536020830185611ab4565b6120606040830184611a1d565b949350505050565b61207181611949565b811461207c57600080fd5b50565b60008151905061208e81612068565b92915050565b6000602082840312156120aa576120a96117f0565b5b60006120b88482850161207f565b91505092915050565b7f564553543a20544f4b454e205452414e53464552204641494c45440000000000600082015250565b60006120f7601b83611c95565b9150612102826120c1565b602082019050919050565b60006020820190508181036000830152612126816120ea565b9050919050565b6000813561213a816119b1565b80915050919050565b60008160001b9050919050565b600073ffffffffffffffffffffffffffffffffffffffff61217084612143565b9350801983169250808416831791505092915050565b6000819050919050565b60006121ab6121a66121a18461197f565b612186565b61197f565b9050919050565b60006121bd82612190565b9050919050565b60006121cf826121b2565b9050919050565b6000819050919050565b6121e9826121c4565b6121fc6121f5826121d6565b8354612150565b8255505050565b6000819050919050565b7f4e487b7100000000000000000000000000000000000000000000000000000000600052604160045260246000fd5b600081549050919050565b6000612252826117fa565b915061225d836117fa565b9250817fffffffffffffffffffffffffffffffffffffffffffffffffffffffffffffffff048311821515161561229657612295611ef7565b5b828202905092915050565b60008190506001806001038301049050919050565b60008190508160005260206000209050919050565b600082821b905092915050565b6000600883026123087fffffffffffffffffffffffffffffffffffffffffffffffffffffffffffffffff826122cb565b61231286836122cb565b95508019841693508086168417925050509392505050565b600061234561234061233b846117fa565b612186565b6117fa565b9050919050565b6000819050919050565b61235f8361232a565b61237361236b8261234c565b8484546122d8565b825550505050565b600090565b61238861237b565b612393818484612356565b505050565b5b818110156123b7576123ac600082612380565b600181019050612399565b5050565b818310156123f4576123cc826122a1565b6123d5846122a1565b6123de836122b6565b8181018382016123ee8183612398565b50505050505b505050565b680100000000000000008211156124135761241261220d565b5b61241c8161223c565b82825561242a8382846123bb565b505050565b600082905092915050565b60006008830261245e73ffffffffffffffffffffffffffffffffffffffff826122cb565b61246886836122cb565b95508019841693508086168417925050509392505050565b612489836121c4565b61249d612495826121d6565b84845461243a565b825550505050565b6124af838361242f565b6124b981836123f9565b6124c283612203565b6124cb836122b6565b6000805b8481101561250657836124e18161212d565b90506124ee818486612480565b602085019450600184019350506001810190506124cf565b5050505050505050565b61251b8383836124a5565b505050565b6000810160008301806125328161212d565b905061253e81846121e0565b50505060018101602083016125538185611d8d565b61255e818386612510565b5050505060028101604083016125748185611d8d565b61257f818386612510565b505050505050565b6125918282612520565b5050565b600081356125a281611804565b80915050919050565b60007fffffffffffffffffffffffffffffffffffffffffffffffffffffffffffffffff6125d784612143565b9350801983169250808416831791505092915050565b6125f68261232a565b6126096126028261234c565b83546125ab565b8255505050565b60006fffffffffffffffffffffffffffffffff82169050919050565b61263581612610565b811461264057600080fd5b50565b600081356126508161262c565b80915050919050565b60006fffffffffffffffffffffffffffffffff61267584612143565b9350801983169250808416831791505092915050565b60006126a66126a161269c84612610565b612186565b612610565b9050919050565b6000819050919050565b6126c08261268b565b6126d36126cc826126ad565b8354612659565b8255505050565b60008160801b9050919050565b60007fffffffffffffffffffffffffffffffff00000000000000000000000000000000612713846126da565b9350801983169250808416831791505092915050565b6127328261268b565b61274561273e826126ad565b83546126e7565b8255505050565b60008101600083018061275e81612595565b905061276a81846125ed565b50505060018101602083018061277f81612595565b905061278b81846125ed565b5050506002810160408301806127a081612643565b90506127ac81846126b7565b5050506002810160608301806127c181612643565b90506127cd8184612729565b5050505050565b6127de828261274c565b5050565b60006127ed826117fa565b91506127f8836117fa565b92508282101561280b5761280a611ef7565b5b828203905092915050565b600061282182612610565b915061282c83612610565b92508282101561283f5761283e611ef7565b5b828203905092915050565b7f4e487b7100000000000000000000000000000000000000000000000000000000600052601260045260246000fd5b6000612884826117fa565b915061288f836117fa565b92508261289f5761289e61284a565b5b828204905092915050565b6000815190506128b981611804565b92915050565b6000602082840312156128d5576128d46117f0565b5b60006128e3848285016128aa565b91505092915050565b7f564553543a20574954484452415741424c4520544f4f204c4f57000000000000600082015250565b6000612922601a83611c95565b915061292d826128ec565b602082019050919050565b6000602082019050818103600083015261295181612915565b9050919050565b7f4f776e61626c653a2063616c6c6572206973206e6f7420746865206f776e6572600082015250565b600061298e602083611c95565b915061299982612958565b602082019050919050565b600060208201905081810360008301526129bd81612981565b9050919050565b7f564553543a20414d4f554e5420544f4f20484947480000000000000000000000600082015250565b60006129fa601583611c95565b9150612a05826129c4565b602082019050919050565b60006020820190508181036000830152612a29816129ed565b9050919050565b600081905092915050565b50565b6000612a4b600083612a30565b9150612a5682612a3b565b600082019050919050565b6000612a6c82612a3e565b9150819050919050565b7f564553543a20455448205452414e53464552204641494c454400000000000000600082015250565b6000612aac601983611c95565b9150612ab782612a76565b602082019050919050565b60006020820190508181036000830152612adb81612a9f565b9050919050565b6000604082019050612af76000830185611ab4565b612b046020830184611a1d565b9392505050565b7f4f776e61626c653a206e6577206f776e657220697320746865207a65726f206160008201527f6464726573730000000000000000000000000000000000000000000000000000602082015250565b6000612b67602683611c95565b9150612b7282612b0b565b604082019050919050565b60006020820190508181036000830152612b9681612b5a565b9050919050565b7f564553543a205749544844524157204641494c45440000000000000000000000600082015250565b6000612bd3601583611c95565b9150612bde82612b9d565b602082019050919050565b60006020820190508181036000830152612c0281612bc6565b905091905056fea264697066735822122002cecb9be9da65880e63ba5c2b1bc1a583f6ca26c34fa74869d44ca07a7e03be64736f6c634300080a0033",
  "linkReferences": {},
  "deployedLinkReferences": {}
}