{
  "_format": "hh-sol-artifact-1",
  "contractName": "VestCore",
  "sourceName": "contracts/VestCore.sol",
  "abi": [
    {
      "inputs": [],
      "stateMutability": "nonpayable",
      "type": "constructor"
    },
    {
      "anonymous": false,
      "inputs": [],
      "name": "AccountAddedToVestingBox",
      "type": "event"
    },
    {
      "anonymous": false,
      "inputs": [],
      "name": "AccountRemovedFromVestingBox",
      "type": "event"
    },
    {
      "anonymous": false,
      "inputs": [
        {
          "indexed": false,
          "internalType": "address",
          "name": "tokenAddress",
          "type": "address"
        }
      ],
      "name": "ERC20Created",
      "type": "event"
    },
    {
      "anonymous": false,
      "inputs": [
        {
          "indexed": false,
          "internalType": "uint256",
          "name": "oldFee",
          "type": "uint256"
        },
        {
          "indexed": false,
          "internalType": "uint256",
          "name": "newFee",
          "type": "uint256"
        }
      ],
      "name": "FeesSet",
      "type": "event"
    },
    {
      "anonymous": false,
      "inputs": [
        {
          "indexed": false,
          "internalType": "address",
          "name": "token",
          "type": "address"
        },
        {
          "indexed": false,
          "internalType": "uint256",
          "name": "amount",
          "type": "uint256"
        },
        {
          "indexed": false,
          "internalType": "address",
          "name": "_to",
          "type": "address"
        }
      ],
      "name": "FeesWithdrawn",
      "type": "event"
    },
    {
      "anonymous": false,
      "inputs": [
        {
          "indexed": true,
          "internalType": "address",
          "name": "previousOwner",
          "type": "address"
        },
        {
          "indexed": true,
          "internalType": "address",
          "name": "newOwner",
          "type": "address"
        }
      ],
      "name": "OwnershipTransferred",
      "type": "event"
    },
    {
      "anonymous": false,
      "inputs": [
        {
          "indexed": true,
          "internalType": "uint256",
          "name": "vBoxID",
          "type": "uint256"
        },
        {
          "indexed": true,
          "internalType": "address",
          "name": "token",
          "type": "address"
        },
        {
          "indexed": false,
          "internalType": "uint256",
          "name": "amountClaimed",
          "type": "uint256"
        },
        {
          "indexed": false,
          "internalType": "address",
          "name": "recipient",
          "type": "address"
        }
      ],
      "name": "VestedTokensClaimed",
      "type": "event"
    },
    {
      "anonymous": false,
      "inputs": [
        {
          "indexed": true,
          "internalType": "uint256",
          "name": "vBoxID",
          "type": "uint256"
        },
        {
          "indexed": false,
          "internalType": "address",
          "name": "admin",
          "type": "address"
        },
        {
          "indexed": false,
          "internalType": "bool",
          "name": "isAdmin",
          "type": "bool"
        }
      ],
      "name": "VestingBoxAdminSet",
      "type": "event"
    },
    {
      "anonymous": false,
      "inputs": [
        {
          "indexed": true,
          "internalType": "uint256",
          "name": "vBoxID",
          "type": "uint256"
        },
        {
          "indexed": true,
          "internalType": "address",
          "name": "token",
          "type": "address"
        },
        {
          "indexed": false,
          "internalType": "address",
          "name": "creator",
          "type": "address"
        },
        {
          "indexed": false,
          "internalType": "uint256",
          "name": "totalBoxAmount",
          "type": "uint256"
        }
      ],
      "name": "VestingBoxCreated",
      "type": "event"
    },
    {
      "inputs": [],
      "name": "ETH",
      "outputs": [
        {
          "internalType": "address",
          "name": "",
          "type": "address"
        }
      ],
      "stateMutability": "view",
      "type": "function"
    },
    {
      "inputs": [],
      "name": "SCALE",
      "outputs": [
        {
          "internalType": "uint256",
          "name": "",
          "type": "uint256"
        }
      ],
      "stateMutability": "view",
      "type": "function"
    },
    {
      "inputs": [
        {
          "internalType": "uint256",
          "name": "_vBoxId",
          "type": "uint256"
        },
        {
          "internalType": "address",
          "name": "_recipient",
          "type": "address"
        },
        {
          "components": [
            {
              "internalType": "uint256",
              "name": "amount",
              "type": "uint256"
            },
            {
              "internalType": "uint256",
              "name": "withdrawn",
              "type": "uint256"
            },
            {
              "internalType": "uint128",
              "name": "startTime",
              "type": "uint128"
            },
            {
              "internalType": "uint128",
              "name": "endTime",
              "type": "uint128"
            }
          ],
          "internalType": "struct VestCore.VestingBoxAccount",
          "name": "_vBoxAccount",
          "type": "tuple"
        }
      ],
      "name": "addAccountToVestingBox",
      "outputs": [],
      "stateMutability": "nonpayable",
      "type": "function"
    },
    {
      "inputs": [
        {
          "internalType": "uint256",
          "name": "_vBoxId",
          "type": "uint256"
        },
        {
          "internalType": "uint256",
          "name": "_amountToClaim",
          "type": "uint256"
        }
      ],
      "name": "claimVestedTokens",
      "outputs": [
        {
          "internalType": "bool",
          "name": "success",
          "type": "bool"
        }
      ],
      "stateMutability": "nonpayable",
      "type": "function"
    },
    {
      "inputs": [
        {
          "internalType": "uint256",
          "name": "_totalAmount",
          "type": "uint256"
        },
        {
          "components": [
            {
              "internalType": "address",
              "name": "token",
              "type": "address"
            },
            {
              "internalType": "address[]",
              "name": "admins",
              "type": "address[]"
            },
            {
              "internalType": "address[]",
              "name": "recipients",
              "type": "address[]"
            }
          ],
          "internalType": "struct VestCore.VestingBox",
          "name": "_vBox",
          "type": "tuple"
        },
        {
          "components": [
            {
              "internalType": "uint256",
              "name": "amount",
              "type": "uint256"
            },
            {
              "internalType": "uint256",
              "name": "withdrawn",
              "type": "uint256"
            },
            {
              "internalType": "uint128",
              "name": "startTime",
              "type": "uint128"
            },
            {
              "internalType": "uint128",
              "name": "endTime",
              "type": "uint128"
            }
          ],
          "internalType": "struct VestCore.VestingBoxAccount[]",
          "name": "_vBoxAccounts",
          "type": "tuple[]"
        }
      ],
      "name": "createVestingBoxWithETH",
      "outputs": [
        {
          "internalType": "bool",
          "name": "success",
          "type": "bool"
        }
      ],
      "stateMutability": "nonpayable",
      "type": "function"
    },
    {
      "inputs": [
        {
          "internalType": "uint256",
          "name": "_totalAmount",
          "type": "uint256"
        },
        {
          "components": [
            {
              "internalType": "address",
              "name": "token",
              "type": "address"
            },
            {
              "internalType": "address[]",
              "name": "admins",
              "type": "address[]"
            },
            {
              "internalType": "address[]",
              "name": "recipients",
              "type": "address[]"
            }
          ],
          "internalType": "struct VestCore.VestingBox",
          "name": "_vBox",
          "type": "tuple"
        },
        {
          "components": [
            {
              "internalType": "uint256",
              "name": "amount",
              "type": "uint256"
            },
            {
              "internalType": "uint256",
              "name": "withdrawn",
              "type": "uint256"
            },
            {
              "internalType": "uint128",
              "name": "startTime",
              "type": "uint128"
            },
            {
              "internalType": "uint128",
              "name": "endTime",
              "type": "uint128"
            }
          ],
          "internalType": "struct VestCore.VestingBoxAccount[]",
          "name": "_vBoxAccounts",
          "type": "tuple[]"
        }
      ],
      "name": "createVestingBoxWithExistingToken",
      "outputs": [
        {
          "internalType": "bool",
          "name": "success",
          "type": "bool"
        }
      ],
      "stateMutability": "nonpayable",
      "type": "function"
    },
    {
      "inputs": [
        {
          "internalType": "uint256",
          "name": "_totalAmount",
          "type": "uint256"
        },
        {
          "components": [
            {
              "internalType": "address",
              "name": "token",
              "type": "address"
            },
            {
              "internalType": "address[]",
              "name": "admins",
              "type": "address[]"
            },
            {
              "internalType": "address[]",
              "name": "recipients",
              "type": "address[]"
            }
          ],
          "internalType": "struct VestCore.VestingBox",
          "name": "_vBox",
          "type": "tuple"
        },
        {
          "components": [
            {
              "internalType": "uint256",
              "name": "amount",
              "type": "uint256"
            },
            {
              "internalType": "uint256",
              "name": "withdrawn",
              "type": "uint256"
            },
            {
              "internalType": "uint128",
              "name": "startTime",
              "type": "uint128"
            },
            {
              "internalType": "uint128",
              "name": "endTime",
              "type": "uint128"
            }
          ],
          "internalType": "struct VestCore.VestingBoxAccount[]",
          "name": "_vBoxAccounts",
          "type": "tuple[]"
        },
        {
          "internalType": "string",
          "name": "_tokenName",
          "type": "string"
        },
        {
          "internalType": "string",
          "name": "_tokenSymbol",
          "type": "string"
        },
        {
          "internalType": "uint256",
          "name": "_tokenTotalSupply",
          "type": "uint256"
        }
      ],
      "name": "createVestingBoxWithNewToken",
      "outputs": [
        {
          "internalType": "bool",
          "name": "success",
          "type": "bool"
        }
      ],
      "stateMutability": "nonpayable",
      "type": "function"
    },
    {
      "inputs": [],
      "name": "fee",
      "outputs": [
        {
          "internalType": "uint256",
          "name": "",
          "type": "uint256"
        }
      ],
      "stateMutability": "view",
      "type": "function"
    },
    {
      "inputs": [
        {
          "internalType": "address",
          "name": "_token",
          "type": "address"
        }
      ],
      "name": "getAssetHeldForVesting",
      "outputs": [
        {
          "internalType": "uint256",
          "name": "",
          "type": "uint256"
        }
      ],
      "stateMutability": "view",
      "type": "function"
    },
    {
      "inputs": [
        {
          "internalType": "address",
          "name": "_token",
          "type": "address"
        }
      ],
      "name": "getProtocolFeesEarned",
      "outputs": [
        {
          "internalType": "uint256",
          "name": "",
          "type": "uint256"
        }
      ],
      "stateMutability": "view",
      "type": "function"
    },
    {
      "inputs": [
        {
          "internalType": "uint256",
          "name": "_vestingBoxId",
          "type": "uint256"
        }
      ],
      "name": "getVestingBox",
      "outputs": [
        {
          "components": [
            {
              "internalType": "address",
              "name": "token",
              "type": "address"
            },
            {
              "internalType": "address[]",
              "name": "admins",
              "type": "address[]"
            },
            {
              "internalType": "address[]",
              "name": "recipients",
              "type": "address[]"
            }
          ],
          "internalType": "struct VestCore.VestingBox",
          "name": "vestingBox",
          "type": "tuple"
        }
      ],
      "stateMutability": "view",
      "type": "function"
    },
    {
      "inputs": [
        {
          "internalType": "uint256",
          "name": "_vBoxId",
          "type": "uint256"
        },
        {
          "internalType": "address",
          "name": "_account",
          "type": "address"
        }
      ],
      "name": "getWithdrawableAmount",
      "outputs": [
        {
          "internalType": "uint256",
          "name": "",
          "type": "uint256"
        }
      ],
      "stateMutability": "view",
      "type": "function"
    },
    {
      "inputs": [],
      "name": "owner",
      "outputs": [
        {
          "internalType": "address",
          "name": "",
          "type": "address"
        }
      ],
      "stateMutability": "view",
      "type": "function"
    },
    {
      "inputs": [
        {
          "internalType": "uint256",
          "name": "_vBoxId",
          "type": "uint256"
        },
        {
          "internalType": "address",
          "name": "_recipient",
          "type": "address"
        }
      ],
      "name": "removeAccountFromVestingBox",
      "outputs": [],
      "stateMutability": "nonpayable",
      "type": "function"
    },
    {
      "inputs": [],
      "name": "renounceOwnership",
      "outputs": [],
      "stateMutability": "nonpayable",
      "type": "function"
    },
    {
      "inputs": [
        {
          "internalType": "uint256",
          "name": "_fee",
          "type": "uint256"
        }
      ],
      "name": "setFee",
      "outputs": [],
      "stateMutability": "nonpayable",
      "type": "function"
    },
    {
      "inputs": [
        {
          "internalType": "uint256",
          "name": "_vBoxId",
          "type": "uint256"
        },
        {
          "internalType": "address",
          "name": "_account",
          "type": "address"
        },
        {
          "internalType": "bool",
          "name": "_isAdmin",
          "type": "bool"
        }
      ],
      "name": "setVestingBoxAdmin",
      "outputs": [],
      "stateMutability": "nonpayable",
      "type": "function"
    },
    {
      "inputs": [
        {
          "internalType": "address",
          "name": "newOwner",
          "type": "address"
        }
      ],
      "name": "transferOwnership",
      "outputs": [],
      "stateMutability": "nonpayable",
      "type": "function"
    },
    {
      "inputs": [],
      "name": "vBoxCount",
      "outputs": [
        {
          "internalType": "uint256",
          "name": "",
          "type": "uint256"
        }
      ],
      "stateMutability": "view",
      "type": "function"
    },
    {
      "inputs": [
        {
          "internalType": "uint256",
          "name": "_amount",
          "type": "uint256"
        },
        {
          "internalType": "address",
          "name": "_to",
          "type": "address"
        }
      ],
      "name": "withdrawETHFees",
      "outputs": [],
      "stateMutability": "nonpayable",
      "type": "function"
    },
    {
      "inputs": [
        {
          "internalType": "address",
          "name": "_token",
          "type": "address"
        },
        {
          "internalType": "uint256",
          "name": "_amount",
          "type": "uint256"
        },
        {
          "internalType": "address",
          "name": "_to",
          "type": "address"
        }
      ],
      "name": "withdrawTokenFees",
      "outputs": [],
      "stateMutability": "nonpayable",
      "type": "function"
    }
  ],
  "bytecode": "0x608060405266038d7ea4c68000600155600060025573eeeeeeeeeeeeeeeeeeeeeeeeeeeeeeeeeeeeeeee600360006101000a81548173ffffffffffffffffffffffffffffffffffffffff021916908373ffffffffffffffffffffffffffffffffffffffff1602179055503480156200007657600080fd5b50620000976200008b6200009d60201b60201c565b620000a560201b60201c565b62000169565b600033905090565b60008060009054906101000a900473ffffffffffffffffffffffffffffffffffffffff169050816000806101000a81548173ffffffffffffffffffffffffffffffffffffffff021916908373ffffffffffffffffffffffffffffffffffffffff1602179055508173ffffffffffffffffffffffffffffffffffffffff168173ffffffffffffffffffffffffffffffffffffffff167f8be0079c531659141344cd1fd0a4f28419497f9722a3daafe3b4186f6b6457e060405160405180910390a35050565b61541080620001796000396000f3fe60806040523480156200001157600080fd5b5060043610620001545760003560e01c80638da5cb5b11620000c9578063d3d072cc1162000087578063d3d072cc14620003d9578063ddca3f4314620003f9578063e9b3663e146200041b578063ec4d26cf146200043d578063eced5526146200045d578063f2fde38b146200047f5762000154565b80638da5cb5b14620002f557806394e4bb42146200031757806395be5498146200034d578063c6530006146200036d578063c68482a714620003a35762000154565b806369fe0e2d116200011757806369fe0e2d1462000267578063715018a6146200028757806371b4e6e714620002935780638322fff214620002b35780638cfe046e14620002d55762000154565b80633336289f1462000159578063359cd45e146200018f5780633b2b9e8a14620001c55780634a918a0c14620001fb578063518872391462000231575b600080fd5b620001776004803603810190620001719190620025b0565b6200049f565b60405162000186919062002667565b60405180910390f35b620001ad6004803603810190620001a7919062002684565b620004b6565b604051620001bc9190620026dc565b60405180910390f35b620001e36004803603810190620001dd9190620025b0565b6200089b565b604051620001f2919062002667565b60405180910390f35b620002196004803603810190620002139190620026f9565b6200090c565b604051620002289190620026dc565b60405180910390f35b6200024f60048036038101906200024991906200272b565b62000aaf565b6040516200025e919062002667565b60405180910390f35b6200028560048036038101906200027f919062002772565b62000b1e565b005b6200029162000bf9565b005b620002b16004803603810190620002ab919062002684565b62000c8a565b005b620002bd62000e79565b604051620002cc9190620027b5565b60405180910390f35b620002f36004803603810190620002ed9190620027d2565b62000e9f565b005b620002ff62000f48565b6040516200030e9190620027b5565b60405180910390f35b6200033560048036038101906200032f919062002892565b62000f71565b60405162000344919062002667565b60405180910390f35b6200036b6004803603810190620003659190620029b4565b62000fd3565b005b6200038b6004803603810190620003859190620026f9565b620011ef565b6040516200039a9190620026dc565b60405180910390f35b620003c16004803603810190620003bb919062002772565b62001238565b604051620003d0919062002b3b565b60405180910390f35b620003f76004803603810190620003f1919062002b90565b620013fb565b005b62000403620014a4565b604051620004129190620026dc565b60405180910390f35b62000425620014aa565b604051620004349190620026dc565b60405180910390f35b6200045b600480360381019062000455919062002684565b620014b0565b005b6200046762001558565b604051620004769190620026dc565b60405180910390f35b6200049d6004803603810190620004979190620026f9565b62001564565b005b6000620004ae84848462001668565b509392505050565b60006005600084815260200190815260200160002060008373ffffffffffffffffffffffffffffffffffffffff1673ffffffffffffffffffffffffffffffffffffffff16815260200190815260200160002060020160109054906101000a90046fffffffffffffffffffffffffffffffff166fffffffffffffffffffffffffffffffff164210620005fd576005600084815260200190815260200160002060008373ffffffffffffffffffffffffffffffffffffffff1673ffffffffffffffffffffffffffffffffffffffff168152602001908152602001600020600101546005600085815260200190815260200160002060008473ffffffffffffffffffffffffffffffffffffffff1673ffffffffffffffffffffffffffffffffffffffff16815260200190815260200160002060000154620005f5919062002c1b565b905062000895565b60006005600085815260200190815260200160002060008473ffffffffffffffffffffffffffffffffffffffff1673ffffffffffffffffffffffffffffffffffffffff16815260200190815260200160002060020160009054906101000a90046fffffffffffffffffffffffffffffffff166fffffffffffffffffffffffffffffffff16426200068e919062002c1b565b905060006005600086815260200190815260200160002060008573ffffffffffffffffffffffffffffffffffffffff1673ffffffffffffffffffffffffffffffffffffffff16815260200190815260200160002060020160009054906101000a90046fffffffffffffffffffffffffffffffff166005600087815260200190815260200160002060008673ffffffffffffffffffffffffffffffffffffffff1673ffffffffffffffffffffffffffffffffffffffff16815260200190815260200160002060020160109054906101000a90046fffffffffffffffffffffffffffffffff166200077e919062002c56565b6fffffffffffffffffffffffffffffffff1690506000670de0b6b3a764000082620007aa919062002c91565b670de0b6b3a764000084600560008a815260200190815260200160002060008973ffffffffffffffffffffffffffffffffffffffff1673ffffffffffffffffffffffffffffffffffffffff1681526020019081526020016000206000015462000814919062002c91565b62000820919062002c91565b6200082c919062002d21565b90506005600087815260200190815260200160002060008673ffffffffffffffffffffffffffffffffffffffff1673ffffffffffffffffffffffffffffffffffffffff16815260200190815260200160002060010154816200088f919062002c1b565b93505050505b92915050565b6000600360009054906101000a900473ffffffffffffffffffffffffffffffffffffffff16836000019073ffffffffffffffffffffffffffffffffffffffff16908173ffffffffffffffffffffffffffffffffffffffff16815250506200090484848462001668565b509392505050565b6000600360009054906101000a900473ffffffffffffffffffffffffffffffffffffffff1673ffffffffffffffffffffffffffffffffffffffff168273ffffffffffffffffffffffffffffffffffffffff161415620009dc5760076000600360009054906101000a900473ffffffffffffffffffffffffffffffffffffffff1673ffffffffffffffffffffffffffffffffffffffff1673ffffffffffffffffffffffffffffffffffffffff1681526020019081526020016000205447620009d4919062002c1b565b905062000aaa565b600760008373ffffffffffffffffffffffffffffffffffffffff1673ffffffffffffffffffffffffffffffffffffffff168152602001908152602001600020548273ffffffffffffffffffffffffffffffffffffffff166370a08231306040518263ffffffff1660e01b815260040162000a579190620027b5565b602060405180830381865afa15801562000a75573d6000803e3d6000fd5b505050506040513d601f19601f8201168201806040525081019062000a9b919062002d70565b62000aa7919062002c1b565b90505b919050565b60008062000abe8433620004b6565b90508281101562000b06576040517f08c379a000000000000000000000000000000000000000000000000000000000815260040162000afd9062002e03565b60405180910390fd5b62000b12848462001b8c565b50600191505092915050565b62000b2862001e0c565b73ffffffffffffffffffffffffffffffffffffffff1662000b4862000f48565b73ffffffffffffffffffffffffffffffffffffffff161462000ba1576040517f08c379a000000000000000000000000000000000000000000000000000000000815260040162000b989062002e75565b60405180910390fd5b670de0b6b3a764000081111562000bef576040517f08c379a000000000000000000000000000000000000000000000000000000000815260040162000be69062002ee7565b60405180910390fd5b8060018190555050565b62000c0362001e0c565b73ffffffffffffffffffffffffffffffffffffffff1662000c2362000f48565b73ffffffffffffffffffffffffffffffffffffffff161462000c7c576040517f08c379a000000000000000000000000000000000000000000000000000000000815260040162000c739062002e75565b60405180910390fd5b62000c88600062001e14565b565b62000c9462001e0c565b73ffffffffffffffffffffffffffffffffffffffff1662000cb462000f48565b73ffffffffffffffffffffffffffffffffffffffff161462000d0d576040517f08c379a000000000000000000000000000000000000000000000000000000000815260040162000d049062002e75565b60405180910390fd5b8160076000600360009054906101000a900473ffffffffffffffffffffffffffffffffffffffff1673ffffffffffffffffffffffffffffffffffffffff1673ffffffffffffffffffffffffffffffffffffffff168152602001908152602001600020544762000d7d919062002c1b565b101562000dc1576040517f08c379a000000000000000000000000000000000000000000000000000000000815260040162000db89062002f59565b60405180910390fd5b60008173ffffffffffffffffffffffffffffffffffffffff168360405162000de99062002fb0565b60006040518083038185875af1925050503d806000811462000e28576040519150601f19603f3d011682016040523d82523d6000602084013e62000e2d565b606091505b505090508062000e74576040517f08c379a000000000000000000000000000000000000000000000000000000000815260040162000e6b9062003017565b60405180910390fd5b505050565b600360009054906101000a900473ffffffffffffffffffffffffffffffffffffffff1681565b82336006600083815260200190815260200160002060008273ffffffffffffffffffffffffffffffffffffffff1673ffffffffffffffffffffffffffffffffffffffff16815260200190815260200160002060009054906101000a900460ff1662000f41576040517f08c379a000000000000000000000000000000000000000000000000000000000815260040162000f389062003089565b60405180910390fd5b5050505050565b60008060009054906101000a900473ffffffffffffffffffffffffffffffffffffffff16905090565b600062000f82868686868662001ed8565b886000019073ffffffffffffffffffffffffffffffffffffffff16908173ffffffffffffffffffffffffffffffffffffffff168152505062000fc689898962001668565b5098975050505050505050565b62000fdd62001e0c565b73ffffffffffffffffffffffffffffffffffffffff1662000ffd62000f48565b73ffffffffffffffffffffffffffffffffffffffff161462001056576040517f08c379a00000000000000000000000000000000000000000000000000000000081526004016200104d9062002e75565b60405180910390fd5b81600760008573ffffffffffffffffffffffffffffffffffffffff1673ffffffffffffffffffffffffffffffffffffffff168152602001908152602001600020548473ffffffffffffffffffffffffffffffffffffffff166370a08231306040518263ffffffff1660e01b8152600401620010d29190620027b5565b602060405180830381865afa158015620010f0573d6000803e3d6000fd5b505050506040513d601f19601f8201168201806040525081019062001116919062002d70565b62001122919062002c1b565b101562001166576040517f08c379a00000000000000000000000000000000000000000000000000000000081526004016200115d9062002f59565b60405180910390fd5b8273ffffffffffffffffffffffffffffffffffffffff1663a9059cbb82846040518363ffffffff1660e01b8152600401620011a3929190620030ab565b6020604051808303816000875af1158015620011c3573d6000803e3d6000fd5b505050506040513d601f19601f82011682018060405250810190620011e99190620030ef565b50505050565b6000600760008373ffffffffffffffffffffffffffffffffffffffff1673ffffffffffffffffffffffffffffffffffffffff168152602001908152602001600020549050919050565b6200124262002035565b600082116200125057600080fd5b6002548211156200126057600080fd5b600460008381526020019081526020016000206040518060600160405290816000820160009054906101000a900473ffffffffffffffffffffffffffffffffffffffff1673ffffffffffffffffffffffffffffffffffffffff1673ffffffffffffffffffffffffffffffffffffffff168152602001600182018054806020026020016040519081016040528092919081815260200182805480156200135b57602002820191906000526020600020905b8160009054906101000a900473ffffffffffffffffffffffffffffffffffffffff1673ffffffffffffffffffffffffffffffffffffffff168152602001906001019080831162001310575b5050505050815260200160028201805480602002602001604051908101604052809291908181526020018280548015620013eb57602002820191906000526020600020905b8160009054906101000a900473ffffffffffffffffffffffffffffffffffffffff1673ffffffffffffffffffffffffffffffffffffffff1681526020019060010190808311620013a0575b5050505050815250509050919050565b82336006600083815260200190815260200160002060008273ffffffffffffffffffffffffffffffffffffffff1673ffffffffffffffffffffffffffffffffffffffff16815260200190815260200160002060009054906101000a900460ff166200149d576040517f08c379a0000000000000000000000000000000000000000000000000000000008152600401620014949062003089565b60405180910390fd5b5050505050565b60015481565b60025481565b81336006600083815260200190815260200160002060008273ffffffffffffffffffffffffffffffffffffffff1673ffffffffffffffffffffffffffffffffffffffff16815260200190815260200160002060009054906101000a900460ff1662001552576040517f08c379a0000000000000000000000000000000000000000000000000000000008152600401620015499062003089565b60405180910390fd5b50505050565b670de0b6b3a764000081565b6200156e62001e0c565b73ffffffffffffffffffffffffffffffffffffffff166200158e62000f48565b73ffffffffffffffffffffffffffffffffffffffff1614620015e7576040517f08c379a0000000000000000000000000000000000000000000000000000000008152600401620015de9062002e75565b60405180910390fd5b600073ffffffffffffffffffffffffffffffffffffffff168173ffffffffffffffffffffffffffffffffffffffff1614156200165a576040517f08c379a0000000000000000000000000000000000000000000000000000000008152600401620016519062003197565b60405180910390fd5b620016658162001e14565b50565b60008073ffffffffffffffffffffffffffffffffffffffff16836000015173ffffffffffffffffffffffffffffffffffffffff161415620016e0576040517f08c379a0000000000000000000000000000000000000000000000000000000008152600401620016d79062003209565b60405180910390fd5b6000841162001726576040517f08c379a00000000000000000000000000000000000000000000000000000000081526004016200171d906200327b565b60405180910390fd5b60008360400151511162001771576040517f08c379a00000000000000000000000000000000000000000000000000000000081526004016200176890620032ed565b60405180910390fd5b815183604001515114620017bc576040517f08c379a0000000000000000000000000000000000000000000000000000000008152600401620017b3906200335f565b60405180910390fd5b6000805b83518110156200181157838181518110620017e057620017df62003381565b5b60200260200101516000015182620017f99190620033b0565b9150808062001808906200340d565b915050620017c0565b5084811462001857576040517f08c379a00000000000000000000000000000000000000000000000000000000081526004016200184e90620034ab565b60405180910390fd5b836000015173ffffffffffffffffffffffffffffffffffffffff166323b872dd3330886040518463ffffffff1660e01b81526004016200189a93929190620034cd565b6020604051808303816000875af1158015620018ba573d6000803e3d6000fd5b505050506040513d601f19601f82011682018060405250810190620018e09190620030ef565b62001922576040517f08c379a000000000000000000000000000000000000000000000000000000000815260040162001919906200355a565b60405180910390fd5b6002600081548092919062001937906200340d565b91905055508360046000600254815260200190815260200160002060008201518160000160006101000a81548173ffffffffffffffffffffffffffffffffffffffff021916908373ffffffffffffffffffffffffffffffffffffffff1602179055506020820151816001019080519060200190620019b79291906200206c565b506040820151816002019080519060200190620019d69291906200206c565b5090505060005b835181101562001b2357838181518110620019fd57620019fc62003381565b5b602002602001015160056000600254815260200190815260200160002060008760400151848151811062001a365762001a3562003381565b5b602002602001015173ffffffffffffffffffffffffffffffffffffffff1673ffffffffffffffffffffffffffffffffffffffff168152602001908152602001600020600082015181600001556020820151816001015560408201518160020160006101000a8154816fffffffffffffffffffffffffffffffff02191690836fffffffffffffffffffffffffffffffff16021790555060608201518160020160106101000a8154816fffffffffffffffffffffffffffffffff02191690836fffffffffffffffffffffffffffffffff160217905550905050808062001b1a906200340d565b915050620019dd565b508460076000866000015173ffffffffffffffffffffffffffffffffffffffff1673ffffffffffffffffffffffffffffffffffffffff168152602001908152602001600020600082825462001b799190620033b0565b9250508190555060019150509392505050565b60008060009050826005600086815260200190815260200160002060003373ffffffffffffffffffffffffffffffffffffffff1673ffffffffffffffffffffffffffffffffffffffff168152602001908152602001600020600101600082825462001bf89190620033b0565b92505081905550600360009054906101000a900473ffffffffffffffffffffffffffffffffffffffff1673ffffffffffffffffffffffffffffffffffffffff166004600086815260200190815260200160002060000160009054906101000a900473ffffffffffffffffffffffffffffffffffffffff1673ffffffffffffffffffffffffffffffffffffffff16141562001d02573373ffffffffffffffffffffffffffffffffffffffff168360405162001cb29062002fb0565b60006040518083038185875af1925050503d806000811462001cf1576040519150601f19603f3d011682016040523d82523d6000602084013e62001cf6565b606091505b50508091505062001dbe565b6004600085815260200190815260200160002060000160009054906101000a900473ffffffffffffffffffffffffffffffffffffffff1673ffffffffffffffffffffffffffffffffffffffff1663a9059cbb33856040518363ffffffff1660e01b815260040162001d75929190620030ab565b6020604051808303816000875af115801562001d95573d6000803e3d6000fd5b505050506040513d601f19601f8201168201806040525081019062001dbb9190620030ef565b90505b8062001e01576040517f08c379a000000000000000000000000000000000000000000000000000000000815260040162001df890620035cc565b60405180910390fd5b600191505092915050565b600033905090565b60008060009054906101000a900473ffffffffffffffffffffffffffffffffffffffff169050816000806101000a81548173ffffffffffffffffffffffffffffffffffffffff021916908373ffffffffffffffffffffffffffffffffffffffff1602179055508173ffffffffffffffffffffffffffffffffffffffff168173ffffffffffffffffffffffffffffffffffffffff167f8be0079c531659141344cd1fd0a4f28419497f9722a3daafe3b4186f6b6457e060405160405180910390a35050565b600080868686868660405162001eee90620020fb565b62001efe95949392919062003630565b604051809103906000f08015801562001f1b573d6000803e3d6000fd5b50905062001f298162001f6f565b7f41039c8b82bb5a365f56b4f9d87cee99e069b450bfdc3d87696fcd87783f24c18160405162001f5a9190620027b5565b60405180910390a18091505095945050505050565b620020098160405160240162001f869190620027b5565b6040516020818303038152906040527f2c2ecbc2000000000000000000000000000000000000000000000000000000007bffffffffffffffffffffffffffffffffffffffffffffffffffffffff19166020820180517bffffffffffffffffffffffffffffffffffffffffffffffffffffffff83818316178352505050506200200c565b50565b60008151905060006a636f6e736f6c652e6c6f679050602083016000808483855afa5050505050565b6040518060600160405280600073ffffffffffffffffffffffffffffffffffffffff16815260200160608152602001606081525090565b828054828255906000526020600020908101928215620020e8579160200282015b82811115620020e75782518260006101000a81548173ffffffffffffffffffffffffffffffffffffffff021916908373ffffffffffffffffffffffffffffffffffffffff160217905550916020019190600101906200208d565b5b509050620020f7919062002109565b5090565b611d5b806200368083390190565b5b80821115620021245760008160009055506001016200210a565b5090565b6000604051905090565b600080fd5b600080fd5b6000819050919050565b62002151816200213c565b81146200215d57600080fd5b50565b600081359050620021718162002146565b92915050565b600080fd5b6000601f19601f8301169050919050565b7f4e487b7100000000000000000000000000000000000000000000000000000000600052604160045260246000fd5b620021c7826200217c565b810181811067ffffffffffffffff82111715620021e957620021e86200218d565b5b80604052505050565b6000620021fe62002128565b90506200220c8282620021bc565b919050565b600080fd5b600073ffffffffffffffffffffffffffffffffffffffff82169050919050565b6000620022438262002216565b9050919050565b620022558162002236565b81146200226157600080fd5b50565b60008135905062002275816200224a565b92915050565b600080fd5b600067ffffffffffffffff8211156200229e576200229d6200218d565b5b602082029050602081019050919050565b600080fd5b6000620022cb620022c58462002280565b620021f2565b90508083825260208201905060208402830185811115620022f157620022f0620022af565b5b835b818110156200231e578062002309888262002264565b845260208401935050602081019050620022f3565b5050509392505050565b600082601f83011262002340576200233f6200227b565b5b813562002352848260208601620022b4565b91505092915050565b60006060828403121562002374576200237362002177565b5b620023806060620021f2565b90506000620023928482850162002264565b600083015250602082013567ffffffffffffffff811115620023b957620023b862002211565b5b620023c78482850162002328565b602083015250604082013567ffffffffffffffff811115620023ee57620023ed62002211565b5b620023fc8482850162002328565b60408301525092915050565b600067ffffffffffffffff8211156200242657620024256200218d565b5b602082029050602081019050919050565b60006fffffffffffffffffffffffffffffffff82169050919050565b6200245e8162002437565b81146200246a57600080fd5b50565b6000813590506200247e8162002453565b92915050565b6000608082840312156200249d576200249c62002177565b5b620024a96080620021f2565b90506000620024bb8482850162002160565b6000830152506020620024d18482850162002160565b6020830152506040620024e7848285016200246d565b6040830152506060620024fd848285016200246d565b60608301525092915050565b6000620025206200251a8462002408565b620021f2565b90508083825260208201905060808402830185811115620025465762002545620022af565b5b835b818110156200257357806200255e888262002484565b84526020840193505060808101905062002548565b5050509392505050565b600082601f8301126200259557620025946200227b565b5b8135620025a784826020860162002509565b91505092915050565b600080600060608486031215620025cc57620025cb62002132565b5b6000620025dc8682870162002160565b935050602084013567ffffffffffffffff8111156200260057620025ff62002137565b5b6200260e868287016200235b565b925050604084013567ffffffffffffffff81111562002632576200263162002137565b5b62002640868287016200257d565b9150509250925092565b60008115159050919050565b62002661816200264a565b82525050565b60006020820190506200267e600083018462002656565b92915050565b600080604083850312156200269e576200269d62002132565b5b6000620026ae8582860162002160565b9250506020620026c18582860162002264565b9150509250929050565b620026d6816200213c565b82525050565b6000602082019050620026f36000830184620026cb565b92915050565b60006020828403121562002712576200271162002132565b5b6000620027228482850162002264565b91505092915050565b6000806040838503121562002745576200274462002132565b5b6000620027558582860162002160565b9250506020620027688582860162002160565b9150509250929050565b6000602082840312156200278b576200278a62002132565b5b60006200279b8482850162002160565b91505092915050565b620027af8162002236565b82525050565b6000602082019050620027cc6000830184620027a4565b92915050565b600080600060c08486031215620027ee57620027ed62002132565b5b6000620027fe8682870162002160565b9350506020620028118682870162002264565b9250506040620028248682870162002484565b9150509250925092565b600080fd5b60008083601f8401126200284c576200284b6200227b565b5b8235905067ffffffffffffffff8111156200286c576200286b6200282e565b5b6020830191508360018202830111156200288b576200288a620022af565b5b9250929050565b60008060008060008060008060c0898b031215620028b557620028b462002132565b5b6000620028c58b828c0162002160565b985050602089013567ffffffffffffffff811115620028e957620028e862002137565b5b620028f78b828c016200235b565b975050604089013567ffffffffffffffff8111156200291b576200291a62002137565b5b620029298b828c016200257d565b965050606089013567ffffffffffffffff8111156200294d576200294c62002137565b5b6200295b8b828c0162002833565b9550955050608089013567ffffffffffffffff81111562002981576200298062002137565b5b6200298f8b828c0162002833565b935093505060a0620029a48b828c0162002160565b9150509295985092959890939650565b600080600060608486031215620029d057620029cf62002132565b5b6000620029e08682870162002264565b9350506020620029f38682870162002160565b925050604062002a068682870162002264565b9150509250925092565b62002a1b8162002236565b82525050565b600081519050919050565b600082825260208201905092915050565b6000819050602082019050919050565b600062002a5b838362002a10565b60208301905092915050565b6000602082019050919050565b600062002a818262002a21565b62002a8d818562002a2c565b935062002a9a8362002a3d565b8060005b8381101562002ad157815162002ab5888262002a4d565b975062002ac28362002a67565b92505060018101905062002a9e565b5085935050505092915050565b600060608301600083015162002af8600086018262002a10565b506020830151848203602086015262002b12828262002a74565b9150506040830151848203604086015262002b2e828262002a74565b9150508091505092915050565b6000602082019050818103600083015262002b57818462002ade565b905092915050565b62002b6a816200264a565b811462002b7657600080fd5b50565b60008135905062002b8a8162002b5f565b92915050565b60008060006060848603121562002bac5762002bab62002132565b5b600062002bbc8682870162002160565b935050602062002bcf8682870162002264565b925050604062002be28682870162002b79565b9150509250925092565b7f4e487b7100000000000000000000000000000000000000000000000000000000600052601160045260246000fd5b600062002c28826200213c565b915062002c35836200213c565b92508282101562002c4b5762002c4a62002bec565b5b828203905092915050565b600062002c638262002437565b915062002c708362002437565b92508282101562002c865762002c8562002bec565b5b828203905092915050565b600062002c9e826200213c565b915062002cab836200213c565b9250817fffffffffffffffffffffffffffffffffffffffffffffffffffffffffffffffff048311821515161562002ce75762002ce662002bec565b5b828202905092915050565b7f4e487b7100000000000000000000000000000000000000000000000000000000600052601260045260246000fd5b600062002d2e826200213c565b915062002d3b836200213c565b92508262002d4e5762002d4d62002cf2565b5b828204905092915050565b60008151905062002d6a8162002146565b92915050565b60006020828403121562002d895762002d8862002132565b5b600062002d998482850162002d59565b91505092915050565b600082825260208201905092915050565b7f564553543a20574954484452415741424c4520544f4f204c4f57000000000000600082015250565b600062002deb601a8362002da2565b915062002df88262002db3565b602082019050919050565b6000602082019050818103600083015262002e1e8162002ddc565b9050919050565b7f4f776e61626c653a2063616c6c6572206973206e6f7420746865206f776e6572600082015250565b600062002e5d60208362002da2565b915062002e6a8262002e25565b602082019050919050565b6000602082019050818103600083015262002e908162002e4e565b9050919050565b7f564553543a20464545204d555354204245203c20313030250000000000000000600082015250565b600062002ecf60188362002da2565b915062002edc8262002e97565b602082019050919050565b6000602082019050818103600083015262002f028162002ec0565b9050919050565b7f564553543a20414d4f554e5420544f4f20484947480000000000000000000000600082015250565b600062002f4160158362002da2565b915062002f4e8262002f09565b602082019050919050565b6000602082019050818103600083015262002f748162002f32565b9050919050565b600081905092915050565b50565b600062002f9860008362002f7b565b915062002fa58262002f86565b600082019050919050565b600062002fbd8262002f89565b9150819050919050565b7f564553543a20455448205452414e53464552204641494c454400000000000000600082015250565b600062002fff60198362002da2565b91506200300c8262002fc7565b602082019050919050565b60006020820190508181036000830152620030328162002ff0565b9050919050565b7f564553543a204e4f542056424f582041444d494e000000000000000000000000600082015250565b60006200307160148362002da2565b91506200307e8262003039565b602082019050919050565b60006020820190508181036000830152620030a48162003062565b9050919050565b6000604082019050620030c26000830185620027a4565b620030d16020830184620026cb565b9392505050565b600081519050620030e98162002b5f565b92915050565b60006020828403121562003108576200310762002132565b5b60006200311884828501620030d8565b91505092915050565b7f4f776e61626c653a206e6577206f776e657220697320746865207a65726f206160008201527f6464726573730000000000000000000000000000000000000000000000000000602082015250565b60006200317f60268362002da2565b91506200318c8262003121565b604082019050919050565b60006020820190508181036000830152620031b28162003170565b9050919050565b7f564553543a205a45524f2041444452204e4f5420544f4b454e00000000000000600082015250565b6000620031f160198362002da2565b9150620031fe82620031b9565b602082019050919050565b600060208201905081810360008301526200322481620031e2565b9050919050565b7f564553543a2043414e4e4f542056455354203020414d4f554e54000000000000600082015250565b600062003263601a8362002da2565b915062003270826200322b565b602082019050919050565b60006020820190508181036000830152620032968162003254565b9050919050565b7f564553543a204e4f20524543495049454e545300000000000000000000000000600082015250565b6000620032d560138362002da2565b9150620032e2826200329d565b602082019050919050565b600060208201905081810360008301526200330881620032c6565b9050919050565b7f564553543a2057524f4e47204143434f554e5453204152524159204c454e0000600082015250565b600062003347601e8362002da2565b915062003354826200330f565b602082019050919050565b600060208201905081810360008301526200337a8162003338565b9050919050565b7f4e487b7100000000000000000000000000000000000000000000000000000000600052603260045260246000fd5b6000620033bd826200213c565b9150620033ca836200213c565b9250827fffffffffffffffffffffffffffffffffffffffffffffffffffffffffffffffff0382111562003402576200340162002bec565b5b828201905092915050565b60006200341a826200213c565b91507fffffffffffffffffffffffffffffffffffffffffffffffffffffffffffffffff82141562003450576200344f62002bec565b5b600182019050919050565b7f564553543a20414d4f554e545320444f4e542053554d20544f20544f54414c00600082015250565b600062003493601f8362002da2565b9150620034a0826200345b565b602082019050919050565b60006020820190508181036000830152620034c68162003484565b9050919050565b6000606082019050620034e46000830186620027a4565b620034f36020830185620027a4565b620035026040830184620026cb565b949350505050565b7f564553543a20544f4b454e205452414e53464552204641494c45440000000000600082015250565b600062003542601b8362002da2565b91506200354f826200350a565b602082019050919050565b60006020820190508181036000830152620035758162003533565b9050919050565b7f564553543a205749544844524157204641494c45440000000000000000000000600082015250565b6000620035b460158362002da2565b9150620035c1826200357c565b602082019050919050565b60006020820190508181036000830152620035e781620035a5565b9050919050565b82818337600083830152505050565b60006200360b838562002da2565b93506200361a838584620035ee565b62003625836200217c565b840190509392505050565b600060608201905081810360008301526200364d818789620035fd565b9050818103602083015262003664818587620035fd565b9050620036756040830184620026cb565b969550505050505056fe60e06040523480156200001157600080fd5b5060405162001d5b38038062001d5b8339818101604052810190620000379190620004c0565b8282601282600090805190602001906200005392919062000238565b5081600190805190602001906200006c92919062000238565b508060ff1660808160ff16815250504660a0818152505062000093620000b860201b60201c565b60c08181525050505050620000af33826200016460201b60201c565b505050620007fa565b60007f8b73c3c69bb8fe3d512ecc4cf759cc79239f7b179b0ffacaa9a75d522b39400f6000604051620000ec91906200066a565b60405180910390206040518060400160405280600181526020017f310000000000000000000000000000000000000000000000000000000000000081525080519060200120463060405160200162000149959493929190620006f4565b60405160208183030381529060405280519060200120905090565b806002600082825462000178919062000780565b9250508190555080600360008473ffffffffffffffffffffffffffffffffffffffff1673ffffffffffffffffffffffffffffffffffffffff168152602001908152602001600020600082825401925050819055508173ffffffffffffffffffffffffffffffffffffffff16600073ffffffffffffffffffffffffffffffffffffffff167fddf252ad1be2c89b69c2b068fc378daa952ba7f163c4a11628f55a4df523b3ef836040516200022c9190620007dd565b60405180910390a35050565b828054620002469062000589565b90600052602060002090601f0160209004810192826200026a5760008555620002b6565b82601f106200028557805160ff1916838001178555620002b6565b82800160010185558215620002b6579182015b82811115620002b557825182559160200191906001019062000298565b5b509050620002c59190620002c9565b5090565b5b80821115620002e4576000816000905550600101620002ca565b5090565b6000604051905090565b600080fd5b600080fd5b600080fd5b600080fd5b6000601f19601f8301169050919050565b7f4e487b7100000000000000000000000000000000000000000000000000000000600052604160045260246000fd5b620003518262000306565b810181811067ffffffffffffffff8211171562000373576200037262000317565b5b80604052505050565b600062000388620002e8565b905062000396828262000346565b919050565b600067ffffffffffffffff821115620003b957620003b862000317565b5b620003c48262000306565b9050602081019050919050565b60005b83811015620003f1578082015181840152602081019050620003d4565b8381111562000401576000848401525b50505050565b60006200041e62000418846200039b565b6200037c565b9050828152602081018484840111156200043d576200043c62000301565b5b6200044a848285620003d1565b509392505050565b600082601f8301126200046a5762000469620002fc565b5b81516200047c84826020860162000407565b91505092915050565b6000819050919050565b6200049a8162000485565b8114620004a657600080fd5b50565b600081519050620004ba816200048f565b92915050565b600080600060608486031215620004dc57620004db620002f2565b5b600084015167ffffffffffffffff811115620004fd57620004fc620002f7565b5b6200050b8682870162000452565b935050602084015167ffffffffffffffff8111156200052f576200052e620002f7565b5b6200053d8682870162000452565b92505060406200055086828701620004a9565b9150509250925092565b7f4e487b7100000000000000000000000000000000000000000000000000000000600052602260045260246000fd5b60006002820490506001821680620005a257607f821691505b60208210811415620005b957620005b86200055a565b5b50919050565b600081905092915050565b60008190508160005260206000209050919050565b60008154620005ee8162000589565b620005fa8186620005bf565b945060018216600081146200061857600181146200062a5762000661565b60ff1983168652818601935062000661565b6200063585620005ca565b60005b83811015620006595781548189015260018201915060208101905062000638565b838801955050505b50505092915050565b6000620006788284620005df565b915081905092915050565b6000819050919050565b620006988162000683565b82525050565b620006a98162000485565b82525050565b600073ffffffffffffffffffffffffffffffffffffffff82169050919050565b6000620006dc82620006af565b9050919050565b620006ee81620006cf565b82525050565b600060a0820190506200070b60008301886200068d565b6200071a60208301876200068d565b6200072960408301866200068d565b6200073860608301856200069e565b620007476080830184620006e3565b9695505050505050565b7f4e487b7100000000000000000000000000000000000000000000000000000000600052601160045260246000fd5b60006200078d8262000485565b91506200079a8362000485565b9250827fffffffffffffffffffffffffffffffffffffffffffffffffffffffffffffffff03821115620007d257620007d162000751565b5b828201905092915050565b6000602082019050620007f460008301846200069e565b92915050565b60805160a05160c0516115316200082a6000396000610716015260006106e2015260006106bc01526115316000f3fe608060405234801561001057600080fd5b50600436106100cf5760003560e01c80633644e5151161008c57806395d89b411161006657806395d89b411461022a578063a9059cbb14610248578063d505accf14610278578063dd62ed3e14610294576100cf565b80633644e515146101ac57806370a08231146101ca5780637ecebe00146101fa576100cf565b806306fdde03146100d4578063095ea7b3146100f257806318160ddd1461012257806323b872dd1461014057806330adf81f14610170578063313ce5671461018e575b600080fd5b6100dc6102c4565b6040516100e99190610d72565b60405180910390f35b61010c60048036038101906101079190610e2d565b610352565b6040516101199190610e88565b60405180910390f35b61012a610444565b6040516101379190610eb2565b60405180910390f35b61015a60048036038101906101559190610ecd565b61044a565b6040516101679190610e88565b60405180910390f35b610178610696565b6040516101859190610f39565b60405180910390f35b6101966106ba565b6040516101a39190610f70565b60405180910390f35b6101b46106de565b6040516101c19190610f39565b60405180910390f35b6101e460048036038101906101df9190610f8b565b61073b565b6040516101f19190610eb2565b60405180910390f35b610214600480360381019061020f9190610f8b565b610753565b6040516102219190610eb2565b60405180910390f35b61023261076b565b60405161023f9190610d72565b60405180910390f35b610262600480360381019061025d9190610e2d565b6107f9565b60405161026f9190610e88565b60405180910390f35b610292600480360381019061028d9190611010565b61090d565b005b6102ae60048036038101906102a991906110b2565b610c0c565b6040516102bb9190610eb2565b60405180910390f35b600080546102d190611121565b80601f01602080910402602001604051908101604052809291908181526020018280546102fd90611121565b801561034a5780601f1061031f5761010080835404028352916020019161034a565b820191906000526020600020905b81548152906001019060200180831161032d57829003601f168201915b505050505081565b600081600460003373ffffffffffffffffffffffffffffffffffffffff1673ffffffffffffffffffffffffffffffffffffffff16815260200190815260200160002060008573ffffffffffffffffffffffffffffffffffffffff1673ffffffffffffffffffffffffffffffffffffffff168152602001908152602001600020819055508273ffffffffffffffffffffffffffffffffffffffff163373ffffffffffffffffffffffffffffffffffffffff167f8c5be1e5ebec7d5bd14f71427d1e84f3dd0314c0f7b2291e5b200ac8c7c3b925846040516104329190610eb2565b60405180910390a36001905092915050565b60025481565b60007fffffffffffffffffffffffffffffffffffffffffffffffffffffffffffffffff600460008673ffffffffffffffffffffffffffffffffffffffff1673ffffffffffffffffffffffffffffffffffffffff16815260200190815260200160002060003373ffffffffffffffffffffffffffffffffffffffff1673ffffffffffffffffffffffffffffffffffffffff16815260200190815260200160002054146105835781600460008673ffffffffffffffffffffffffffffffffffffffff1673ffffffffffffffffffffffffffffffffffffffff16815260200190815260200160002060003373ffffffffffffffffffffffffffffffffffffffff1673ffffffffffffffffffffffffffffffffffffffff168152602001908152602001600020600082825461057b9190611182565b925050819055505b81600360008673ffffffffffffffffffffffffffffffffffffffff1673ffffffffffffffffffffffffffffffffffffffff16815260200190815260200160002060008282546105d29190611182565b9250508190555081600360008573ffffffffffffffffffffffffffffffffffffffff1673ffffffffffffffffffffffffffffffffffffffff168152602001908152602001600020600082825401925050819055508273ffffffffffffffffffffffffffffffffffffffff168473ffffffffffffffffffffffffffffffffffffffff167fddf252ad1be2c89b69c2b068fc378daa952ba7f163c4a11628f55a4df523b3ef846040516106839190610eb2565b60405180910390a3600190509392505050565b7f6e71edae12b1b97f4d1f60370fef10105fa2faae0126114a169c64845d6126c981565b7f000000000000000000000000000000000000000000000000000000000000000081565b60007f000000000000000000000000000000000000000000000000000000000000000046146107145761070f610c31565b610736565b7f00000000000000000000000000000000000000000000000000000000000000005b905090565b60036020528060005260406000206000915090505481565b60056020528060005260406000206000915090505481565b6001805461077890611121565b80601f01602080910402602001604051908101604052809291908181526020018280546107a490611121565b80156107f15780601f106107c6576101008083540402835291602001916107f1565b820191906000526020600020905b8154815290600101906020018083116107d457829003601f168201915b505050505081565b600081600360003373ffffffffffffffffffffffffffffffffffffffff1673ffffffffffffffffffffffffffffffffffffffff168152602001908152602001600020600082825461084a9190611182565b9250508190555081600360008573ffffffffffffffffffffffffffffffffffffffff1673ffffffffffffffffffffffffffffffffffffffff168152602001908152602001600020600082825401925050819055508273ffffffffffffffffffffffffffffffffffffffff163373ffffffffffffffffffffffffffffffffffffffff167fddf252ad1be2c89b69c2b068fc378daa952ba7f163c4a11628f55a4df523b3ef846040516108fb9190610eb2565b60405180910390a36001905092915050565b42841015610950576040517f08c379a000000000000000000000000000000000000000000000000000000000815260040161094790611202565b60405180910390fd5b600061095a6106de565b7f6e71edae12b1b97f4d1f60370fef10105fa2faae0126114a169c64845d6126c9898989600560008e73ffffffffffffffffffffffffffffffffffffffff1673ffffffffffffffffffffffffffffffffffffffff1681526020019081526020016000206000815480929190600101919050558a6040516020016109e296959493929190611231565b60405160208183030381529060405280519060200120604051602001610a0992919061130a565b604051602081830303815290604052805190602001209050600060018286868660405160008152602001604052604051610a469493929190611341565b6020604051602081039080840390855afa158015610a68573d6000803e3d6000fd5b505050602060405103519050600073ffffffffffffffffffffffffffffffffffffffff168173ffffffffffffffffffffffffffffffffffffffff1614158015610adc57508873ffffffffffffffffffffffffffffffffffffffff168173ffffffffffffffffffffffffffffffffffffffff16145b610b1b576040517f08c379a0000000000000000000000000000000000000000000000000000000008152600401610b12906113d2565b60405180910390fd5b86600460008373ffffffffffffffffffffffffffffffffffffffff1673ffffffffffffffffffffffffffffffffffffffff16815260200190815260200160002060008a73ffffffffffffffffffffffffffffffffffffffff1673ffffffffffffffffffffffffffffffffffffffff1681526020019081526020016000208190555050508573ffffffffffffffffffffffffffffffffffffffff168773ffffffffffffffffffffffffffffffffffffffff167f8c5be1e5ebec7d5bd14f71427d1e84f3dd0314c0f7b2291e5b200ac8c7c3b92587604051610bfb9190610eb2565b60405180910390a350505050505050565b6004602052816000526040600020602052806000526040600020600091509150505481565b60007f8b73c3c69bb8fe3d512ecc4cf759cc79239f7b179b0ffacaa9a75d522b39400f6000604051610c639190611491565b60405180910390206040518060400160405280600181526020017f3100000000000000000000000000000000000000000000000000000000000000815250805190602001204630604051602001610cbe9594939291906114a8565b60405160208183030381529060405280519060200120905090565b600081519050919050565b600082825260208201905092915050565b60005b83811015610d13578082015181840152602081019050610cf8565b83811115610d22576000848401525b50505050565b6000601f19601f8301169050919050565b6000610d4482610cd9565b610d4e8185610ce4565b9350610d5e818560208601610cf5565b610d6781610d28565b840191505092915050565b60006020820190508181036000830152610d8c8184610d39565b905092915050565b600080fd5b600073ffffffffffffffffffffffffffffffffffffffff82169050919050565b6000610dc482610d99565b9050919050565b610dd481610db9565b8114610ddf57600080fd5b50565b600081359050610df181610dcb565b92915050565b6000819050919050565b610e0a81610df7565b8114610e1557600080fd5b50565b600081359050610e2781610e01565b92915050565b60008060408385031215610e4457610e43610d94565b5b6000610e5285828601610de2565b9250506020610e6385828601610e18565b9150509250929050565b60008115159050919050565b610e8281610e6d565b82525050565b6000602082019050610e9d6000830184610e79565b92915050565b610eac81610df7565b82525050565b6000602082019050610ec76000830184610ea3565b92915050565b600080600060608486031215610ee657610ee5610d94565b5b6000610ef486828701610de2565b9350506020610f0586828701610de2565b9250506040610f1686828701610e18565b9150509250925092565b6000819050919050565b610f3381610f20565b82525050565b6000602082019050610f4e6000830184610f2a565b92915050565b600060ff82169050919050565b610f6a81610f54565b82525050565b6000602082019050610f856000830184610f61565b92915050565b600060208284031215610fa157610fa0610d94565b5b6000610faf84828501610de2565b91505092915050565b610fc181610f54565b8114610fcc57600080fd5b50565b600081359050610fde81610fb8565b92915050565b610fed81610f20565b8114610ff857600080fd5b50565b60008135905061100a81610fe4565b92915050565b600080600080600080600060e0888a03121561102f5761102e610d94565b5b600061103d8a828b01610de2565b975050602061104e8a828b01610de2565b965050604061105f8a828b01610e18565b95505060606110708a828b01610e18565b94505060806110818a828b01610fcf565b93505060a06110928a828b01610ffb565b92505060c06110a38a828b01610ffb565b91505092959891949750929550565b600080604083850312156110c9576110c8610d94565b5b60006110d785828601610de2565b92505060206110e885828601610de2565b9150509250929050565b7f4e487b7100000000000000000000000000000000000000000000000000000000600052602260045260246000fd5b6000600282049050600182168061113957607f821691505b6020821081141561114d5761114c6110f2565b5b50919050565b7f4e487b7100000000000000000000000000000000000000000000000000000000600052601160045260246000fd5b600061118d82610df7565b915061119883610df7565b9250828210156111ab576111aa611153565b5b828203905092915050565b7f5045524d49545f444541444c494e455f45585049524544000000000000000000600082015250565b60006111ec601783610ce4565b91506111f7826111b6565b602082019050919050565b6000602082019050818103600083015261121b816111df565b9050919050565b61122b81610db9565b82525050565b600060c0820190506112466000830189610f2a565b6112536020830188611222565b6112606040830187611222565b61126d6060830186610ea3565b61127a6080830185610ea3565b61128760a0830184610ea3565b979650505050505050565b600081905092915050565b7f1901000000000000000000000000000000000000000000000000000000000000600082015250565b60006112d3600283611292565b91506112de8261129d565b600282019050919050565b6000819050919050565b6113046112ff82610f20565b6112e9565b82525050565b6000611315826112c6565b915061132182856112f3565b60208201915061133182846112f3565b6020820191508190509392505050565b60006080820190506113566000830187610f2a565b6113636020830186610f61565b6113706040830185610f2a565b61137d6060830184610f2a565b95945050505050565b7f494e56414c49445f5045524d49545f5349474e41545552450000000000000000600082015250565b60006113bc601883610ce4565b91506113c782611386565b602082019050919050565b600060208201905081810360008301526113eb816113af565b9050919050565b600081905092915050565b60008190508160005260206000209050919050565b6000815461141f81611121565b61142981866113f2565b94506001821660008114611444576001811461145557611488565b60ff19831686528186019350611488565b61145e856113fd565b60005b8381101561148057815481890152600182019150602081019050611461565b838801955050505b50505092915050565b600061149d8284611412565b915081905092915050565b600060a0820190506114bd6000830188610f2a565b6114ca6020830187610f2a565b6114d76040830186610f2a565b6114e46060830185610ea3565b6114f16080830184611222565b969550505050505056fea2646970667358221220e9fb04fa17a53cdff65b80a5b270f40339b020f2c452f215aecbc79100fad5f764736f6c634300080a0033a2646970667358221220aebb4cdd43a5e0d5bf5e8eaa3bae4e70bd362a46e3642a042a354d291f849fe864736f6c634300080a0033",
  "linkReferences": {},
  "deployedLinkReferences": {}
}