{
  "_format": "hh-sol-artifact-1",
  "contractName": "VestCore",
  "sourceName": "contracts/VestCore.sol",
  "abi": [
    {
      "inputs": [],
      "stateMutability": "nonpayable",
      "type": "constructor"
    },
    {
      "anonymous": false,
      "inputs": [
        {
          "indexed": true,
          "internalType": "address",
          "name": "previousOwner",
          "type": "address"
        },
        {
          "indexed": true,
          "internalType": "address",
          "name": "newOwner",
          "type": "address"
        }
      ],
      "name": "OwnershipTransferred",
      "type": "event"
    },
    {
      "inputs": [],
      "name": "SCALE",
      "outputs": [
        {
          "internalType": "uint256",
          "name": "",
          "type": "uint256"
        }
      ],
      "stateMutability": "view",
      "type": "function"
    },
    {
      "inputs": [],
      "name": "createVestingBoxWithETH",
      "outputs": [
        {
          "internalType": "bool",
          "name": "success",
          "type": "bool"
        }
      ],
      "stateMutability": "nonpayable",
      "type": "function"
    },
    {
      "inputs": [
        {
          "internalType": "address",
          "name": "_token",
          "type": "address"
        },
        {
          "internalType": "uint256",
          "name": "_totalAmount",
          "type": "uint256"
        },
        {
          "internalType": "uint256[]",
          "name": "_amounts",
          "type": "uint256[]"
        },
        {
          "internalType": "address[]",
          "name": "_recipients",
          "type": "address[]"
        },
        {
          "internalType": "uint256[]",
          "name": "_startTimes",
          "type": "uint256[]"
        },
        {
          "internalType": "uint256[]",
          "name": "_endTimes",
          "type": "uint256[]"
        }
      ],
      "name": "createVestingBoxWithExistingToken",
      "outputs": [
        {
          "internalType": "bool",
          "name": "success",
          "type": "bool"
        }
      ],
      "stateMutability": "nonpayable",
      "type": "function"
    },
    {
      "inputs": [
        {
          "internalType": "address",
          "name": "_token",
          "type": "address"
        },
        {
          "internalType": "uint256",
          "name": "_totalAmount",
          "type": "uint256"
        },
        {
          "internalType": "uint256[]",
          "name": "_amounts",
          "type": "uint256[]"
        },
        {
          "internalType": "address[]",
          "name": "_recipients",
          "type": "address[]"
        },
        {
          "internalType": "uint256[]",
          "name": "_startTimes",
          "type": "uint256[]"
        },
        {
          "internalType": "uint256[]",
          "name": "_endTimes",
          "type": "uint256[]"
        }
      ],
      "name": "createVestingBoxWithNewToken",
      "outputs": [
        {
          "internalType": "bool",
          "name": "success",
          "type": "bool"
        }
      ],
      "stateMutability": "nonpayable",
      "type": "function"
    },
    {
      "inputs": [],
      "name": "fee",
      "outputs": [
        {
          "internalType": "uint256",
          "name": "",
          "type": "uint256"
        }
      ],
      "stateMutability": "view",
      "type": "function"
    },
    {
      "inputs": [
        {
          "internalType": "uint256",
          "name": "_vestingBoxId",
          "type": "uint256"
        }
      ],
      "name": "getVestingBox",
      "outputs": [
        {
          "components": [
            {
              "internalType": "address",
              "name": "token",
              "type": "address"
            },
            {
              "internalType": "address[]",
              "name": "recipients",
              "type": "address[]"
            },
            {
              "internalType": "uint256[]",
              "name": "amounts",
              "type": "uint256[]"
            },
            {
              "internalType": "uint256[]",
              "name": "startTimes",
              "type": "uint256[]"
            },
            {
              "internalType": "uint256[]",
              "name": "endTimes",
              "type": "uint256[]"
            }
          ],
          "internalType": "struct VestCore.VestingBox",
          "name": "vestingBox",
          "type": "tuple"
        }
      ],
      "stateMutability": "view",
      "type": "function"
    },
    {
      "inputs": [],
      "name": "owner",
      "outputs": [
        {
          "internalType": "address",
          "name": "",
          "type": "address"
        }
      ],
      "stateMutability": "view",
      "type": "function"
    },
    {
      "inputs": [],
      "name": "renounceOwnership",
      "outputs": [],
      "stateMutability": "nonpayable",
      "type": "function"
    },
    {
      "inputs": [
        {
          "internalType": "address",
          "name": "newOwner",
          "type": "address"
        }
      ],
      "name": "transferOwnership",
      "outputs": [],
      "stateMutability": "nonpayable",
      "type": "function"
    }
  ],
  "bytecode": "0x608060405266038d7ea4c68000600155600060025534801561002057600080fd5b5061003d61003261004260201b60201c565b61004a60201b60201c565b61010e565b600033905090565b60008060009054906101000a900473ffffffffffffffffffffffffffffffffffffffff169050816000806101000a81548173ffffffffffffffffffffffffffffffffffffffff021916908373ffffffffffffffffffffffffffffffffffffffff1602179055508173ffffffffffffffffffffffffffffffffffffffff168173ffffffffffffffffffffffffffffffffffffffff167f8be0079c531659141344cd1fd0a4f28419497f9722a3daafe3b4186f6b6457e060405160405180910390a35050565b6111cd8061011d6000396000f3fe608060405234801561001057600080fd5b50600436106100935760003560e01c8063c68482a711610066578063c68482a71461010e578063ddca3f431461013e578063eced55261461015c578063f2fde38b1461017a578063fd5ec9251461019657610093565b80633215b2db1461009857806343ea3646146100b6578063715018a6146100e65780638da5cb5b146100f0575b600080fd5b6100a06101c6565b6040516100ad9190610ab5565b60405180910390f35b6100d060048036038101906100cb9190610c29565b6101cf565b6040516100dd9190610ab5565b60405180910390f35b6100ee6101e3565b005b6100f861026b565b6040516101059190610d48565b60405180910390f35b61012860048036038101906101239190610d63565b610294565b6040516101359190610f97565b60405180910390f35b6101466104c9565b6040516101539190610fc8565b60405180910390f35b6101646104cf565b6040516101719190610fc8565b60405180910390f35b610194600480360381019061018f9190610fe3565b6104db565b005b6101b060048036038101906101ab9190610c29565b6105d3565b6040516101bd9190610ab5565b60405180910390f35b60006001905090565b6000600190509a9950505050505050505050565b6101eb610895565b73ffffffffffffffffffffffffffffffffffffffff1661020961026b565b73ffffffffffffffffffffffffffffffffffffffff161461025f576040517f08c379a00000000000000000000000000000000000000000000000000000000081526004016102569061106d565b60405180910390fd5b610269600061089d565b565b60008060009054906101000a900473ffffffffffffffffffffffffffffffffffffffff16905090565b61029c610961565b600082116102a957600080fd5b6002548211156102b857600080fd5b600360008381526020019081526020016000206040518060a00160405290816000820160009054906101000a900473ffffffffffffffffffffffffffffffffffffffff1673ffffffffffffffffffffffffffffffffffffffff1673ffffffffffffffffffffffffffffffffffffffff168152602001600182018054806020026020016040519081016040528092919081815260200182805480156103b157602002820191906000526020600020905b8160009054906101000a900473ffffffffffffffffffffffffffffffffffffffff1673ffffffffffffffffffffffffffffffffffffffff1681526020019060010190808311610367575b505050505081526020016002820180548060200260200160405190810160405280929190818152602001828054801561040957602002820191906000526020600020905b8154815260200190600101908083116103f5575b505050505081526020016003820180548060200260200160405190810160405280929190818152602001828054801561046157602002820191906000526020600020905b81548152602001906001019080831161044d575b50505050508152602001600482018054806020026020016040519081016040528092919081815260200182805480156104b957602002820191906000526020600020905b8154815260200190600101908083116104a5575b5050505050815250509050919050565b60015481565b670de0b6b3a764000081565b6104e3610895565b73ffffffffffffffffffffffffffffffffffffffff1661050161026b565b73ffffffffffffffffffffffffffffffffffffffff1614610557576040517f08c379a000000000000000000000000000000000000000000000000000000000815260040161054e9061106d565b60405180910390fd5b600073ffffffffffffffffffffffffffffffffffffffff168173ffffffffffffffffffffffffffffffffffffffff1614156105c7576040517f08c379a00000000000000000000000000000000000000000000000000000000081526004016105be906110ff565b60405180910390fd5b6105d08161089d565b50565b60008073ffffffffffffffffffffffffffffffffffffffff168b73ffffffffffffffffffffffffffffffffffffffff16141561060e57600080fd5b60008a1161061b57600080fd5b88889050878790501461062d57600080fd5b84849050878790501461063f57600080fd5b82829050878790501461065157600080fd5b60006040518060a001604052808d73ffffffffffffffffffffffffffffffffffffffff168152602001898980806020026020016040519081016040528093929190818152602001838360200280828437600081840152601f19601f8201169050808301925050505050505081526020018b8b80806020026020016040519081016040528093929190818152602001838360200280828437600081840152601f19601f820116905080830192505050505050508152602001878780806020026020016040519081016040528093929190818152602001838360200280828437600081840152601f19601f820116905080830192505050505050508152602001858580806020026020016040519081016040528093929190818152602001838360200280828437600081840152601f19601f820116905080830192505050505050508152509050600260008154809291906107a99061114e565b91905055508060036000600254815260200190815260200160002060008201518160000160006101000a81548173ffffffffffffffffffffffffffffffffffffffff021916908373ffffffffffffffffffffffffffffffffffffffff16021790555060208201518160010190805190602001906108279291906109a6565b506040820151816002019080519060200190610844929190610a30565b506060820151816003019080519060200190610861929190610a30565b50608082015181600401908051906020019061087e929190610a30565b5090505060019150509a9950505050505050505050565b600033905090565b60008060009054906101000a900473ffffffffffffffffffffffffffffffffffffffff169050816000806101000a81548173ffffffffffffffffffffffffffffffffffffffff021916908373ffffffffffffffffffffffffffffffffffffffff1602179055508173ffffffffffffffffffffffffffffffffffffffff168173ffffffffffffffffffffffffffffffffffffffff167f8be0079c531659141344cd1fd0a4f28419497f9722a3daafe3b4186f6b6457e060405160405180910390a35050565b6040518060a00160405280600073ffffffffffffffffffffffffffffffffffffffff168152602001606081526020016060815260200160608152602001606081525090565b828054828255906000526020600020908101928215610a1f579160200282015b82811115610a1e5782518260006101000a81548173ffffffffffffffffffffffffffffffffffffffff021916908373ffffffffffffffffffffffffffffffffffffffff160217905550916020019190600101906109c6565b5b509050610a2c9190610a7d565b5090565b828054828255906000526020600020908101928215610a6c579160200282015b82811115610a6b578251825591602001919060010190610a50565b5b509050610a799190610a7d565b5090565b5b80821115610a96576000816000905550600101610a7e565b5090565b60008115159050919050565b610aaf81610a9a565b82525050565b6000602082019050610aca6000830184610aa6565b92915050565b600080fd5b600080fd5b600073ffffffffffffffffffffffffffffffffffffffff82169050919050565b6000610b0582610ada565b9050919050565b610b1581610afa565b8114610b2057600080fd5b50565b600081359050610b3281610b0c565b92915050565b6000819050919050565b610b4b81610b38565b8114610b5657600080fd5b50565b600081359050610b6881610b42565b92915050565b600080fd5b600080fd5b600080fd5b60008083601f840112610b9357610b92610b6e565b5b8235905067ffffffffffffffff811115610bb057610baf610b73565b5b602083019150836020820283011115610bcc57610bcb610b78565b5b9250929050565b60008083601f840112610be957610be8610b6e565b5b8235905067ffffffffffffffff811115610c0657610c05610b73565b5b602083019150836020820283011115610c2257610c21610b78565b5b9250929050565b60008060008060008060008060008060c08b8d031215610c4c57610c4b610ad0565b5b6000610c5a8d828e01610b23565b9a50506020610c6b8d828e01610b59565b99505060408b013567ffffffffffffffff811115610c8c57610c8b610ad5565b5b610c988d828e01610b7d565b985098505060608b013567ffffffffffffffff811115610cbb57610cba610ad5565b5b610cc78d828e01610bd3565b965096505060808b013567ffffffffffffffff811115610cea57610ce9610ad5565b5b610cf68d828e01610b7d565b945094505060a08b013567ffffffffffffffff811115610d1957610d18610ad5565b5b610d258d828e01610b7d565b92509250509295989b9194979a5092959850565b610d4281610afa565b82525050565b6000602082019050610d5d6000830184610d39565b92915050565b600060208284031215610d7957610d78610ad0565b5b6000610d8784828501610b59565b91505092915050565b610d9981610afa565b82525050565b600081519050919050565b600082825260208201905092915050565b6000819050602082019050919050565b6000610dd78383610d90565b60208301905092915050565b6000602082019050919050565b6000610dfb82610d9f565b610e058185610daa565b9350610e1083610dbb565b8060005b83811015610e41578151610e288882610dcb565b9750610e3383610de3565b925050600181019050610e14565b5085935050505092915050565b600081519050919050565b600082825260208201905092915050565b6000819050602082019050919050565b610e8381610b38565b82525050565b6000610e958383610e7a565b60208301905092915050565b6000602082019050919050565b6000610eb982610e4e565b610ec38185610e59565b9350610ece83610e6a565b8060005b83811015610eff578151610ee68882610e89565b9750610ef183610ea1565b925050600181019050610ed2565b5085935050505092915050565b600060a083016000830151610f246000860182610d90565b5060208301518482036020860152610f3c8282610df0565b91505060408301518482036040860152610f568282610eae565b91505060608301518482036060860152610f708282610eae565b91505060808301518482036080860152610f8a8282610eae565b9150508091505092915050565b60006020820190508181036000830152610fb18184610f0c565b905092915050565b610fc281610b38565b82525050565b6000602082019050610fdd6000830184610fb9565b92915050565b600060208284031215610ff957610ff8610ad0565b5b600061100784828501610b23565b91505092915050565b600082825260208201905092915050565b7f4f776e61626c653a2063616c6c6572206973206e6f7420746865206f776e6572600082015250565b6000611057602083611010565b915061106282611021565b602082019050919050565b600060208201905081810360008301526110868161104a565b9050919050565b7f4f776e61626c653a206e6577206f776e657220697320746865207a65726f206160008201527f6464726573730000000000000000000000000000000000000000000000000000602082015250565b60006110e9602683611010565b91506110f48261108d565b604082019050919050565b60006020820190508181036000830152611118816110dc565b9050919050565b7f4e487b7100000000000000000000000000000000000000000000000000000000600052601160045260246000fd5b600061115982610b38565b91507fffffffffffffffffffffffffffffffffffffffffffffffffffffffffffffffff82141561118c5761118b61111f565b5b60018201905091905056fea2646970667358221220d7a369d8df6e5c4d3b9166172c0f153bba5f3fb453d2a9436d59578e5656827164736f6c634300080a0033",
  "linkReferences": {},
  "deployedLinkReferences": {}
}