{
  "_format": "hh-sol-artifact-1",
  "contractName": "VestCore",
  "sourceName": "contracts/VestCore.sol",
  "abi": [
    {
      "inputs": [],
      "stateMutability": "nonpayable",
      "type": "constructor"
    },
    {
      "anonymous": false,
      "inputs": [],
      "name": "AccountAddedToVestingBox",
      "type": "event"
    },
    {
      "anonymous": false,
      "inputs": [],
      "name": "AccountRemovedFromVestingBox",
      "type": "event"
    },
    {
      "anonymous": false,
      "inputs": [
        {
          "indexed": false,
          "internalType": "uint256",
          "name": "oldFee",
          "type": "uint256"
        },
        {
          "indexed": false,
          "internalType": "uint256",
          "name": "newFee",
          "type": "uint256"
        }
      ],
      "name": "FeesSet",
      "type": "event"
    },
    {
      "anonymous": false,
      "inputs": [
        {
          "indexed": false,
          "internalType": "address",
          "name": "token",
          "type": "address"
        },
        {
          "indexed": false,
          "internalType": "uint256",
          "name": "amount",
          "type": "uint256"
        },
        {
          "indexed": false,
          "internalType": "address",
          "name": "_to",
          "type": "address"
        }
      ],
      "name": "FeesWithdrawn",
      "type": "event"
    },
    {
      "anonymous": false,
      "inputs": [
        {
          "indexed": true,
          "internalType": "address",
          "name": "previousOwner",
          "type": "address"
        },
        {
          "indexed": true,
          "internalType": "address",
          "name": "newOwner",
          "type": "address"
        }
      ],
      "name": "OwnershipTransferred",
      "type": "event"
    },
    {
      "anonymous": false,
      "inputs": [
        {
          "indexed": true,
          "internalType": "uint256",
          "name": "vBoxID",
          "type": "uint256"
        },
        {
          "indexed": true,
          "internalType": "address",
          "name": "token",
          "type": "address"
        },
        {
          "indexed": false,
          "internalType": "uint256",
          "name": "amountClaimed",
          "type": "uint256"
        },
        {
          "indexed": false,
          "internalType": "address",
          "name": "recipient",
          "type": "address"
        }
      ],
      "name": "VestedTokensClaimed",
      "type": "event"
    },
    {
      "anonymous": false,
      "inputs": [
        {
          "indexed": true,
          "internalType": "uint256",
          "name": "vBoxID",
          "type": "uint256"
        },
        {
          "indexed": false,
          "internalType": "address",
          "name": "admin",
          "type": "address"
        },
        {
          "indexed": false,
          "internalType": "bool",
          "name": "isAdmin",
          "type": "bool"
        }
      ],
      "name": "VestingBoxAdminSet",
      "type": "event"
    },
    {
      "anonymous": false,
      "inputs": [
        {
          "indexed": true,
          "internalType": "uint256",
          "name": "vBoxID",
          "type": "uint256"
        },
        {
          "indexed": true,
          "internalType": "address",
          "name": "token",
          "type": "address"
        },
        {
          "indexed": false,
          "internalType": "address",
          "name": "creator",
          "type": "address"
        },
        {
          "indexed": false,
          "internalType": "uint256",
          "name": "totalBoxAmount",
          "type": "uint256"
        }
      ],
      "name": "VestingBoxCreated",
      "type": "event"
    },
    {
      "inputs": [],
      "name": "ETH",
      "outputs": [
        {
          "internalType": "address",
          "name": "",
          "type": "address"
        }
      ],
      "stateMutability": "view",
      "type": "function"
    },
    {
      "inputs": [],
      "name": "SCALE",
      "outputs": [
        {
          "internalType": "uint256",
          "name": "",
          "type": "uint256"
        }
      ],
      "stateMutability": "view",
      "type": "function"
    },
    {
      "inputs": [
        {
          "internalType": "uint256",
          "name": "_vBoxId",
          "type": "uint256"
        },
        {
          "internalType": "address",
          "name": "_recipient",
          "type": "address"
        },
        {
          "components": [
            {
              "internalType": "uint256",
              "name": "amount",
              "type": "uint256"
            },
            {
              "internalType": "uint256",
              "name": "withdrawn",
              "type": "uint256"
            },
            {
              "internalType": "uint128",
              "name": "startTime",
              "type": "uint128"
            },
            {
              "internalType": "uint128",
              "name": "endTime",
              "type": "uint128"
            }
          ],
          "internalType": "struct VestCore.VestingBoxAccount",
          "name": "_vBoxAccount",
          "type": "tuple"
        }
      ],
      "name": "addAccountToVestingBox",
      "outputs": [],
      "stateMutability": "nonpayable",
      "type": "function"
    },
    {
      "inputs": [
        {
          "internalType": "uint256",
          "name": "_vBoxId",
          "type": "uint256"
        },
        {
          "internalType": "uint256",
          "name": "_amountToClaim",
          "type": "uint256"
        }
      ],
      "name": "claimVestedTokens",
      "outputs": [
        {
          "internalType": "bool",
          "name": "success",
          "type": "bool"
        }
      ],
      "stateMutability": "nonpayable",
      "type": "function"
    },
    {
      "inputs": [
        {
          "internalType": "uint256",
          "name": "_totalAmount",
          "type": "uint256"
        },
        {
          "components": [
            {
              "internalType": "address",
              "name": "token",
              "type": "address"
            },
            {
              "internalType": "address[]",
              "name": "admins",
              "type": "address[]"
            },
            {
              "internalType": "address[]",
              "name": "recipients",
              "type": "address[]"
            }
          ],
          "internalType": "struct VestCore.VestingBox",
          "name": "_vBox",
          "type": "tuple"
        },
        {
          "components": [
            {
              "internalType": "uint256",
              "name": "amount",
              "type": "uint256"
            },
            {
              "internalType": "uint256",
              "name": "withdrawn",
              "type": "uint256"
            },
            {
              "internalType": "uint128",
              "name": "startTime",
              "type": "uint128"
            },
            {
              "internalType": "uint128",
              "name": "endTime",
              "type": "uint128"
            }
          ],
          "internalType": "struct VestCore.VestingBoxAccount[]",
          "name": "_vBoxAccounts",
          "type": "tuple[]"
        }
      ],
      "name": "createVestingBoxWithETH",
      "outputs": [
        {
          "internalType": "bool",
          "name": "success",
          "type": "bool"
        }
      ],
      "stateMutability": "nonpayable",
      "type": "function"
    },
    {
      "inputs": [
        {
          "internalType": "uint256",
          "name": "_totalAmount",
          "type": "uint256"
        },
        {
          "components": [
            {
              "internalType": "address",
              "name": "token",
              "type": "address"
            },
            {
              "internalType": "address[]",
              "name": "admins",
              "type": "address[]"
            },
            {
              "internalType": "address[]",
              "name": "recipients",
              "type": "address[]"
            }
          ],
          "internalType": "struct VestCore.VestingBox",
          "name": "_vBox",
          "type": "tuple"
        },
        {
          "components": [
            {
              "internalType": "uint256",
              "name": "amount",
              "type": "uint256"
            },
            {
              "internalType": "uint256",
              "name": "withdrawn",
              "type": "uint256"
            },
            {
              "internalType": "uint128",
              "name": "startTime",
              "type": "uint128"
            },
            {
              "internalType": "uint128",
              "name": "endTime",
              "type": "uint128"
            }
          ],
          "internalType": "struct VestCore.VestingBoxAccount[]",
          "name": "_vBoxAccounts",
          "type": "tuple[]"
        }
      ],
      "name": "createVestingBoxWithExistingToken",
      "outputs": [
        {
          "internalType": "bool",
          "name": "success",
          "type": "bool"
        }
      ],
      "stateMutability": "nonpayable",
      "type": "function"
    },
    {
      "inputs": [
        {
          "internalType": "uint256",
          "name": "_totalAmount",
          "type": "uint256"
        },
        {
          "components": [
            {
              "internalType": "address",
              "name": "token",
              "type": "address"
            },
            {
              "internalType": "address[]",
              "name": "admins",
              "type": "address[]"
            },
            {
              "internalType": "address[]",
              "name": "recipients",
              "type": "address[]"
            }
          ],
          "internalType": "struct VestCore.VestingBox",
          "name": "_vBox",
          "type": "tuple"
        },
        {
          "components": [
            {
              "internalType": "uint256",
              "name": "amount",
              "type": "uint256"
            },
            {
              "internalType": "uint256",
              "name": "withdrawn",
              "type": "uint256"
            },
            {
              "internalType": "uint128",
              "name": "startTime",
              "type": "uint128"
            },
            {
              "internalType": "uint128",
              "name": "endTime",
              "type": "uint128"
            }
          ],
          "internalType": "struct VestCore.VestingBoxAccount[]",
          "name": "_vBoxAccounts",
          "type": "tuple[]"
        },
        {
          "internalType": "string",
          "name": "_tokenName",
          "type": "string"
        },
        {
          "internalType": "string",
          "name": "_tokenSymbol",
          "type": "string"
        },
        {
          "internalType": "uint256",
          "name": "_tokenTotalSupply",
          "type": "uint256"
        }
      ],
      "name": "createVestingBoxWithNewToken",
      "outputs": [
        {
          "internalType": "bool",
          "name": "success",
          "type": "bool"
        }
      ],
      "stateMutability": "nonpayable",
      "type": "function"
    },
    {
      "inputs": [],
      "name": "fee",
      "outputs": [
        {
          "internalType": "uint256",
          "name": "",
          "type": "uint256"
        }
      ],
      "stateMutability": "view",
      "type": "function"
    },
    {
      "inputs": [
        {
          "internalType": "address",
          "name": "_token",
          "type": "address"
        }
      ],
      "name": "getAssetHeldForVesting",
      "outputs": [
        {
          "internalType": "uint256",
          "name": "",
          "type": "uint256"
        }
      ],
      "stateMutability": "view",
      "type": "function"
    },
    {
      "inputs": [
        {
          "internalType": "address",
          "name": "_token",
          "type": "address"
        }
      ],
      "name": "getProtocolFeesEarned",
      "outputs": [
        {
          "internalType": "uint256",
          "name": "",
          "type": "uint256"
        }
      ],
      "stateMutability": "view",
      "type": "function"
    },
    {
      "inputs": [
        {
          "internalType": "uint256",
          "name": "_vestingBoxId",
          "type": "uint256"
        }
      ],
      "name": "getVestingBox",
      "outputs": [
        {
          "components": [
            {
              "internalType": "address",
              "name": "token",
              "type": "address"
            },
            {
              "internalType": "address[]",
              "name": "admins",
              "type": "address[]"
            },
            {
              "internalType": "address[]",
              "name": "recipients",
              "type": "address[]"
            }
          ],
          "internalType": "struct VestCore.VestingBox",
          "name": "vestingBox",
          "type": "tuple"
        }
      ],
      "stateMutability": "view",
      "type": "function"
    },
    {
      "inputs": [
        {
          "internalType": "uint256",
          "name": "_vBoxId",
          "type": "uint256"
        },
        {
          "internalType": "address",
          "name": "_account",
          "type": "address"
        }
      ],
      "name": "getWithdrawableAmount",
      "outputs": [
        {
          "internalType": "uint256",
          "name": "",
          "type": "uint256"
        }
      ],
      "stateMutability": "view",
      "type": "function"
    },
    {
      "inputs": [],
      "name": "owner",
      "outputs": [
        {
          "internalType": "address",
          "name": "",
          "type": "address"
        }
      ],
      "stateMutability": "view",
      "type": "function"
    },
    {
      "inputs": [
        {
          "internalType": "uint256",
          "name": "_vBoxId",
          "type": "uint256"
        },
        {
          "internalType": "address",
          "name": "_recipient",
          "type": "address"
        }
      ],
      "name": "removeAccountFromVestingBox",
      "outputs": [],
      "stateMutability": "nonpayable",
      "type": "function"
    },
    {
      "inputs": [],
      "name": "renounceOwnership",
      "outputs": [],
      "stateMutability": "nonpayable",
      "type": "function"
    },
    {
      "inputs": [
        {
          "internalType": "uint256",
          "name": "_fee",
          "type": "uint256"
        }
      ],
      "name": "setFee",
      "outputs": [],
      "stateMutability": "nonpayable",
      "type": "function"
    },
    {
      "inputs": [
        {
          "internalType": "uint256",
          "name": "_vBoxId",
          "type": "uint256"
        },
        {
          "internalType": "address",
          "name": "_account",
          "type": "address"
        },
        {
          "internalType": "bool",
          "name": "_isAdmin",
          "type": "bool"
        }
      ],
      "name": "setVestingBoxAdmin",
      "outputs": [],
      "stateMutability": "nonpayable",
      "type": "function"
    },
    {
      "inputs": [
        {
          "internalType": "address",
          "name": "newOwner",
          "type": "address"
        }
      ],
      "name": "transferOwnership",
      "outputs": [],
      "stateMutability": "nonpayable",
      "type": "function"
    },
    {
      "inputs": [],
      "name": "vBoxCount",
      "outputs": [
        {
          "internalType": "uint256",
          "name": "",
          "type": "uint256"
        }
      ],
      "stateMutability": "view",
      "type": "function"
    },
    {
      "inputs": [
        {
          "internalType": "uint256",
          "name": "_amount",
          "type": "uint256"
        },
        {
          "internalType": "address",
          "name": "_to",
          "type": "address"
        }
      ],
      "name": "withdrawETHFees",
      "outputs": [],
      "stateMutability": "nonpayable",
      "type": "function"
    },
    {
      "inputs": [
        {
          "internalType": "address",
          "name": "_token",
          "type": "address"
        },
        {
          "internalType": "uint256",
          "name": "_amount",
          "type": "uint256"
        },
        {
          "internalType": "address",
          "name": "_to",
          "type": "address"
        }
      ],
      "name": "withdrawTokenFees",
      "outputs": [],
      "stateMutability": "nonpayable",
      "type": "function"
    }
  ],
  "bytecode": "0x608060405266038d7ea4c68000600155600060025573eeeeeeeeeeeeeeeeeeeeeeeeeeeeeeeeeeeeeeee600360006101000a81548173ffffffffffffffffffffffffffffffffffffffff021916908373ffffffffffffffffffffffffffffffffffffffff1602179055503480156200007657600080fd5b50620000976200008b6200009d60201b60201c565b620000a560201b60201c565b62000169565b600033905090565b60008060009054906101000a900473ffffffffffffffffffffffffffffffffffffffff169050816000806101000a81548173ffffffffffffffffffffffffffffffffffffffff021916908373ffffffffffffffffffffffffffffffffffffffff1602179055508173ffffffffffffffffffffffffffffffffffffffff168173ffffffffffffffffffffffffffffffffffffffff167f8be0079c531659141344cd1fd0a4f28419497f9722a3daafe3b4186f6b6457e060405160405180910390a35050565b6131f380620001796000396000f3fe608060405234801561001057600080fd5b50600436106101375760003560e01c80638da5cb5b116100b8578063d3d072cc1161007c578063d3d072cc14610372578063ddca3f431461038e578063e9b3663e146103ac578063ec4d26cf146103ca578063eced5526146103e6578063f2fde38b1461040457610137565b80638da5cb5b146102a857806394e4bb42146102c657806395be5498146102f6578063c653000614610312578063c68482a71461034257610137565b806369fe0e2d116100ff57806369fe0e2d1461022c578063715018a61461024857806371b4e6e7146102525780638322fff21461026e5780638cfe046e1461028c57610137565b80633336289f1461013c578063359cd45e1461016c5780633b2b9e8a1461019c5780634a918a0c146101cc57806351887239146101fc575b600080fd5b610156600480360381019061015191906122a8565b610420565b604051610163919061234e565b60405180910390f35b61018660048036038101906101819190612369565b610435565b60405161019391906123b8565b60405180910390f35b6101b660048036038101906101b191906122a8565b610808565b6040516101c3919061234e565b60405180910390f35b6101e660048036038101906101e191906123d3565b610877565b6040516101f391906123b8565b60405180910390f35b61021660048036038101906102119190612400565b610a0f565b604051610223919061234e565b60405180910390f35b61024660048036038101906102419190612440565b610a77565b005b610250610b48565b005b61026c60048036038101906102679190612369565b610bd0565b005b610276610dac565b604051610283919061247c565b60405180910390f35b6102a660048036038101906102a19190612497565b610dd2565b005b6102b0610e78565b6040516102bd919061247c565b60405180910390f35b6102e060048036038101906102db9190612545565b610ea1565b6040516102ed919061234e565b60405180910390f35b610310600480360381019061030b919061264c565b610eff565b005b61032c600480360381019061032791906123d3565b611105565b60405161033991906123b8565b60405180910390f35b61035c60048036038101906103579190612440565b61114e565b60405161036991906127b4565b60405180910390f35b61038c60048036038101906103879190612802565b611309565b005b6103966113af565b6040516103a391906123b8565b60405180910390f35b6103b46113b5565b6040516103c191906123b8565b60405180910390f35b6103e460048036038101906103df9190612369565b6113bb565b005b6103ee611460565b6040516103fb91906123b8565b60405180910390f35b61041e600480360381019061041991906123d3565b61146c565b005b600061042d848484611564565b509392505050565b60006005600084815260200190815260200160002060008373ffffffffffffffffffffffffffffffffffffffff1673ffffffffffffffffffffffffffffffffffffffff16815260200190815260200160002060020160109054906101000a90046fffffffffffffffffffffffffffffffff166fffffffffffffffffffffffffffffffff164210610578576005600084815260200190815260200160002060008373ffffffffffffffffffffffffffffffffffffffff1673ffffffffffffffffffffffffffffffffffffffff168152602001908152602001600020600101546005600085815260200190815260200160002060008473ffffffffffffffffffffffffffffffffffffffff1673ffffffffffffffffffffffffffffffffffffffff168152602001908152602001600020600001546105719190612884565b9050610802565b60006005600085815260200190815260200160002060008473ffffffffffffffffffffffffffffffffffffffff1673ffffffffffffffffffffffffffffffffffffffff16815260200190815260200160002060020160009054906101000a90046fffffffffffffffffffffffffffffffff166fffffffffffffffffffffffffffffffff16426106079190612884565b905060006005600086815260200190815260200160002060008573ffffffffffffffffffffffffffffffffffffffff1673ffffffffffffffffffffffffffffffffffffffff16815260200190815260200160002060020160009054906101000a90046fffffffffffffffffffffffffffffffff166005600087815260200190815260200160002060008673ffffffffffffffffffffffffffffffffffffffff1673ffffffffffffffffffffffffffffffffffffffff16815260200190815260200160002060020160109054906101000a90046fffffffffffffffffffffffffffffffff166106f591906128b8565b6fffffffffffffffffffffffffffffffff1690506000670de0b6b3a76400008261071f91906128ec565b670de0b6b3a764000084600560008a815260200190815260200160002060008973ffffffffffffffffffffffffffffffffffffffff1673ffffffffffffffffffffffffffffffffffffffff1681526020019081526020016000206000015461078791906128ec565b61079191906128ec565b61079b9190612975565b90506005600087815260200190815260200160002060008673ffffffffffffffffffffffffffffffffffffffff1673ffffffffffffffffffffffffffffffffffffffff16815260200190815260200160002060010154816107fc9190612884565b93505050505b92915050565b6000600360009054906101000a900473ffffffffffffffffffffffffffffffffffffffff16836000019073ffffffffffffffffffffffffffffffffffffffff16908173ffffffffffffffffffffffffffffffffffffffff168152505061086f848484611564565b509392505050565b6000600360009054906101000a900473ffffffffffffffffffffffffffffffffffffffff1673ffffffffffffffffffffffffffffffffffffffff168273ffffffffffffffffffffffffffffffffffffffff1614156109435760076000600360009054906101000a900473ffffffffffffffffffffffffffffffffffffffff1673ffffffffffffffffffffffffffffffffffffffff1673ffffffffffffffffffffffffffffffffffffffff168152602001908152602001600020544761093c9190612884565b9050610a0a565b600760008373ffffffffffffffffffffffffffffffffffffffff1673ffffffffffffffffffffffffffffffffffffffff168152602001908152602001600020548273ffffffffffffffffffffffffffffffffffffffff166370a08231306040518263ffffffff1660e01b81526004016109bc919061247c565b602060405180830381865afa1580156109d9573d6000803e3d6000fd5b505050506040513d601f19601f820116820180604052508101906109fd91906129bb565b610a079190612884565b90505b919050565b600080610a1c8433610435565b905082811015610a61576040517f08c379a0000000000000000000000000000000000000000000000000000000008152600401610a5890612a45565b60405180910390fd5b610a6b8484611a56565b50600191505092915050565b610a7f611cc6565b73ffffffffffffffffffffffffffffffffffffffff16610a9d610e78565b73ffffffffffffffffffffffffffffffffffffffff1614610af3576040517f08c379a0000000000000000000000000000000000000000000000000000000008152600401610aea90612ab1565b60405180910390fd5b670de0b6b3a7640000811115610b3e576040517f08c379a0000000000000000000000000000000000000000000000000000000008152600401610b3590612b1d565b60405180910390fd5b8060018190555050565b610b50611cc6565b73ffffffffffffffffffffffffffffffffffffffff16610b6e610e78565b73ffffffffffffffffffffffffffffffffffffffff1614610bc4576040517f08c379a0000000000000000000000000000000000000000000000000000000008152600401610bbb90612ab1565b60405180910390fd5b610bce6000611cce565b565b610bd8611cc6565b73ffffffffffffffffffffffffffffffffffffffff16610bf6610e78565b73ffffffffffffffffffffffffffffffffffffffff1614610c4c576040517f08c379a0000000000000000000000000000000000000000000000000000000008152600401610c4390612ab1565b60405180910390fd5b8160076000600360009054906101000a900473ffffffffffffffffffffffffffffffffffffffff1673ffffffffffffffffffffffffffffffffffffffff1673ffffffffffffffffffffffffffffffffffffffff1681526020019081526020016000205447610cba9190612884565b1015610cfb576040517f08c379a0000000000000000000000000000000000000000000000000000000008152600401610cf290612b89565b60405180910390fd5b60008173ffffffffffffffffffffffffffffffffffffffff1683604051610d2190612bda565b60006040518083038185875af1925050503d8060008114610d5e576040519150601f19603f3d011682016040523d82523d6000602084013e610d63565b606091505b5050905080610da7576040517f08c379a0000000000000000000000000000000000000000000000000000000008152600401610d9e90612c3b565b60405180910390fd5b505050565b600360009054906101000a900473ffffffffffffffffffffffffffffffffffffffff1681565b82336006600083815260200190815260200160002060008273ffffffffffffffffffffffffffffffffffffffff1673ffffffffffffffffffffffffffffffffffffffff16815260200190815260200160002060009054906101000a900460ff16610e71576040517f08c379a0000000000000000000000000000000000000000000000000000000008152600401610e6890612ca7565b60405180910390fd5b5050505050565b60008060009054906101000a900473ffffffffffffffffffffffffffffffffffffffff16905090565b6000610eb08686868686611d92565b886000019073ffffffffffffffffffffffffffffffffffffffff16908173ffffffffffffffffffffffffffffffffffffffff1681525050610ef2898989611564565b5098975050505050505050565b610f07611cc6565b73ffffffffffffffffffffffffffffffffffffffff16610f25610e78565b73ffffffffffffffffffffffffffffffffffffffff1614610f7b576040517f08c379a0000000000000000000000000000000000000000000000000000000008152600401610f7290612ab1565b60405180910390fd5b81600760008573ffffffffffffffffffffffffffffffffffffffff1673ffffffffffffffffffffffffffffffffffffffff168152602001908152602001600020548473ffffffffffffffffffffffffffffffffffffffff166370a08231306040518263ffffffff1660e01b8152600401610ff5919061247c565b602060405180830381865afa158015611012573d6000803e3d6000fd5b505050506040513d601f19601f8201168201806040525081019061103691906129bb565b6110409190612884565b1015611081576040517f08c379a000000000000000000000000000000000000000000000000000000000815260040161107890612b89565b60405180910390fd5b8273ffffffffffffffffffffffffffffffffffffffff1663a9059cbb82846040518363ffffffff1660e01b81526004016110bc929190612cc7565b6020604051808303816000875af11580156110db573d6000803e3d6000fd5b505050506040513d601f19601f820116820180604052508101906110ff9190612d05565b50505050565b6000600760008373ffffffffffffffffffffffffffffffffffffffff1673ffffffffffffffffffffffffffffffffffffffff168152602001908152602001600020549050919050565b611156611da0565b6000821161116357600080fd5b60025482111561117257600080fd5b600460008381526020019081526020016000206040518060600160405290816000820160009054906101000a900473ffffffffffffffffffffffffffffffffffffffff1673ffffffffffffffffffffffffffffffffffffffff1673ffffffffffffffffffffffffffffffffffffffff1681526020016001820180548060200260200160405190810160405280929190818152602001828054801561126b57602002820191906000526020600020905b8160009054906101000a900473ffffffffffffffffffffffffffffffffffffffff1673ffffffffffffffffffffffffffffffffffffffff1681526020019060010190808311611221575b50505050508152602001600282018054806020026020016040519081016040528092919081815260200182805480156112f957602002820191906000526020600020905b8160009054906101000a900473ffffffffffffffffffffffffffffffffffffffff1673ffffffffffffffffffffffffffffffffffffffff16815260200190600101908083116112af575b5050505050815250509050919050565b82336006600083815260200190815260200160002060008273ffffffffffffffffffffffffffffffffffffffff1673ffffffffffffffffffffffffffffffffffffffff16815260200190815260200160002060009054906101000a900460ff166113a8576040517f08c379a000000000000000000000000000000000000000000000000000000000815260040161139f90612ca7565b60405180910390fd5b5050505050565b60015481565b60025481565b81336006600083815260200190815260200160002060008273ffffffffffffffffffffffffffffffffffffffff1673ffffffffffffffffffffffffffffffffffffffff16815260200190815260200160002060009054906101000a900460ff1661145a576040517f08c379a000000000000000000000000000000000000000000000000000000000815260040161145190612ca7565b60405180910390fd5b50505050565b670de0b6b3a764000081565b611474611cc6565b73ffffffffffffffffffffffffffffffffffffffff16611492610e78565b73ffffffffffffffffffffffffffffffffffffffff16146114e8576040517f08c379a00000000000000000000000000000000000000000000000000000000081526004016114df90612ab1565b60405180910390fd5b600073ffffffffffffffffffffffffffffffffffffffff168173ffffffffffffffffffffffffffffffffffffffff161415611558576040517f08c379a000000000000000000000000000000000000000000000000000000000815260040161154f90612da4565b60405180910390fd5b61156181611cce565b50565b60008073ffffffffffffffffffffffffffffffffffffffff16836000015173ffffffffffffffffffffffffffffffffffffffff1614156115d9576040517f08c379a00000000000000000000000000000000000000000000000000000000081526004016115d090612e10565b60405180910390fd5b6000841161161c576040517f08c379a000000000000000000000000000000000000000000000000000000000815260040161161390612e7c565b60405180910390fd5b600083604001515111611664576040517f08c379a000000000000000000000000000000000000000000000000000000000815260040161165b90612ee8565b60405180910390fd5b8151836040015151146116ac576040517f08c379a00000000000000000000000000000000000000000000000000000000081526004016116a390612f54565b60405180910390fd5b6000805b83518110156116f8578381815181106116cc576116cb612f74565b5b602002602001015160000151826116e39190612fa3565b915080806116f090612ff9565b9150506116b0565b5084811461173b576040517f08c379a00000000000000000000000000000000000000000000000000000000081526004016117329061308e565b60405180910390fd5b836000015173ffffffffffffffffffffffffffffffffffffffff166323b872dd3330886040518463ffffffff1660e01b815260040161177c939291906130ae565b6020604051808303816000875af115801561179b573d6000803e3d6000fd5b505050506040513d601f19601f820116820180604052508101906117bf9190612d05565b6117fe576040517f08c379a00000000000000000000000000000000000000000000000000000000081526004016117f590613131565b60405180910390fd5b6002600081548092919061181190612ff9565b91905055508360046000600254815260200190815260200160002060008201518160000160006101000a81548173ffffffffffffffffffffffffffffffffffffffff021916908373ffffffffffffffffffffffffffffffffffffffff160217905550602082015181600101908051906020019061188f929190611dd7565b5060408201518160020190805190602001906118ac929190611dd7565b5090505060005b83518110156119ef578381815181106118cf576118ce612f74565b5b602002602001015160056000600254815260200190815260200160002060008760400151848151811061190557611904612f74565b5b602002602001015173ffffffffffffffffffffffffffffffffffffffff1673ffffffffffffffffffffffffffffffffffffffff168152602001908152602001600020600082015181600001556020820151816001015560408201518160020160006101000a8154816fffffffffffffffffffffffffffffffff02191690836fffffffffffffffffffffffffffffffff16021790555060608201518160020160106101000a8154816fffffffffffffffffffffffffffffffff02191690836fffffffffffffffffffffffffffffffff16021790555090505080806119e790612ff9565b9150506118b3565b508460076000866000015173ffffffffffffffffffffffffffffffffffffffff1673ffffffffffffffffffffffffffffffffffffffff1681526020019081526020016000206000828254611a439190612fa3565b9250508190555060019150509392505050565b60008060009050826005600086815260200190815260200160002060003373ffffffffffffffffffffffffffffffffffffffff1673ffffffffffffffffffffffffffffffffffffffff1681526020019081526020016000206001016000828254611ac09190612fa3565b92505081905550600360009054906101000a900473ffffffffffffffffffffffffffffffffffffffff1673ffffffffffffffffffffffffffffffffffffffff166004600086815260200190815260200160002060000160009054906101000a900473ffffffffffffffffffffffffffffffffffffffff1673ffffffffffffffffffffffffffffffffffffffff161415611bc4573373ffffffffffffffffffffffffffffffffffffffff1683604051611b7790612bda565b60006040518083038185875af1925050503d8060008114611bb4576040519150601f19603f3d011682016040523d82523d6000602084013e611bb9565b606091505b505080915050611c7b565b6004600085815260200190815260200160002060000160009054906101000a900473ffffffffffffffffffffffffffffffffffffffff1673ffffffffffffffffffffffffffffffffffffffff1663a9059cbb33856040518363ffffffff1660e01b8152600401611c35929190612cc7565b6020604051808303816000875af1158015611c54573d6000803e3d6000fd5b505050506040513d601f19601f82011682018060405250810190611c789190612d05565b90505b80611cbb576040517f08c379a0000000000000000000000000000000000000000000000000000000008152600401611cb29061319d565b60405180910390fd5b600191505092915050565b600033905090565b60008060009054906101000a900473ffffffffffffffffffffffffffffffffffffffff169050816000806101000a81548173ffffffffffffffffffffffffffffffffffffffff021916908373ffffffffffffffffffffffffffffffffffffffff1602179055508173ffffffffffffffffffffffffffffffffffffffff168173ffffffffffffffffffffffffffffffffffffffff167f8be0079c531659141344cd1fd0a4f28419497f9722a3daafe3b4186f6b6457e060405160405180910390a35050565b600030905095945050505050565b6040518060600160405280600073ffffffffffffffffffffffffffffffffffffffff16815260200160608152602001606081525090565b828054828255906000526020600020908101928215611e50579160200282015b82811115611e4f5782518260006101000a81548173ffffffffffffffffffffffffffffffffffffffff021916908373ffffffffffffffffffffffffffffffffffffffff16021790555091602001919060010190611df7565b5b509050611e5d9190611e61565b5090565b5b80821115611e7a576000816000905550600101611e62565b5090565b6000604051905090565b600080fd5b600080fd5b6000819050919050565b611ea581611e92565b8114611eb057600080fd5b50565b600081359050611ec281611e9c565b92915050565b600080fd5b6000601f19601f8301169050919050565b7f4e487b7100000000000000000000000000000000000000000000000000000000600052604160045260246000fd5b611f1682611ecd565b810181811067ffffffffffffffff82111715611f3557611f34611ede565b5b80604052505050565b6000611f48611e7e565b9050611f548282611f0d565b919050565b600080fd5b600073ffffffffffffffffffffffffffffffffffffffff82169050919050565b6000611f8982611f5e565b9050919050565b611f9981611f7e565b8114611fa457600080fd5b50565b600081359050611fb681611f90565b92915050565b600080fd5b600067ffffffffffffffff821115611fdc57611fdb611ede565b5b602082029050602081019050919050565b600080fd5b600061200561200084611fc1565b611f3e565b9050808382526020820190506020840283018581111561202857612027611fed565b5b835b81811015612051578061203d8882611fa7565b84526020840193505060208101905061202a565b5050509392505050565b600082601f8301126120705761206f611fbc565b5b8135612080848260208601611ff2565b91505092915050565b60006060828403121561209f5761209e611ec8565b5b6120a96060611f3e565b905060006120b984828501611fa7565b600083015250602082013567ffffffffffffffff8111156120dd576120dc611f59565b5b6120e98482850161205b565b602083015250604082013567ffffffffffffffff81111561210d5761210c611f59565b5b6121198482850161205b565b60408301525092915050565b600067ffffffffffffffff8211156121405761213f611ede565b5b602082029050602081019050919050565b60006fffffffffffffffffffffffffffffffff82169050919050565b61217681612151565b811461218157600080fd5b50565b6000813590506121938161216d565b92915050565b6000608082840312156121af576121ae611ec8565b5b6121b96080611f3e565b905060006121c984828501611eb3565b60008301525060206121dd84828501611eb3565b60208301525060406121f184828501612184565b604083015250606061220584828501612184565b60608301525092915050565b600061222461221f84612125565b611f3e565b9050808382526020820190506080840283018581111561224757612246611fed565b5b835b81811015612270578061225c8882612199565b845260208401935050608081019050612249565b5050509392505050565b600082601f83011261228f5761228e611fbc565b5b813561229f848260208601612211565b91505092915050565b6000806000606084860312156122c1576122c0611e88565b5b60006122cf86828701611eb3565b935050602084013567ffffffffffffffff8111156122f0576122ef611e8d565b5b6122fc86828701612089565b925050604084013567ffffffffffffffff81111561231d5761231c611e8d565b5b6123298682870161227a565b9150509250925092565b60008115159050919050565b61234881612333565b82525050565b6000602082019050612363600083018461233f565b92915050565b600080604083850312156123805761237f611e88565b5b600061238e85828601611eb3565b925050602061239f85828601611fa7565b9150509250929050565b6123b281611e92565b82525050565b60006020820190506123cd60008301846123a9565b92915050565b6000602082840312156123e9576123e8611e88565b5b60006123f784828501611fa7565b91505092915050565b6000806040838503121561241757612416611e88565b5b600061242585828601611eb3565b925050602061243685828601611eb3565b9150509250929050565b60006020828403121561245657612455611e88565b5b600061246484828501611eb3565b91505092915050565b61247681611f7e565b82525050565b6000602082019050612491600083018461246d565b92915050565b600080600060c084860312156124b0576124af611e88565b5b60006124be86828701611eb3565b93505060206124cf86828701611fa7565b92505060406124e086828701612199565b9150509250925092565b600080fd5b60008083601f84011261250557612504611fbc565b5b8235905067ffffffffffffffff811115612522576125216124ea565b5b60208301915083600182028301111561253e5761253d611fed565b5b9250929050565b60008060008060008060008060c0898b03121561256557612564611e88565b5b60006125738b828c01611eb3565b985050602089013567ffffffffffffffff81111561259457612593611e8d565b5b6125a08b828c01612089565b975050604089013567ffffffffffffffff8111156125c1576125c0611e8d565b5b6125cd8b828c0161227a565b965050606089013567ffffffffffffffff8111156125ee576125ed611e8d565b5b6125fa8b828c016124ef565b9550955050608089013567ffffffffffffffff81111561261d5761261c611e8d565b5b6126298b828c016124ef565b935093505060a061263c8b828c01611eb3565b9150509295985092959890939650565b60008060006060848603121561266557612664611e88565b5b600061267386828701611fa7565b935050602061268486828701611eb3565b925050604061269586828701611fa7565b9150509250925092565b6126a881611f7e565b82525050565b600081519050919050565b600082825260208201905092915050565b6000819050602082019050919050565b60006126e6838361269f565b60208301905092915050565b6000602082019050919050565b600061270a826126ae565b61271481856126b9565b935061271f836126ca565b8060005b8381101561275057815161273788826126da565b9750612742836126f2565b925050600181019050612723565b5085935050505092915050565b6000606083016000830151612775600086018261269f565b506020830151848203602086015261278d82826126ff565b915050604083015184820360408601526127a782826126ff565b9150508091505092915050565b600060208201905081810360008301526127ce818461275d565b905092915050565b6127df81612333565b81146127ea57600080fd5b50565b6000813590506127fc816127d6565b92915050565b60008060006060848603121561281b5761281a611e88565b5b600061282986828701611eb3565b935050602061283a86828701611fa7565b925050604061284b868287016127ed565b9150509250925092565b7f4e487b7100000000000000000000000000000000000000000000000000000000600052601160045260246000fd5b600061288f82611e92565b915061289a83611e92565b9250828210156128ad576128ac612855565b5b828203905092915050565b60006128c382612151565b91506128ce83612151565b9250828210156128e1576128e0612855565b5b828203905092915050565b60006128f782611e92565b915061290283611e92565b9250817fffffffffffffffffffffffffffffffffffffffffffffffffffffffffffffffff048311821515161561293b5761293a612855565b5b828202905092915050565b7f4e487b7100000000000000000000000000000000000000000000000000000000600052601260045260246000fd5b600061298082611e92565b915061298b83611e92565b92508261299b5761299a612946565b5b828204905092915050565b6000815190506129b581611e9c565b92915050565b6000602082840312156129d1576129d0611e88565b5b60006129df848285016129a6565b91505092915050565b600082825260208201905092915050565b7f564553543a20574954484452415741424c4520544f4f204c4f57000000000000600082015250565b6000612a2f601a836129e8565b9150612a3a826129f9565b602082019050919050565b60006020820190508181036000830152612a5e81612a22565b9050919050565b7f4f776e61626c653a2063616c6c6572206973206e6f7420746865206f776e6572600082015250565b6000612a9b6020836129e8565b9150612aa682612a65565b602082019050919050565b60006020820190508181036000830152612aca81612a8e565b9050919050565b7f564553543a20464545204d555354204245203c20313030250000000000000000600082015250565b6000612b076018836129e8565b9150612b1282612ad1565b602082019050919050565b60006020820190508181036000830152612b3681612afa565b9050919050565b7f564553543a20414d4f554e5420544f4f20484947480000000000000000000000600082015250565b6000612b736015836129e8565b9150612b7e82612b3d565b602082019050919050565b60006020820190508181036000830152612ba281612b66565b9050919050565b600081905092915050565b50565b6000612bc4600083612ba9565b9150612bcf82612bb4565b600082019050919050565b6000612be582612bb7565b9150819050919050565b7f564553543a20455448205452414e53464552204641494c454400000000000000600082015250565b6000612c256019836129e8565b9150612c3082612bef565b602082019050919050565b60006020820190508181036000830152612c5481612c18565b9050919050565b7f564553543a204e4f542056424f582041444d494e000000000000000000000000600082015250565b6000612c916014836129e8565b9150612c9c82612c5b565b602082019050919050565b60006020820190508181036000830152612cc081612c84565b9050919050565b6000604082019050612cdc600083018561246d565b612ce960208301846123a9565b9392505050565b600081519050612cff816127d6565b92915050565b600060208284031215612d1b57612d1a611e88565b5b6000612d2984828501612cf0565b91505092915050565b7f4f776e61626c653a206e6577206f776e657220697320746865207a65726f206160008201527f6464726573730000000000000000000000000000000000000000000000000000602082015250565b6000612d8e6026836129e8565b9150612d9982612d32565b604082019050919050565b60006020820190508181036000830152612dbd81612d81565b9050919050565b7f564553543a205a45524f2041444452204e4f5420544f4b454e00000000000000600082015250565b6000612dfa6019836129e8565b9150612e0582612dc4565b602082019050919050565b60006020820190508181036000830152612e2981612ded565b9050919050565b7f564553543a2043414e4e4f542056455354203020414d4f554e54000000000000600082015250565b6000612e66601a836129e8565b9150612e7182612e30565b602082019050919050565b60006020820190508181036000830152612e9581612e59565b9050919050565b7f564553543a204e4f20524543495049454e545300000000000000000000000000600082015250565b6000612ed26013836129e8565b9150612edd82612e9c565b602082019050919050565b60006020820190508181036000830152612f0181612ec5565b9050919050565b7f564553543a2057524f4e47204143434f554e5453204152524159204c454e0000600082015250565b6000612f3e601e836129e8565b9150612f4982612f08565b602082019050919050565b60006020820190508181036000830152612f6d81612f31565b9050919050565b7f4e487b7100000000000000000000000000000000000000000000000000000000600052603260045260246000fd5b6000612fae82611e92565b9150612fb983611e92565b9250827fffffffffffffffffffffffffffffffffffffffffffffffffffffffffffffffff03821115612fee57612fed612855565b5b828201905092915050565b600061300482611e92565b91507fffffffffffffffffffffffffffffffffffffffffffffffffffffffffffffffff82141561303757613036612855565b5b600182019050919050565b7f564553543a20414d4f554e545320444f4e542053554d20544f20544f54414c00600082015250565b6000613078601f836129e8565b915061308382613042565b602082019050919050565b600060208201905081810360008301526130a78161306b565b9050919050565b60006060820190506130c3600083018661246d565b6130d0602083018561246d565b6130dd60408301846123a9565b949350505050565b7f564553543a20544f4b454e205452414e53464552204641494c45440000000000600082015250565b600061311b601b836129e8565b9150613126826130e5565b602082019050919050565b6000602082019050818103600083015261314a8161310e565b9050919050565b7f564553543a205749544844524157204641494c45440000000000000000000000600082015250565b60006131876015836129e8565b915061319282613151565b602082019050919050565b600060208201905081810360008301526131b68161317a565b905091905056fea2646970667358221220d2237129661ec592835c1b205ff8d7bd5a50238b9a4bca22492be4852f6b23e364736f6c634300080a0033",
  "linkReferences": {},
  "deployedLinkReferences": {}
}