{
  "_format": "hh-sol-artifact-1",
  "contractName": "VestCore",
  "sourceName": "contracts/VestCore.sol",
  "abi": [
    {
      "inputs": [],
      "stateMutability": "nonpayable",
      "type": "constructor"
    },
    {
      "anonymous": false,
      "inputs": [
        {
          "indexed": true,
          "internalType": "address",
          "name": "previousOwner",
          "type": "address"
        },
        {
          "indexed": true,
          "internalType": "address",
          "name": "newOwner",
          "type": "address"
        }
      ],
      "name": "OwnershipTransferred",
      "type": "event"
    },
    {
      "anonymous": false,
      "inputs": [
        {
          "indexed": false,
          "internalType": "uint256",
          "name": "vBoxID",
          "type": "uint256"
        },
        {
          "indexed": false,
          "internalType": "address",
          "name": "token",
          "type": "address"
        },
        {
          "indexed": false,
          "internalType": "address",
          "name": "creator",
          "type": "address"
        }
      ],
      "name": "VestingBoxCreated",
      "type": "event"
    },
    {
      "inputs": [],
      "name": "ETH",
      "outputs": [
        {
          "internalType": "address",
          "name": "",
          "type": "address"
        }
      ],
      "stateMutability": "view",
      "type": "function"
    },
    {
      "inputs": [],
      "name": "SCALE",
      "outputs": [
        {
          "internalType": "uint256",
          "name": "",
          "type": "uint256"
        }
      ],
      "stateMutability": "view",
      "type": "function"
    },
    {
      "inputs": [
        {
          "internalType": "uint256",
          "name": "_vBoxId",
          "type": "uint256"
        },
        {
          "internalType": "uint256",
          "name": "_amountToClaim",
          "type": "uint256"
        }
      ],
      "name": "claimVestedTokens",
      "outputs": [
        {
          "internalType": "bool",
          "name": "success",
          "type": "bool"
        }
      ],
      "stateMutability": "nonpayable",
      "type": "function"
    },
    {
      "inputs": [
        {
          "internalType": "address",
          "name": "_token",
          "type": "address"
        },
        {
          "internalType": "uint256",
          "name": "_totalAmount",
          "type": "uint256"
        },
        {
          "internalType": "address[]",
          "name": "_recipients",
          "type": "address[]"
        },
        {
          "internalType": "uint256[]",
          "name": "_amounts",
          "type": "uint256[]"
        },
        {
          "internalType": "uint256[]",
          "name": "_startTimes",
          "type": "uint256[]"
        },
        {
          "internalType": "uint256[]",
          "name": "_endTimes",
          "type": "uint256[]"
        }
      ],
      "name": "createVestingBoxWithExistingToken",
      "outputs": [
        {
          "internalType": "bool",
          "name": "success",
          "type": "bool"
        }
      ],
      "stateMutability": "nonpayable",
      "type": "function"
    },
    {
      "inputs": [],
      "name": "fee",
      "outputs": [
        {
          "internalType": "uint256",
          "name": "",
          "type": "uint256"
        }
      ],
      "stateMutability": "view",
      "type": "function"
    },
    {
      "inputs": [
        {
          "internalType": "address",
          "name": "_token",
          "type": "address"
        }
      ],
      "name": "getProtocolFeesEarned",
      "outputs": [
        {
          "internalType": "uint256",
          "name": "",
          "type": "uint256"
        }
      ],
      "stateMutability": "view",
      "type": "function"
    },
    {
      "inputs": [
        {
          "internalType": "uint256",
          "name": "_vestingBoxId",
          "type": "uint256"
        }
      ],
      "name": "getVestingBox",
      "outputs": [
        {
          "components": [
            {
              "internalType": "address",
              "name": "token",
              "type": "address"
            },
            {
              "internalType": "address[]",
              "name": "recipients",
              "type": "address[]"
            },
            {
              "internalType": "uint256[]",
              "name": "amounts",
              "type": "uint256[]"
            },
            {
              "internalType": "uint256[]",
              "name": "withdrawn",
              "type": "uint256[]"
            },
            {
              "internalType": "uint256[]",
              "name": "startTimes",
              "type": "uint256[]"
            },
            {
              "internalType": "uint256[]",
              "name": "endTimes",
              "type": "uint256[]"
            }
          ],
          "internalType": "struct VestCore.VestingBox",
          "name": "vestingBox",
          "type": "tuple"
        }
      ],
      "stateMutability": "view",
      "type": "function"
    },
    {
      "inputs": [
        {
          "internalType": "uint256",
          "name": "_vBoxId",
          "type": "uint256"
        },
        {
          "internalType": "address",
          "name": "_account",
          "type": "address"
        }
      ],
      "name": "getWithdrawableAmount",
      "outputs": [
        {
          "internalType": "uint256",
          "name": "",
          "type": "uint256"
        }
      ],
      "stateMutability": "view",
      "type": "function"
    },
    {
      "inputs": [],
      "name": "owner",
      "outputs": [
        {
          "internalType": "address",
          "name": "",
          "type": "address"
        }
      ],
      "stateMutability": "view",
      "type": "function"
    },
    {
      "inputs": [],
      "name": "renounceOwnership",
      "outputs": [],
      "stateMutability": "nonpayable",
      "type": "function"
    },
    {
      "inputs": [
        {
          "internalType": "address",
          "name": "newOwner",
          "type": "address"
        }
      ],
      "name": "transferOwnership",
      "outputs": [],
      "stateMutability": "nonpayable",
      "type": "function"
    },
    {
      "inputs": [],
      "name": "vBoxCount",
      "outputs": [
        {
          "internalType": "uint256",
          "name": "",
          "type": "uint256"
        }
      ],
      "stateMutability": "view",
      "type": "function"
    },
    {
      "inputs": [
        {
          "internalType": "uint256",
          "name": "_amount",
          "type": "uint256"
        },
        {
          "internalType": "address",
          "name": "_to",
          "type": "address"
        }
      ],
      "name": "withdrawETHFees",
      "outputs": [],
      "stateMutability": "nonpayable",
      "type": "function"
    },
    {
      "inputs": [
        {
          "internalType": "address",
          "name": "_token",
          "type": "address"
        },
        {
          "internalType": "uint256",
          "name": "_amount",
          "type": "uint256"
        },
        {
          "internalType": "address",
          "name": "_to",
          "type": "address"
        }
      ],
      "name": "withdrawTokenFees",
      "outputs": [],
      "stateMutability": "nonpayable",
      "type": "function"
    }
  ],
  "bytecode": "0x608060405266038d7ea4c68000600155600060025573eeeeeeeeeeeeeeeeeeeeeeeeeeeeeeeeeeeeeeee600360006101000a81548173ffffffffffffffffffffffffffffffffffffffff021916908373ffffffffffffffffffffffffffffffffffffffff1602179055503480156200007657600080fd5b50620000976200008b6200009d60201b60201c565b620000a560201b60201c565b62000169565b600033905090565b60008060009054906101000a900473ffffffffffffffffffffffffffffffffffffffff169050816000806101000a81548173ffffffffffffffffffffffffffffffffffffffff021916908373ffffffffffffffffffffffffffffffffffffffff1602179055508173ffffffffffffffffffffffffffffffffffffffff168173ffffffffffffffffffffffffffffffffffffffff167f8be0079c531659141344cd1fd0a4f28419497f9722a3daafe3b4186f6b6457e060405160405180910390a35050565b61288a80620001796000396000f3fe608060405234801561001057600080fd5b50600436106100ea5760003560e01c80638da5cb5b1161008c578063ddca3f4311610066578063ddca3f431461025d578063e9b3663e1461027b578063eced552614610299578063f2fde38b146102b7576100ea565b80638da5cb5b146101f357806395be549814610211578063c68482a71461022d576100ea565b806351887239116100c8578063518872391461017f578063715018a6146101af57806371b4e6e7146101b95780638322fff2146101d5576100ea565b8063359cd45e146100ef5780634a918a0c1461011f5780634be887de1461014f575b600080fd5b61010960048036038101906101049190611944565b6102d3565b6040516101169190611993565b60405180910390f35b610139600480360381019061013491906119ae565b610600565b6040516101469190611993565b60405180910390f35b61016960048036038101906101649190611a96565b610798565b6040516101769190611bc1565b60405180910390f35b61019960048036038101906101949190611bdc565b610c60565b6040516101a69190611bc1565b60405180910390f35b6101b7610cc8565b005b6101d360048036038101906101ce9190611944565b610d50565b005b6101dd610f2c565b6040516101ea9190611c2b565b60405180910390f35b6101fb610f52565b6040516102089190611c2b565b60405180910390f35b61022b60048036038101906102269190611c46565b610f7b565b005b61024760048036038101906102429190611c99565b611181565b6040516102549190611ee7565b60405180910390f35b61026561140e565b6040516102729190611993565b60405180910390f35b610283611414565b6040516102909190611993565b60405180910390f35b6102a161141a565b6040516102ae9190611993565b60405180910390f35b6102d160048036038101906102cc91906119ae565b611426565b005b60006005600084815260200190815260200160002060008373ffffffffffffffffffffffffffffffffffffffff1673ffffffffffffffffffffffffffffffffffffffff1681526020019081526020016000206003015442106103e8576005600084815260200190815260200160002060008373ffffffffffffffffffffffffffffffffffffffff1673ffffffffffffffffffffffffffffffffffffffff168152602001908152602001600020600101546005600085815260200190815260200160002060008473ffffffffffffffffffffffffffffffffffffffff1673ffffffffffffffffffffffffffffffffffffffff168152602001908152602001600020600001546103e19190611f38565b90506105fa565b60006005600085815260200190815260200160002060008473ffffffffffffffffffffffffffffffffffffffff1673ffffffffffffffffffffffffffffffffffffffff16815260200190815260200160002060020154426104499190611f38565b905060006005600086815260200190815260200160002060008573ffffffffffffffffffffffffffffffffffffffff1673ffffffffffffffffffffffffffffffffffffffff168152602001908152602001600020600201546005600087815260200190815260200160002060008673ffffffffffffffffffffffffffffffffffffffff1673ffffffffffffffffffffffffffffffffffffffff168152602001908152602001600020600301546104ff9190611f38565b90506000670de0b6b3a7640000826105179190611f6c565b670de0b6b3a764000084600560008a815260200190815260200160002060008973ffffffffffffffffffffffffffffffffffffffff1673ffffffffffffffffffffffffffffffffffffffff1681526020019081526020016000206000015461057f9190611f6c565b6105899190611f6c565b6105939190611ff5565b90506005600087815260200190815260200160002060008673ffffffffffffffffffffffffffffffffffffffff1673ffffffffffffffffffffffffffffffffffffffff16815260200190815260200160002060010154816105f49190611f38565b93505050505b92915050565b6000600360009054906101000a900473ffffffffffffffffffffffffffffffffffffffff1673ffffffffffffffffffffffffffffffffffffffff168273ffffffffffffffffffffffffffffffffffffffff1614156106cc5760076000600360009054906101000a900473ffffffffffffffffffffffffffffffffffffffff1673ffffffffffffffffffffffffffffffffffffffff1673ffffffffffffffffffffffffffffffffffffffff16815260200190815260200160002054476106c59190611f38565b9050610793565b600760008373ffffffffffffffffffffffffffffffffffffffff1673ffffffffffffffffffffffffffffffffffffffff168152602001908152602001600020548273ffffffffffffffffffffffffffffffffffffffff166370a08231306040518263ffffffff1660e01b81526004016107459190611c2b565b602060405180830381865afa158015610762573d6000803e3d6000fd5b505050506040513d601f19601f82011682018060405250810190610786919061203b565b6107909190611f38565b90505b919050565b600080898990509050600073ffffffffffffffffffffffffffffffffffffffff168c73ffffffffffffffffffffffffffffffffffffffff161415610811576040517f08c379a0000000000000000000000000000000000000000000000000000000008152600401610808906120c5565b60405180910390fd5b60008b11610854576040517f08c379a000000000000000000000000000000000000000000000000000000000815260040161084b90612131565b60405180910390fd5b60008111610897576040517f08c379a000000000000000000000000000000000000000000000000000000000815260040161088e9061219d565b60405180910390fd5b8787905081146108dc576040517f08c379a00000000000000000000000000000000000000000000000000000000081526004016108d390612209565b60405180910390fd5b858590508114610921576040517f08c379a000000000000000000000000000000000000000000000000000000000815260040161091890612275565b60405180910390fd5b838390508114610966576040517f08c379a000000000000000000000000000000000000000000000000000000000815260040161095d906122e1565b60405180910390fd5b6000805b828110156109ac5789898281811061098557610984612301565b5b90506020020135826109979190612330565b915080806109a490612386565b91505061096a565b508b81146109ef576040517f08c379a00000000000000000000000000000000000000000000000000000000081526004016109e69061241b565b60405180910390fd5b8c73ffffffffffffffffffffffffffffffffffffffff166323b872dd33308f6040518463ffffffff1660e01b8152600401610a2c9392919061243b565b6020604051808303816000875af1158015610a4b573d6000803e3d6000fd5b505050506040513d601f19601f82011682018060405250810190610a6f919061249e565b610aae576040517f08c379a0000000000000000000000000000000000000000000000000000000008152600401610aa590612517565b60405180910390fd5b60026000815480929190610ac190612386565b919050555060005b82811015610bf55760405180608001604052808b8b84818110610aef57610aee612301565b5b90506020020135815260200160008152602001898984818110610b1557610b14612301565b5b905060200201358152602001878784818110610b3457610b33612301565b5b9050602002013581525060056000600254815260200190815260200160002060008e8e85818110610b6857610b67612301565b5b9050602002016020810190610b7d91906119ae565b73ffffffffffffffffffffffffffffffffffffffff1673ffffffffffffffffffffffffffffffffffffffff168152602001908152602001600020600082015181600001556020820151816001015560408201518160020155606082015181600301559050508080610bed90612386565b915050610ac9565b508b600760008f73ffffffffffffffffffffffffffffffffffffffff1673ffffffffffffffffffffffffffffffffffffffff1681526020019081526020016000206000828254610c459190612330565b925050819055506001925050509a9950505050505050505050565b600080610c6d84336102d3565b905082811015610cb2576040517f08c379a0000000000000000000000000000000000000000000000000000000008152600401610ca990612583565b60405180910390fd5b610cbc848461151e565b50600191505092915050565b610cd061178e565b73ffffffffffffffffffffffffffffffffffffffff16610cee610f52565b73ffffffffffffffffffffffffffffffffffffffff1614610d44576040517f08c379a0000000000000000000000000000000000000000000000000000000008152600401610d3b906125ef565b60405180910390fd5b610d4e6000611796565b565b610d5861178e565b73ffffffffffffffffffffffffffffffffffffffff16610d76610f52565b73ffffffffffffffffffffffffffffffffffffffff1614610dcc576040517f08c379a0000000000000000000000000000000000000000000000000000000008152600401610dc3906125ef565b60405180910390fd5b8160076000600360009054906101000a900473ffffffffffffffffffffffffffffffffffffffff1673ffffffffffffffffffffffffffffffffffffffff1673ffffffffffffffffffffffffffffffffffffffff1681526020019081526020016000205447610e3a9190611f38565b1015610e7b576040517f08c379a0000000000000000000000000000000000000000000000000000000008152600401610e729061265b565b60405180910390fd5b60008173ffffffffffffffffffffffffffffffffffffffff1683604051610ea1906126ac565b60006040518083038185875af1925050503d8060008114610ede576040519150601f19603f3d011682016040523d82523d6000602084013e610ee3565b606091505b5050905080610f27576040517f08c379a0000000000000000000000000000000000000000000000000000000008152600401610f1e9061270d565b60405180910390fd5b505050565b600360009054906101000a900473ffffffffffffffffffffffffffffffffffffffff1681565b60008060009054906101000a900473ffffffffffffffffffffffffffffffffffffffff16905090565b610f8361178e565b73ffffffffffffffffffffffffffffffffffffffff16610fa1610f52565b73ffffffffffffffffffffffffffffffffffffffff1614610ff7576040517f08c379a0000000000000000000000000000000000000000000000000000000008152600401610fee906125ef565b60405180910390fd5b81600760008573ffffffffffffffffffffffffffffffffffffffff1673ffffffffffffffffffffffffffffffffffffffff168152602001908152602001600020548473ffffffffffffffffffffffffffffffffffffffff166370a08231306040518263ffffffff1660e01b81526004016110719190611c2b565b602060405180830381865afa15801561108e573d6000803e3d6000fd5b505050506040513d601f19601f820116820180604052508101906110b2919061203b565b6110bc9190611f38565b10156110fd576040517f08c379a00000000000000000000000000000000000000000000000000000000081526004016110f49061265b565b60405180910390fd5b8273ffffffffffffffffffffffffffffffffffffffff1663a9059cbb82846040518363ffffffff1660e01b815260040161113892919061272d565b6020604051808303816000875af1158015611157573d6000803e3d6000fd5b505050506040513d601f19601f8201168201806040525081019061117b919061249e565b50505050565b61118961185a565b6000821161119657600080fd5b6002548211156111a557600080fd5b600460008381526020019081526020016000206040518060c00160405290816000820160009054906101000a900473ffffffffffffffffffffffffffffffffffffffff1673ffffffffffffffffffffffffffffffffffffffff1673ffffffffffffffffffffffffffffffffffffffff1681526020016001820180548060200260200160405190810160405280929190818152602001828054801561129e57602002820191906000526020600020905b8160009054906101000a900473ffffffffffffffffffffffffffffffffffffffff1673ffffffffffffffffffffffffffffffffffffffff1681526020019060010190808311611254575b50505050508152602001600282018054806020026020016040519081016040528092919081815260200182805480156112f657602002820191906000526020600020905b8154815260200190600101908083116112e2575b505050505081526020016003820180548060200260200160405190810160405280929190818152602001828054801561134e57602002820191906000526020600020905b81548152602001906001019080831161133a575b50505050508152602001600482018054806020026020016040519081016040528092919081815260200182805480156113a657602002820191906000526020600020905b815481526020019060010190808311611392575b50505050508152602001600582018054806020026020016040519081016040528092919081815260200182805480156113fe57602002820191906000526020600020905b8154815260200190600101908083116113ea575b5050505050815250509050919050565b60015481565b60025481565b670de0b6b3a764000081565b61142e61178e565b73ffffffffffffffffffffffffffffffffffffffff1661144c610f52565b73ffffffffffffffffffffffffffffffffffffffff16146114a2576040517f08c379a0000000000000000000000000000000000000000000000000000000008152600401611499906125ef565b60405180910390fd5b600073ffffffffffffffffffffffffffffffffffffffff168173ffffffffffffffffffffffffffffffffffffffff161415611512576040517f08c379a0000000000000000000000000000000000000000000000000000000008152600401611509906127c8565b60405180910390fd5b61151b81611796565b50565b60008060009050826005600086815260200190815260200160002060003373ffffffffffffffffffffffffffffffffffffffff1673ffffffffffffffffffffffffffffffffffffffff16815260200190815260200160002060010160008282546115889190612330565b92505081905550600360009054906101000a900473ffffffffffffffffffffffffffffffffffffffff1673ffffffffffffffffffffffffffffffffffffffff166004600086815260200190815260200160002060000160009054906101000a900473ffffffffffffffffffffffffffffffffffffffff1673ffffffffffffffffffffffffffffffffffffffff16141561168c573373ffffffffffffffffffffffffffffffffffffffff168360405161163f906126ac565b60006040518083038185875af1925050503d806000811461167c576040519150601f19603f3d011682016040523d82523d6000602084013e611681565b606091505b505080915050611743565b6004600085815260200190815260200160002060000160009054906101000a900473ffffffffffffffffffffffffffffffffffffffff1673ffffffffffffffffffffffffffffffffffffffff1663a9059cbb33856040518363ffffffff1660e01b81526004016116fd92919061272d565b6020604051808303816000875af115801561171c573d6000803e3d6000fd5b505050506040513d601f19601f82011682018060405250810190611740919061249e565b90505b80611783576040517f08c379a000000000000000000000000000000000000000000000000000000000815260040161177a90612834565b60405180910390fd5b600191505092915050565b600033905090565b60008060009054906101000a900473ffffffffffffffffffffffffffffffffffffffff169050816000806101000a81548173ffffffffffffffffffffffffffffffffffffffff021916908373ffffffffffffffffffffffffffffffffffffffff1602179055508173ffffffffffffffffffffffffffffffffffffffff168173ffffffffffffffffffffffffffffffffffffffff167f8be0079c531659141344cd1fd0a4f28419497f9722a3daafe3b4186f6b6457e060405160405180910390a35050565b6040518060c00160405280600073ffffffffffffffffffffffffffffffffffffffff16815260200160608152602001606081526020016060815260200160608152602001606081525090565b600080fd5b600080fd5b6000819050919050565b6118c3816118b0565b81146118ce57600080fd5b50565b6000813590506118e0816118ba565b92915050565b600073ffffffffffffffffffffffffffffffffffffffff82169050919050565b6000611911826118e6565b9050919050565b61192181611906565b811461192c57600080fd5b50565b60008135905061193e81611918565b92915050565b6000806040838503121561195b5761195a6118a6565b5b6000611969858286016118d1565b925050602061197a8582860161192f565b9150509250929050565b61198d816118b0565b82525050565b60006020820190506119a86000830184611984565b92915050565b6000602082840312156119c4576119c36118a6565b5b60006119d28482850161192f565b91505092915050565b600080fd5b600080fd5b600080fd5b60008083601f840112611a00576119ff6119db565b5b8235905067ffffffffffffffff811115611a1d57611a1c6119e0565b5b602083019150836020820283011115611a3957611a386119e5565b5b9250929050565b60008083601f840112611a5657611a556119db565b5b8235905067ffffffffffffffff811115611a7357611a726119e0565b5b602083019150836020820283011115611a8f57611a8e6119e5565b5b9250929050565b60008060008060008060008060008060c08b8d031215611ab957611ab86118a6565b5b6000611ac78d828e0161192f565b9a50506020611ad88d828e016118d1565b99505060408b013567ffffffffffffffff811115611af957611af86118ab565b5b611b058d828e016119ea565b985098505060608b013567ffffffffffffffff811115611b2857611b276118ab565b5b611b348d828e01611a40565b965096505060808b013567ffffffffffffffff811115611b5757611b566118ab565b5b611b638d828e01611a40565b945094505060a08b013567ffffffffffffffff811115611b8657611b856118ab565b5b611b928d828e01611a40565b92509250509295989b9194979a5092959850565b60008115159050919050565b611bbb81611ba6565b82525050565b6000602082019050611bd66000830184611bb2565b92915050565b60008060408385031215611bf357611bf26118a6565b5b6000611c01858286016118d1565b9250506020611c12858286016118d1565b9150509250929050565b611c2581611906565b82525050565b6000602082019050611c406000830184611c1c565b92915050565b600080600060608486031215611c5f57611c5e6118a6565b5b6000611c6d8682870161192f565b9350506020611c7e868287016118d1565b9250506040611c8f8682870161192f565b9150509250925092565b600060208284031215611caf57611cae6118a6565b5b6000611cbd848285016118d1565b91505092915050565b611ccf81611906565b82525050565b600081519050919050565b600082825260208201905092915050565b6000819050602082019050919050565b6000611d0d8383611cc6565b60208301905092915050565b6000602082019050919050565b6000611d3182611cd5565b611d3b8185611ce0565b9350611d4683611cf1565b8060005b83811015611d77578151611d5e8882611d01565b9750611d6983611d19565b925050600181019050611d4a565b5085935050505092915050565b600081519050919050565b600082825260208201905092915050565b6000819050602082019050919050565b611db9816118b0565b82525050565b6000611dcb8383611db0565b60208301905092915050565b6000602082019050919050565b6000611def82611d84565b611df98185611d8f565b9350611e0483611da0565b8060005b83811015611e35578151611e1c8882611dbf565b9750611e2783611dd7565b925050600181019050611e08565b5085935050505092915050565b600060c083016000830151611e5a6000860182611cc6565b5060208301518482036020860152611e728282611d26565b91505060408301518482036040860152611e8c8282611de4565b91505060608301518482036060860152611ea68282611de4565b91505060808301518482036080860152611ec08282611de4565b91505060a083015184820360a0860152611eda8282611de4565b9150508091505092915050565b60006020820190508181036000830152611f018184611e42565b905092915050565b7f4e487b7100000000000000000000000000000000000000000000000000000000600052601160045260246000fd5b6000611f43826118b0565b9150611f4e836118b0565b925082821015611f6157611f60611f09565b5b828203905092915050565b6000611f77826118b0565b9150611f82836118b0565b9250817fffffffffffffffffffffffffffffffffffffffffffffffffffffffffffffffff0483118215151615611fbb57611fba611f09565b5b828202905092915050565b7f4e487b7100000000000000000000000000000000000000000000000000000000600052601260045260246000fd5b6000612000826118b0565b915061200b836118b0565b92508261201b5761201a611fc6565b5b828204905092915050565b600081519050612035816118ba565b92915050565b600060208284031215612051576120506118a6565b5b600061205f84828501612026565b91505092915050565b600082825260208201905092915050565b7f564553543a205a45524f2041444452204e4f5420544f4b454e00000000000000600082015250565b60006120af601983612068565b91506120ba82612079565b602082019050919050565b600060208201905081810360008301526120de816120a2565b9050919050565b7f564553543a2043414e4e4f542056455354203020414d4f554e54000000000000600082015250565b600061211b601a83612068565b9150612126826120e5565b602082019050919050565b6000602082019050818103600083015261214a8161210e565b9050919050565b7f564553543a204e4f20524543495049454e545300000000000000000000000000600082015250565b6000612187601383612068565b915061219282612151565b602082019050919050565b600060208201905081810360008301526121b68161217a565b9050919050565b7f564553543a2057524f4e4720414d4f554e5453204152524159204c454e475448600082015250565b60006121f3602083612068565b91506121fe826121bd565b602082019050919050565b60006020820190508181036000830152612222816121e6565b9050919050565b7f564553543a2057524f4e472053544152542054494d4553204c454e4754480000600082015250565b600061225f601e83612068565b915061226a82612229565b602082019050919050565b6000602082019050818103600083015261228e81612252565b9050919050565b7f564553543a2057524f4e4720454e442054494d4553204c454e47544800000000600082015250565b60006122cb601c83612068565b91506122d682612295565b602082019050919050565b600060208201905081810360008301526122fa816122be565b9050919050565b7f4e487b7100000000000000000000000000000000000000000000000000000000600052603260045260246000fd5b600061233b826118b0565b9150612346836118b0565b9250827fffffffffffffffffffffffffffffffffffffffffffffffffffffffffffffffff0382111561237b5761237a611f09565b5b828201905092915050565b6000612391826118b0565b91507fffffffffffffffffffffffffffffffffffffffffffffffffffffffffffffffff8214156123c4576123c3611f09565b5b600182019050919050565b7f564553543a20414d4f554e545320444f4e542053554d20544f20544f54414c00600082015250565b6000612405601f83612068565b9150612410826123cf565b602082019050919050565b60006020820190508181036000830152612434816123f8565b9050919050565b60006060820190506124506000830186611c1c565b61245d6020830185611c1c565b61246a6040830184611984565b949350505050565b61247b81611ba6565b811461248657600080fd5b50565b60008151905061249881612472565b92915050565b6000602082840312156124b4576124b36118a6565b5b60006124c284828501612489565b91505092915050565b7f564553543a20544f4b454e205452414e53464552204641494c45440000000000600082015250565b6000612501601b83612068565b915061250c826124cb565b602082019050919050565b60006020820190508181036000830152612530816124f4565b9050919050565b7f564553543a20574954484452415741424c4520544f4f204c4f57000000000000600082015250565b600061256d601a83612068565b915061257882612537565b602082019050919050565b6000602082019050818103600083015261259c81612560565b9050919050565b7f4f776e61626c653a2063616c6c6572206973206e6f7420746865206f776e6572600082015250565b60006125d9602083612068565b91506125e4826125a3565b602082019050919050565b60006020820190508181036000830152612608816125cc565b9050919050565b7f564553543a20414d4f554e5420544f4f20484947480000000000000000000000600082015250565b6000612645601583612068565b91506126508261260f565b602082019050919050565b6000602082019050818103600083015261267481612638565b9050919050565b600081905092915050565b50565b600061269660008361267b565b91506126a182612686565b600082019050919050565b60006126b782612689565b9150819050919050565b7f564553543a20455448205452414e53464552204641494c454400000000000000600082015250565b60006126f7601983612068565b9150612702826126c1565b602082019050919050565b60006020820190508181036000830152612726816126ea565b9050919050565b60006040820190506127426000830185611c1c565b61274f6020830184611984565b9392505050565b7f4f776e61626c653a206e6577206f776e657220697320746865207a65726f206160008201527f6464726573730000000000000000000000000000000000000000000000000000602082015250565b60006127b2602683612068565b91506127bd82612756565b604082019050919050565b600060208201905081810360008301526127e1816127a5565b9050919050565b7f564553543a205749544844524157204641494c45440000000000000000000000600082015250565b600061281e601583612068565b9150612829826127e8565b602082019050919050565b6000602082019050818103600083015261284d81612811565b905091905056fea264697066735822122075f4eb6eba3b066f105ff2d08d4e053665962de7412fb4e36f7a3266d97b972164736f6c634300080a0033",
  "linkReferences": {},
  "deployedLinkReferences": {}
}