{
  "_format": "hh-sol-artifact-1",
  "contractName": "VestCore",
  "sourceName": "contracts/VestCore.sol",
  "abi": [
    {
      "inputs": [],
      "stateMutability": "nonpayable",
      "type": "constructor"
    },
    {
      "anonymous": false,
      "inputs": [
        {
          "indexed": true,
          "internalType": "uint256",
          "name": "vBoxID",
          "type": "uint256"
        },
        {
          "indexed": true,
          "internalType": "address",
          "name": "account",
          "type": "address"
        },
        {
          "indexed": false,
          "internalType": "uint256",
          "name": "amount",
          "type": "uint256"
        },
        {
          "indexed": false,
          "internalType": "uint128",
          "name": "startTime",
          "type": "uint128"
        },
        {
          "indexed": false,
          "internalType": "uint128",
          "name": "endTime",
          "type": "uint128"
        }
      ],
      "name": "AccountAddedToVestingBox",
      "type": "event"
    },
    {
      "anonymous": false,
      "inputs": [
        {
          "indexed": true,
          "internalType": "uint256",
          "name": "vBoxID",
          "type": "uint256"
        },
        {
          "indexed": true,
          "internalType": "address",
          "name": "account",
          "type": "address"
        },
        {
          "indexed": false,
          "internalType": "uint256",
          "name": "amountVested",
          "type": "uint256"
        },
        {
          "indexed": false,
          "internalType": "uint256",
          "name": "amountForfeited",
          "type": "uint256"
        }
      ],
      "name": "AccountRemovedFromVestingBox",
      "type": "event"
    },
    {
      "anonymous": false,
      "inputs": [
        {
          "indexed": false,
          "internalType": "address",
          "name": "tokenAddress",
          "type": "address"
        }
      ],
      "name": "ERC20Created",
      "type": "event"
    },
    {
      "anonymous": false,
      "inputs": [
        {
          "indexed": false,
          "internalType": "uint256",
          "name": "oldFee",
          "type": "uint256"
        },
        {
          "indexed": false,
          "internalType": "uint256",
          "name": "newFee",
          "type": "uint256"
        }
      ],
      "name": "FeesSet",
      "type": "event"
    },
    {
      "anonymous": false,
      "inputs": [
        {
          "indexed": false,
          "internalType": "address",
          "name": "token",
          "type": "address"
        },
        {
          "indexed": false,
          "internalType": "uint256",
          "name": "amount",
          "type": "uint256"
        },
        {
          "indexed": false,
          "internalType": "address",
          "name": "_to",
          "type": "address"
        }
      ],
      "name": "FeesWithdrawn",
      "type": "event"
    },
    {
      "anonymous": false,
      "inputs": [
        {
          "indexed": true,
          "internalType": "address",
          "name": "previousOwner",
          "type": "address"
        },
        {
          "indexed": true,
          "internalType": "address",
          "name": "newOwner",
          "type": "address"
        }
      ],
      "name": "OwnershipTransferred",
      "type": "event"
    },
    {
      "anonymous": false,
      "inputs": [
        {
          "indexed": true,
          "internalType": "uint256",
          "name": "vBoxID",
          "type": "uint256"
        },
        {
          "indexed": true,
          "internalType": "address",
          "name": "token",
          "type": "address"
        },
        {
          "indexed": false,
          "internalType": "uint256",
          "name": "amountClaimed",
          "type": "uint256"
        },
        {
          "indexed": false,
          "internalType": "address",
          "name": "recipient",
          "type": "address"
        }
      ],
      "name": "VestedTokensClaimed",
      "type": "event"
    },
    {
      "anonymous": false,
      "inputs": [
        {
          "indexed": true,
          "internalType": "uint256",
          "name": "vBoxID",
          "type": "uint256"
        },
        {
          "indexed": false,
          "internalType": "address",
          "name": "account",
          "type": "address"
        },
        {
          "indexed": false,
          "internalType": "bool",
          "name": "isAdmin",
          "type": "bool"
        }
      ],
      "name": "VestingBoxAdminSet",
      "type": "event"
    },
    {
      "anonymous": false,
      "inputs": [
        {
          "indexed": true,
          "internalType": "uint256",
          "name": "vBoxID",
          "type": "uint256"
        },
        {
          "indexed": true,
          "internalType": "address",
          "name": "token",
          "type": "address"
        },
        {
          "indexed": false,
          "internalType": "address",
          "name": "creator",
          "type": "address"
        },
        {
          "indexed": false,
          "internalType": "uint256",
          "name": "totalBoxAmount",
          "type": "uint256"
        }
      ],
      "name": "VestingBoxCreated",
      "type": "event"
    },
    {
      "inputs": [],
      "name": "ETH",
      "outputs": [
        {
          "internalType": "address",
          "name": "",
          "type": "address"
        }
      ],
      "stateMutability": "view",
      "type": "function"
    },
    {
      "inputs": [],
      "name": "SCALE",
      "outputs": [
        {
          "internalType": "uint256",
          "name": "",
          "type": "uint256"
        }
      ],
      "stateMutability": "view",
      "type": "function"
    },
    {
      "inputs": [
        {
          "internalType": "uint256",
          "name": "_vBoxId",
          "type": "uint256"
        },
        {
          "internalType": "address",
          "name": "_recipient",
          "type": "address"
        },
        {
          "components": [
            {
              "internalType": "uint256",
              "name": "amount",
              "type": "uint256"
            },
            {
              "internalType": "uint256",
              "name": "withdrawn",
              "type": "uint256"
            },
            {
              "internalType": "uint128",
              "name": "startTime",
              "type": "uint128"
            },
            {
              "internalType": "uint128",
              "name": "endTime",
              "type": "uint128"
            }
          ],
          "internalType": "struct VestCore.VestingBoxAccount",
          "name": "_vBoxAccount",
          "type": "tuple"
        }
      ],
      "name": "addAccountToVestingBox",
      "outputs": [],
      "stateMutability": "nonpayable",
      "type": "function"
    },
    {
      "inputs": [
        {
          "internalType": "uint256",
          "name": "_vBoxId",
          "type": "uint256"
        },
        {
          "internalType": "uint256",
          "name": "_amountToClaim",
          "type": "uint256"
        }
      ],
      "name": "claimVestedTokens",
      "outputs": [
        {
          "internalType": "bool",
          "name": "",
          "type": "bool"
        }
      ],
      "stateMutability": "nonpayable",
      "type": "function"
    },
    {
      "inputs": [
        {
          "internalType": "uint256",
          "name": "_totalAmount",
          "type": "uint256"
        },
        {
          "components": [
            {
              "internalType": "address",
              "name": "token",
              "type": "address"
            },
            {
              "internalType": "address",
              "name": "creator",
              "type": "address"
            },
            {
              "internalType": "address[]",
              "name": "admins",
              "type": "address[]"
            },
            {
              "internalType": "address[]",
              "name": "recipients",
              "type": "address[]"
            }
          ],
          "internalType": "struct VestCore.VestingBox",
          "name": "_vBox",
          "type": "tuple"
        },
        {
          "components": [
            {
              "internalType": "uint256",
              "name": "amount",
              "type": "uint256"
            },
            {
              "internalType": "uint256",
              "name": "withdrawn",
              "type": "uint256"
            },
            {
              "internalType": "uint128",
              "name": "startTime",
              "type": "uint128"
            },
            {
              "internalType": "uint128",
              "name": "endTime",
              "type": "uint128"
            }
          ],
          "internalType": "struct VestCore.VestingBoxAccount[]",
          "name": "_vBoxAccounts",
          "type": "tuple[]"
        }
      ],
      "name": "createVestingBoxWithETH",
      "outputs": [
        {
          "internalType": "bool",
          "name": "",
          "type": "bool"
        }
      ],
      "stateMutability": "payable",
      "type": "function"
    },
    {
      "inputs": [
        {
          "internalType": "uint256",
          "name": "_totalAmount",
          "type": "uint256"
        },
        {
          "components": [
            {
              "internalType": "address",
              "name": "token",
              "type": "address"
            },
            {
              "internalType": "address",
              "name": "creator",
              "type": "address"
            },
            {
              "internalType": "address[]",
              "name": "admins",
              "type": "address[]"
            },
            {
              "internalType": "address[]",
              "name": "recipients",
              "type": "address[]"
            }
          ],
          "internalType": "struct VestCore.VestingBox",
          "name": "_vBox",
          "type": "tuple"
        },
        {
          "components": [
            {
              "internalType": "uint256",
              "name": "amount",
              "type": "uint256"
            },
            {
              "internalType": "uint256",
              "name": "withdrawn",
              "type": "uint256"
            },
            {
              "internalType": "uint128",
              "name": "startTime",
              "type": "uint128"
            },
            {
              "internalType": "uint128",
              "name": "endTime",
              "type": "uint128"
            }
          ],
          "internalType": "struct VestCore.VestingBoxAccount[]",
          "name": "_vBoxAccounts",
          "type": "tuple[]"
        }
      ],
      "name": "createVestingBoxWithExistingToken",
      "outputs": [
        {
          "internalType": "bool",
          "name": "",
          "type": "bool"
        }
      ],
      "stateMutability": "nonpayable",
      "type": "function"
    },
    {
      "inputs": [
        {
          "internalType": "uint256",
          "name": "_totalAmount",
          "type": "uint256"
        },
        {
          "components": [
            {
              "internalType": "address",
              "name": "token",
              "type": "address"
            },
            {
              "internalType": "address",
              "name": "creator",
              "type": "address"
            },
            {
              "internalType": "address[]",
              "name": "admins",
              "type": "address[]"
            },
            {
              "internalType": "address[]",
              "name": "recipients",
              "type": "address[]"
            }
          ],
          "internalType": "struct VestCore.VestingBox",
          "name": "_vBox",
          "type": "tuple"
        },
        {
          "components": [
            {
              "internalType": "uint256",
              "name": "amount",
              "type": "uint256"
            },
            {
              "internalType": "uint256",
              "name": "withdrawn",
              "type": "uint256"
            },
            {
              "internalType": "uint128",
              "name": "startTime",
              "type": "uint128"
            },
            {
              "internalType": "uint128",
              "name": "endTime",
              "type": "uint128"
            }
          ],
          "internalType": "struct VestCore.VestingBoxAccount[]",
          "name": "_vBoxAccounts",
          "type": "tuple[]"
        },
        {
          "internalType": "string",
          "name": "_tokenName",
          "type": "string"
        },
        {
          "internalType": "string",
          "name": "_tokenSymbol",
          "type": "string"
        },
        {
          "internalType": "uint256",
          "name": "_tokenTotalSupply",
          "type": "uint256"
        }
      ],
      "name": "createVestingBoxWithNewToken",
      "outputs": [
        {
          "internalType": "bool",
          "name": "",
          "type": "bool"
        }
      ],
      "stateMutability": "nonpayable",
      "type": "function"
    },
    {
      "inputs": [],
      "name": "fee",
      "outputs": [
        {
          "internalType": "uint256",
          "name": "",
          "type": "uint256"
        }
      ],
      "stateMutability": "view",
      "type": "function"
    },
    {
      "inputs": [
        {
          "internalType": "address",
          "name": "_token",
          "type": "address"
        }
      ],
      "name": "getAssetHeldForVesting",
      "outputs": [
        {
          "internalType": "uint256",
          "name": "",
          "type": "uint256"
        }
      ],
      "stateMutability": "view",
      "type": "function"
    },
    {
      "inputs": [
        {
          "internalType": "address",
          "name": "_token",
          "type": "address"
        }
      ],
      "name": "getProtocolFeesEarned",
      "outputs": [
        {
          "internalType": "uint256",
          "name": "",
          "type": "uint256"
        }
      ],
      "stateMutability": "view",
      "type": "function"
    },
    {
      "inputs": [
        {
          "internalType": "uint256",
          "name": "_vBoxId",
          "type": "uint256"
        },
        {
          "internalType": "address",
          "name": "_account",
          "type": "address"
        }
      ],
      "name": "getVestedAmount",
      "outputs": [
        {
          "internalType": "uint256",
          "name": "",
          "type": "uint256"
        }
      ],
      "stateMutability": "view",
      "type": "function"
    },
    {
      "inputs": [
        {
          "internalType": "uint256",
          "name": "_vestingBoxId",
          "type": "uint256"
        }
      ],
      "name": "getVestingBox",
      "outputs": [
        {
          "components": [
            {
              "internalType": "address",
              "name": "token",
              "type": "address"
            },
            {
              "internalType": "address",
              "name": "creator",
              "type": "address"
            },
            {
              "internalType": "address[]",
              "name": "admins",
              "type": "address[]"
            },
            {
              "internalType": "address[]",
              "name": "recipients",
              "type": "address[]"
            }
          ],
          "internalType": "struct VestCore.VestingBox",
          "name": "vestingBox",
          "type": "tuple"
        }
      ],
      "stateMutability": "view",
      "type": "function"
    },
    {
      "inputs": [
        {
          "internalType": "uint256",
          "name": "_vBoxId",
          "type": "uint256"
        },
        {
          "internalType": "address",
          "name": "_account",
          "type": "address"
        }
      ],
      "name": "getWithdrawableAmount",
      "outputs": [
        {
          "internalType": "uint256",
          "name": "",
          "type": "uint256"
        }
      ],
      "stateMutability": "view",
      "type": "function"
    },
    {
      "inputs": [],
      "name": "owner",
      "outputs": [
        {
          "internalType": "address",
          "name": "",
          "type": "address"
        }
      ],
      "stateMutability": "view",
      "type": "function"
    },
    {
      "inputs": [
        {
          "internalType": "uint256",
          "name": "_vBoxId",
          "type": "uint256"
        },
        {
          "internalType": "address",
          "name": "_account",
          "type": "address"
        }
      ],
      "name": "removeAccountFromVestingBox",
      "outputs": [],
      "stateMutability": "nonpayable",
      "type": "function"
    },
    {
      "inputs": [],
      "name": "renounceOwnership",
      "outputs": [],
      "stateMutability": "nonpayable",
      "type": "function"
    },
    {
      "inputs": [
        {
          "internalType": "uint256",
          "name": "_fee",
          "type": "uint256"
        }
      ],
      "name": "setFee",
      "outputs": [],
      "stateMutability": "nonpayable",
      "type": "function"
    },
    {
      "inputs": [
        {
          "internalType": "contract IVestERC20Factory",
          "name": "_newFactory",
          "type": "address"
        }
      ],
      "name": "setTokenFactory",
      "outputs": [],
      "stateMutability": "nonpayable",
      "type": "function"
    },
    {
      "inputs": [
        {
          "internalType": "uint256",
          "name": "_vBoxId",
          "type": "uint256"
        },
        {
          "internalType": "address",
          "name": "_account",
          "type": "address"
        },
        {
          "internalType": "bool",
          "name": "_isAdmin",
          "type": "bool"
        }
      ],
      "name": "setVestingBoxAdmin",
      "outputs": [],
      "stateMutability": "nonpayable",
      "type": "function"
    },
    {
      "inputs": [],
      "name": "tokenFactory",
      "outputs": [
        {
          "internalType": "contract IVestERC20Factory",
          "name": "",
          "type": "address"
        }
      ],
      "stateMutability": "view",
      "type": "function"
    },
    {
      "inputs": [
        {
          "internalType": "address",
          "name": "newOwner",
          "type": "address"
        }
      ],
      "name": "transferOwnership",
      "outputs": [],
      "stateMutability": "nonpayable",
      "type": "function"
    },
    {
      "inputs": [],
      "name": "vBoxCount",
      "outputs": [
        {
          "internalType": "uint256",
          "name": "",
          "type": "uint256"
        }
      ],
      "stateMutability": "view",
      "type": "function"
    },
    {
      "inputs": [
        {
          "internalType": "uint256",
          "name": "_amount",
          "type": "uint256"
        },
        {
          "internalType": "address",
          "name": "_to",
          "type": "address"
        }
      ],
      "name": "withdrawETHFees",
      "outputs": [],
      "stateMutability": "nonpayable",
      "type": "function"
    },
    {
      "inputs": [
        {
          "internalType": "address",
          "name": "_token",
          "type": "address"
        },
        {
          "internalType": "uint256",
          "name": "_amount",
          "type": "uint256"
        },
        {
          "internalType": "address",
          "name": "_to",
          "type": "address"
        }
      ],
      "name": "withdrawTokenFees",
      "outputs": [],
      "stateMutability": "nonpayable",
      "type": "function"
    }
  ],
  "bytecode": "0x608060405266038d7ea4c68000600155600060025573eeeeeeeeeeeeeeeeeeeeeeeeeeeeeeeeeeeeeeee600460006101000a81548173ffffffffffffffffffffffffffffffffffffffff021916908373ffffffffffffffffffffffffffffffffffffffff1602179055503480156200007657600080fd5b50620000976200008b6200009d60201b60201c565b620000a560201b60201c565b62000169565b600033905090565b60008060009054906101000a900473ffffffffffffffffffffffffffffffffffffffff169050816000806101000a81548173ffffffffffffffffffffffffffffffffffffffff021916908373ffffffffffffffffffffffffffffffffffffffff1602179055508173ffffffffffffffffffffffffffffffffffffffff168173ffffffffffffffffffffffffffffffffffffffff167f8be0079c531659141344cd1fd0a4f28419497f9722a3daafe3b4186f6b6457e060405160405180910390a35050565b614a4180620001796000396000f3fe60806040526004361061014b5760003560e01c806395be5498116100b6578063ddca3f431161006f578063ddca3f43146104cb578063e77772fe146104f6578063e9b3663e14610521578063ec4d26cf1461054c578063eced552614610575578063f2fde38b146105a05761014b565b806395be549814610385578063c6530006146103ae578063c68482a7146103eb578063c8c5074214610428578063d3d072cc14610465578063da351f821461048e5761014b565b8063715018a611610108578063715018a61461028957806371b4e6e7146102a05780638322fff2146102c95780638cfe046e146102f45780638d361ec91461031d5780638da5cb5b1461035a5761014b565b80632f73a9f814610150578063359cd45e146101795780634a918a0c146101b657806351887239146101f357806353807e131461023057806369fe0e2d14610260575b600080fd5b34801561015c57600080fd5b5061017760048036038101906101729190613234565b6105c9565b005b34801561018557600080fd5b506101a0600480360381019061019b91906132c3565b6106f9565b6040516101ad9190613312565b60405180910390f35b3480156101c257600080fd5b506101dd60048036038101906101d8919061332d565b610acc565b6040516101ea9190613312565b60405180910390f35b3480156101ff57600080fd5b5061021a6004803603810190610215919061335a565b610c64565b60405161022791906133b5565b60405180910390f35b61024a60048036038101906102459190613766565b610d53565b60405161025791906133b5565b60405180910390f35b34801561026c57600080fd5b50610287600480360381019061028291906137f1565b610dc5565b005b34801561029557600080fd5b5061029e610e96565b005b3480156102ac57600080fd5b506102c760048036038101906102c291906132c3565b610f1e565b005b3480156102d557600080fd5b506102de6110fa565b6040516102eb919061382d565b60405180910390f35b34801561030057600080fd5b5061031b60048036038101906103169190613848565b611120565b005b34801561032957600080fd5b50610344600480360381019061033f9190613766565b611533565b60405161035191906133b5565b60405180910390f35b34801561036657600080fd5b5061036f61154b565b60405161037c919061382d565b60405180910390f35b34801561039157600080fd5b506103ac60048036038101906103a7919061389b565b611574565b005b3480156103ba57600080fd5b506103d560048036038101906103d0919061332d565b61177a565b6040516103e29190613312565b60405180910390f35b3480156103f757600080fd5b50610412600480360381019061040d91906137f1565b6117c3565b60405161041f9190613a16565b60405180910390f35b34801561043457600080fd5b5061044f600480360381019061044a91906132c3565b6119d4565b60405161045c9190613312565b60405180910390f35b34801561047157600080fd5b5061048c60048036038101906104879190613a64565b611ceb565b005b34801561049a57600080fd5b506104b560048036038101906104b09190613b12565b611e33565b6040516104c291906133b5565b60405180910390f35b3480156104d757600080fd5b506104e0611e94565b6040516104ed9190613312565b60405180910390f35b34801561050257600080fd5b5061050b611e9a565b6040516105189190613c78565b60405180910390f35b34801561052d57600080fd5b50610536611ec0565b6040516105439190613312565b60405180910390f35b34801561055857600080fd5b50610573600480360381019061056e91906132c3565b611ec6565b005b34801561058157600080fd5b5061058a612432565b6040516105979190613312565b60405180910390f35b3480156105ac57600080fd5b506105c760048036038101906105c2919061332d565b61243e565b005b6105d1612536565b73ffffffffffffffffffffffffffffffffffffffff166105ef61154b565b73ffffffffffffffffffffffffffffffffffffffff1614610645576040517f08c379a000000000000000000000000000000000000000000000000000000000815260040161063c90613cf0565b60405180910390fd5b600073ffffffffffffffffffffffffffffffffffffffff168173ffffffffffffffffffffffffffffffffffffffff1614156106b5576040517f08c379a00000000000000000000000000000000000000000000000000000000081526004016106ac90613d5c565b60405180910390fd5b80600360006101000a81548173ffffffffffffffffffffffffffffffffffffffff021916908373ffffffffffffffffffffffffffffffffffffffff16021790555050565b60006006600084815260200190815260200160002060008373ffffffffffffffffffffffffffffffffffffffff1673ffffffffffffffffffffffffffffffffffffffff16815260200190815260200160002060020160109054906101000a90046fffffffffffffffffffffffffffffffff166fffffffffffffffffffffffffffffffff16421061083c576006600084815260200190815260200160002060008373ffffffffffffffffffffffffffffffffffffffff1673ffffffffffffffffffffffffffffffffffffffff168152602001908152602001600020600101546006600085815260200190815260200160002060008473ffffffffffffffffffffffffffffffffffffffff1673ffffffffffffffffffffffffffffffffffffffff168152602001908152602001600020600001546108359190613dab565b9050610ac6565b60006006600085815260200190815260200160002060008473ffffffffffffffffffffffffffffffffffffffff1673ffffffffffffffffffffffffffffffffffffffff16815260200190815260200160002060020160009054906101000a90046fffffffffffffffffffffffffffffffff166fffffffffffffffffffffffffffffffff16426108cb9190613dab565b905060006006600086815260200190815260200160002060008573ffffffffffffffffffffffffffffffffffffffff1673ffffffffffffffffffffffffffffffffffffffff16815260200190815260200160002060020160009054906101000a90046fffffffffffffffffffffffffffffffff166006600087815260200190815260200160002060008673ffffffffffffffffffffffffffffffffffffffff1673ffffffffffffffffffffffffffffffffffffffff16815260200190815260200160002060020160109054906101000a90046fffffffffffffffffffffffffffffffff166109b99190613ddf565b6fffffffffffffffffffffffffffffffff1690506000670de0b6b3a7640000826109e39190613e13565b670de0b6b3a764000084600660008a815260200190815260200160002060008973ffffffffffffffffffffffffffffffffffffffff1673ffffffffffffffffffffffffffffffffffffffff16815260200190815260200160002060000154610a4b9190613e13565b610a559190613e13565b610a5f9190613e9c565b90506006600087815260200190815260200160002060008673ffffffffffffffffffffffffffffffffffffffff1673ffffffffffffffffffffffffffffffffffffffff1681526020019081526020016000206001015481610ac09190613dab565b93505050505b92915050565b6000600460009054906101000a900473ffffffffffffffffffffffffffffffffffffffff1673ffffffffffffffffffffffffffffffffffffffff168273ffffffffffffffffffffffffffffffffffffffff161415610b985760086000600460009054906101000a900473ffffffffffffffffffffffffffffffffffffffff1673ffffffffffffffffffffffffffffffffffffffff1673ffffffffffffffffffffffffffffffffffffffff1681526020019081526020016000205447610b919190613dab565b9050610c5f565b600860008373ffffffffffffffffffffffffffffffffffffffff1673ffffffffffffffffffffffffffffffffffffffff168152602001908152602001600020548273ffffffffffffffffffffffffffffffffffffffff166370a08231306040518263ffffffff1660e01b8152600401610c11919061382d565b602060405180830381865afa158015610c2e573d6000803e3d6000fd5b505050506040513d601f19601f82011682018060405250810190610c529190613ee2565b610c5c9190613dab565b90505b919050565b600080610c7184336106f9565b905082811015610cb6576040517f08c379a0000000000000000000000000000000000000000000000000000000008152600401610cad90613f5b565b60405180910390fd5b610cc0848461253e565b506005600085815260200190815260200160002060000160009054906101000a900473ffffffffffffffffffffffffffffffffffffffff1673ffffffffffffffffffffffffffffffffffffffff16847f8eb0865c9da68f6f207dae091828f315df4736814a358375142237af0e0d374b8533604051610d40929190613f7b565b60405180910390a3600191505092915050565b6000600460009054906101000a900473ffffffffffffffffffffffffffffffffffffffff16836000019073ffffffffffffffffffffffffffffffffffffffff16908173ffffffffffffffffffffffffffffffffffffffff1681525050610dbc84848460006127ae565b90509392505050565b610dcd612536565b73ffffffffffffffffffffffffffffffffffffffff16610deb61154b565b73ffffffffffffffffffffffffffffffffffffffff1614610e41576040517f08c379a0000000000000000000000000000000000000000000000000000000008152600401610e3890613cf0565b60405180910390fd5b670de0b6b3a7640000811115610e8c576040517f08c379a0000000000000000000000000000000000000000000000000000000008152600401610e8390613ff0565b60405180910390fd5b8060018190555050565b610e9e612536565b73ffffffffffffffffffffffffffffffffffffffff16610ebc61154b565b73ffffffffffffffffffffffffffffffffffffffff1614610f12576040517f08c379a0000000000000000000000000000000000000000000000000000000008152600401610f0990613cf0565b60405180910390fd5b610f1c6000612df2565b565b610f26612536565b73ffffffffffffffffffffffffffffffffffffffff16610f4461154b565b73ffffffffffffffffffffffffffffffffffffffff1614610f9a576040517f08c379a0000000000000000000000000000000000000000000000000000000008152600401610f9190613cf0565b60405180910390fd5b8160086000600460009054906101000a900473ffffffffffffffffffffffffffffffffffffffff1673ffffffffffffffffffffffffffffffffffffffff1673ffffffffffffffffffffffffffffffffffffffff16815260200190815260200160002054476110089190613dab565b1015611049576040517f08c379a00000000000000000000000000000000000000000000000000000000081526004016110409061405c565b60405180910390fd5b60008173ffffffffffffffffffffffffffffffffffffffff168360405161106f906140ad565b60006040518083038185875af1925050503d80600081146110ac576040519150601f19603f3d011682016040523d82523d6000602084013e6110b1565b606091505b50509050806110f5576040517f08c379a00000000000000000000000000000000000000000000000000000000081526004016110ec9061410e565b60405180910390fd5b505050565b600460009054906101000a900473ffffffffffffffffffffffffffffffffffffffff1681565b82336007600083815260200190815260200160002060008273ffffffffffffffffffffffffffffffffffffffff1673ffffffffffffffffffffffffffffffffffffffff16815260200190815260200160002060009054906101000a900460ff166111bf576040517f08c379a00000000000000000000000000000000000000000000000000000000081526004016111b69061417a565b60405180910390fd5b60006006600087815260200190815260200160002060008673ffffffffffffffffffffffffffffffffffffffff1673ffffffffffffffffffffffffffffffffffffffff1681526020019081526020016000206000015414611255576040517f08c379a000000000000000000000000000000000000000000000000000000000815260040161124c906141e6565b60405180910390fd5b61125e83612eb6565b6005600086815260200190815260200160002060000160009054906101000a900473ffffffffffffffffffffffffffffffffffffffff1673ffffffffffffffffffffffffffffffffffffffff166323b872dd333086600001516040518463ffffffff1660e01b81526004016112d593929190614206565b6020604051808303816000875af11580156112f4573d6000803e3d6000fd5b505050506040513d601f19601f820116820180604052508101906113189190614252565b611357576040517f08c379a000000000000000000000000000000000000000000000000000000000815260040161134e906142cb565b60405180910390fd5b826006600087815260200190815260200160002060008673ffffffffffffffffffffffffffffffffffffffff1673ffffffffffffffffffffffffffffffffffffffff168152602001908152602001600020600082015181600001556020820151816001015560408201518160020160006101000a8154816fffffffffffffffffffffffffffffffff02191690836fffffffffffffffffffffffffffffffff16021790555060608201518160020160106101000a8154816fffffffffffffffffffffffffffffffff02191690836fffffffffffffffffffffffffffffffff1602179055509050508260000151600860006005600089815260200190815260200160002060000160009054906101000a900473ffffffffffffffffffffffffffffffffffffffff1673ffffffffffffffffffffffffffffffffffffffff1673ffffffffffffffffffffffffffffffffffffffff16815260200190815260200160002060008282546114c691906142eb565b925050819055508373ffffffffffffffffffffffffffffffffffffffff16857f236863ed9b5b67391d1853c2b5e55b684b717ef915bbb6d230a449be56125e0e85600001518660400151876060015160405161152493929190614350565b60405180910390a35050505050565b600061154284848460006127ae565b90509392505050565b60008060009054906101000a900473ffffffffffffffffffffffffffffffffffffffff16905090565b61157c612536565b73ffffffffffffffffffffffffffffffffffffffff1661159a61154b565b73ffffffffffffffffffffffffffffffffffffffff16146115f0576040517f08c379a00000000000000000000000000000000000000000000000000000000081526004016115e790613cf0565b60405180910390fd5b81600860008573ffffffffffffffffffffffffffffffffffffffff1673ffffffffffffffffffffffffffffffffffffffff168152602001908152602001600020548473ffffffffffffffffffffffffffffffffffffffff166370a08231306040518263ffffffff1660e01b815260040161166a919061382d565b602060405180830381865afa158015611687573d6000803e3d6000fd5b505050506040513d601f19601f820116820180604052508101906116ab9190613ee2565b6116b59190613dab565b10156116f6576040517f08c379a00000000000000000000000000000000000000000000000000000000081526004016116ed9061405c565b60405180910390fd5b8273ffffffffffffffffffffffffffffffffffffffff1663a9059cbb82846040518363ffffffff1660e01b8152600401611731929190614387565b6020604051808303816000875af1158015611750573d6000803e3d6000fd5b505050506040513d601f19601f820116820180604052508101906117749190614252565b50505050565b6000600860008373ffffffffffffffffffffffffffffffffffffffff1673ffffffffffffffffffffffffffffffffffffffff168152602001908152602001600020549050919050565b6117cb6130b5565b600082116117d857600080fd5b6002548211156117e757600080fd5b600560008381526020019081526020016000206040518060800160405290816000820160009054906101000a900473ffffffffffffffffffffffffffffffffffffffff1673ffffffffffffffffffffffffffffffffffffffff1673ffffffffffffffffffffffffffffffffffffffff1681526020016001820160009054906101000a900473ffffffffffffffffffffffffffffffffffffffff1673ffffffffffffffffffffffffffffffffffffffff1673ffffffffffffffffffffffffffffffffffffffff1681526020016002820180548060200260200160405190810160405280929190818152602001828054801561193657602002820191906000526020600020905b8160009054906101000a900473ffffffffffffffffffffffffffffffffffffffff1673ffffffffffffffffffffffffffffffffffffffff16815260200190600101908083116118ec575b50505050508152602001600382018054806020026020016040519081016040528092919081815260200182805480156119c457602002820191906000526020600020905b8160009054906101000a900473ffffffffffffffffffffffffffffffffffffffff1673ffffffffffffffffffffffffffffffffffffffff168152602001906001019080831161197a575b5050505050815250509050919050565b60006006600084815260200190815260200160002060008373ffffffffffffffffffffffffffffffffffffffff1673ffffffffffffffffffffffffffffffffffffffff16815260200190815260200160002060020160109054906101000a90046fffffffffffffffffffffffffffffffff166fffffffffffffffffffffffffffffffff164210611ab9576006600084815260200190815260200160002060008373ffffffffffffffffffffffffffffffffffffffff1673ffffffffffffffffffffffffffffffffffffffff168152602001908152602001600020600001549050611ce5565b60006006600085815260200190815260200160002060008473ffffffffffffffffffffffffffffffffffffffff1673ffffffffffffffffffffffffffffffffffffffff16815260200190815260200160002060020160009054906101000a90046fffffffffffffffffffffffffffffffff166fffffffffffffffffffffffffffffffff1642611b489190613dab565b905060006006600086815260200190815260200160002060008573ffffffffffffffffffffffffffffffffffffffff1673ffffffffffffffffffffffffffffffffffffffff16815260200190815260200160002060020160009054906101000a90046fffffffffffffffffffffffffffffffff166006600087815260200190815260200160002060008673ffffffffffffffffffffffffffffffffffffffff1673ffffffffffffffffffffffffffffffffffffffff16815260200190815260200160002060020160109054906101000a90046fffffffffffffffffffffffffffffffff16611c369190613ddf565b6fffffffffffffffffffffffffffffffff1690506000670de0b6b3a764000082611c609190613e13565b670de0b6b3a764000084600660008a815260200190815260200160002060008973ffffffffffffffffffffffffffffffffffffffff1673ffffffffffffffffffffffffffffffffffffffff16815260200190815260200160002060000154611cc89190613e13565b611cd29190613e13565b611cdc9190613e9c565b90508093505050505b92915050565b82336007600083815260200190815260200160002060008273ffffffffffffffffffffffffffffffffffffffff1673ffffffffffffffffffffffffffffffffffffffff16815260200190815260200160002060009054906101000a900460ff16611d8a576040517f08c379a0000000000000000000000000000000000000000000000000000000008152600401611d819061417a565b60405180910390fd5b826007600087815260200190815260200160002060008673ffffffffffffffffffffffffffffffffffffffff1673ffffffffffffffffffffffffffffffffffffffff16815260200190815260200160002060006101000a81548160ff021916908315150217905550847f3f82e6ad49df50c375ed08891b7f6c57d8827a148033a02f32ca1ae3aa265a428585604051611e249291906143b0565b60405180910390a25050505050565b6000611e428686868686612fc6565b886000019073ffffffffffffffffffffffffffffffffffffffff16908173ffffffffffffffffffffffffffffffffffffffff1681525050611e8689898960016127ae565b905098975050505050505050565b60015481565b600360009054906101000a900473ffffffffffffffffffffffffffffffffffffffff1681565b60025481565b81336007600083815260200190815260200160002060008273ffffffffffffffffffffffffffffffffffffffff1673ffffffffffffffffffffffffffffffffffffffff16815260200190815260200160002060009054906101000a900460ff16611f65576040517f08c379a0000000000000000000000000000000000000000000000000000000008152600401611f5c9061417a565b60405180910390fd5b60006006600086815260200190815260200160002060008573ffffffffffffffffffffffffffffffffffffffff1673ffffffffffffffffffffffffffffffffffffffff16815260200190815260200160002060405180608001604052908160008201548152602001600182015481526020016002820160009054906101000a90046fffffffffffffffffffffffffffffffff166fffffffffffffffffffffffffffffffff166fffffffffffffffffffffffffffffffff1681526020016002820160109054906101000a90046fffffffffffffffffffffffffffffffff166fffffffffffffffffffffffffffffffff166fffffffffffffffffffffffffffffffff168152505090506000600560008781526020019081526020016000206040518060800160405290816000820160009054906101000a900473ffffffffffffffffffffffffffffffffffffffff1673ffffffffffffffffffffffffffffffffffffffff1673ffffffffffffffffffffffffffffffffffffffff1681526020016001820160009054906101000a900473ffffffffffffffffffffffffffffffffffffffff1673ffffffffffffffffffffffffffffffffffffffff1673ffffffffffffffffffffffffffffffffffffffff168152602001600282018054806020026020016040519081016040528092919081815260200182805480156121bd57602002820191906000526020600020905b8160009054906101000a900473ffffffffffffffffffffffffffffffffffffffff1673ffffffffffffffffffffffffffffffffffffffff1681526020019060010190808311612173575b505050505081526020016003820180548060200260200160405190810160405280929190818152602001828054801561224b57602002820191906000526020600020905b8160009054906101000a900473ffffffffffffffffffffffffffffffffffffffff1673ffffffffffffffffffffffffffffffffffffffff1681526020019060010190808311612201575b50505050508152505090504282606001516fffffffffffffffffffffffffffffffff16116122ae576040517f08c379a00000000000000000000000000000000000000000000000000000000081526004016122a590614425565b60405180910390fd5b6000826000015190506122c187876119d4565b8360000181815250504283606001906fffffffffffffffffffffffffffffffff1690816fffffffffffffffffffffffffffffffff1681525050600083600001518261230c9190613dab565b9050826000015173ffffffffffffffffffffffffffffffffffffffff1663a9059cbb8460200151836040518363ffffffff1660e01b8152600401612351929190614387565b6020604051808303816000875af1158015612370573d6000803e3d6000fd5b505050506040513d601f19601f820116820180604052508101906123949190614252565b6123d3576040517f08c379a00000000000000000000000000000000000000000000000000000000081526004016123ca90614491565b60405180910390fd5b8673ffffffffffffffffffffffffffffffffffffffff16887fad772910df1874c8842aff0676e9915104973cf4a210c66a8149079c1851e3cd8660000151846040516124209291906144b1565b60405180910390a35050505050505050565b670de0b6b3a764000081565b612446612536565b73ffffffffffffffffffffffffffffffffffffffff1661246461154b565b73ffffffffffffffffffffffffffffffffffffffff16146124ba576040517f08c379a00000000000000000000000000000000000000000000000000000000081526004016124b190613cf0565b60405180910390fd5b600073ffffffffffffffffffffffffffffffffffffffff168173ffffffffffffffffffffffffffffffffffffffff16141561252a576040517f08c379a00000000000000000000000000000000000000000000000000000000081526004016125219061454c565b60405180910390fd5b61253381612df2565b50565b600033905090565b60008060009050826006600086815260200190815260200160002060003373ffffffffffffffffffffffffffffffffffffffff1673ffffffffffffffffffffffffffffffffffffffff16815260200190815260200160002060010160008282546125a891906142eb565b92505081905550600460009054906101000a900473ffffffffffffffffffffffffffffffffffffffff1673ffffffffffffffffffffffffffffffffffffffff166005600086815260200190815260200160002060000160009054906101000a900473ffffffffffffffffffffffffffffffffffffffff1673ffffffffffffffffffffffffffffffffffffffff1614156126ac573373ffffffffffffffffffffffffffffffffffffffff168360405161265f906140ad565b60006040518083038185875af1925050503d806000811461269c576040519150601f19603f3d011682016040523d82523d6000602084013e6126a1565b606091505b505080915050612763565b6005600085815260200190815260200160002060000160009054906101000a900473ffffffffffffffffffffffffffffffffffffffff1673ffffffffffffffffffffffffffffffffffffffff1663a9059cbb33856040518363ffffffff1660e01b815260040161271d929190614387565b6020604051808303816000875af115801561273c573d6000803e3d6000fd5b505050506040513d601f19601f820116820180604052508101906127609190614252565b90505b806127a3576040517f08c379a000000000000000000000000000000000000000000000000000000000815260040161279a906145b8565b60405180910390fd5b600191505092915050565b60008085116127f2576040517f08c379a00000000000000000000000000000000000000000000000000000000081526004016127e990614624565b60405180910390fd5b60008460600151511161283a576040517f08c379a000000000000000000000000000000000000000000000000000000000815260040161283190614690565b60405180910390fd5b825184606001515114612882576040517f08c379a0000000000000000000000000000000000000000000000000000000008152600401612879906146fc565b60405180910390fd5b600460009054906101000a900473ffffffffffffffffffffffffffffffffffffffff1673ffffffffffffffffffffffffffffffffffffffff16846000015173ffffffffffffffffffffffffffffffffffffffff161415612920578434101561291f576040517f08c379a000000000000000000000000000000000000000000000000000000000815260040161291690614768565b60405180910390fd5b5b6000805b845181101561296c578481815181106129405761293f614788565b5b6020026020010151600001518261295791906142eb565b91508080612964906147b7565b915050612924565b508581146129af576040517f08c379a00000000000000000000000000000000000000000000000000000000081526004016129a69061484c565b60405180910390fd5b600460009054906101000a900473ffffffffffffffffffffffffffffffffffffffff1673ffffffffffffffffffffffffffffffffffffffff16856000015173ffffffffffffffffffffffffffffffffffffffff1614158015612a0f575082155b15612ad857846000015173ffffffffffffffffffffffffffffffffffffffff166323b872dd3330896040518463ffffffff1660e01b8152600401612a5593929190614206565b6020604051808303816000875af1158015612a74573d6000803e3d6000fd5b505050506040513d601f19601f82011682018060405250810190612a989190614252565b612ad7576040517f08c379a0000000000000000000000000000000000000000000000000000000008152600401612ace906142cb565b60405180910390fd5b5b60026000815480929190612aeb906147b7565b91905055508460056000600254815260200190815260200160002060008201518160000160006101000a81548173ffffffffffffffffffffffffffffffffffffffff021916908373ffffffffffffffffffffffffffffffffffffffff16021790555060208201518160010160006101000a81548173ffffffffffffffffffffffffffffffffffffffff021916908373ffffffffffffffffffffffffffffffffffffffff1602179055506040820151816002019080519060200190612bb0929190613109565b506060820151816003019080519060200190612bcd929190613109565b5090505060005b8451811015612d3357612c00858281518110612bf357612bf2614788565b5b6020026020010151612eb6565b848181518110612c1357612c12614788565b5b6020026020010151600660006002548152602001908152602001600020600088606001518481518110612c4957612c48614788565b5b602002602001015173ffffffffffffffffffffffffffffffffffffffff1673ffffffffffffffffffffffffffffffffffffffff168152602001908152602001600020600082015181600001556020820151816001015560408201518160020160006101000a8154816fffffffffffffffffffffffffffffffff02191690836fffffffffffffffffffffffffffffffff16021790555060608201518160020160106101000a8154816fffffffffffffffffffffffffffffffff02191690836fffffffffffffffffffffffffffffffff1602179055509050508080612d2b906147b7565b915050612bd4565b508560086000876000015173ffffffffffffffffffffffffffffffffffffffff1673ffffffffffffffffffffffffffffffffffffffff1681526020019081526020016000206000828254612d8791906142eb565b92505081905550846000015173ffffffffffffffffffffffffffffffffffffffff166002547f09f269811cffd09fb630ee319c1b845625b319c2446953fc766a761a64c47bc43389604051612ddd929190614387565b60405180910390a36001915050949350505050565b60008060009054906101000a900473ffffffffffffffffffffffffffffffffffffffff169050816000806101000a81548173ffffffffffffffffffffffffffffffffffffffff021916908373ffffffffffffffffffffffffffffffffffffffff1602179055508173ffffffffffffffffffffffffffffffffffffffff168173ffffffffffffffffffffffffffffffffffffffff167f8be0079c531659141344cd1fd0a4f28419497f9722a3daafe3b4186f6b6457e060405160405180910390a35050565b80606001516fffffffffffffffffffffffffffffffff1681604001516fffffffffffffffffffffffffffffffff1610612f24576040517f08c379a0000000000000000000000000000000000000000000000000000000008152600401612f1b906148b8565b60405180910390fd5b4281606001516fffffffffffffffffffffffffffffffff1611612f7c576040517f08c379a0000000000000000000000000000000000000000000000000000000008152600401612f7390614924565b60405180910390fd5b6000816000015111612fc3576040517f08c379a0000000000000000000000000000000000000000000000000000000008152600401612fba90614624565b60405180910390fd5b50565b600080600360009054906101000a900473ffffffffffffffffffffffffffffffffffffffff1673ffffffffffffffffffffffffffffffffffffffff166372e4352d88888888886040518663ffffffff1660e01b815260040161302c959493929190614980565b6020604051808303816000875af115801561304b573d6000803e3d6000fd5b505050506040513d601f19601f8201168201806040525081019061306f91906149de565b90507f41039c8b82bb5a365f56b4f9d87cee99e069b450bfdc3d87696fcd87783f24c1816040516130a0919061382d565b60405180910390a18091505095945050505050565b6040518060800160405280600073ffffffffffffffffffffffffffffffffffffffff168152602001600073ffffffffffffffffffffffffffffffffffffffff16815260200160608152602001606081525090565b828054828255906000526020600020908101928215613182579160200282015b828111156131815782518260006101000a81548173ffffffffffffffffffffffffffffffffffffffff021916908373ffffffffffffffffffffffffffffffffffffffff16021790555091602001919060010190613129565b5b50905061318f9190613193565b5090565b5b808211156131ac576000816000905550600101613194565b5090565b6000604051905090565b600080fd5b600080fd5b600073ffffffffffffffffffffffffffffffffffffffff82169050919050565b60006131ef826131c4565b9050919050565b6000613201826131e4565b9050919050565b613211816131f6565b811461321c57600080fd5b50565b60008135905061322e81613208565b92915050565b60006020828403121561324a576132496131ba565b5b60006132588482850161321f565b91505092915050565b6000819050919050565b61327481613261565b811461327f57600080fd5b50565b6000813590506132918161326b565b92915050565b6132a0816131e4565b81146132ab57600080fd5b50565b6000813590506132bd81613297565b92915050565b600080604083850312156132da576132d96131ba565b5b60006132e885828601613282565b92505060206132f9858286016132ae565b9150509250929050565b61330c81613261565b82525050565b60006020820190506133276000830184613303565b92915050565b600060208284031215613343576133426131ba565b5b6000613351848285016132ae565b91505092915050565b60008060408385031215613371576133706131ba565b5b600061337f85828601613282565b925050602061339085828601613282565b9150509250929050565b60008115159050919050565b6133af8161339a565b82525050565b60006020820190506133ca60008301846133a6565b92915050565b600080fd5b6000601f19601f8301169050919050565b7f4e487b7100000000000000000000000000000000000000000000000000000000600052604160045260246000fd5b61341e826133d5565b810181811067ffffffffffffffff8211171561343d5761343c6133e6565b5b80604052505050565b60006134506131b0565b905061345c8282613415565b919050565b600080fd5b600080fd5b600067ffffffffffffffff821115613486576134856133e6565b5b602082029050602081019050919050565b600080fd5b60006134af6134aa8461346b565b613446565b905080838252602082019050602084028301858111156134d2576134d1613497565b5b835b818110156134fb57806134e788826132ae565b8452602084019350506020810190506134d4565b5050509392505050565b600082601f83011261351a57613519613466565b5b813561352a84826020860161349c565b91505092915050565b600060808284031215613549576135486133d0565b5b6135536080613446565b90506000613563848285016132ae565b6000830152506020613577848285016132ae565b602083015250604082013567ffffffffffffffff81111561359b5761359a613461565b5b6135a784828501613505565b604083015250606082013567ffffffffffffffff8111156135cb576135ca613461565b5b6135d784828501613505565b60608301525092915050565b600067ffffffffffffffff8211156135fe576135fd6133e6565b5b602082029050602081019050919050565b60006fffffffffffffffffffffffffffffffff82169050919050565b6136348161360f565b811461363f57600080fd5b50565b6000813590506136518161362b565b92915050565b60006080828403121561366d5761366c6133d0565b5b6136776080613446565b9050600061368784828501613282565b600083015250602061369b84828501613282565b60208301525060406136af84828501613642565b60408301525060606136c384828501613642565b60608301525092915050565b60006136e26136dd846135e3565b613446565b9050808382526020820190506080840283018581111561370557613704613497565b5b835b8181101561372e578061371a8882613657565b845260208401935050608081019050613707565b5050509392505050565b600082601f83011261374d5761374c613466565b5b813561375d8482602086016136cf565b91505092915050565b60008060006060848603121561377f5761377e6131ba565b5b600061378d86828701613282565b935050602084013567ffffffffffffffff8111156137ae576137ad6131bf565b5b6137ba86828701613533565b925050604084013567ffffffffffffffff8111156137db576137da6131bf565b5b6137e786828701613738565b9150509250925092565b600060208284031215613807576138066131ba565b5b600061381584828501613282565b91505092915050565b613827816131e4565b82525050565b6000602082019050613842600083018461381e565b92915050565b600080600060c08486031215613861576138606131ba565b5b600061386f86828701613282565b9350506020613880868287016132ae565b925050604061389186828701613657565b9150509250925092565b6000806000606084860312156138b4576138b36131ba565b5b60006138c2868287016132ae565b93505060206138d386828701613282565b92505060406138e4868287016132ae565b9150509250925092565b6138f7816131e4565b82525050565b600081519050919050565b600082825260208201905092915050565b6000819050602082019050919050565b600061393583836138ee565b60208301905092915050565b6000602082019050919050565b6000613959826138fd565b6139638185613908565b935061396e83613919565b8060005b8381101561399f5781516139868882613929565b975061399183613941565b925050600181019050613972565b5085935050505092915050565b60006080830160008301516139c460008601826138ee565b5060208301516139d760208601826138ee565b50604083015184820360408601526139ef828261394e565b91505060608301518482036060860152613a09828261394e565b9150508091505092915050565b60006020820190508181036000830152613a3081846139ac565b905092915050565b613a418161339a565b8114613a4c57600080fd5b50565b600081359050613a5e81613a38565b92915050565b600080600060608486031215613a7d57613a7c6131ba565b5b6000613a8b86828701613282565b9350506020613a9c868287016132ae565b9250506040613aad86828701613a4f565b9150509250925092565b600080fd5b60008083601f840112613ad257613ad1613466565b5b8235905067ffffffffffffffff811115613aef57613aee613ab7565b5b602083019150836001820283011115613b0b57613b0a613497565b5b9250929050565b60008060008060008060008060c0898b031215613b3257613b316131ba565b5b6000613b408b828c01613282565b985050602089013567ffffffffffffffff811115613b6157613b606131bf565b5b613b6d8b828c01613533565b975050604089013567ffffffffffffffff811115613b8e57613b8d6131bf565b5b613b9a8b828c01613738565b965050606089013567ffffffffffffffff811115613bbb57613bba6131bf565b5b613bc78b828c01613abc565b9550955050608089013567ffffffffffffffff811115613bea57613be96131bf565b5b613bf68b828c01613abc565b935093505060a0613c098b828c01613282565b9150509295985092959890939650565b6000819050919050565b6000613c3e613c39613c34846131c4565b613c19565b6131c4565b9050919050565b6000613c5082613c23565b9050919050565b6000613c6282613c45565b9050919050565b613c7281613c57565b82525050565b6000602082019050613c8d6000830184613c69565b92915050565b600082825260208201905092915050565b7f4f776e61626c653a2063616c6c6572206973206e6f7420746865206f776e6572600082015250565b6000613cda602083613c93565b9150613ce582613ca4565b602082019050919050565b60006020820190508181036000830152613d0981613ccd565b9050919050565b7f564553543a20464143544f5259204e4f54205a45524f20414444524553530000600082015250565b6000613d46601e83613c93565b9150613d5182613d10565b602082019050919050565b60006020820190508181036000830152613d7581613d39565b9050919050565b7f4e487b7100000000000000000000000000000000000000000000000000000000600052601160045260246000fd5b6000613db682613261565b9150613dc183613261565b925082821015613dd457613dd3613d7c565b5b828203905092915050565b6000613dea8261360f565b9150613df58361360f565b925082821015613e0857613e07613d7c565b5b828203905092915050565b6000613e1e82613261565b9150613e2983613261565b9250817fffffffffffffffffffffffffffffffffffffffffffffffffffffffffffffffff0483118215151615613e6257613e61613d7c565b5b828202905092915050565b7f4e487b7100000000000000000000000000000000000000000000000000000000600052601260045260246000fd5b6000613ea782613261565b9150613eb283613261565b925082613ec257613ec1613e6d565b5b828204905092915050565b600081519050613edc8161326b565b92915050565b600060208284031215613ef857613ef76131ba565b5b6000613f0684828501613ecd565b91505092915050565b7f564553543a204e4f5420454e4f55474820564553544544000000000000000000600082015250565b6000613f45601783613c93565b9150613f5082613f0f565b602082019050919050565b60006020820190508181036000830152613f7481613f38565b9050919050565b6000604082019050613f906000830185613303565b613f9d602083018461381e565b9392505050565b7f564553543a20464545204d555354204245203c20313030250000000000000000600082015250565b6000613fda601883613c93565b9150613fe582613fa4565b602082019050919050565b6000602082019050818103600083015261400981613fcd565b9050919050565b7f564553543a20414d4f554e5420544f4f20484947480000000000000000000000600082015250565b6000614046601583613c93565b915061405182614010565b602082019050919050565b6000602082019050818103600083015261407581614039565b9050919050565b600081905092915050565b50565b600061409760008361407c565b91506140a282614087565b600082019050919050565b60006140b88261408a565b9150819050919050565b7f564553543a20455448205452414e53464552204641494c454400000000000000600082015250565b60006140f8601983613c93565b9150614103826140c2565b602082019050919050565b60006020820190508181036000830152614127816140eb565b9050919050565b7f564553543a204e4f542056424f582041444d494e000000000000000000000000600082015250565b6000614164601483613c93565b915061416f8261412e565b602082019050919050565b6000602082019050818103600083015261419381614157565b9050919050565b7f564553543a204143434f554e5420414c524541445920494e20424f5800000000600082015250565b60006141d0601c83613c93565b91506141db8261419a565b602082019050919050565b600060208201905081810360008301526141ff816141c3565b9050919050565b600060608201905061421b600083018661381e565b614228602083018561381e565b6142356040830184613303565b949350505050565b60008151905061424c81613a38565b92915050565b600060208284031215614268576142676131ba565b5b60006142768482850161423d565b91505092915050565b7f564553543a20544f4b454e205452414e53464552204641494c45440000000000600082015250565b60006142b5601b83613c93565b91506142c08261427f565b602082019050919050565b600060208201905081810360008301526142e4816142a8565b9050919050565b60006142f682613261565b915061430183613261565b9250827fffffffffffffffffffffffffffffffffffffffffffffffffffffffffffffffff0382111561433657614335613d7c565b5b828201905092915050565b61434a8161360f565b82525050565b60006060820190506143656000830186613303565b6143726020830185614341565b61437f6040830184614341565b949350505050565b600060408201905061439c600083018561381e565b6143a96020830184613303565b9392505050565b60006040820190506143c5600083018561381e565b6143d260208301846133a6565b9392505050565b7f564553543a20414c52454144592046554c4c5920564553544544000000000000600082015250565b600061440f601a83613c93565b915061441a826143d9565b602082019050919050565b6000602082019050818103600083015261443e81614402565b9050919050565b7f564553543a20464f524645495420544f4b454e53204641494c45440000000000600082015250565b600061447b601b83613c93565b915061448682614445565b602082019050919050565b600060208201905081810360008301526144aa8161446e565b9050919050565b60006040820190506144c66000830185613303565b6144d36020830184613303565b9392505050565b7f4f776e61626c653a206e6577206f776e657220697320746865207a65726f206160008201527f6464726573730000000000000000000000000000000000000000000000000000602082015250565b6000614536602683613c93565b9150614541826144da565b604082019050919050565b6000602082019050818103600083015261456581614529565b9050919050565b7f564553543a205749544844524157204641494c45440000000000000000000000600082015250565b60006145a2601583613c93565b91506145ad8261456c565b602082019050919050565b600060208201905081810360008301526145d181614595565b9050919050565b7f564553543a2043414e4e4f542056455354203020414d4f554e54000000000000600082015250565b600061460e601a83613c93565b9150614619826145d8565b602082019050919050565b6000602082019050818103600083015261463d81614601565b9050919050565b7f564553543a204e4f20524543495049454e545300000000000000000000000000600082015250565b600061467a601383613c93565b915061468582614644565b602082019050919050565b600060208201905081810360008301526146a98161466d565b9050919050565b7f564553543a2057524f4e47204143434f554e5453204152524159204c454e0000600082015250565b60006146e6601e83613c93565b91506146f1826146b0565b602082019050919050565b60006020820190508181036000830152614715816146d9565b9050919050565b7f564553543a2045544820414d4f554e5420544f4f204c4f570000000000000000600082015250565b6000614752601883613c93565b915061475d8261471c565b602082019050919050565b6000602082019050818103600083015261478181614745565b9050919050565b7f4e487b7100000000000000000000000000000000000000000000000000000000600052603260045260246000fd5b60006147c282613261565b91507fffffffffffffffffffffffffffffffffffffffffffffffffffffffffffffffff8214156147f5576147f4613d7c565b5b600182019050919050565b7f564553543a20414d4f554e545320444f4e542053554d20544f20544f54414c00600082015250565b6000614836601f83613c93565b915061484182614800565b602082019050919050565b6000602082019050818103600083015261486581614829565b9050919050565b7f564553543a2053544152542054494d4520414654455220454e442054494d4500600082015250565b60006148a2601f83613c93565b91506148ad8261486c565b602082019050919050565b600060208201905081810360008301526148d181614895565b9050919050565b7f564553543a20454e442054494d4520494e205448452050415354000000000000600082015250565b600061490e601a83613c93565b9150614919826148d8565b602082019050919050565b6000602082019050818103600083015261493d81614901565b9050919050565b82818337600083830152505050565b600061495f8385613c93565b935061496c838584614944565b614975836133d5565b840190509392505050565b6000606082019050818103600083015261499b818789614953565b905081810360208301526149b0818587614953565b90506149bf6040830184613303565b9695505050505050565b6000815190506149d881613297565b92915050565b6000602082840312156149f4576149f36131ba565b5b6000614a02848285016149c9565b9150509291505056fea264697066735822122001ff6e021a085162ff8e8f0612442e4957c984e6cbf8e7f8171ff0e26db6763c64736f6c634300080a0033",
  "linkReferences": {},
  "deployedLinkReferences": {}
}