{
  "_format": "hh-sol-artifact-1",
  "contractName": "VestCore",
  "sourceName": "contracts/VestCore.sol",
  "abi": [
    {
      "inputs": [],
      "stateMutability": "nonpayable",
      "type": "constructor"
    },
    {
      "anonymous": false,
      "inputs": [
        {
          "indexed": true,
          "internalType": "uint256",
          "name": "vBoxID",
          "type": "uint256"
        },
        {
          "indexed": true,
          "internalType": "address",
          "name": "account",
          "type": "address"
        },
        {
          "indexed": false,
          "internalType": "uint256",
          "name": "amount",
          "type": "uint256"
        },
        {
          "indexed": false,
          "internalType": "uint128",
          "name": "startTime",
          "type": "uint128"
        },
        {
          "indexed": false,
          "internalType": "uint128",
          "name": "endTime",
          "type": "uint128"
        }
      ],
      "name": "AccountAddedToVestingBox",
      "type": "event"
    },
    {
      "anonymous": false,
      "inputs": [
        {
          "indexed": true,
          "internalType": "uint256",
          "name": "vBoxID",
          "type": "uint256"
        },
        {
          "indexed": true,
          "internalType": "address",
          "name": "account",
          "type": "address"
        },
        {
          "indexed": false,
          "internalType": "uint256",
          "name": "amountVested",
          "type": "uint256"
        },
        {
          "indexed": false,
          "internalType": "uint256",
          "name": "amountForfeited",
          "type": "uint256"
        }
      ],
      "name": "AccountRemovedFromVestingBox",
      "type": "event"
    },
    {
      "anonymous": false,
      "inputs": [
        {
          "indexed": false,
          "internalType": "address",
          "name": "tokenAddress",
          "type": "address"
        }
      ],
      "name": "ERC20Created",
      "type": "event"
    },
    {
      "anonymous": false,
      "inputs": [
        {
          "indexed": false,
          "internalType": "address",
          "name": "token",
          "type": "address"
        },
        {
          "indexed": false,
          "internalType": "uint256",
          "name": "amount",
          "type": "uint256"
        }
      ],
      "name": "FeesEarned",
      "type": "event"
    },
    {
      "anonymous": false,
      "inputs": [
        {
          "indexed": false,
          "internalType": "uint256",
          "name": "oldFee",
          "type": "uint256"
        },
        {
          "indexed": false,
          "internalType": "uint256",
          "name": "newFee",
          "type": "uint256"
        }
      ],
      "name": "FeesSet",
      "type": "event"
    },
    {
      "anonymous": false,
      "inputs": [
        {
          "indexed": false,
          "internalType": "address",
          "name": "token",
          "type": "address"
        },
        {
          "indexed": false,
          "internalType": "uint256",
          "name": "amount",
          "type": "uint256"
        },
        {
          "indexed": false,
          "internalType": "address",
          "name": "_to",
          "type": "address"
        }
      ],
      "name": "FeesWithdrawn",
      "type": "event"
    },
    {
      "anonymous": false,
      "inputs": [
        {
          "indexed": true,
          "internalType": "address",
          "name": "previousOwner",
          "type": "address"
        },
        {
          "indexed": true,
          "internalType": "address",
          "name": "newOwner",
          "type": "address"
        }
      ],
      "name": "OwnershipTransferred",
      "type": "event"
    },
    {
      "anonymous": false,
      "inputs": [
        {
          "indexed": true,
          "internalType": "uint256",
          "name": "vBoxID",
          "type": "uint256"
        },
        {
          "indexed": true,
          "internalType": "address",
          "name": "token",
          "type": "address"
        },
        {
          "indexed": false,
          "internalType": "uint256",
          "name": "amountClaimed",
          "type": "uint256"
        },
        {
          "indexed": false,
          "internalType": "address",
          "name": "recipient",
          "type": "address"
        }
      ],
      "name": "VestedTokensClaimed",
      "type": "event"
    },
    {
      "anonymous": false,
      "inputs": [
        {
          "indexed": true,
          "internalType": "uint256",
          "name": "vBoxID",
          "type": "uint256"
        },
        {
          "indexed": false,
          "internalType": "address",
          "name": "account",
          "type": "address"
        },
        {
          "indexed": false,
          "internalType": "bool",
          "name": "isAdmin",
          "type": "bool"
        }
      ],
      "name": "VestingBoxAdminSet",
      "type": "event"
    },
    {
      "anonymous": false,
      "inputs": [
        {
          "indexed": true,
          "internalType": "uint256",
          "name": "vBoxID",
          "type": "uint256"
        },
        {
          "indexed": true,
          "internalType": "address",
          "name": "token",
          "type": "address"
        },
        {
          "indexed": false,
          "internalType": "address",
          "name": "creator",
          "type": "address"
        },
        {
          "indexed": false,
          "internalType": "uint256",
          "name": "totalBoxAmount",
          "type": "uint256"
        }
      ],
      "name": "VestingBoxCreated",
      "type": "event"
    },
    {
      "inputs": [],
      "name": "ETH",
      "outputs": [
        {
          "internalType": "address",
          "name": "",
          "type": "address"
        }
      ],
      "stateMutability": "view",
      "type": "function"
    },
    {
      "inputs": [],
      "name": "SCALE",
      "outputs": [
        {
          "internalType": "uint256",
          "name": "",
          "type": "uint256"
        }
      ],
      "stateMutability": "view",
      "type": "function"
    },
    {
      "inputs": [
        {
          "internalType": "uint256",
          "name": "_vBoxId",
          "type": "uint256"
        },
        {
          "internalType": "address",
          "name": "_recipient",
          "type": "address"
        },
        {
          "components": [
            {
              "internalType": "uint256",
              "name": "amount",
              "type": "uint256"
            },
            {
              "internalType": "uint256",
              "name": "withdrawn",
              "type": "uint256"
            },
            {
              "internalType": "uint128",
              "name": "startTime",
              "type": "uint128"
            },
            {
              "internalType": "uint128",
              "name": "endTime",
              "type": "uint128"
            }
          ],
          "internalType": "struct VestCore.VestingBoxAccount",
          "name": "_vBoxAccount",
          "type": "tuple"
        }
      ],
      "name": "addAccountToVestingBox",
      "outputs": [],
      "stateMutability": "nonpayable",
      "type": "function"
    },
    {
      "inputs": [
        {
          "internalType": "uint256",
          "name": "_beforeFeeAmount",
          "type": "uint256"
        }
      ],
      "name": "calcAfterFeeAmount",
      "outputs": [
        {
          "internalType": "uint256",
          "name": "",
          "type": "uint256"
        }
      ],
      "stateMutability": "view",
      "type": "function"
    },
    {
      "inputs": [
        {
          "internalType": "uint256",
          "name": "_afterFeeAmount",
          "type": "uint256"
        }
      ],
      "name": "calcBeforeFeeAmount",
      "outputs": [
        {
          "internalType": "uint256",
          "name": "",
          "type": "uint256"
        }
      ],
      "stateMutability": "view",
      "type": "function"
    },
    {
      "inputs": [
        {
          "internalType": "uint256",
          "name": "_vBoxId",
          "type": "uint256"
        },
        {
          "internalType": "uint256",
          "name": "_amountToClaim",
          "type": "uint256"
        }
      ],
      "name": "claimVestedTokens",
      "outputs": [
        {
          "internalType": "bool",
          "name": "",
          "type": "bool"
        }
      ],
      "stateMutability": "nonpayable",
      "type": "function"
    },
    {
      "inputs": [
        {
          "internalType": "uint256",
          "name": "_totalAmount",
          "type": "uint256"
        },
        {
          "components": [
            {
              "internalType": "address",
              "name": "token",
              "type": "address"
            },
            {
              "internalType": "address",
              "name": "creator",
              "type": "address"
            }
          ],
          "internalType": "struct VestCore.VestingBox",
          "name": "_vBox",
          "type": "tuple"
        },
        {
          "components": [
            {
              "internalType": "uint256",
              "name": "amount",
              "type": "uint256"
            },
            {
              "internalType": "uint256",
              "name": "withdrawn",
              "type": "uint256"
            },
            {
              "internalType": "uint128",
              "name": "startTime",
              "type": "uint128"
            },
            {
              "internalType": "uint128",
              "name": "endTime",
              "type": "uint128"
            }
          ],
          "internalType": "struct VestCore.VestingBoxAccount[]",
          "name": "_vBoxAccounts",
          "type": "tuple[]"
        },
        {
          "components": [
            {
              "internalType": "address[]",
              "name": "admins",
              "type": "address[]"
            },
            {
              "internalType": "address[]",
              "name": "recipients",
              "type": "address[]"
            }
          ],
          "internalType": "struct VestCore.VestingBoxAddresses",
          "name": "_vBoxAddresses",
          "type": "tuple"
        }
      ],
      "name": "createVestingBoxWithETH",
      "outputs": [
        {
          "internalType": "bool",
          "name": "",
          "type": "bool"
        }
      ],
      "stateMutability": "payable",
      "type": "function"
    },
    {
      "inputs": [
        {
          "internalType": "uint256",
          "name": "_totalAmount",
          "type": "uint256"
        },
        {
          "components": [
            {
              "internalType": "address",
              "name": "token",
              "type": "address"
            },
            {
              "internalType": "address",
              "name": "creator",
              "type": "address"
            }
          ],
          "internalType": "struct VestCore.VestingBox",
          "name": "_vBox",
          "type": "tuple"
        },
        {
          "components": [
            {
              "internalType": "uint256",
              "name": "amount",
              "type": "uint256"
            },
            {
              "internalType": "uint256",
              "name": "withdrawn",
              "type": "uint256"
            },
            {
              "internalType": "uint128",
              "name": "startTime",
              "type": "uint128"
            },
            {
              "internalType": "uint128",
              "name": "endTime",
              "type": "uint128"
            }
          ],
          "internalType": "struct VestCore.VestingBoxAccount[]",
          "name": "_vBoxAccounts",
          "type": "tuple[]"
        },
        {
          "components": [
            {
              "internalType": "address[]",
              "name": "admins",
              "type": "address[]"
            },
            {
              "internalType": "address[]",
              "name": "recipients",
              "type": "address[]"
            }
          ],
          "internalType": "struct VestCore.VestingBoxAddresses",
          "name": "_vBoxAddresses",
          "type": "tuple"
        }
      ],
      "name": "createVestingBoxWithExistingToken",
      "outputs": [
        {
          "internalType": "bool",
          "name": "",
          "type": "bool"
        }
      ],
      "stateMutability": "nonpayable",
      "type": "function"
    },
    {
      "inputs": [
        {
          "internalType": "uint256",
          "name": "_totalAmount",
          "type": "uint256"
        },
        {
          "components": [
            {
              "internalType": "address",
              "name": "token",
              "type": "address"
            },
            {
              "internalType": "address",
              "name": "creator",
              "type": "address"
            }
          ],
          "internalType": "struct VestCore.VestingBox",
          "name": "_vBox",
          "type": "tuple"
        },
        {
          "components": [
            {
              "internalType": "uint256",
              "name": "amount",
              "type": "uint256"
            },
            {
              "internalType": "uint256",
              "name": "withdrawn",
              "type": "uint256"
            },
            {
              "internalType": "uint128",
              "name": "startTime",
              "type": "uint128"
            },
            {
              "internalType": "uint128",
              "name": "endTime",
              "type": "uint128"
            }
          ],
          "internalType": "struct VestCore.VestingBoxAccount[]",
          "name": "_vBoxAccounts",
          "type": "tuple[]"
        },
        {
          "components": [
            {
              "internalType": "address[]",
              "name": "admins",
              "type": "address[]"
            },
            {
              "internalType": "address[]",
              "name": "recipients",
              "type": "address[]"
            }
          ],
          "internalType": "struct VestCore.VestingBoxAddresses",
          "name": "_vBoxAddresses",
          "type": "tuple"
        },
        {
          "internalType": "string",
          "name": "_tokenName",
          "type": "string"
        },
        {
          "internalType": "string",
          "name": "_tokenSymbol",
          "type": "string"
        },
        {
          "internalType": "uint256",
          "name": "_tokenTotalSupply",
          "type": "uint256"
        }
      ],
      "name": "createVestingBoxWithNewToken",
      "outputs": [
        {
          "internalType": "bool",
          "name": "",
          "type": "bool"
        }
      ],
      "stateMutability": "nonpayable",
      "type": "function"
    },
    {
      "inputs": [],
      "name": "fee",
      "outputs": [
        {
          "internalType": "uint256",
          "name": "",
          "type": "uint256"
        }
      ],
      "stateMutability": "view",
      "type": "function"
    },
    {
      "inputs": [
        {
          "internalType": "address",
          "name": "_token",
          "type": "address"
        }
      ],
      "name": "getAssetHeldForVesting",
      "outputs": [
        {
          "internalType": "uint256",
          "name": "",
          "type": "uint256"
        }
      ],
      "stateMutability": "view",
      "type": "function"
    },
    {
      "inputs": [
        {
          "internalType": "address",
          "name": "_token",
          "type": "address"
        }
      ],
      "name": "getProtocolFeesEarned",
      "outputs": [
        {
          "internalType": "uint256",
          "name": "",
          "type": "uint256"
        }
      ],
      "stateMutability": "view",
      "type": "function"
    },
    {
      "inputs": [
        {
          "internalType": "uint256",
          "name": "_vBoxId",
          "type": "uint256"
        },
        {
          "internalType": "address",
          "name": "_account",
          "type": "address"
        }
      ],
      "name": "getVestedAmount",
      "outputs": [
        {
          "internalType": "uint256",
          "name": "",
          "type": "uint256"
        }
      ],
      "stateMutability": "view",
      "type": "function"
    },
    {
      "inputs": [
        {
          "internalType": "uint256",
          "name": "_vestingBoxId",
          "type": "uint256"
        }
      ],
      "name": "getVestingBox",
      "outputs": [
        {
          "components": [
            {
              "internalType": "address",
              "name": "token",
              "type": "address"
            },
            {
              "internalType": "address",
              "name": "creator",
              "type": "address"
            }
          ],
          "internalType": "struct VestCore.VestingBox",
          "name": "vestingBox",
          "type": "tuple"
        }
      ],
      "stateMutability": "view",
      "type": "function"
    },
    {
      "inputs": [
        {
          "internalType": "uint256",
          "name": "_vBoxId",
          "type": "uint256"
        },
        {
          "internalType": "address",
          "name": "_account",
          "type": "address"
        }
      ],
      "name": "getWithdrawableAmount",
      "outputs": [
        {
          "internalType": "uint256",
          "name": "",
          "type": "uint256"
        }
      ],
      "stateMutability": "view",
      "type": "function"
    },
    {
      "inputs": [],
      "name": "owner",
      "outputs": [
        {
          "internalType": "address",
          "name": "",
          "type": "address"
        }
      ],
      "stateMutability": "view",
      "type": "function"
    },
    {
      "inputs": [
        {
          "internalType": "uint256",
          "name": "_vBoxId",
          "type": "uint256"
        },
        {
          "internalType": "address",
          "name": "_account",
          "type": "address"
        }
      ],
      "name": "removeAccountFromVestingBox",
      "outputs": [],
      "stateMutability": "nonpayable",
      "type": "function"
    },
    {
      "inputs": [],
      "name": "renounceOwnership",
      "outputs": [],
      "stateMutability": "nonpayable",
      "type": "function"
    },
    {
      "inputs": [
        {
          "internalType": "uint256",
          "name": "_fee",
          "type": "uint256"
        }
      ],
      "name": "setFee",
      "outputs": [],
      "stateMutability": "nonpayable",
      "type": "function"
    },
    {
      "inputs": [
        {
          "internalType": "contract IVestERC20Factory",
          "name": "_newFactory",
          "type": "address"
        }
      ],
      "name": "setTokenFactory",
      "outputs": [],
      "stateMutability": "nonpayable",
      "type": "function"
    },
    {
      "inputs": [
        {
          "internalType": "uint256",
          "name": "_vBoxId",
          "type": "uint256"
        },
        {
          "internalType": "address",
          "name": "_account",
          "type": "address"
        },
        {
          "internalType": "bool",
          "name": "_isAdmin",
          "type": "bool"
        }
      ],
      "name": "setVestingBoxAdmin",
      "outputs": [],
      "stateMutability": "nonpayable",
      "type": "function"
    },
    {
      "inputs": [],
      "name": "tokenFactory",
      "outputs": [
        {
          "internalType": "contract IVestERC20Factory",
          "name": "",
          "type": "address"
        }
      ],
      "stateMutability": "view",
      "type": "function"
    },
    {
      "inputs": [
        {
          "internalType": "address",
          "name": "newOwner",
          "type": "address"
        }
      ],
      "name": "transferOwnership",
      "outputs": [],
      "stateMutability": "nonpayable",
      "type": "function"
    },
    {
      "inputs": [],
      "name": "vBoxCount",
      "outputs": [
        {
          "internalType": "uint256",
          "name": "",
          "type": "uint256"
        }
      ],
      "stateMutability": "view",
      "type": "function"
    },
    {
      "inputs": [
        {
          "internalType": "uint256",
          "name": "_amount",
          "type": "uint256"
        },
        {
          "internalType": "address",
          "name": "_to",
          "type": "address"
        }
      ],
      "name": "withdrawETHFees",
      "outputs": [],
      "stateMutability": "nonpayable",
      "type": "function"
    },
    {
      "inputs": [
        {
          "internalType": "address",
          "name": "_token",
          "type": "address"
        },
        {
          "internalType": "uint256",
          "name": "_amount",
          "type": "uint256"
        },
        {
          "internalType": "address",
          "name": "_to",
          "type": "address"
        }
      ],
      "name": "withdrawTokenFees",
      "outputs": [],
      "stateMutability": "nonpayable",
      "type": "function"
    }
  ],
  "bytecode": "0x608060405266038d7ea4c68000600155600060025573eeeeeeeeeeeeeeeeeeeeeeeeeeeeeeeeeeeeeeee600460006101000a81548173ffffffffffffffffffffffffffffffffffffffff021916908373ffffffffffffffffffffffffffffffffffffffff1602179055503480156200007657600080fd5b50620000976200008b6200009d60201b60201c565b620000a560201b60201c565b62000169565b600033905090565b60008060009054906101000a900473ffffffffffffffffffffffffffffffffffffffff169050816000806101000a81548173ffffffffffffffffffffffffffffffffffffffff021916908373ffffffffffffffffffffffffffffffffffffffff1602179055508173ffffffffffffffffffffffffffffffffffffffff168173ffffffffffffffffffffffffffffffffffffffff167f8be0079c531659141344cd1fd0a4f28419497f9722a3daafe3b4186f6b6457e060405160405180910390a35050565b61474480620001796000396000f3fe6080604052600436106101815760003560e01c806395be5498116100d1578063d3d072cc1161008a578063e9b3663e11610064578063e9b3663e146105d1578063ec4d26cf146105fc578063eced552614610625578063f2fde38b1461065057610181565b8063d3d072cc14610552578063ddca3f431461057b578063e77772fe146105a657610181565b806395be5498146103f8578063b63922ed14610421578063c65300061461045e578063c68482a71461049b578063c8c50742146104d8578063ce21131a1461051557610181565b806369fe0e2d1161013e57806379c626b61161011857806379c626b61461033c5780638322fff2146103795780638cfe046e146103a45780638da5cb5b146103cd57610181565b806369fe0e2d146102d3578063715018a6146102fc57806371b4e6e71461031357610181565b80632f73a9f814610186578063359cd45e146101af5780633c89d06b146101ec5780634a918a0c1461021c578063518872391461025957806356be3a6014610296575b600080fd5b34801561019257600080fd5b506101ad60048036038101906101a89190613092565b610679565b005b3480156101bb57600080fd5b506101d660048036038101906101d19190613121565b6107a9565b6040516101e39190613170565b60405180910390f35b6102066004803603810190610201919061341d565b610b7c565b60405161021391906134d7565b60405180910390f35b34801561022857600080fd5b50610243600480360381019061023e91906134f2565b610bf0565b6040516102509190613170565b60405180910390f35b34801561026557600080fd5b50610280600480360381019061027b919061351f565b610d88565b60405161028d91906134d7565b60405180910390f35b3480156102a257600080fd5b506102bd60048036038101906102b891906135ba565b610e77565b6040516102ca91906134d7565b60405180910390f35b3480156102df57600080fd5b506102fa60048036038101906102f591906136d5565b610eda565b005b34801561030857600080fd5b50610311610faa565b005b34801561031f57600080fd5b5061033a60048036038101906103359190613121565b611032565b005b34801561034857600080fd5b50610363600480360381019061035e91906136d5565b61120e565b6040516103709190613170565b60405180910390f35b34801561038557600080fd5b5061038e61124b565b60405161039b9190613711565b60405180910390f35b3480156103b057600080fd5b506103cb60048036038101906103c6919061372c565b611271565b005b3480156103d957600080fd5b506103e2611684565b6040516103ef9190613711565b60405180910390f35b34801561040457600080fd5b5061041f600480360381019061041a919061377f565b6116ad565b005b34801561042d57600080fd5b50610448600480360381019061044391906136d5565b6118b3565b6040516104559190613170565b60405180910390f35b34801561046a57600080fd5b50610485600480360381019061048091906134f2565b6118f0565b6040516104929190613170565b60405180910390f35b3480156104a757600080fd5b506104c260048036038101906104bd91906136d5565b611939565b6040516104cf9190613810565b60405180910390f35b3480156104e457600080fd5b506104ff60048036038101906104fa9190613121565b611a2e565b60405161050c9190613170565b60405180910390f35b34801561052157600080fd5b5061053c6004803603810190610537919061341d565b611d45565b60405161054991906134d7565b60405180910390f35b34801561055e57600080fd5b5061057960048036038101906105749190613857565b611d5f565b005b34801561058757600080fd5b50610590611ea7565b60405161059d9190613170565b60405180910390f35b3480156105b257600080fd5b506105bb611ead565b6040516105c89190613909565b60405180910390f35b3480156105dd57600080fd5b506105e6611ed3565b6040516105f39190613170565b60405180910390f35b34801561060857600080fd5b50610623600480360381019061061e9190613121565b611ed9565b005b34801561063157600080fd5b5061063a612329565b6040516106479190613170565b60405180910390f35b34801561065c57600080fd5b50610677600480360381019061067291906134f2565b612335565b005b61068161242d565b73ffffffffffffffffffffffffffffffffffffffff1661069f611684565b73ffffffffffffffffffffffffffffffffffffffff16146106f5576040517f08c379a00000000000000000000000000000000000000000000000000000000081526004016106ec90613981565b60405180910390fd5b600073ffffffffffffffffffffffffffffffffffffffff168173ffffffffffffffffffffffffffffffffffffffff161415610765576040517f08c379a000000000000000000000000000000000000000000000000000000000815260040161075c906139ed565b60405180910390fd5b80600360006101000a81548173ffffffffffffffffffffffffffffffffffffffff021916908373ffffffffffffffffffffffffffffffffffffffff16021790555050565b60006006600084815260200190815260200160002060008373ffffffffffffffffffffffffffffffffffffffff1673ffffffffffffffffffffffffffffffffffffffff16815260200190815260200160002060020160109054906101000a90046fffffffffffffffffffffffffffffffff166fffffffffffffffffffffffffffffffff1642106108ec576006600084815260200190815260200160002060008373ffffffffffffffffffffffffffffffffffffffff1673ffffffffffffffffffffffffffffffffffffffff168152602001908152602001600020600101546006600085815260200190815260200160002060008473ffffffffffffffffffffffffffffffffffffffff1673ffffffffffffffffffffffffffffffffffffffff168152602001908152602001600020600001546108e59190613a3c565b9050610b76565b60006006600085815260200190815260200160002060008473ffffffffffffffffffffffffffffffffffffffff1673ffffffffffffffffffffffffffffffffffffffff16815260200190815260200160002060020160009054906101000a90046fffffffffffffffffffffffffffffffff166fffffffffffffffffffffffffffffffff164261097b9190613a3c565b905060006006600086815260200190815260200160002060008573ffffffffffffffffffffffffffffffffffffffff1673ffffffffffffffffffffffffffffffffffffffff16815260200190815260200160002060020160009054906101000a90046fffffffffffffffffffffffffffffffff166006600087815260200190815260200160002060008673ffffffffffffffffffffffffffffffffffffffff1673ffffffffffffffffffffffffffffffffffffffff16815260200190815260200160002060020160109054906101000a90046fffffffffffffffffffffffffffffffff16610a699190613a70565b6fffffffffffffffffffffffffffffffff1690506000670de0b6b3a764000082610a939190613aa4565b670de0b6b3a764000084600660008a815260200190815260200160002060008973ffffffffffffffffffffffffffffffffffffffff1673ffffffffffffffffffffffffffffffffffffffff16815260200190815260200160002060000154610afb9190613aa4565b610b059190613aa4565b610b0f9190613b2d565b90506006600087815260200190815260200160002060008673ffffffffffffffffffffffffffffffffffffffff1673ffffffffffffffffffffffffffffffffffffffff1681526020019081526020016000206001015481610b709190613a3c565b93505050505b92915050565b6000600460009054906101000a900473ffffffffffffffffffffffffffffffffffffffff16846000019073ffffffffffffffffffffffffffffffffffffffff16908173ffffffffffffffffffffffffffffffffffffffff1681525050610be6858585856000612435565b9050949350505050565b6000600460009054906101000a900473ffffffffffffffffffffffffffffffffffffffff1673ffffffffffffffffffffffffffffffffffffffff168273ffffffffffffffffffffffffffffffffffffffff161415610cbc5760086000600460009054906101000a900473ffffffffffffffffffffffffffffffffffffffff1673ffffffffffffffffffffffffffffffffffffffff1673ffffffffffffffffffffffffffffffffffffffff1681526020019081526020016000205447610cb59190613a3c565b9050610d83565b600860008373ffffffffffffffffffffffffffffffffffffffff1673ffffffffffffffffffffffffffffffffffffffff168152602001908152602001600020548273ffffffffffffffffffffffffffffffffffffffff166370a08231306040518263ffffffff1660e01b8152600401610d359190613711565b602060405180830381865afa158015610d52573d6000803e3d6000fd5b505050506040513d601f19601f82011682018060405250810190610d769190613b73565b610d809190613a3c565b90505b919050565b600080610d9584336107a9565b905082811015610dda576040517f08c379a0000000000000000000000000000000000000000000000000000000008152600401610dd190613bec565b60405180910390fd5b610de48484612a6f565b506005600085815260200190815260200160002060000160009054906101000a900473ffffffffffffffffffffffffffffffffffffffff1673ffffffffffffffffffffffffffffffffffffffff16847f8eb0865c9da68f6f207dae091828f315df4736814a358375142237af0e0d374b8533604051610e64929190613c0c565b60405180910390a3600191505092915050565b6000610e868686868686612d05565b896000019073ffffffffffffffffffffffffffffffffffffffff16908173ffffffffffffffffffffffffffffffffffffffff1681525050610ecb8a8a8a8a6001612435565b90509998505050505050505050565b610ee261242d565b73ffffffffffffffffffffffffffffffffffffffff16610f00611684565b73ffffffffffffffffffffffffffffffffffffffff1614610f56576040517f08c379a0000000000000000000000000000000000000000000000000000000008152600401610f4d90613981565b60405180910390fd5b670de0b6b3a76400008110610fa0576040517f08c379a0000000000000000000000000000000000000000000000000000000008152600401610f9790613c81565b60405180910390fd5b8060018190555050565b610fb261242d565b73ffffffffffffffffffffffffffffffffffffffff16610fd0611684565b73ffffffffffffffffffffffffffffffffffffffff1614611026576040517f08c379a000000000000000000000000000000000000000000000000000000000815260040161101d90613981565b60405180910390fd5b6110306000612df4565b565b61103a61242d565b73ffffffffffffffffffffffffffffffffffffffff16611058611684565b73ffffffffffffffffffffffffffffffffffffffff16146110ae576040517f08c379a00000000000000000000000000000000000000000000000000000000081526004016110a590613981565b60405180910390fd5b8160086000600460009054906101000a900473ffffffffffffffffffffffffffffffffffffffff1673ffffffffffffffffffffffffffffffffffffffff1673ffffffffffffffffffffffffffffffffffffffff168152602001908152602001600020544761111c9190613a3c565b101561115d576040517f08c379a000000000000000000000000000000000000000000000000000000000815260040161115490613ced565b60405180910390fd5b60008173ffffffffffffffffffffffffffffffffffffffff168360405161118390613d3e565b60006040518083038185875af1925050503d80600081146111c0576040519150601f19603f3d011682016040523d82523d6000602084013e6111c5565b606091505b5050905080611209576040517f08c379a000000000000000000000000000000000000000000000000000000000815260040161120090613d9f565b60405180910390fd5b505050565b6000600154670de0b6b3a76400006112269190613a3c565b670de0b6b3a76400008361123a9190613aa4565b6112449190613b2d565b9050919050565b600460009054906101000a900473ffffffffffffffffffffffffffffffffffffffff1681565b82336007600083815260200190815260200160002060008273ffffffffffffffffffffffffffffffffffffffff1673ffffffffffffffffffffffffffffffffffffffff16815260200190815260200160002060009054906101000a900460ff16611310576040517f08c379a000000000000000000000000000000000000000000000000000000000815260040161130790613e0b565b60405180910390fd5b60006006600087815260200190815260200160002060008673ffffffffffffffffffffffffffffffffffffffff1673ffffffffffffffffffffffffffffffffffffffff16815260200190815260200160002060000154146113a6576040517f08c379a000000000000000000000000000000000000000000000000000000000815260040161139d90613e77565b60405180910390fd5b6113af83612eb8565b6005600086815260200190815260200160002060000160009054906101000a900473ffffffffffffffffffffffffffffffffffffffff1673ffffffffffffffffffffffffffffffffffffffff166323b872dd333086600001516040518463ffffffff1660e01b815260040161142693929190613e97565b6020604051808303816000875af1158015611445573d6000803e3d6000fd5b505050506040513d601f19601f820116820180604052508101906114699190613ee3565b6114a8576040517f08c379a000000000000000000000000000000000000000000000000000000000815260040161149f90613f5c565b60405180910390fd5b826006600087815260200190815260200160002060008673ffffffffffffffffffffffffffffffffffffffff1673ffffffffffffffffffffffffffffffffffffffff168152602001908152602001600020600082015181600001556020820151816001015560408201518160020160006101000a8154816fffffffffffffffffffffffffffffffff02191690836fffffffffffffffffffffffffffffffff16021790555060608201518160020160106101000a8154816fffffffffffffffffffffffffffffffff02191690836fffffffffffffffffffffffffffffffff1602179055509050508260000151600860006005600089815260200190815260200160002060000160009054906101000a900473ffffffffffffffffffffffffffffffffffffffff1673ffffffffffffffffffffffffffffffffffffffff1673ffffffffffffffffffffffffffffffffffffffff16815260200190815260200160002060008282546116179190613f7c565b925050819055508373ffffffffffffffffffffffffffffffffffffffff16857f236863ed9b5b67391d1853c2b5e55b684b717ef915bbb6d230a449be56125e0e85600001518660400151876060015160405161167593929190613fe1565b60405180910390a35050505050565b60008060009054906101000a900473ffffffffffffffffffffffffffffffffffffffff16905090565b6116b561242d565b73ffffffffffffffffffffffffffffffffffffffff166116d3611684565b73ffffffffffffffffffffffffffffffffffffffff1614611729576040517f08c379a000000000000000000000000000000000000000000000000000000000815260040161172090613981565b60405180910390fd5b81600860008573ffffffffffffffffffffffffffffffffffffffff1673ffffffffffffffffffffffffffffffffffffffff168152602001908152602001600020548473ffffffffffffffffffffffffffffffffffffffff166370a08231306040518263ffffffff1660e01b81526004016117a39190613711565b602060405180830381865afa1580156117c0573d6000803e3d6000fd5b505050506040513d601f19601f820116820180604052508101906117e49190613b73565b6117ee9190613a3c565b101561182f576040517f08c379a000000000000000000000000000000000000000000000000000000000815260040161182690613ced565b60405180910390fd5b8273ffffffffffffffffffffffffffffffffffffffff1663a9059cbb82846040518363ffffffff1660e01b815260040161186a929190614018565b6020604051808303816000875af1158015611889573d6000803e3d6000fd5b505050506040513d601f19601f820116820180604052508101906118ad9190613ee3565b50505050565b6000670de0b6b3a7640000600154670de0b6b3a76400006118d49190613a3c565b836118df9190613aa4565b6118e99190613b2d565b9050919050565b6000600860008373ffffffffffffffffffffffffffffffffffffffff1673ffffffffffffffffffffffffffffffffffffffff168152602001908152602001600020549050919050565b611941612fc8565b6000821161194e57600080fd5b60025482111561195d57600080fd5b600560008381526020019081526020016000206040518060400160405290816000820160009054906101000a900473ffffffffffffffffffffffffffffffffffffffff1673ffffffffffffffffffffffffffffffffffffffff1673ffffffffffffffffffffffffffffffffffffffff1681526020016001820160009054906101000a900473ffffffffffffffffffffffffffffffffffffffff1673ffffffffffffffffffffffffffffffffffffffff1673ffffffffffffffffffffffffffffffffffffffff16815250509050919050565b60006006600084815260200190815260200160002060008373ffffffffffffffffffffffffffffffffffffffff1673ffffffffffffffffffffffffffffffffffffffff16815260200190815260200160002060020160109054906101000a90046fffffffffffffffffffffffffffffffff166fffffffffffffffffffffffffffffffff164210611b13576006600084815260200190815260200160002060008373ffffffffffffffffffffffffffffffffffffffff1673ffffffffffffffffffffffffffffffffffffffff168152602001908152602001600020600001549050611d3f565b60006006600085815260200190815260200160002060008473ffffffffffffffffffffffffffffffffffffffff1673ffffffffffffffffffffffffffffffffffffffff16815260200190815260200160002060020160009054906101000a90046fffffffffffffffffffffffffffffffff166fffffffffffffffffffffffffffffffff1642611ba29190613a3c565b905060006006600086815260200190815260200160002060008573ffffffffffffffffffffffffffffffffffffffff1673ffffffffffffffffffffffffffffffffffffffff16815260200190815260200160002060020160009054906101000a90046fffffffffffffffffffffffffffffffff166006600087815260200190815260200160002060008673ffffffffffffffffffffffffffffffffffffffff1673ffffffffffffffffffffffffffffffffffffffff16815260200190815260200160002060020160109054906101000a90046fffffffffffffffffffffffffffffffff16611c909190613a70565b6fffffffffffffffffffffffffffffffff1690506000670de0b6b3a764000082611cba9190613aa4565b670de0b6b3a764000084600660008a815260200190815260200160002060008973ffffffffffffffffffffffffffffffffffffffff1673ffffffffffffffffffffffffffffffffffffffff16815260200190815260200160002060000154611d229190613aa4565b611d2c9190613aa4565b611d369190613b2d565b90508093505050505b92915050565b6000611d55858585856000612435565b9050949350505050565b82336007600083815260200190815260200160002060008273ffffffffffffffffffffffffffffffffffffffff1673ffffffffffffffffffffffffffffffffffffffff16815260200190815260200160002060009054906101000a900460ff16611dfe576040517f08c379a0000000000000000000000000000000000000000000000000000000008152600401611df590613e0b565b60405180910390fd5b826007600087815260200190815260200160002060008673ffffffffffffffffffffffffffffffffffffffff1673ffffffffffffffffffffffffffffffffffffffff16815260200190815260200160002060006101000a81548160ff021916908315150217905550847f3f82e6ad49df50c375ed08891b7f6c57d8827a148033a02f32ca1ae3aa265a428585604051611e98929190614041565b60405180910390a25050505050565b60015481565b600360009054906101000a900473ffffffffffffffffffffffffffffffffffffffff1681565b60025481565b81336007600083815260200190815260200160002060008273ffffffffffffffffffffffffffffffffffffffff1673ffffffffffffffffffffffffffffffffffffffff16815260200190815260200160002060009054906101000a900460ff16611f78576040517f08c379a0000000000000000000000000000000000000000000000000000000008152600401611f6f90613e0b565b60405180910390fd5b60006006600086815260200190815260200160002060008573ffffffffffffffffffffffffffffffffffffffff1673ffffffffffffffffffffffffffffffffffffffff16815260200190815260200160002060405180608001604052908160008201548152602001600182015481526020016002820160009054906101000a90046fffffffffffffffffffffffffffffffff166fffffffffffffffffffffffffffffffff166fffffffffffffffffffffffffffffffff1681526020016002820160109054906101000a90046fffffffffffffffffffffffffffffffff166fffffffffffffffffffffffffffffffff166fffffffffffffffffffffffffffffffff168152505090506000600560008781526020019081526020016000206040518060400160405290816000820160009054906101000a900473ffffffffffffffffffffffffffffffffffffffff1673ffffffffffffffffffffffffffffffffffffffff1673ffffffffffffffffffffffffffffffffffffffff1681526020016001820160009054906101000a900473ffffffffffffffffffffffffffffffffffffffff1673ffffffffffffffffffffffffffffffffffffffff1673ffffffffffffffffffffffffffffffffffffffff168152505090504282606001516fffffffffffffffffffffffffffffffff16116121a5576040517f08c379a000000000000000000000000000000000000000000000000000000000815260040161219c906140b6565b60405180910390fd5b6000826000015190506121b88787611a2e565b8360000181815250504283606001906fffffffffffffffffffffffffffffffff1690816fffffffffffffffffffffffffffffffff168152505060008360000151826122039190613a3c565b9050826000015173ffffffffffffffffffffffffffffffffffffffff1663a9059cbb8460200151836040518363ffffffff1660e01b8152600401612248929190614018565b6020604051808303816000875af1158015612267573d6000803e3d6000fd5b505050506040513d601f19601f8201168201806040525081019061228b9190613ee3565b6122ca576040517f08c379a00000000000000000000000000000000000000000000000000000000081526004016122c190614122565b60405180910390fd5b8673ffffffffffffffffffffffffffffffffffffffff16887fad772910df1874c8842aff0676e9915104973cf4a210c66a8149079c1851e3cd866000015184604051612317929190614142565b60405180910390a35050505050505050565b670de0b6b3a764000081565b61233d61242d565b73ffffffffffffffffffffffffffffffffffffffff1661235b611684565b73ffffffffffffffffffffffffffffffffffffffff16146123b1576040517f08c379a00000000000000000000000000000000000000000000000000000000081526004016123a890613981565b60405180910390fd5b600073ffffffffffffffffffffffffffffffffffffffff168173ffffffffffffffffffffffffffffffffffffffff161415612421576040517f08c379a0000000000000000000000000000000000000000000000000000000008152600401612418906141dd565b60405180910390fd5b61242a81612df4565b50565b600033905090565b6000808611612479576040517f08c379a000000000000000000000000000000000000000000000000000000000815260040161247090614249565b60405180910390fd5b600083806020019061248b9190614278565b9050116124cd576040517f08c379a00000000000000000000000000000000000000000000000000000000081526004016124c490614327565b60405180910390fd5b83518380602001906124df9190614278565b905014612521576040517f08c379a000000000000000000000000000000000000000000000000000000000815260040161251890614393565b60405180910390fd5b600460009054906101000a900473ffffffffffffffffffffffffffffffffffffffff1673ffffffffffffffffffffffffffffffffffffffff16856000015173ffffffffffffffffffffffffffffffffffffffff1614156125bf57853410156125be576040517f08c379a00000000000000000000000000000000000000000000000000000000081526004016125b5906143ff565b60405180910390fd5b5b6000805b855181101561260b578581815181106125df576125de61441f565b5b602002602001015160000151826125f69190613f7c565b915080806126039061444e565b9150506125c3565b5086811461264e576040517f08c379a0000000000000000000000000000000000000000000000000000000008152600401612645906144e3565b60405180910390fd5b600460009054906101000a900473ffffffffffffffffffffffffffffffffffffffff1673ffffffffffffffffffffffffffffffffffffffff16866000015173ffffffffffffffffffffffffffffffffffffffff16141580156126ae575082155b1561277757856000015173ffffffffffffffffffffffffffffffffffffffff166323b872dd33308a6040518463ffffffff1660e01b81526004016126f493929190613e97565b6020604051808303816000875af1158015612713573d6000803e3d6000fd5b505050506040513d601f19601f820116820180604052508101906127379190613ee3565b612776576040517f08c379a000000000000000000000000000000000000000000000000000000000815260040161276d90613f5c565b60405180910390fd5b5b6002600081548092919061278a9061444e565b91905055508560056000600254815260200190815260200160002060008201518160000160006101000a81548173ffffffffffffffffffffffffffffffffffffffff021916908373ffffffffffffffffffffffffffffffffffffffff16021790555060208201518160010160006101000a81548173ffffffffffffffffffffffffffffffffffffffff021916908373ffffffffffffffffffffffffffffffffffffffff16021790555090505060005b85518110156129af576128658682815181106128585761285761441f565b5b6020026020010151612eb8565b8581815181106128785761287761441f565b5b602002602001015160066000600254815260200190815260200160002060008780602001906128a79190614278565b858181106128b8576128b761441f565b5b90506020020160208101906128cd91906134f2565b73ffffffffffffffffffffffffffffffffffffffff1673ffffffffffffffffffffffffffffffffffffffff168152602001908152602001600020600082015181600001556020820151816001015560408201518160020160006101000a8154816fffffffffffffffffffffffffffffffff02191690836fffffffffffffffffffffffffffffffff16021790555060608201518160020160106101000a8154816fffffffffffffffffffffffffffffffff02191690836fffffffffffffffffffffffffffffffff16021790555090505080806129a79061444e565b915050612839565b508660086000886000015173ffffffffffffffffffffffffffffffffffffffff1673ffffffffffffffffffffffffffffffffffffffff1681526020019081526020016000206000828254612a039190613f7c565b92505081905550856000015173ffffffffffffffffffffffffffffffffffffffff166002547f09f269811cffd09fb630ee319c1b845625b319c2446953fc766a761a64c47bc4338a604051612a59929190614018565b60405180910390a3600191505095945050505050565b6000806000905060006005600086815260200190815260200160002060000160009054906101000a900473ffffffffffffffffffffffffffffffffffffffff16905083600860008373ffffffffffffffffffffffffffffffffffffffff1673ffffffffffffffffffffffffffffffffffffffff1681526020019081526020016000206000828254612b009190613a3c565b92505081905550836006600087815260200190815260200160002060003373ffffffffffffffffffffffffffffffffffffffff1673ffffffffffffffffffffffffffffffffffffffff1681526020019081526020016000206001016000828254612b6a9190613f7c565b92505081905550600460009054906101000a900473ffffffffffffffffffffffffffffffffffffffff1673ffffffffffffffffffffffffffffffffffffffff168173ffffffffffffffffffffffffffffffffffffffff161415612c38573373ffffffffffffffffffffffffffffffffffffffff1684604051612beb90613d3e565b60006040518083038185875af1925050503d8060008114612c28576040519150601f19603f3d011682016040523d82523d6000602084013e612c2d565b606091505b505080925050612cb9565b8073ffffffffffffffffffffffffffffffffffffffff1663a9059cbb33866040518363ffffffff1660e01b8152600401612c73929190614018565b6020604051808303816000875af1158015612c92573d6000803e3d6000fd5b505050506040513d601f19601f82011682018060405250810190612cb69190613ee3565b91505b81612cf9576040517f08c379a0000000000000000000000000000000000000000000000000000000008152600401612cf09061454f565b60405180910390fd5b60019250505092915050565b600080600360009054906101000a900473ffffffffffffffffffffffffffffffffffffffff1673ffffffffffffffffffffffffffffffffffffffff166372e4352d88888888886040518663ffffffff1660e01b8152600401612d6b9594939291906145ab565b6020604051808303816000875af1158015612d8a573d6000803e3d6000fd5b505050506040513d601f19601f82011682018060405250810190612dae9190614609565b90507f41039c8b82bb5a365f56b4f9d87cee99e069b450bfdc3d87696fcd87783f24c181604051612ddf9190613711565b60405180910390a18091505095945050505050565b60008060009054906101000a900473ffffffffffffffffffffffffffffffffffffffff169050816000806101000a81548173ffffffffffffffffffffffffffffffffffffffff021916908373ffffffffffffffffffffffffffffffffffffffff1602179055508173ffffffffffffffffffffffffffffffffffffffff168173ffffffffffffffffffffffffffffffffffffffff167f8be0079c531659141344cd1fd0a4f28419497f9722a3daafe3b4186f6b6457e060405160405180910390a35050565b80606001516fffffffffffffffffffffffffffffffff1681604001516fffffffffffffffffffffffffffffffff1610612f26576040517f08c379a0000000000000000000000000000000000000000000000000000000008152600401612f1d90614682565b60405180910390fd5b4281606001516fffffffffffffffffffffffffffffffff1611612f7e576040517f08c379a0000000000000000000000000000000000000000000000000000000008152600401612f75906146ee565b60405180910390fd5b6000816000015111612fc5576040517f08c379a0000000000000000000000000000000000000000000000000000000008152600401612fbc90614249565b60405180910390fd5b50565b6040518060400160405280600073ffffffffffffffffffffffffffffffffffffffff168152602001600073ffffffffffffffffffffffffffffffffffffffff1681525090565b6000604051905090565b600080fd5b600080fd5b600073ffffffffffffffffffffffffffffffffffffffff82169050919050565b600061304d82613022565b9050919050565b600061305f82613042565b9050919050565b61306f81613054565b811461307a57600080fd5b50565b60008135905061308c81613066565b92915050565b6000602082840312156130a8576130a7613018565b5b60006130b68482850161307d565b91505092915050565b6000819050919050565b6130d2816130bf565b81146130dd57600080fd5b50565b6000813590506130ef816130c9565b92915050565b6130fe81613042565b811461310957600080fd5b50565b60008135905061311b816130f5565b92915050565b6000806040838503121561313857613137613018565b5b6000613146858286016130e0565b92505060206131578582860161310c565b9150509250929050565b61316a816130bf565b82525050565b60006020820190506131856000830184613161565b92915050565b600080fd5b6000601f19601f8301169050919050565b7f4e487b7100000000000000000000000000000000000000000000000000000000600052604160045260246000fd5b6131d982613190565b810181811067ffffffffffffffff821117156131f8576131f76131a1565b5b80604052505050565b600061320b61300e565b905061321782826131d0565b919050565b6000604082840312156132325761323161318b565b5b61323c6040613201565b9050600061324c8482850161310c565b60008301525060206132608482850161310c565b60208301525092915050565b600080fd5b600067ffffffffffffffff82111561328c5761328b6131a1565b5b602082029050602081019050919050565b600080fd5b60006fffffffffffffffffffffffffffffffff82169050919050565b6132c7816132a2565b81146132d257600080fd5b50565b6000813590506132e4816132be565b92915050565b600060808284031215613300576132ff61318b565b5b61330a6080613201565b9050600061331a848285016130e0565b600083015250602061332e848285016130e0565b6020830152506040613342848285016132d5565b6040830152506060613356848285016132d5565b60608301525092915050565b600061337561337084613271565b613201565b905080838252602082019050608084028301858111156133985761339761329d565b5b835b818110156133c157806133ad88826132ea565b84526020840193505060808101905061339a565b5050509392505050565b600082601f8301126133e0576133df61326c565b5b81356133f0848260208601613362565b91505092915050565b600080fd5b600060408284031215613414576134136133f9565b5b81905092915050565b60008060008060a0858703121561343757613436613018565b5b6000613445878288016130e0565b94505060206134568782880161321c565b935050606085013567ffffffffffffffff8111156134775761347661301d565b5b613483878288016133cb565b925050608085013567ffffffffffffffff8111156134a4576134a361301d565b5b6134b0878288016133fe565b91505092959194509250565b60008115159050919050565b6134d1816134bc565b82525050565b60006020820190506134ec60008301846134c8565b92915050565b60006020828403121561350857613507613018565b5b60006135168482850161310c565b91505092915050565b6000806040838503121561353657613535613018565b5b6000613544858286016130e0565b9250506020613555858286016130e0565b9150509250929050565b600080fd5b60008083601f84011261357a5761357961326c565b5b8235905067ffffffffffffffff8111156135975761359661355f565b5b6020830191508360018202830111156135b3576135b261329d565b5b9250929050565b60008060008060008060008060006101008a8c0312156135dd576135dc613018565b5b60006135eb8c828d016130e0565b99505060206135fc8c828d0161321c565b98505060608a013567ffffffffffffffff81111561361d5761361c61301d565b5b6136298c828d016133cb565b97505060808a013567ffffffffffffffff81111561364a5761364961301d565b5b6136568c828d016133fe565b96505060a08a013567ffffffffffffffff8111156136775761367661301d565b5b6136838c828d01613564565b955095505060c08a013567ffffffffffffffff8111156136a6576136a561301d565b5b6136b28c828d01613564565b935093505060e06136c58c828d016130e0565b9150509295985092959850929598565b6000602082840312156136eb576136ea613018565b5b60006136f9848285016130e0565b91505092915050565b61370b81613042565b82525050565b60006020820190506137266000830184613702565b92915050565b600080600060c0848603121561374557613744613018565b5b6000613753868287016130e0565b93505060206137648682870161310c565b9250506040613775868287016132ea565b9150509250925092565b60008060006060848603121561379857613797613018565b5b60006137a68682870161310c565b93505060206137b7868287016130e0565b92505060406137c88682870161310c565b9150509250925092565b6137db81613042565b82525050565b6040820160008201516137f760008501826137d2565b50602082015161380a60208501826137d2565b50505050565b600060408201905061382560008301846137e1565b92915050565b613834816134bc565b811461383f57600080fd5b50565b6000813590506138518161382b565b92915050565b6000806000606084860312156138705761386f613018565b5b600061387e868287016130e0565b935050602061388f8682870161310c565b92505060406138a086828701613842565b9150509250925092565b6000819050919050565b60006138cf6138ca6138c584613022565b6138aa565b613022565b9050919050565b60006138e1826138b4565b9050919050565b60006138f3826138d6565b9050919050565b613903816138e8565b82525050565b600060208201905061391e60008301846138fa565b92915050565b600082825260208201905092915050565b7f4f776e61626c653a2063616c6c6572206973206e6f7420746865206f776e6572600082015250565b600061396b602083613924565b915061397682613935565b602082019050919050565b6000602082019050818103600083015261399a8161395e565b9050919050565b7f564553543a20464143544f5259204e4f54205a45524f20414444524553530000600082015250565b60006139d7601e83613924565b91506139e2826139a1565b602082019050919050565b60006020820190508181036000830152613a06816139ca565b9050919050565b7f4e487b7100000000000000000000000000000000000000000000000000000000600052601160045260246000fd5b6000613a47826130bf565b9150613a52836130bf565b925082821015613a6557613a64613a0d565b5b828203905092915050565b6000613a7b826132a2565b9150613a86836132a2565b925082821015613a9957613a98613a0d565b5b828203905092915050565b6000613aaf826130bf565b9150613aba836130bf565b9250817fffffffffffffffffffffffffffffffffffffffffffffffffffffffffffffffff0483118215151615613af357613af2613a0d565b5b828202905092915050565b7f4e487b7100000000000000000000000000000000000000000000000000000000600052601260045260246000fd5b6000613b38826130bf565b9150613b43836130bf565b925082613b5357613b52613afe565b5b828204905092915050565b600081519050613b6d816130c9565b92915050565b600060208284031215613b8957613b88613018565b5b6000613b9784828501613b5e565b91505092915050565b7f564553543a204e4f5420454e4f55474820564553544544000000000000000000600082015250565b6000613bd6601783613924565b9150613be182613ba0565b602082019050919050565b60006020820190508181036000830152613c0581613bc9565b9050919050565b6000604082019050613c216000830185613161565b613c2e6020830184613702565b9392505050565b7f564553543a20464545204d555354204245203c20313030250000000000000000600082015250565b6000613c6b601883613924565b9150613c7682613c35565b602082019050919050565b60006020820190508181036000830152613c9a81613c5e565b9050919050565b7f564553543a20414d4f554e5420544f4f20484947480000000000000000000000600082015250565b6000613cd7601583613924565b9150613ce282613ca1565b602082019050919050565b60006020820190508181036000830152613d0681613cca565b9050919050565b600081905092915050565b50565b6000613d28600083613d0d565b9150613d3382613d18565b600082019050919050565b6000613d4982613d1b565b9150819050919050565b7f564553543a20455448205452414e53464552204641494c454400000000000000600082015250565b6000613d89601983613924565b9150613d9482613d53565b602082019050919050565b60006020820190508181036000830152613db881613d7c565b9050919050565b7f564553543a204e4f542056424f582041444d494e000000000000000000000000600082015250565b6000613df5601483613924565b9150613e0082613dbf565b602082019050919050565b60006020820190508181036000830152613e2481613de8565b9050919050565b7f564553543a204143434f554e5420414c524541445920494e20424f5800000000600082015250565b6000613e61601c83613924565b9150613e6c82613e2b565b602082019050919050565b60006020820190508181036000830152613e9081613e54565b9050919050565b6000606082019050613eac6000830186613702565b613eb96020830185613702565b613ec66040830184613161565b949350505050565b600081519050613edd8161382b565b92915050565b600060208284031215613ef957613ef8613018565b5b6000613f0784828501613ece565b91505092915050565b7f564553543a20544f4b454e205452414e53464552204641494c45440000000000600082015250565b6000613f46601b83613924565b9150613f5182613f10565b602082019050919050565b60006020820190508181036000830152613f7581613f39565b9050919050565b6000613f87826130bf565b9150613f92836130bf565b9250827fffffffffffffffffffffffffffffffffffffffffffffffffffffffffffffffff03821115613fc757613fc6613a0d565b5b828201905092915050565b613fdb816132a2565b82525050565b6000606082019050613ff66000830186613161565b6140036020830185613fd2565b6140106040830184613fd2565b949350505050565b600060408201905061402d6000830185613702565b61403a6020830184613161565b9392505050565b60006040820190506140566000830185613702565b61406360208301846134c8565b9392505050565b7f564553543a20414c52454144592046554c4c5920564553544544000000000000600082015250565b60006140a0601a83613924565b91506140ab8261406a565b602082019050919050565b600060208201905081810360008301526140cf81614093565b9050919050565b7f564553543a20464f524645495420544f4b454e53204641494c45440000000000600082015250565b600061410c601b83613924565b9150614117826140d6565b602082019050919050565b6000602082019050818103600083015261413b816140ff565b9050919050565b60006040820190506141576000830185613161565b6141646020830184613161565b9392505050565b7f4f776e61626c653a206e6577206f776e657220697320746865207a65726f206160008201527f6464726573730000000000000000000000000000000000000000000000000000602082015250565b60006141c7602683613924565b91506141d28261416b565b604082019050919050565b600060208201905081810360008301526141f6816141ba565b9050919050565b7f564553543a2043414e4e4f542056455354203020414d4f554e54000000000000600082015250565b6000614233601a83613924565b915061423e826141fd565b602082019050919050565b6000602082019050818103600083015261426281614226565b9050919050565b600080fd5b600080fd5b600080fd5b6000808335600160200384360303811261429557614294614269565b5b80840192508235915067ffffffffffffffff8211156142b7576142b661426e565b5b6020830192506020820236038313156142d3576142d2614273565b5b509250929050565b7f564553543a204e4f20524543495049454e545300000000000000000000000000600082015250565b6000614311601383613924565b915061431c826142db565b602082019050919050565b6000602082019050818103600083015261434081614304565b9050919050565b7f564553543a2057524f4e47204143434f554e5453204152524159204c454e0000600082015250565b600061437d601e83613924565b915061438882614347565b602082019050919050565b600060208201905081810360008301526143ac81614370565b9050919050565b7f564553543a2045544820414d4f554e5420544f4f204c4f570000000000000000600082015250565b60006143e9601883613924565b91506143f4826143b3565b602082019050919050565b60006020820190508181036000830152614418816143dc565b9050919050565b7f4e487b7100000000000000000000000000000000000000000000000000000000600052603260045260246000fd5b6000614459826130bf565b91507fffffffffffffffffffffffffffffffffffffffffffffffffffffffffffffffff82141561448c5761448b613a0d565b5b600182019050919050565b7f564553543a20414d4f554e545320444f4e542053554d20544f20544f54414c00600082015250565b60006144cd601f83613924565b91506144d882614497565b602082019050919050565b600060208201905081810360008301526144fc816144c0565b9050919050565b7f564553543a205749544844524157204641494c45440000000000000000000000600082015250565b6000614539601583613924565b915061454482614503565b602082019050919050565b600060208201905081810360008301526145688161452c565b9050919050565b82818337600083830152505050565b600061458a8385613924565b935061459783858461456f565b6145a083613190565b840190509392505050565b600060608201905081810360008301526145c681878961457e565b905081810360208301526145db81858761457e565b90506145ea6040830184613161565b9695505050505050565b600081519050614603816130f5565b92915050565b60006020828403121561461f5761461e613018565b5b600061462d848285016145f4565b91505092915050565b7f564553543a2053544152542054494d4520414654455220454e442054494d4500600082015250565b600061466c601f83613924565b915061467782614636565b602082019050919050565b6000602082019050818103600083015261469b8161465f565b9050919050565b7f564553543a20454e442054494d4520494e205448452050415354000000000000600082015250565b60006146d8601a83613924565b91506146e3826146a2565b602082019050919050565b60006020820190508181036000830152614707816146cb565b905091905056fea264697066735822122096980641a85fdee52274a35b631516ec07ed52a9ed2b6000e516f1546ef8879864736f6c634300080a0033",
  "linkReferences": {},
  "deployedLinkReferences": {}
}