{
  "_format": "hh-sol-artifact-1",
  "contractName": "VestCore",
  "sourceName": "contracts/VestCore.sol",
  "abi": [
    {
      "inputs": [],
      "stateMutability": "nonpayable",
      "type": "constructor"
    },
    {
      "anonymous": false,
      "inputs": [
        {
          "indexed": true,
          "internalType": "address",
          "name": "previousOwner",
          "type": "address"
        },
        {
          "indexed": true,
          "internalType": "address",
          "name": "newOwner",
          "type": "address"
        }
      ],
      "name": "OwnershipTransferred",
      "type": "event"
    },
    {
      "inputs": [],
      "name": "SCALE",
      "outputs": [
        {
          "internalType": "uint256",
          "name": "",
          "type": "uint256"
        }
      ],
      "stateMutability": "view",
      "type": "function"
    },
    {
      "inputs": [
        {
          "internalType": "address",
          "name": "_token",
          "type": "address"
        },
        {
          "internalType": "uint256",
          "name": "_totalAmount",
          "type": "uint256"
        },
        {
          "internalType": "uint256[]",
          "name": "_amounts",
          "type": "uint256[]"
        },
        {
          "internalType": "address[]",
          "name": "_recipients",
          "type": "address[]"
        },
        {
          "internalType": "uint256[]",
          "name": "_startTimes",
          "type": "uint256[]"
        },
        {
          "internalType": "uint256[]",
          "name": "_endTimes",
          "type": "uint256[]"
        }
      ],
      "name": "createVestingAgreement",
      "outputs": [
        {
          "internalType": "bool",
          "name": "success",
          "type": "bool"
        }
      ],
      "stateMutability": "nonpayable",
      "type": "function"
    },
    {
      "inputs": [],
      "name": "fee",
      "outputs": [
        {
          "internalType": "uint256",
          "name": "",
          "type": "uint256"
        }
      ],
      "stateMutability": "view",
      "type": "function"
    },
    {
      "inputs": [],
      "name": "owner",
      "outputs": [
        {
          "internalType": "address",
          "name": "",
          "type": "address"
        }
      ],
      "stateMutability": "view",
      "type": "function"
    },
    {
      "inputs": [],
      "name": "renounceOwnership",
      "outputs": [],
      "stateMutability": "nonpayable",
      "type": "function"
    },
    {
      "inputs": [
        {
          "internalType": "address",
          "name": "newOwner",
          "type": "address"
        }
      ],
      "name": "transferOwnership",
      "outputs": [],
      "stateMutability": "nonpayable",
      "type": "function"
    }
  ],
  "bytecode": "0x608060405266038d7ea4c68000600155600060025534801561002057600080fd5b5061003d61003261004260201b60201c565b61004a60201b60201c565b61010e565b600033905090565b60008060009054906101000a900473ffffffffffffffffffffffffffffffffffffffff169050816000806101000a81548173ffffffffffffffffffffffffffffffffffffffff021916908373ffffffffffffffffffffffffffffffffffffffff1602179055508173ffffffffffffffffffffffffffffffffffffffff168173ffffffffffffffffffffffffffffffffffffffff167f8be0079c531659141344cd1fd0a4f28419497f9722a3daafe3b4186f6b6457e060405160405180910390a35050565b610c318061011d6000396000f3fe608060405234801561001057600080fd5b50600436106100625760003560e01c8063715018a614610067578063802cd69a146100715780638da5cb5b146100a1578063ddca3f43146100bf578063eced5526146100dd578063f2fde38b146100fb575b600080fd5b61006f610117565b005b61008b600480360381019061008691906108ad565b61019f565b60405161009891906109d8565b60405180910390f35b6100a9610461565b6040516100b69190610a02565b60405180910390f35b6100c761048a565b6040516100d49190610a2c565b60405180910390f35b6100e5610490565b6040516100f29190610a2c565b60405180910390f35b61011560048036038101906101109190610a47565b61049c565b005b61011f610594565b73ffffffffffffffffffffffffffffffffffffffff1661013d610461565b73ffffffffffffffffffffffffffffffffffffffff1614610193576040517f08c379a000000000000000000000000000000000000000000000000000000000815260040161018a90610ad1565b60405180910390fd5b61019d600061059c565b565b60008073ffffffffffffffffffffffffffffffffffffffff168b73ffffffffffffffffffffffffffffffffffffffff1614156101da57600080fd5b60008a116101e757600080fd5b8888905087879050146101f957600080fd5b84849050878790501461020b57600080fd5b82829050878790501461021d57600080fd5b60006040518060a001604052808d73ffffffffffffffffffffffffffffffffffffffff168152602001898980806020026020016040519081016040528093929190818152602001838360200280828437600081840152601f19601f8201169050808301925050505050505081526020018b8b80806020026020016040519081016040528093929190818152602001838360200280828437600081840152601f19601f820116905080830192505050505050508152602001878780806020026020016040519081016040528093929190818152602001838360200280828437600081840152601f19601f820116905080830192505050505050508152602001858580806020026020016040519081016040528093929190818152602001838360200280828437600081840152601f19601f8201169050808301925050505050505081525090506002600081548092919061037590610b20565b91905055508060036000600254815260200190815260200160002060008201518160000160006101000a81548173ffffffffffffffffffffffffffffffffffffffff021916908373ffffffffffffffffffffffffffffffffffffffff16021790555060208201518160010190805190602001906103f3929190610660565b5060408201518160020190805190602001906104109291906106ea565b50606082015181600301908051906020019061042d9291906106ea565b50608082015181600401908051906020019061044a9291906106ea565b5090505060019150509a9950505050505050505050565b60008060009054906101000a900473ffffffffffffffffffffffffffffffffffffffff16905090565b60015481565b670de0b6b3a764000081565b6104a4610594565b73ffffffffffffffffffffffffffffffffffffffff166104c2610461565b73ffffffffffffffffffffffffffffffffffffffff1614610518576040517f08c379a000000000000000000000000000000000000000000000000000000000815260040161050f90610ad1565b60405180910390fd5b600073ffffffffffffffffffffffffffffffffffffffff168173ffffffffffffffffffffffffffffffffffffffff161415610588576040517f08c379a000000000000000000000000000000000000000000000000000000000815260040161057f90610bdb565b60405180910390fd5b6105918161059c565b50565b600033905090565b60008060009054906101000a900473ffffffffffffffffffffffffffffffffffffffff169050816000806101000a81548173ffffffffffffffffffffffffffffffffffffffff021916908373ffffffffffffffffffffffffffffffffffffffff1602179055508173ffffffffffffffffffffffffffffffffffffffff168173ffffffffffffffffffffffffffffffffffffffff167f8be0079c531659141344cd1fd0a4f28419497f9722a3daafe3b4186f6b6457e060405160405180910390a35050565b8280548282559060005260206000209081019282156106d9579160200282015b828111156106d85782518260006101000a81548173ffffffffffffffffffffffffffffffffffffffff021916908373ffffffffffffffffffffffffffffffffffffffff16021790555091602001919060010190610680565b5b5090506106e69190610737565b5090565b828054828255906000526020600020908101928215610726579160200282015b8281111561072557825182559160200191906001019061070a565b5b5090506107339190610737565b5090565b5b80821115610750576000816000905550600101610738565b5090565b600080fd5b600080fd5b600073ffffffffffffffffffffffffffffffffffffffff82169050919050565b60006107898261075e565b9050919050565b6107998161077e565b81146107a457600080fd5b50565b6000813590506107b681610790565b92915050565b6000819050919050565b6107cf816107bc565b81146107da57600080fd5b50565b6000813590506107ec816107c6565b92915050565b600080fd5b600080fd5b600080fd5b60008083601f840112610817576108166107f2565b5b8235905067ffffffffffffffff811115610834576108336107f7565b5b6020830191508360208202830111156108505761084f6107fc565b5b9250929050565b60008083601f84011261086d5761086c6107f2565b5b8235905067ffffffffffffffff81111561088a576108896107f7565b5b6020830191508360208202830111156108a6576108a56107fc565b5b9250929050565b60008060008060008060008060008060c08b8d0312156108d0576108cf610754565b5b60006108de8d828e016107a7565b9a505060206108ef8d828e016107dd565b99505060408b013567ffffffffffffffff8111156109105761090f610759565b5b61091c8d828e01610801565b985098505060608b013567ffffffffffffffff81111561093f5761093e610759565b5b61094b8d828e01610857565b965096505060808b013567ffffffffffffffff81111561096e5761096d610759565b5b61097a8d828e01610801565b945094505060a08b013567ffffffffffffffff81111561099d5761099c610759565b5b6109a98d828e01610801565b92509250509295989b9194979a5092959850565b60008115159050919050565b6109d2816109bd565b82525050565b60006020820190506109ed60008301846109c9565b92915050565b6109fc8161077e565b82525050565b6000602082019050610a1760008301846109f3565b92915050565b610a26816107bc565b82525050565b6000602082019050610a416000830184610a1d565b92915050565b600060208284031215610a5d57610a5c610754565b5b6000610a6b848285016107a7565b91505092915050565b600082825260208201905092915050565b7f4f776e61626c653a2063616c6c6572206973206e6f7420746865206f776e6572600082015250565b6000610abb602083610a74565b9150610ac682610a85565b602082019050919050565b60006020820190508181036000830152610aea81610aae565b9050919050565b7f4e487b7100000000000000000000000000000000000000000000000000000000600052601160045260246000fd5b6000610b2b826107bc565b91507fffffffffffffffffffffffffffffffffffffffffffffffffffffffffffffffff821415610b5e57610b5d610af1565b5b600182019050919050565b7f4f776e61626c653a206e6577206f776e657220697320746865207a65726f206160008201527f6464726573730000000000000000000000000000000000000000000000000000602082015250565b6000610bc5602683610a74565b9150610bd082610b69565b604082019050919050565b60006020820190508181036000830152610bf481610bb8565b905091905056fea2646970667358221220f9c3f5f71dac5ecf50fb5077d79490ae10fe387cdc0356a569a403448c3a7d2c64736f6c634300080a0033",
  "linkReferences": {},
  "deployedLinkReferences": {}
}