{
  "_format": "hh-sol-artifact-1",
  "contractName": "VestCore",
  "sourceName": "contracts/VestCore.sol",
  "abi": [
    {
      "inputs": [],
      "stateMutability": "nonpayable",
      "type": "constructor"
    },
    {
      "anonymous": false,
      "inputs": [
        {
          "indexed": true,
          "internalType": "uint256",
          "name": "vBoxID",
          "type": "uint256"
        },
        {
          "indexed": true,
          "internalType": "address",
          "name": "account",
          "type": "address"
        },
        {
          "indexed": false,
          "internalType": "uint256",
          "name": "amount",
          "type": "uint256"
        },
        {
          "indexed": false,
          "internalType": "uint128",
          "name": "startTime",
          "type": "uint128"
        },
        {
          "indexed": false,
          "internalType": "uint128",
          "name": "endTime",
          "type": "uint128"
        }
      ],
      "name": "AccountAddedToVestingBox",
      "type": "event"
    },
    {
      "anonymous": false,
      "inputs": [
        {
          "indexed": true,
          "internalType": "uint256",
          "name": "vBoxID",
          "type": "uint256"
        },
        {
          "indexed": true,
          "internalType": "address",
          "name": "account",
          "type": "address"
        },
        {
          "indexed": false,
          "internalType": "uint256",
          "name": "amountVested",
          "type": "uint256"
        },
        {
          "indexed": false,
          "internalType": "uint256",
          "name": "amountForfeited",
          "type": "uint256"
        }
      ],
      "name": "AccountRemovedFromVestingBox",
      "type": "event"
    },
    {
      "anonymous": false,
      "inputs": [
        {
          "indexed": false,
          "internalType": "address",
          "name": "tokenAddress",
          "type": "address"
        }
      ],
      "name": "ERC20Created",
      "type": "event"
    },
    {
      "anonymous": false,
      "inputs": [
        {
          "indexed": false,
          "internalType": "uint256",
          "name": "oldFee",
          "type": "uint256"
        },
        {
          "indexed": false,
          "internalType": "uint256",
          "name": "newFee",
          "type": "uint256"
        }
      ],
      "name": "FeeChanged",
      "type": "event"
    },
    {
      "anonymous": false,
      "inputs": [
        {
          "indexed": false,
          "internalType": "address",
          "name": "token",
          "type": "address"
        },
        {
          "indexed": false,
          "internalType": "uint256",
          "name": "feesEarned",
          "type": "uint256"
        }
      ],
      "name": "FeesEarned",
      "type": "event"
    },
    {
      "anonymous": false,
      "inputs": [
        {
          "indexed": false,
          "internalType": "address",
          "name": "token",
          "type": "address"
        },
        {
          "indexed": false,
          "internalType": "uint256",
          "name": "feesWithdrawn",
          "type": "uint256"
        },
        {
          "indexed": false,
          "internalType": "address",
          "name": "_to",
          "type": "address"
        }
      ],
      "name": "FeesWithdrawn",
      "type": "event"
    },
    {
      "anonymous": false,
      "inputs": [
        {
          "indexed": true,
          "internalType": "address",
          "name": "previousOwner",
          "type": "address"
        },
        {
          "indexed": true,
          "internalType": "address",
          "name": "newOwner",
          "type": "address"
        }
      ],
      "name": "OwnershipTransferred",
      "type": "event"
    },
    {
      "anonymous": false,
      "inputs": [
        {
          "indexed": true,
          "internalType": "uint256",
          "name": "vBoxID",
          "type": "uint256"
        },
        {
          "indexed": true,
          "internalType": "address",
          "name": "token",
          "type": "address"
        },
        {
          "indexed": false,
          "internalType": "uint256",
          "name": "amountClaimed",
          "type": "uint256"
        },
        {
          "indexed": false,
          "internalType": "address",
          "name": "recipient",
          "type": "address"
        }
      ],
      "name": "VestedTokensClaimed",
      "type": "event"
    },
    {
      "anonymous": false,
      "inputs": [
        {
          "indexed": true,
          "internalType": "uint256",
          "name": "vBoxID",
          "type": "uint256"
        },
        {
          "indexed": false,
          "internalType": "address",
          "name": "account",
          "type": "address"
        },
        {
          "indexed": false,
          "internalType": "bool",
          "name": "isAdmin",
          "type": "bool"
        }
      ],
      "name": "VestingBoxAdminSet",
      "type": "event"
    },
    {
      "anonymous": false,
      "inputs": [
        {
          "indexed": true,
          "internalType": "uint256",
          "name": "vBoxID",
          "type": "uint256"
        },
        {
          "indexed": true,
          "internalType": "address",
          "name": "token",
          "type": "address"
        },
        {
          "indexed": false,
          "internalType": "address",
          "name": "creator",
          "type": "address"
        },
        {
          "indexed": false,
          "internalType": "uint256",
          "name": "totalBoxAmount",
          "type": "uint256"
        }
      ],
      "name": "VestingBoxCreated",
      "type": "event"
    },
    {
      "inputs": [],
      "name": "ETH",
      "outputs": [
        {
          "internalType": "address",
          "name": "",
          "type": "address"
        }
      ],
      "stateMutability": "view",
      "type": "function"
    },
    {
      "inputs": [],
      "name": "SCALE",
      "outputs": [
        {
          "internalType": "uint256",
          "name": "",
          "type": "uint256"
        }
      ],
      "stateMutability": "view",
      "type": "function"
    },
    {
      "inputs": [
        {
          "internalType": "uint256",
          "name": "_vBoxId",
          "type": "uint256"
        },
        {
          "internalType": "address",
          "name": "_recipient",
          "type": "address"
        },
        {
          "components": [
            {
              "internalType": "uint256",
              "name": "amount",
              "type": "uint256"
            },
            {
              "internalType": "uint256",
              "name": "withdrawn",
              "type": "uint256"
            },
            {
              "internalType": "uint128",
              "name": "startTime",
              "type": "uint128"
            },
            {
              "internalType": "uint128",
              "name": "endTime",
              "type": "uint128"
            }
          ],
          "internalType": "struct VestCore.VestingBoxAccount",
          "name": "_vBoxAccount",
          "type": "tuple"
        }
      ],
      "name": "addAccountToVestingBox",
      "outputs": [],
      "stateMutability": "nonpayable",
      "type": "function"
    },
    {
      "inputs": [
        {
          "internalType": "uint256",
          "name": "_beforeFeeAmount",
          "type": "uint256"
        }
      ],
      "name": "calcAfterFeeAmount",
      "outputs": [
        {
          "internalType": "uint256",
          "name": "",
          "type": "uint256"
        }
      ],
      "stateMutability": "view",
      "type": "function"
    },
    {
      "inputs": [
        {
          "internalType": "uint256",
          "name": "_afterFeeAmount",
          "type": "uint256"
        }
      ],
      "name": "calcBeforeFeeAmount",
      "outputs": [
        {
          "internalType": "uint256",
          "name": "",
          "type": "uint256"
        }
      ],
      "stateMutability": "view",
      "type": "function"
    },
    {
      "inputs": [
        {
          "internalType": "uint256",
          "name": "_vBoxId",
          "type": "uint256"
        },
        {
          "internalType": "uint256",
          "name": "_amountClaimedAfterFee",
          "type": "uint256"
        }
      ],
      "name": "claimVestedTokens",
      "outputs": [
        {
          "internalType": "bool",
          "name": "",
          "type": "bool"
        }
      ],
      "stateMutability": "nonpayable",
      "type": "function"
    },
    {
      "inputs": [
        {
          "internalType": "uint256",
          "name": "_totalAmount",
          "type": "uint256"
        },
        {
          "components": [
            {
              "internalType": "address",
              "name": "token",
              "type": "address"
            },
            {
              "internalType": "address",
              "name": "creator",
              "type": "address"
            }
          ],
          "internalType": "struct VestCore.VestingBox",
          "name": "_vBox",
          "type": "tuple"
        },
        {
          "components": [
            {
              "internalType": "uint256",
              "name": "amount",
              "type": "uint256"
            },
            {
              "internalType": "uint256",
              "name": "withdrawn",
              "type": "uint256"
            },
            {
              "internalType": "uint128",
              "name": "startTime",
              "type": "uint128"
            },
            {
              "internalType": "uint128",
              "name": "endTime",
              "type": "uint128"
            }
          ],
          "internalType": "struct VestCore.VestingBoxAccount[]",
          "name": "_vBoxAccounts",
          "type": "tuple[]"
        },
        {
          "components": [
            {
              "internalType": "address[]",
              "name": "admins",
              "type": "address[]"
            },
            {
              "internalType": "address[]",
              "name": "recipients",
              "type": "address[]"
            }
          ],
          "internalType": "struct VestCore.VestingBoxAddresses",
          "name": "_vBoxAddresses",
          "type": "tuple"
        }
      ],
      "name": "createVestingBoxWithETH",
      "outputs": [
        {
          "internalType": "bool",
          "name": "",
          "type": "bool"
        }
      ],
      "stateMutability": "payable",
      "type": "function"
    },
    {
      "inputs": [
        {
          "internalType": "uint256",
          "name": "_totalAmount",
          "type": "uint256"
        },
        {
          "components": [
            {
              "internalType": "address",
              "name": "token",
              "type": "address"
            },
            {
              "internalType": "address",
              "name": "creator",
              "type": "address"
            }
          ],
          "internalType": "struct VestCore.VestingBox",
          "name": "_vBox",
          "type": "tuple"
        },
        {
          "components": [
            {
              "internalType": "uint256",
              "name": "amount",
              "type": "uint256"
            },
            {
              "internalType": "uint256",
              "name": "withdrawn",
              "type": "uint256"
            },
            {
              "internalType": "uint128",
              "name": "startTime",
              "type": "uint128"
            },
            {
              "internalType": "uint128",
              "name": "endTime",
              "type": "uint128"
            }
          ],
          "internalType": "struct VestCore.VestingBoxAccount[]",
          "name": "_vBoxAccounts",
          "type": "tuple[]"
        },
        {
          "components": [
            {
              "internalType": "address[]",
              "name": "admins",
              "type": "address[]"
            },
            {
              "internalType": "address[]",
              "name": "recipients",
              "type": "address[]"
            }
          ],
          "internalType": "struct VestCore.VestingBoxAddresses",
          "name": "_vBoxAddresses",
          "type": "tuple"
        }
      ],
      "name": "createVestingBoxWithExistingToken",
      "outputs": [
        {
          "internalType": "bool",
          "name": "",
          "type": "bool"
        }
      ],
      "stateMutability": "nonpayable",
      "type": "function"
    },
    {
      "inputs": [
        {
          "internalType": "uint256",
          "name": "_totalAmount",
          "type": "uint256"
        },
        {
          "components": [
            {
              "internalType": "address",
              "name": "token",
              "type": "address"
            },
            {
              "internalType": "address",
              "name": "creator",
              "type": "address"
            }
          ],
          "internalType": "struct VestCore.VestingBox",
          "name": "_vBox",
          "type": "tuple"
        },
        {
          "components": [
            {
              "internalType": "uint256",
              "name": "amount",
              "type": "uint256"
            },
            {
              "internalType": "uint256",
              "name": "withdrawn",
              "type": "uint256"
            },
            {
              "internalType": "uint128",
              "name": "startTime",
              "type": "uint128"
            },
            {
              "internalType": "uint128",
              "name": "endTime",
              "type": "uint128"
            }
          ],
          "internalType": "struct VestCore.VestingBoxAccount[]",
          "name": "_vBoxAccounts",
          "type": "tuple[]"
        },
        {
          "components": [
            {
              "internalType": "address[]",
              "name": "admins",
              "type": "address[]"
            },
            {
              "internalType": "address[]",
              "name": "recipients",
              "type": "address[]"
            }
          ],
          "internalType": "struct VestCore.VestingBoxAddresses",
          "name": "_vBoxAddresses",
          "type": "tuple"
        },
        {
          "internalType": "string",
          "name": "_tokenName",
          "type": "string"
        },
        {
          "internalType": "string",
          "name": "_tokenSymbol",
          "type": "string"
        },
        {
          "internalType": "uint256",
          "name": "_tokenTotalSupply",
          "type": "uint256"
        }
      ],
      "name": "createVestingBoxWithNewToken",
      "outputs": [
        {
          "internalType": "bool",
          "name": "",
          "type": "bool"
        }
      ],
      "stateMutability": "nonpayable",
      "type": "function"
    },
    {
      "inputs": [],
      "name": "fee",
      "outputs": [
        {
          "internalType": "uint256",
          "name": "",
          "type": "uint256"
        }
      ],
      "stateMutability": "view",
      "type": "function"
    },
    {
      "inputs": [
        {
          "internalType": "address",
          "name": "_token",
          "type": "address"
        }
      ],
      "name": "getAssetHeldForVesting",
      "outputs": [
        {
          "internalType": "uint256",
          "name": "",
          "type": "uint256"
        }
      ],
      "stateMutability": "view",
      "type": "function"
    },
    {
      "inputs": [
        {
          "internalType": "address",
          "name": "_token",
          "type": "address"
        }
      ],
      "name": "getProtocolFeesEarned",
      "outputs": [
        {
          "internalType": "uint256",
          "name": "",
          "type": "uint256"
        }
      ],
      "stateMutability": "view",
      "type": "function"
    },
    {
      "inputs": [
        {
          "internalType": "uint256",
          "name": "_vBoxId",
          "type": "uint256"
        },
        {
          "internalType": "address",
          "name": "_account",
          "type": "address"
        }
      ],
      "name": "getVestedAmount",
      "outputs": [
        {
          "internalType": "uint256",
          "name": "",
          "type": "uint256"
        }
      ],
      "stateMutability": "view",
      "type": "function"
    },
    {
      "inputs": [
        {
          "internalType": "uint256",
          "name": "_vestingBoxId",
          "type": "uint256"
        }
      ],
      "name": "getVestingBox",
      "outputs": [
        {
          "components": [
            {
              "internalType": "address",
              "name": "token",
              "type": "address"
            },
            {
              "internalType": "address",
              "name": "creator",
              "type": "address"
            }
          ],
          "internalType": "struct VestCore.VestingBox",
          "name": "vestingBox",
          "type": "tuple"
        }
      ],
      "stateMutability": "view",
      "type": "function"
    },
    {
      "inputs": [
        {
          "internalType": "uint256",
          "name": "_vBoxId",
          "type": "uint256"
        },
        {
          "internalType": "address",
          "name": "_account",
          "type": "address"
        }
      ],
      "name": "getWithdrawableAmount",
      "outputs": [
        {
          "internalType": "uint256",
          "name": "",
          "type": "uint256"
        }
      ],
      "stateMutability": "view",
      "type": "function"
    },
    {
      "inputs": [],
      "name": "owner",
      "outputs": [
        {
          "internalType": "address",
          "name": "",
          "type": "address"
        }
      ],
      "stateMutability": "view",
      "type": "function"
    },
    {
      "inputs": [
        {
          "internalType": "uint256",
          "name": "_vBoxId",
          "type": "uint256"
        },
        {
          "internalType": "address",
          "name": "_account",
          "type": "address"
        }
      ],
      "name": "removeAccountFromVestingBox",
      "outputs": [],
      "stateMutability": "nonpayable",
      "type": "function"
    },
    {
      "inputs": [],
      "name": "renounceOwnership",
      "outputs": [],
      "stateMutability": "nonpayable",
      "type": "function"
    },
    {
      "inputs": [
        {
          "internalType": "uint256",
          "name": "_fee",
          "type": "uint256"
        }
      ],
      "name": "setFee",
      "outputs": [],
      "stateMutability": "nonpayable",
      "type": "function"
    },
    {
      "inputs": [
        {
          "internalType": "contract IVestERC20Factory",
          "name": "_newFactory",
          "type": "address"
        }
      ],
      "name": "setTokenFactory",
      "outputs": [],
      "stateMutability": "nonpayable",
      "type": "function"
    },
    {
      "inputs": [
        {
          "internalType": "uint256",
          "name": "_vBoxId",
          "type": "uint256"
        },
        {
          "internalType": "address",
          "name": "_account",
          "type": "address"
        },
        {
          "internalType": "bool",
          "name": "_isAdmin",
          "type": "bool"
        }
      ],
      "name": "setVestingBoxAdmin",
      "outputs": [],
      "stateMutability": "nonpayable",
      "type": "function"
    },
    {
      "inputs": [],
      "name": "tokenFactory",
      "outputs": [
        {
          "internalType": "contract IVestERC20Factory",
          "name": "",
          "type": "address"
        }
      ],
      "stateMutability": "view",
      "type": "function"
    },
    {
      "inputs": [
        {
          "internalType": "address",
          "name": "newOwner",
          "type": "address"
        }
      ],
      "name": "transferOwnership",
      "outputs": [],
      "stateMutability": "nonpayable",
      "type": "function"
    },
    {
      "inputs": [],
      "name": "vBoxCount",
      "outputs": [
        {
          "internalType": "uint256",
          "name": "",
          "type": "uint256"
        }
      ],
      "stateMutability": "view",
      "type": "function"
    },
    {
      "inputs": [
        {
          "internalType": "uint256",
          "name": "_amount",
          "type": "uint256"
        },
        {
          "internalType": "address",
          "name": "_to",
          "type": "address"
        }
      ],
      "name": "withdrawETHFees",
      "outputs": [],
      "stateMutability": "nonpayable",
      "type": "function"
    },
    {
      "inputs": [
        {
          "internalType": "address",
          "name": "_token",
          "type": "address"
        },
        {
          "internalType": "uint256",
          "name": "_amount",
          "type": "uint256"
        },
        {
          "internalType": "address",
          "name": "_to",
          "type": "address"
        }
      ],
      "name": "withdrawTokenFees",
      "outputs": [],
      "stateMutability": "nonpayable",
      "type": "function"
    }
  ],
  "bytecode": "0x608060405266038d7ea4c68000600155600060025573eeeeeeeeeeeeeeeeeeeeeeeeeeeeeeeeeeeeeeee600460006101000a81548173ffffffffffffffffffffffffffffffffffffffff021916908373ffffffffffffffffffffffffffffffffffffffff1602179055503480156200007657600080fd5b50620000976200008b6200009d60201b60201c565b620000a560201b60201c565b62000169565b600033905090565b60008060009054906101000a900473ffffffffffffffffffffffffffffffffffffffff169050816000806101000a81548173ffffffffffffffffffffffffffffffffffffffff021916908373ffffffffffffffffffffffffffffffffffffffff1602179055508173ffffffffffffffffffffffffffffffffffffffff168173ffffffffffffffffffffffffffffffffffffffff167f8be0079c531659141344cd1fd0a4f28419497f9722a3daafe3b4186f6b6457e060405160405180910390a35050565b61474c80620001796000396000f3fe6080604052600436106101815760003560e01c806395be5498116100d1578063d3d072cc1161008a578063e9b3663e11610064578063e9b3663e146105d1578063ec4d26cf146105fc578063eced552614610625578063f2fde38b1461065057610181565b8063d3d072cc14610552578063ddca3f431461057b578063e77772fe146105a657610181565b806395be5498146103f8578063b63922ed14610421578063c65300061461045e578063c68482a71461049b578063c8c50742146104d8578063ce21131a1461051557610181565b806369fe0e2d1161013e57806379c626b61161011857806379c626b61461033c5780638322fff2146103795780638cfe046e146103a45780638da5cb5b146103cd57610181565b806369fe0e2d146102d3578063715018a6146102fc57806371b4e6e71461031357610181565b80632f73a9f814610186578063359cd45e146101af5780633c89d06b146101ec5780634a918a0c1461021c578063518872391461025957806356be3a6014610296575b600080fd5b34801561019257600080fd5b506101ad60048036038101906101a89190613063565b610679565b005b3480156101bb57600080fd5b506101d660048036038101906101d191906130f2565b6107a9565b6040516101e39190613141565b60405180910390f35b610206600480360381019061020191906133ee565b6109a4565b60405161021391906134a8565b60405180910390f35b34801561022857600080fd5b50610243600480360381019061023e91906134c3565b610a18565b6040516102509190613141565b60405180910390f35b34801561026557600080fd5b50610280600480360381019061027b91906134f0565b610bb0565b60405161028d91906134a8565b60405180910390f35b3480156102a257600080fd5b506102bd60048036038101906102b8919061358b565b610c9f565b6040516102ca91906134a8565b60405180910390f35b3480156102df57600080fd5b506102fa60048036038101906102f591906136a6565b610d02565b005b34801561030857600080fd5b50610311610e13565b005b34801561031f57600080fd5b5061033a600480360381019061033591906130f2565b610e9b565b005b34801561034857600080fd5b50610363600480360381019061035e91906136a6565b6110d4565b6040516103709190613141565b60405180910390f35b34801561038557600080fd5b5061038e611111565b60405161039b91906136e2565b60405180910390f35b3480156103b057600080fd5b506103cb60048036038101906103c691906136fd565b611137565b005b3480156103d957600080fd5b506103e261154a565b6040516103ef91906136e2565b60405180910390f35b34801561040457600080fd5b5061041f600480360381019061041a9190613750565b611573565b005b34801561042d57600080fd5b50610448600480360381019061044391906136a6565b6117b4565b6040516104559190613141565b60405180910390f35b34801561046a57600080fd5b50610485600480360381019061048091906134c3565b6117f1565b6040516104929190613141565b60405180910390f35b3480156104a757600080fd5b506104c260048036038101906104bd91906136a6565b61183a565b6040516104cf91906137e1565b60405180910390f35b3480156104e457600080fd5b506104ff60048036038101906104fa91906130f2565b61192f565b60405161050c9190613141565b60405180910390f35b34801561052157600080fd5b5061053c600480360381019061053791906133ee565b611b04565b60405161054991906134a8565b60405180910390f35b34801561055e57600080fd5b5061057960048036038101906105749190613828565b611b1e565b005b34801561058757600080fd5b50610590611c66565b60405161059d9190613141565b60405180910390f35b3480156105b257600080fd5b506105bb611c6c565b6040516105c891906138da565b60405180910390f35b3480156105dd57600080fd5b506105e6611c92565b6040516105f39190613141565b60405180910390f35b34801561060857600080fd5b50610623600480360381019061061e91906130f2565b611c98565b005b34801561063157600080fd5b5061063a612155565b6040516106479190613141565b60405180910390f35b34801561065c57600080fd5b50610677600480360381019061067291906134c3565b612161565b005b610681612259565b73ffffffffffffffffffffffffffffffffffffffff1661069f61154a565b73ffffffffffffffffffffffffffffffffffffffff16146106f5576040517f08c379a00000000000000000000000000000000000000000000000000000000081526004016106ec90613952565b60405180910390fd5b600073ffffffffffffffffffffffffffffffffffffffff168173ffffffffffffffffffffffffffffffffffffffff161415610765576040517f08c379a000000000000000000000000000000000000000000000000000000000815260040161075c906139be565b60405180910390fd5b80600360006101000a81548173ffffffffffffffffffffffffffffffffffffffff021916908373ffffffffffffffffffffffffffffffffffffffff16021790555050565b6000806006600085815260200190815260200160002060008473ffffffffffffffffffffffffffffffffffffffff1673ffffffffffffffffffffffffffffffffffffffff16815260200190815260200160002060405180608001604052908160008201548152602001600182015481526020016002820160009054906101000a90046fffffffffffffffffffffffffffffffff166fffffffffffffffffffffffffffffffff166fffffffffffffffffffffffffffffffff1681526020016002820160109054906101000a90046fffffffffffffffffffffffffffffffff166fffffffffffffffffffffffffffffffff166fffffffffffffffffffffffffffffffff1681525050905080606001516fffffffffffffffffffffffffffffffff1642106108ea57806020015181600001516108e29190613a0d565b91505061099e565b600081604001516fffffffffffffffffffffffffffffffff164261090e9190613a0d565b90506000826040015183606001516109269190613a41565b6fffffffffffffffffffffffffffffffff1690506000670de0b6b3a7640000826109509190613a75565b670de0b6b3a76400008486600001516109699190613a75565b6109739190613a75565b61097d9190613afe565b90506109978460200151826109929190613a0d565b6117b4565b9450505050505b92915050565b6000600460009054906101000a900473ffffffffffffffffffffffffffffffffffffffff16846000019073ffffffffffffffffffffffffffffffffffffffff16908173ffffffffffffffffffffffffffffffffffffffff1681525050610a0e858585856000612261565b9050949350505050565b6000600460009054906101000a900473ffffffffffffffffffffffffffffffffffffffff1673ffffffffffffffffffffffffffffffffffffffff168273ffffffffffffffffffffffffffffffffffffffff161415610ae45760086000600460009054906101000a900473ffffffffffffffffffffffffffffffffffffffff1673ffffffffffffffffffffffffffffffffffffffff1673ffffffffffffffffffffffffffffffffffffffff1681526020019081526020016000205447610add9190613a0d565b9050610bab565b600860008373ffffffffffffffffffffffffffffffffffffffff1673ffffffffffffffffffffffffffffffffffffffff168152602001908152602001600020548273ffffffffffffffffffffffffffffffffffffffff166370a08231306040518263ffffffff1660e01b8152600401610b5d91906136e2565b602060405180830381865afa158015610b7a573d6000803e3d6000fd5b505050506040513d601f19601f82011682018060405250810190610b9e9190613b44565b610ba89190613a0d565b90505b919050565b600080610bbd84336107a9565b905082811015610c02576040517f08c379a0000000000000000000000000000000000000000000000000000000008152600401610bf990613bbd565b60405180910390fd5b610c0c848461295b565b506005600085815260200190815260200160002060000160009054906101000a900473ffffffffffffffffffffffffffffffffffffffff1673ffffffffffffffffffffffffffffffffffffffff16847f8eb0865c9da68f6f207dae091828f315df4736814a358375142237af0e0d374b8533604051610c8c929190613bdd565b60405180910390a3600191505092915050565b6000610cae8686868686612c0a565b896000019073ffffffffffffffffffffffffffffffffffffffff16908173ffffffffffffffffffffffffffffffffffffffff1681525050610cf38a8a8a8a6001612261565b90509998505050505050505050565b610d0a612259565b73ffffffffffffffffffffffffffffffffffffffff16610d2861154a565b73ffffffffffffffffffffffffffffffffffffffff1614610d7e576040517f08c379a0000000000000000000000000000000000000000000000000000000008152600401610d7590613952565b60405180910390fd5b60006001549050670de0b6b3a76400008210610dcf576040517f08c379a0000000000000000000000000000000000000000000000000000000008152600401610dc690613c52565b60405180910390fd5b816001819055507f5fc463da23c1b063e66f9e352006a7fbe8db7223c455dc429e881a2dfe2f94f18183604051610e07929190613c72565b60405180910390a15050565b610e1b612259565b73ffffffffffffffffffffffffffffffffffffffff16610e3961154a565b73ffffffffffffffffffffffffffffffffffffffff1614610e8f576040517f08c379a0000000000000000000000000000000000000000000000000000000008152600401610e8690613952565b60405180910390fd5b610e996000612cf9565b565b610ea3612259565b73ffffffffffffffffffffffffffffffffffffffff16610ec161154a565b73ffffffffffffffffffffffffffffffffffffffff1614610f17576040517f08c379a0000000000000000000000000000000000000000000000000000000008152600401610f0e90613952565b60405180910390fd5b8160086000600460009054906101000a900473ffffffffffffffffffffffffffffffffffffffff1673ffffffffffffffffffffffffffffffffffffffff1673ffffffffffffffffffffffffffffffffffffffff1681526020019081526020016000205447610f859190613a0d565b1015610fc6576040517f08c379a0000000000000000000000000000000000000000000000000000000008152600401610fbd90613ce7565b60405180910390fd5b60008173ffffffffffffffffffffffffffffffffffffffff1683604051610fec90613d38565b60006040518083038185875af1925050503d8060008114611029576040519150601f19603f3d011682016040523d82523d6000602084013e61102e565b606091505b5050905080611072576040517f08c379a000000000000000000000000000000000000000000000000000000000815260040161106990613d99565b60405180910390fd5b7f87044da2612407bc001bb0985725dcc651a0dc71eaabfd1d7e8617ca85a8c19c600460009054906101000a900473ffffffffffffffffffffffffffffffffffffffff1684846040516110c793929190613db9565b60405180910390a1505050565b6000600154670de0b6b3a76400006110ec9190613a0d565b670de0b6b3a7640000836111009190613a75565b61110a9190613afe565b9050919050565b600460009054906101000a900473ffffffffffffffffffffffffffffffffffffffff1681565b82336007600083815260200190815260200160002060008273ffffffffffffffffffffffffffffffffffffffff1673ffffffffffffffffffffffffffffffffffffffff16815260200190815260200160002060009054906101000a900460ff166111d6576040517f08c379a00000000000000000000000000000000000000000000000000000000081526004016111cd90613e3c565b60405180910390fd5b60006006600087815260200190815260200160002060008673ffffffffffffffffffffffffffffffffffffffff1673ffffffffffffffffffffffffffffffffffffffff168152602001908152602001600020600001541461126c576040517f08c379a000000000000000000000000000000000000000000000000000000000815260040161126390613ea8565b60405180910390fd5b61127583612dbd565b6005600086815260200190815260200160002060000160009054906101000a900473ffffffffffffffffffffffffffffffffffffffff1673ffffffffffffffffffffffffffffffffffffffff166323b872dd333086600001516040518463ffffffff1660e01b81526004016112ec93929190613ec8565b6020604051808303816000875af115801561130b573d6000803e3d6000fd5b505050506040513d601f19601f8201168201806040525081019061132f9190613f14565b61136e576040517f08c379a000000000000000000000000000000000000000000000000000000000815260040161136590613f8d565b60405180910390fd5b826006600087815260200190815260200160002060008673ffffffffffffffffffffffffffffffffffffffff1673ffffffffffffffffffffffffffffffffffffffff168152602001908152602001600020600082015181600001556020820151816001015560408201518160020160006101000a8154816fffffffffffffffffffffffffffffffff02191690836fffffffffffffffffffffffffffffffff16021790555060608201518160020160106101000a8154816fffffffffffffffffffffffffffffffff02191690836fffffffffffffffffffffffffffffffff1602179055509050508260000151600860006005600089815260200190815260200160002060000160009054906101000a900473ffffffffffffffffffffffffffffffffffffffff1673ffffffffffffffffffffffffffffffffffffffff1673ffffffffffffffffffffffffffffffffffffffff16815260200190815260200160002060008282546114dd9190613fad565b925050819055508373ffffffffffffffffffffffffffffffffffffffff16857f236863ed9b5b67391d1853c2b5e55b684b717ef915bbb6d230a449be56125e0e85600001518660400151876060015160405161153b93929190614012565b60405180910390a35050505050565b60008060009054906101000a900473ffffffffffffffffffffffffffffffffffffffff16905090565b61157b612259565b73ffffffffffffffffffffffffffffffffffffffff1661159961154a565b73ffffffffffffffffffffffffffffffffffffffff16146115ef576040517f08c379a00000000000000000000000000000000000000000000000000000000081526004016115e690613952565b60405180910390fd5b81600860008573ffffffffffffffffffffffffffffffffffffffff1673ffffffffffffffffffffffffffffffffffffffff168152602001908152602001600020548473ffffffffffffffffffffffffffffffffffffffff166370a08231306040518263ffffffff1660e01b815260040161166991906136e2565b602060405180830381865afa158015611686573d6000803e3d6000fd5b505050506040513d601f19601f820116820180604052508101906116aa9190613b44565b6116b49190613a0d565b10156116f5576040517f08c379a00000000000000000000000000000000000000000000000000000000081526004016116ec90613ce7565b60405180910390fd5b8273ffffffffffffffffffffffffffffffffffffffff1663a9059cbb82846040518363ffffffff1660e01b8152600401611730929190614049565b6020604051808303816000875af115801561174f573d6000803e3d6000fd5b505050506040513d601f19601f820116820180604052508101906117739190613f14565b507f87044da2612407bc001bb0985725dcc651a0dc71eaabfd1d7e8617ca85a8c19c8383836040516117a793929190613db9565b60405180910390a1505050565b6000670de0b6b3a7640000600154670de0b6b3a76400006117d59190613a0d565b836117e09190613a75565b6117ea9190613afe565b9050919050565b6000600860008373ffffffffffffffffffffffffffffffffffffffff1673ffffffffffffffffffffffffffffffffffffffff168152602001908152602001600020549050919050565b611842612f99565b6000821161184f57600080fd5b60025482111561185e57600080fd5b600560008381526020019081526020016000206040518060400160405290816000820160009054906101000a900473ffffffffffffffffffffffffffffffffffffffff1673ffffffffffffffffffffffffffffffffffffffff1673ffffffffffffffffffffffffffffffffffffffff1681526020016001820160009054906101000a900473ffffffffffffffffffffffffffffffffffffffff1673ffffffffffffffffffffffffffffffffffffffff1673ffffffffffffffffffffffffffffffffffffffff16815250509050919050565b6000806006600085815260200190815260200160002060008473ffffffffffffffffffffffffffffffffffffffff1673ffffffffffffffffffffffffffffffffffffffff16815260200190815260200160002060405180608001604052908160008201548152602001600182015481526020016002820160009054906101000a90046fffffffffffffffffffffffffffffffff166fffffffffffffffffffffffffffffffff166fffffffffffffffffffffffffffffffff1681526020016002820160109054906101000a90046fffffffffffffffffffffffffffffffff166fffffffffffffffffffffffffffffffff166fffffffffffffffffffffffffffffffff1681525050905080606001516fffffffffffffffffffffffffffffffff164210611a61578060000151915050611afe565b600081604001516fffffffffffffffffffffffffffffffff1642611a859190613a0d565b9050600082604001518360600151611a9d9190613a41565b6fffffffffffffffffffffffffffffffff1690506000670de0b6b3a764000082611ac79190613a75565b670de0b6b3a7640000848660000151611ae09190613a75565b611aea9190613a75565b611af49190613afe565b9050809450505050505b92915050565b6000611b14858585856000612261565b9050949350505050565b82336007600083815260200190815260200160002060008273ffffffffffffffffffffffffffffffffffffffff1673ffffffffffffffffffffffffffffffffffffffff16815260200190815260200160002060009054906101000a900460ff16611bbd576040517f08c379a0000000000000000000000000000000000000000000000000000000008152600401611bb490613e3c565b60405180910390fd5b826007600087815260200190815260200160002060008673ffffffffffffffffffffffffffffffffffffffff1673ffffffffffffffffffffffffffffffffffffffff16815260200190815260200160002060006101000a81548160ff021916908315150217905550847f3f82e6ad49df50c375ed08891b7f6c57d8827a148033a02f32ca1ae3aa265a428585604051611c57929190614072565b60405180910390a25050505050565b60015481565b600360009054906101000a900473ffffffffffffffffffffffffffffffffffffffff1681565b60025481565b81336007600083815260200190815260200160002060008273ffffffffffffffffffffffffffffffffffffffff1673ffffffffffffffffffffffffffffffffffffffff16815260200190815260200160002060009054906101000a900460ff16611d37576040517f08c379a0000000000000000000000000000000000000000000000000000000008152600401611d2e90613e3c565b60405180910390fd5b60006006600086815260200190815260200160002060008573ffffffffffffffffffffffffffffffffffffffff1673ffffffffffffffffffffffffffffffffffffffff16815260200190815260200160002060405180608001604052908160008201548152602001600182015481526020016002820160009054906101000a90046fffffffffffffffffffffffffffffffff166fffffffffffffffffffffffffffffffff166fffffffffffffffffffffffffffffffff1681526020016002820160109054906101000a90046fffffffffffffffffffffffffffffffff166fffffffffffffffffffffffffffffffff166fffffffffffffffffffffffffffffffff168152505090506000600560008781526020019081526020016000206040518060400160405290816000820160009054906101000a900473ffffffffffffffffffffffffffffffffffffffff1673ffffffffffffffffffffffffffffffffffffffff1673ffffffffffffffffffffffffffffffffffffffff1681526020016001820160009054906101000a900473ffffffffffffffffffffffffffffffffffffffff1673ffffffffffffffffffffffffffffffffffffffff1673ffffffffffffffffffffffffffffffffffffffff168152505090504282606001516fffffffffffffffffffffffffffffffff1611611f64576040517f08c379a0000000000000000000000000000000000000000000000000000000008152600401611f5b906140e7565b60405180910390fd5b600082600001519050611f77878761192f565b8360000181815250504283606001906fffffffffffffffffffffffffffffffff1690816fffffffffffffffffffffffffffffffff16815250506000836000015182611fc29190613a0d565b90506000611fd4846000015183612ecd565b90508060086000866000015173ffffffffffffffffffffffffffffffffffffffff1673ffffffffffffffffffffffffffffffffffffffff16815260200190815260200160002060008282546120299190613a0d565b92505081905550836000015173ffffffffffffffffffffffffffffffffffffffff1663a9059cbb8560200151836040518363ffffffff1660e01b8152600401612073929190614049565b6020604051808303816000875af1158015612092573d6000803e3d6000fd5b505050506040513d601f19601f820116820180604052508101906120b69190613f14565b6120f5576040517f08c379a00000000000000000000000000000000000000000000000000000000081526004016120ec90614153565b60405180910390fd5b8773ffffffffffffffffffffffffffffffffffffffff16897fad772910df1874c8842aff0676e9915104973cf4a210c66a8149079c1851e3cd876000015185604051612142929190613c72565b60405180910390a3505050505050505050565b670de0b6b3a764000081565b612169612259565b73ffffffffffffffffffffffffffffffffffffffff1661218761154a565b73ffffffffffffffffffffffffffffffffffffffff16146121dd576040517f08c379a00000000000000000000000000000000000000000000000000000000081526004016121d490613952565b60405180910390fd5b600073ffffffffffffffffffffffffffffffffffffffff168173ffffffffffffffffffffffffffffffffffffffff16141561224d576040517f08c379a0000000000000000000000000000000000000000000000000000000008152600401612244906141e5565b60405180910390fd5b61225681612cf9565b50565b600033905090565b60008086116122a5576040517f08c379a000000000000000000000000000000000000000000000000000000000815260040161229c90614251565b60405180910390fd5b60008380602001906122b79190614280565b9050116122f9576040517f08c379a00000000000000000000000000000000000000000000000000000000081526004016122f09061432f565b60405180910390fd5b835183806020019061230b9190614280565b90501461234d576040517f08c379a00000000000000000000000000000000000000000000000000000000081526004016123449061439b565b60405180910390fd5b600460009054906101000a900473ffffffffffffffffffffffffffffffffffffffff1673ffffffffffffffffffffffffffffffffffffffff16856000015173ffffffffffffffffffffffffffffffffffffffff1614156123eb57853410156123ea576040517f08c379a00000000000000000000000000000000000000000000000000000000081526004016123e190614407565b60405180910390fd5b5b6000805b85518110156124375785818151811061240b5761240a614427565b5b602002602001015160000151826124229190613fad565b9150808061242f90614456565b9150506123ef565b5086811461247a576040517f08c379a0000000000000000000000000000000000000000000000000000000008152600401612471906144eb565b60405180910390fd5b600460009054906101000a900473ffffffffffffffffffffffffffffffffffffffff1673ffffffffffffffffffffffffffffffffffffffff16866000015173ffffffffffffffffffffffffffffffffffffffff16141580156124da575082155b156125a357856000015173ffffffffffffffffffffffffffffffffffffffff166323b872dd33308a6040518463ffffffff1660e01b815260040161252093929190613ec8565b6020604051808303816000875af115801561253f573d6000803e3d6000fd5b505050506040513d601f19601f820116820180604052508101906125639190613f14565b6125a2576040517f08c379a000000000000000000000000000000000000000000000000000000000815260040161259990613f8d565b60405180910390fd5b5b600260008154809291906125b690614456565b91905055508560056000600254815260200190815260200160002060008201518160000160006101000a81548173ffffffffffffffffffffffffffffffffffffffff021916908373ffffffffffffffffffffffffffffffffffffffff16021790555060208201518160010160006101000a81548173ffffffffffffffffffffffffffffffffffffffff021916908373ffffffffffffffffffffffffffffffffffffffff16021790555090505060005b85518110156127db5761269186828151811061268457612683614427565b5b6020026020010151612dbd565b8581815181106126a4576126a3614427565b5b602002602001015160066000600254815260200190815260200160002060008780602001906126d39190614280565b858181106126e4576126e3614427565b5b90506020020160208101906126f991906134c3565b73ffffffffffffffffffffffffffffffffffffffff1673ffffffffffffffffffffffffffffffffffffffff168152602001908152602001600020600082015181600001556020820151816001015560408201518160020160006101000a8154816fffffffffffffffffffffffffffffffff02191690836fffffffffffffffffffffffffffffffff16021790555060608201518160020160106101000a8154816fffffffffffffffffffffffffffffffff02191690836fffffffffffffffffffffffffffffffff16021790555090505080806127d390614456565b915050612665565b5060005b855181101561289b57600160076000600254815260200190815260200160002060008780600001906128119190614280565b8581811061282257612821614427565b5b905060200201602081019061283791906134c3565b73ffffffffffffffffffffffffffffffffffffffff1673ffffffffffffffffffffffffffffffffffffffff16815260200190815260200160002060006101000a81548160ff021916908315150217905550808061289390614456565b9150506127df565b508660086000886000015173ffffffffffffffffffffffffffffffffffffffff1673ffffffffffffffffffffffffffffffffffffffff16815260200190815260200160002060008282546128ef9190613fad565b92505081905550856000015173ffffffffffffffffffffffffffffffffffffffff166002547f09f269811cffd09fb630ee319c1b845625b319c2446953fc766a761a64c47bc4338a604051612945929190614049565b60405180910390a3600191505095945050505050565b6000806000905060006005600086815260200190815260200160002060000160009054906101000a900473ffffffffffffffffffffffffffffffffffffffff16905060006129a8856110d4565b90506129b48282612ecd565b5084600860008473ffffffffffffffffffffffffffffffffffffffff1673ffffffffffffffffffffffffffffffffffffffff1681526020019081526020016000206000828254612a049190613a0d565b92505081905550806006600088815260200190815260200160002060003373ffffffffffffffffffffffffffffffffffffffff1673ffffffffffffffffffffffffffffffffffffffff1681526020019081526020016000206001016000828254612a6e9190613fad565b92505081905550600460009054906101000a900473ffffffffffffffffffffffffffffffffffffffff1673ffffffffffffffffffffffffffffffffffffffff168273ffffffffffffffffffffffffffffffffffffffff161415612b3c573373ffffffffffffffffffffffffffffffffffffffff1685604051612aef90613d38565b60006040518083038185875af1925050503d8060008114612b2c576040519150601f19603f3d011682016040523d82523d6000602084013e612b31565b606091505b505080935050612bbd565b8173ffffffffffffffffffffffffffffffffffffffff1663a9059cbb33876040518363ffffffff1660e01b8152600401612b77929190614049565b6020604051808303816000875af1158015612b96573d6000803e3d6000fd5b505050506040513d601f19601f82011682018060405250810190612bba9190613f14565b92505b82612bfd576040517f08c379a0000000000000000000000000000000000000000000000000000000008152600401612bf490614557565b60405180910390fd5b6001935050505092915050565b600080600360009054906101000a900473ffffffffffffffffffffffffffffffffffffffff1673ffffffffffffffffffffffffffffffffffffffff166372e4352d88888888886040518663ffffffff1660e01b8152600401612c709594939291906145b3565b6020604051808303816000875af1158015612c8f573d6000803e3d6000fd5b505050506040513d601f19601f82011682018060405250810190612cb39190614611565b90507f41039c8b82bb5a365f56b4f9d87cee99e069b450bfdc3d87696fcd87783f24c181604051612ce491906136e2565b60405180910390a18091505095945050505050565b60008060009054906101000a900473ffffffffffffffffffffffffffffffffffffffff169050816000806101000a81548173ffffffffffffffffffffffffffffffffffffffff021916908373ffffffffffffffffffffffffffffffffffffffff1602179055508173ffffffffffffffffffffffffffffffffffffffff168173ffffffffffffffffffffffffffffffffffffffff167f8be0079c531659141344cd1fd0a4f28419497f9722a3daafe3b4186f6b6457e060405160405180910390a35050565b80606001516fffffffffffffffffffffffffffffffff1681604001516fffffffffffffffffffffffffffffffff1610612e2b576040517f08c379a0000000000000000000000000000000000000000000000000000000008152600401612e229061468a565b60405180910390fd5b4281606001516fffffffffffffffffffffffffffffffff1611612e83576040517f08c379a0000000000000000000000000000000000000000000000000000000008152600401612e7a906146f6565b60405180910390fd5b6000816000015111612eca576040517f08c379a0000000000000000000000000000000000000000000000000000000008152600401612ec190614251565b60405180910390fd5b50565b6000806001541415612ee157819050612f93565b6000612eec836117b4565b905060008184612efc9190613a0d565b905080600860008773ffffffffffffffffffffffffffffffffffffffff1673ffffffffffffffffffffffffffffffffffffffff1681526020019081526020016000206000828254612f4d9190613a0d565b925050819055507fb45e9da67b01ce03fb67208335da576c75af6443e886268b76b79afb01349a558582604051612f85929190614049565b60405180910390a181925050505b92915050565b6040518060400160405280600073ffffffffffffffffffffffffffffffffffffffff168152602001600073ffffffffffffffffffffffffffffffffffffffff1681525090565b6000604051905090565b600080fd5b600080fd5b600073ffffffffffffffffffffffffffffffffffffffff82169050919050565b600061301e82612ff3565b9050919050565b600061303082613013565b9050919050565b61304081613025565b811461304b57600080fd5b50565b60008135905061305d81613037565b92915050565b60006020828403121561307957613078612fe9565b5b60006130878482850161304e565b91505092915050565b6000819050919050565b6130a381613090565b81146130ae57600080fd5b50565b6000813590506130c08161309a565b92915050565b6130cf81613013565b81146130da57600080fd5b50565b6000813590506130ec816130c6565b92915050565b6000806040838503121561310957613108612fe9565b5b6000613117858286016130b1565b9250506020613128858286016130dd565b9150509250929050565b61313b81613090565b82525050565b60006020820190506131566000830184613132565b92915050565b600080fd5b6000601f19601f8301169050919050565b7f4e487b7100000000000000000000000000000000000000000000000000000000600052604160045260246000fd5b6131aa82613161565b810181811067ffffffffffffffff821117156131c9576131c8613172565b5b80604052505050565b60006131dc612fdf565b90506131e882826131a1565b919050565b6000604082840312156132035761320261315c565b5b61320d60406131d2565b9050600061321d848285016130dd565b6000830152506020613231848285016130dd565b60208301525092915050565b600080fd5b600067ffffffffffffffff82111561325d5761325c613172565b5b602082029050602081019050919050565b600080fd5b60006fffffffffffffffffffffffffffffffff82169050919050565b61329881613273565b81146132a357600080fd5b50565b6000813590506132b58161328f565b92915050565b6000608082840312156132d1576132d061315c565b5b6132db60806131d2565b905060006132eb848285016130b1565b60008301525060206132ff848285016130b1565b6020830152506040613313848285016132a6565b6040830152506060613327848285016132a6565b60608301525092915050565b600061334661334184613242565b6131d2565b905080838252602082019050608084028301858111156133695761336861326e565b5b835b81811015613392578061337e88826132bb565b84526020840193505060808101905061336b565b5050509392505050565b600082601f8301126133b1576133b061323d565b5b81356133c1848260208601613333565b91505092915050565b600080fd5b6000604082840312156133e5576133e46133ca565b5b81905092915050565b60008060008060a0858703121561340857613407612fe9565b5b6000613416878288016130b1565b9450506020613427878288016131ed565b935050606085013567ffffffffffffffff81111561344857613447612fee565b5b6134548782880161339c565b925050608085013567ffffffffffffffff81111561347557613474612fee565b5b613481878288016133cf565b91505092959194509250565b60008115159050919050565b6134a28161348d565b82525050565b60006020820190506134bd6000830184613499565b92915050565b6000602082840312156134d9576134d8612fe9565b5b60006134e7848285016130dd565b91505092915050565b6000806040838503121561350757613506612fe9565b5b6000613515858286016130b1565b9250506020613526858286016130b1565b9150509250929050565b600080fd5b60008083601f84011261354b5761354a61323d565b5b8235905067ffffffffffffffff81111561356857613567613530565b5b6020830191508360018202830111156135845761358361326e565b5b9250929050565b60008060008060008060008060006101008a8c0312156135ae576135ad612fe9565b5b60006135bc8c828d016130b1565b99505060206135cd8c828d016131ed565b98505060608a013567ffffffffffffffff8111156135ee576135ed612fee565b5b6135fa8c828d0161339c565b97505060808a013567ffffffffffffffff81111561361b5761361a612fee565b5b6136278c828d016133cf565b96505060a08a013567ffffffffffffffff81111561364857613647612fee565b5b6136548c828d01613535565b955095505060c08a013567ffffffffffffffff81111561367757613676612fee565b5b6136838c828d01613535565b935093505060e06136968c828d016130b1565b9150509295985092959850929598565b6000602082840312156136bc576136bb612fe9565b5b60006136ca848285016130b1565b91505092915050565b6136dc81613013565b82525050565b60006020820190506136f760008301846136d3565b92915050565b600080600060c0848603121561371657613715612fe9565b5b6000613724868287016130b1565b9350506020613735868287016130dd565b9250506040613746868287016132bb565b9150509250925092565b60008060006060848603121561376957613768612fe9565b5b6000613777868287016130dd565b9350506020613788868287016130b1565b9250506040613799868287016130dd565b9150509250925092565b6137ac81613013565b82525050565b6040820160008201516137c860008501826137a3565b5060208201516137db60208501826137a3565b50505050565b60006040820190506137f660008301846137b2565b92915050565b6138058161348d565b811461381057600080fd5b50565b600081359050613822816137fc565b92915050565b60008060006060848603121561384157613840612fe9565b5b600061384f868287016130b1565b9350506020613860868287016130dd565b925050604061387186828701613813565b9150509250925092565b6000819050919050565b60006138a061389b61389684612ff3565b61387b565b612ff3565b9050919050565b60006138b282613885565b9050919050565b60006138c4826138a7565b9050919050565b6138d4816138b9565b82525050565b60006020820190506138ef60008301846138cb565b92915050565b600082825260208201905092915050565b7f4f776e61626c653a2063616c6c6572206973206e6f7420746865206f776e6572600082015250565b600061393c6020836138f5565b915061394782613906565b602082019050919050565b6000602082019050818103600083015261396b8161392f565b9050919050565b7f564553543a20464143544f5259204e4f54205a45524f20414444524553530000600082015250565b60006139a8601e836138f5565b91506139b382613972565b602082019050919050565b600060208201905081810360008301526139d78161399b565b9050919050565b7f4e487b7100000000000000000000000000000000000000000000000000000000600052601160045260246000fd5b6000613a1882613090565b9150613a2383613090565b925082821015613a3657613a356139de565b5b828203905092915050565b6000613a4c82613273565b9150613a5783613273565b925082821015613a6a57613a696139de565b5b828203905092915050565b6000613a8082613090565b9150613a8b83613090565b9250817fffffffffffffffffffffffffffffffffffffffffffffffffffffffffffffffff0483118215151615613ac457613ac36139de565b5b828202905092915050565b7f4e487b7100000000000000000000000000000000000000000000000000000000600052601260045260246000fd5b6000613b0982613090565b9150613b1483613090565b925082613b2457613b23613acf565b5b828204905092915050565b600081519050613b3e8161309a565b92915050565b600060208284031215613b5a57613b59612fe9565b5b6000613b6884828501613b2f565b91505092915050565b7f564553543a204e4f5420454e4f55474820564553544544000000000000000000600082015250565b6000613ba76017836138f5565b9150613bb282613b71565b602082019050919050565b60006020820190508181036000830152613bd681613b9a565b9050919050565b6000604082019050613bf26000830185613132565b613bff60208301846136d3565b9392505050565b7f564553543a20464545204d555354204245203c20313030250000000000000000600082015250565b6000613c3c6018836138f5565b9150613c4782613c06565b602082019050919050565b60006020820190508181036000830152613c6b81613c2f565b9050919050565b6000604082019050613c876000830185613132565b613c946020830184613132565b9392505050565b7f564553543a20414d4f554e5420544f4f20484947480000000000000000000000600082015250565b6000613cd16015836138f5565b9150613cdc82613c9b565b602082019050919050565b60006020820190508181036000830152613d0081613cc4565b9050919050565b600081905092915050565b50565b6000613d22600083613d07565b9150613d2d82613d12565b600082019050919050565b6000613d4382613d15565b9150819050919050565b7f564553543a20455448205452414e53464552204641494c454400000000000000600082015250565b6000613d836019836138f5565b9150613d8e82613d4d565b602082019050919050565b60006020820190508181036000830152613db281613d76565b9050919050565b6000606082019050613dce60008301866136d3565b613ddb6020830185613132565b613de860408301846136d3565b949350505050565b7f564553543a204e4f542056424f582041444d494e000000000000000000000000600082015250565b6000613e266014836138f5565b9150613e3182613df0565b602082019050919050565b60006020820190508181036000830152613e5581613e19565b9050919050565b7f564553543a204143434f554e5420414c524541445920494e20424f5800000000600082015250565b6000613e92601c836138f5565b9150613e9d82613e5c565b602082019050919050565b60006020820190508181036000830152613ec181613e85565b9050919050565b6000606082019050613edd60008301866136d3565b613eea60208301856136d3565b613ef76040830184613132565b949350505050565b600081519050613f0e816137fc565b92915050565b600060208284031215613f2a57613f29612fe9565b5b6000613f3884828501613eff565b91505092915050565b7f564553543a20544f4b454e205452414e53464552204641494c45440000000000600082015250565b6000613f77601b836138f5565b9150613f8282613f41565b602082019050919050565b60006020820190508181036000830152613fa681613f6a565b9050919050565b6000613fb882613090565b9150613fc383613090565b9250827fffffffffffffffffffffffffffffffffffffffffffffffffffffffffffffffff03821115613ff857613ff76139de565b5b828201905092915050565b61400c81613273565b82525050565b60006060820190506140276000830186613132565b6140346020830185614003565b6140416040830184614003565b949350505050565b600060408201905061405e60008301856136d3565b61406b6020830184613132565b9392505050565b600060408201905061408760008301856136d3565b6140946020830184613499565b9392505050565b7f564553543a20414c52454144592046554c4c5920564553544544000000000000600082015250565b60006140d1601a836138f5565b91506140dc8261409b565b602082019050919050565b60006020820190508181036000830152614100816140c4565b9050919050565b7f564553543a20464f524645495420544f4b454e53204641494c45440000000000600082015250565b600061413d601b836138f5565b915061414882614107565b602082019050919050565b6000602082019050818103600083015261416c81614130565b9050919050565b7f4f776e61626c653a206e6577206f776e657220697320746865207a65726f206160008201527f6464726573730000000000000000000000000000000000000000000000000000602082015250565b60006141cf6026836138f5565b91506141da82614173565b604082019050919050565b600060208201905081810360008301526141fe816141c2565b9050919050565b7f564553543a2043414e4e4f542056455354203020414d4f554e54000000000000600082015250565b600061423b601a836138f5565b915061424682614205565b602082019050919050565b6000602082019050818103600083015261426a8161422e565b9050919050565b600080fd5b600080fd5b600080fd5b6000808335600160200384360303811261429d5761429c614271565b5b80840192508235915067ffffffffffffffff8211156142bf576142be614276565b5b6020830192506020820236038313156142db576142da61427b565b5b509250929050565b7f564553543a204e4f20524543495049454e545300000000000000000000000000600082015250565b60006143196013836138f5565b9150614324826142e3565b602082019050919050565b600060208201905081810360008301526143488161430c565b9050919050565b7f564553543a2057524f4e47204143434f554e5453204152524159204c454e0000600082015250565b6000614385601e836138f5565b91506143908261434f565b602082019050919050565b600060208201905081810360008301526143b481614378565b9050919050565b7f564553543a2045544820414d4f554e5420544f4f204c4f570000000000000000600082015250565b60006143f16018836138f5565b91506143fc826143bb565b602082019050919050565b60006020820190508181036000830152614420816143e4565b9050919050565b7f4e487b7100000000000000000000000000000000000000000000000000000000600052603260045260246000fd5b600061446182613090565b91507fffffffffffffffffffffffffffffffffffffffffffffffffffffffffffffffff821415614494576144936139de565b5b600182019050919050565b7f564553543a20414d4f554e545320444f4e542053554d20544f20544f54414c00600082015250565b60006144d5601f836138f5565b91506144e08261449f565b602082019050919050565b60006020820190508181036000830152614504816144c8565b9050919050565b7f564553543a205749544844524157204641494c45440000000000000000000000600082015250565b60006145416015836138f5565b915061454c8261450b565b602082019050919050565b6000602082019050818103600083015261457081614534565b9050919050565b82818337600083830152505050565b600061459283856138f5565b935061459f838584614577565b6145a883613161565b840190509392505050565b600060608201905081810360008301526145ce818789614586565b905081810360208301526145e3818587614586565b90506145f26040830184613132565b9695505050505050565b60008151905061460b816130c6565b92915050565b60006020828403121561462757614626612fe9565b5b6000614635848285016145fc565b91505092915050565b7f564553543a2053544152542054494d4520414654455220454e442054494d4500600082015250565b6000614674601f836138f5565b915061467f8261463e565b602082019050919050565b600060208201905081810360008301526146a381614667565b9050919050565b7f564553543a20454e442054494d4520494e205448452050415354000000000000600082015250565b60006146e0601a836138f5565b91506146eb826146aa565b602082019050919050565b6000602082019050818103600083015261470f816146d3565b905091905056fea2646970667358221220f7ba0bae3a49af9e5f2779333a081a5ff79195c3944a157221223a468ffc7ab464736f6c634300080a0033",
  "linkReferences": {},
  "deployedLinkReferences": {}
}