{
  "_format": "hh-sol-artifact-1",
  "contractName": "VestCore",
  "sourceName": "contracts/VestCore.sol",
  "abi": [
    {
      "inputs": [],
      "stateMutability": "nonpayable",
      "type": "constructor"
    },
    {
      "anonymous": false,
      "inputs": [
        {
          "indexed": true,
          "internalType": "address",
          "name": "previousOwner",
          "type": "address"
        },
        {
          "indexed": true,
          "internalType": "address",
          "name": "newOwner",
          "type": "address"
        }
      ],
      "name": "OwnershipTransferred",
      "type": "event"
    },
    {
      "anonymous": false,
      "inputs": [
        {
          "indexed": false,
          "internalType": "uint256",
          "name": "vBoxID",
          "type": "uint256"
        },
        {
          "indexed": false,
          "internalType": "address",
          "name": "token",
          "type": "address"
        },
        {
          "indexed": false,
          "internalType": "address",
          "name": "creator",
          "type": "address"
        }
      ],
      "name": "VestingBoxCreated",
      "type": "event"
    },
    {
      "inputs": [],
      "name": "ETH",
      "outputs": [
        {
          "internalType": "address",
          "name": "",
          "type": "address"
        }
      ],
      "stateMutability": "view",
      "type": "function"
    },
    {
      "inputs": [],
      "name": "SCALE",
      "outputs": [
        {
          "internalType": "uint256",
          "name": "",
          "type": "uint256"
        }
      ],
      "stateMutability": "view",
      "type": "function"
    },
    {
      "inputs": [
        {
          "internalType": "uint256",
          "name": "_vBoxId",
          "type": "uint256"
        },
        {
          "internalType": "uint256",
          "name": "_amountToClaim",
          "type": "uint256"
        }
      ],
      "name": "claimVestedTokens",
      "outputs": [
        {
          "internalType": "bool",
          "name": "success",
          "type": "bool"
        }
      ],
      "stateMutability": "nonpayable",
      "type": "function"
    },
    {
      "inputs": [
        {
          "internalType": "uint256",
          "name": "_totalAmount",
          "type": "uint256"
        },
        {
          "components": [
            {
              "internalType": "address",
              "name": "token",
              "type": "address"
            },
            {
              "internalType": "address[]",
              "name": "admins",
              "type": "address[]"
            },
            {
              "internalType": "address[]",
              "name": "recipients",
              "type": "address[]"
            }
          ],
          "internalType": "struct VestCore.VestingBox",
          "name": "_vBox",
          "type": "tuple"
        },
        {
          "components": [
            {
              "internalType": "uint256",
              "name": "amount",
              "type": "uint256"
            },
            {
              "internalType": "uint256",
              "name": "withdrawn",
              "type": "uint256"
            },
            {
              "internalType": "uint128",
              "name": "startTime",
              "type": "uint128"
            },
            {
              "internalType": "uint128",
              "name": "endTime",
              "type": "uint128"
            }
          ],
          "internalType": "struct VestCore.VestingBoxAccount[]",
          "name": "_vBoxAccounts",
          "type": "tuple[]"
        }
      ],
      "name": "createVestingBoxWithExistingToken",
      "outputs": [
        {
          "internalType": "bool",
          "name": "success",
          "type": "bool"
        }
      ],
      "stateMutability": "nonpayable",
      "type": "function"
    },
    {
      "inputs": [],
      "name": "fee",
      "outputs": [
        {
          "internalType": "uint256",
          "name": "",
          "type": "uint256"
        }
      ],
      "stateMutability": "view",
      "type": "function"
    },
    {
      "inputs": [
        {
          "internalType": "address",
          "name": "_token",
          "type": "address"
        }
      ],
      "name": "getAssetHeldForVesting",
      "outputs": [
        {
          "internalType": "uint256",
          "name": "",
          "type": "uint256"
        }
      ],
      "stateMutability": "view",
      "type": "function"
    },
    {
      "inputs": [
        {
          "internalType": "address",
          "name": "_token",
          "type": "address"
        }
      ],
      "name": "getProtocolFeesEarned",
      "outputs": [
        {
          "internalType": "uint256",
          "name": "",
          "type": "uint256"
        }
      ],
      "stateMutability": "view",
      "type": "function"
    },
    {
      "inputs": [
        {
          "internalType": "uint256",
          "name": "_vestingBoxId",
          "type": "uint256"
        }
      ],
      "name": "getVestingBox",
      "outputs": [
        {
          "components": [
            {
              "internalType": "address",
              "name": "token",
              "type": "address"
            },
            {
              "internalType": "address[]",
              "name": "admins",
              "type": "address[]"
            },
            {
              "internalType": "address[]",
              "name": "recipients",
              "type": "address[]"
            }
          ],
          "internalType": "struct VestCore.VestingBox",
          "name": "vestingBox",
          "type": "tuple"
        }
      ],
      "stateMutability": "view",
      "type": "function"
    },
    {
      "inputs": [
        {
          "internalType": "uint256",
          "name": "_vBoxId",
          "type": "uint256"
        },
        {
          "internalType": "address",
          "name": "_account",
          "type": "address"
        }
      ],
      "name": "getWithdrawableAmount",
      "outputs": [
        {
          "internalType": "uint256",
          "name": "",
          "type": "uint256"
        }
      ],
      "stateMutability": "view",
      "type": "function"
    },
    {
      "inputs": [],
      "name": "owner",
      "outputs": [
        {
          "internalType": "address",
          "name": "",
          "type": "address"
        }
      ],
      "stateMutability": "view",
      "type": "function"
    },
    {
      "inputs": [],
      "name": "renounceOwnership",
      "outputs": [],
      "stateMutability": "nonpayable",
      "type": "function"
    },
    {
      "inputs": [
        {
          "internalType": "uint256",
          "name": "_fee",
          "type": "uint256"
        }
      ],
      "name": "setFee",
      "outputs": [],
      "stateMutability": "nonpayable",
      "type": "function"
    },
    {
      "inputs": [
        {
          "internalType": "address",
          "name": "newOwner",
          "type": "address"
        }
      ],
      "name": "transferOwnership",
      "outputs": [],
      "stateMutability": "nonpayable",
      "type": "function"
    },
    {
      "inputs": [],
      "name": "vBoxCount",
      "outputs": [
        {
          "internalType": "uint256",
          "name": "",
          "type": "uint256"
        }
      ],
      "stateMutability": "view",
      "type": "function"
    },
    {
      "inputs": [
        {
          "internalType": "uint256",
          "name": "_amount",
          "type": "uint256"
        },
        {
          "internalType": "address",
          "name": "_to",
          "type": "address"
        }
      ],
      "name": "withdrawETHFees",
      "outputs": [],
      "stateMutability": "nonpayable",
      "type": "function"
    },
    {
      "inputs": [
        {
          "internalType": "address",
          "name": "_token",
          "type": "address"
        },
        {
          "internalType": "uint256",
          "name": "_amount",
          "type": "uint256"
        },
        {
          "internalType": "address",
          "name": "_to",
          "type": "address"
        }
      ],
      "name": "withdrawTokenFees",
      "outputs": [],
      "stateMutability": "nonpayable",
      "type": "function"
    }
  ],
  "bytecode": "0x608060405266038d7ea4c68000600155600060025573eeeeeeeeeeeeeeeeeeeeeeeeeeeeeeeeeeeeeeee600360006101000a81548173ffffffffffffffffffffffffffffffffffffffff021916908373ffffffffffffffffffffffffffffffffffffffff1602179055503480156200007657600080fd5b50620000976200008b6200009d60201b60201c565b620000a560201b60201c565b62000169565b600033905090565b60008060009054906101000a900473ffffffffffffffffffffffffffffffffffffffff169050816000806101000a81548173ffffffffffffffffffffffffffffffffffffffff021916908373ffffffffffffffffffffffffffffffffffffffff1602179055508173ffffffffffffffffffffffffffffffffffffffff168173ffffffffffffffffffffffffffffffffffffffff167f8be0079c531659141344cd1fd0a4f28419497f9722a3daafe3b4186f6b6457e060405160405180910390a35050565b612e3e80620001796000396000f3fe608060405234801561001057600080fd5b50600436106101005760003560e01c80638da5cb5b11610097578063ddca3f4311610066578063ddca3f43146102bf578063e9b3663e146102dd578063eced5526146102fb578063f2fde38b1461031957610100565b80638da5cb5b1461022557806395be549814610243578063c65300061461025f578063c68482a71461028f57610100565b806369fe0e2d116100d357806369fe0e2d146101c5578063715018a6146101e157806371b4e6e7146101eb5780638322fff21461020757610100565b80633336289f14610105578063359cd45e146101355780634a918a0c146101655780635188723914610195575b600080fd5b61011f600480360381019061011a9190611a4c565b610335565b60405161012c9190611af7565b60405180910390f35b61014f600480360381019061014a9190611b70565b61034c565b60405161015c9190611bbf565b60405180910390f35b61017f600480360381019061017a9190611bda565b61071f565b60405161018c9190611bbf565b60405180910390f35b6101af60048036038101906101aa9190611c07565b6108b7565b6040516101bc9190611af7565b60405180910390f35b6101df60048036038101906101da9190611c47565b61091f565b005b6101e96109f0565b005b61020560048036038101906102009190611b70565b610a78565b005b61020f610c54565b60405161021c9190611c83565b60405180910390f35b61022d610c7a565b60405161023a9190611c83565b60405180910390f35b61025d60048036038101906102589190611c9e565b610ca3565b005b61027960048036038101906102749190611bda565b610ea9565b6040516102869190611bbf565b60405180910390f35b6102a960048036038101906102a49190611c47565b610ef2565b6040516102b69190611e06565b60405180910390f35b6102c76110ad565b6040516102d49190611bbf565b60405180910390f35b6102e56110b3565b6040516102f29190611bbf565b60405180910390f35b6103036110b9565b6040516103109190611bbf565b60405180910390f35b610333600480360381019061032e9190611bda565b6110c5565b005b6000610343858585856111bd565b50949350505050565b60006005600084815260200190815260200160002060008373ffffffffffffffffffffffffffffffffffffffff1673ffffffffffffffffffffffffffffffffffffffff16815260200190815260200160002060020160109054906101000a90046fffffffffffffffffffffffffffffffff166fffffffffffffffffffffffffffffffff16421061048f576005600084815260200190815260200160002060008373ffffffffffffffffffffffffffffffffffffffff1673ffffffffffffffffffffffffffffffffffffffff168152602001908152602001600020600101546005600085815260200190815260200160002060008473ffffffffffffffffffffffffffffffffffffffff1673ffffffffffffffffffffffffffffffffffffffff168152602001908152602001600020600001546104889190611e57565b9050610719565b60006005600085815260200190815260200160002060008473ffffffffffffffffffffffffffffffffffffffff1673ffffffffffffffffffffffffffffffffffffffff16815260200190815260200160002060020160009054906101000a90046fffffffffffffffffffffffffffffffff166fffffffffffffffffffffffffffffffff164261051e9190611e57565b905060006005600086815260200190815260200160002060008573ffffffffffffffffffffffffffffffffffffffff1673ffffffffffffffffffffffffffffffffffffffff16815260200190815260200160002060020160009054906101000a90046fffffffffffffffffffffffffffffffff166005600087815260200190815260200160002060008673ffffffffffffffffffffffffffffffffffffffff1673ffffffffffffffffffffffffffffffffffffffff16815260200190815260200160002060020160109054906101000a90046fffffffffffffffffffffffffffffffff1661060c9190611ea7565b6fffffffffffffffffffffffffffffffff1690506000670de0b6b3a7640000826106369190611edb565b670de0b6b3a764000084600560008a815260200190815260200160002060008973ffffffffffffffffffffffffffffffffffffffff1673ffffffffffffffffffffffffffffffffffffffff1681526020019081526020016000206000015461069e9190611edb565b6106a89190611edb565b6106b29190611f64565b90506005600087815260200190815260200160002060008673ffffffffffffffffffffffffffffffffffffffff1673ffffffffffffffffffffffffffffffffffffffff16815260200190815260200160002060010154816107139190611e57565b93505050505b92915050565b6000600360009054906101000a900473ffffffffffffffffffffffffffffffffffffffff1673ffffffffffffffffffffffffffffffffffffffff168273ffffffffffffffffffffffffffffffffffffffff1614156107eb5760076000600360009054906101000a900473ffffffffffffffffffffffffffffffffffffffff1673ffffffffffffffffffffffffffffffffffffffff1673ffffffffffffffffffffffffffffffffffffffff16815260200190815260200160002054476107e49190611e57565b90506108b2565b600760008373ffffffffffffffffffffffffffffffffffffffff1673ffffffffffffffffffffffffffffffffffffffff168152602001908152602001600020548273ffffffffffffffffffffffffffffffffffffffff166370a08231306040518263ffffffff1660e01b81526004016108649190611c83565b602060405180830381865afa158015610881573d6000803e3d6000fd5b505050506040513d601f19601f820116820180604052508101906108a59190611faa565b6108af9190611e57565b90505b919050565b6000806108c4843361034c565b905082811015610909576040517f08c379a000000000000000000000000000000000000000000000000000000000815260040161090090612034565b60405180910390fd5b6109138484611610565b50600191505092915050565b610927611880565b73ffffffffffffffffffffffffffffffffffffffff16610945610c7a565b73ffffffffffffffffffffffffffffffffffffffff161461099b576040517f08c379a0000000000000000000000000000000000000000000000000000000008152600401610992906120a0565b60405180910390fd5b670de0b6b3a76400008111156109e6576040517f08c379a00000000000000000000000000000000000000000000000000000000081526004016109dd9061210c565b60405180910390fd5b8060018190555050565b6109f8611880565b73ffffffffffffffffffffffffffffffffffffffff16610a16610c7a565b73ffffffffffffffffffffffffffffffffffffffff1614610a6c576040517f08c379a0000000000000000000000000000000000000000000000000000000008152600401610a63906120a0565b60405180910390fd5b610a766000611888565b565b610a80611880565b73ffffffffffffffffffffffffffffffffffffffff16610a9e610c7a565b73ffffffffffffffffffffffffffffffffffffffff1614610af4576040517f08c379a0000000000000000000000000000000000000000000000000000000008152600401610aeb906120a0565b60405180910390fd5b8160076000600360009054906101000a900473ffffffffffffffffffffffffffffffffffffffff1673ffffffffffffffffffffffffffffffffffffffff1673ffffffffffffffffffffffffffffffffffffffff1681526020019081526020016000205447610b629190611e57565b1015610ba3576040517f08c379a0000000000000000000000000000000000000000000000000000000008152600401610b9a90612178565b60405180910390fd5b60008173ffffffffffffffffffffffffffffffffffffffff1683604051610bc9906121c9565b60006040518083038185875af1925050503d8060008114610c06576040519150601f19603f3d011682016040523d82523d6000602084013e610c0b565b606091505b5050905080610c4f576040517f08c379a0000000000000000000000000000000000000000000000000000000008152600401610c469061222a565b60405180910390fd5b505050565b600360009054906101000a900473ffffffffffffffffffffffffffffffffffffffff1681565b60008060009054906101000a900473ffffffffffffffffffffffffffffffffffffffff16905090565b610cab611880565b73ffffffffffffffffffffffffffffffffffffffff16610cc9610c7a565b73ffffffffffffffffffffffffffffffffffffffff1614610d1f576040517f08c379a0000000000000000000000000000000000000000000000000000000008152600401610d16906120a0565b60405180910390fd5b81600760008573ffffffffffffffffffffffffffffffffffffffff1673ffffffffffffffffffffffffffffffffffffffff168152602001908152602001600020548473ffffffffffffffffffffffffffffffffffffffff166370a08231306040518263ffffffff1660e01b8152600401610d999190611c83565b602060405180830381865afa158015610db6573d6000803e3d6000fd5b505050506040513d601f19601f82011682018060405250810190610dda9190611faa565b610de49190611e57565b1015610e25576040517f08c379a0000000000000000000000000000000000000000000000000000000008152600401610e1c90612178565b60405180910390fd5b8273ffffffffffffffffffffffffffffffffffffffff1663a9059cbb82846040518363ffffffff1660e01b8152600401610e6092919061224a565b6020604051808303816000875af1158015610e7f573d6000803e3d6000fd5b505050506040513d601f19601f82011682018060405250810190610ea3919061229f565b50505050565b6000600760008373ffffffffffffffffffffffffffffffffffffffff1673ffffffffffffffffffffffffffffffffffffffff168152602001908152602001600020549050919050565b610efa61194c565b60008211610f0757600080fd5b600254821115610f1657600080fd5b600460008381526020019081526020016000206040518060600160405290816000820160009054906101000a900473ffffffffffffffffffffffffffffffffffffffff1673ffffffffffffffffffffffffffffffffffffffff1673ffffffffffffffffffffffffffffffffffffffff1681526020016001820180548060200260200160405190810160405280929190818152602001828054801561100f57602002820191906000526020600020905b8160009054906101000a900473ffffffffffffffffffffffffffffffffffffffff1673ffffffffffffffffffffffffffffffffffffffff1681526020019060010190808311610fc5575b505050505081526020016002820180548060200260200160405190810160405280929190818152602001828054801561109d57602002820191906000526020600020905b8160009054906101000a900473ffffffffffffffffffffffffffffffffffffffff1673ffffffffffffffffffffffffffffffffffffffff1681526020019060010190808311611053575b5050505050815250509050919050565b60015481565b60025481565b670de0b6b3a764000081565b6110cd611880565b73ffffffffffffffffffffffffffffffffffffffff166110eb610c7a565b73ffffffffffffffffffffffffffffffffffffffff1614611141576040517f08c379a0000000000000000000000000000000000000000000000000000000008152600401611138906120a0565b60405180910390fd5b600073ffffffffffffffffffffffffffffffffffffffff168173ffffffffffffffffffffffffffffffffffffffff1614156111b1576040517f08c379a00000000000000000000000000000000000000000000000000000000081526004016111a89061233e565b60405180910390fd5b6111ba81611888565b50565b60008073ffffffffffffffffffffffffffffffffffffffff168460000160208101906111e99190611bda565b73ffffffffffffffffffffffffffffffffffffffff161415611240576040517f08c379a0000000000000000000000000000000000000000000000000000000008152600401611237906123aa565b60405180910390fd5b60008511611283576040517f08c379a000000000000000000000000000000000000000000000000000000000815260040161127a90612416565b60405180910390fd5b60008480604001906112959190612445565b9050116112d7576040517f08c379a00000000000000000000000000000000000000000000000000000000081526004016112ce906124f4565b60405180910390fd5b828290508480604001906112eb9190612445565b90501461132d576040517f08c379a000000000000000000000000000000000000000000000000000000000815260040161132490612560565b60405180910390fd5b6000805b848490508110156113795784848281811061134f5761134e612580565b5b905060800201600001358261136491906125af565b9150808061137190612605565b915050611331565b508581146113bc576040517f08c379a00000000000000000000000000000000000000000000000000000000081526004016113b39061269a565b60405180910390fd5b8460000160208101906113cf9190611bda565b73ffffffffffffffffffffffffffffffffffffffff166323b872dd3330896040518463ffffffff1660e01b815260040161140b939291906126ba565b6020604051808303816000875af115801561142a573d6000803e3d6000fd5b505050506040513d601f19601f8201168201806040525081019061144e919061229f565b61148d576040517f08c379a00000000000000000000000000000000000000000000000000000000081526004016114849061273d565b60405180910390fd5b600260008154809291906114a090612605565b91905055508460046000600254815260200190815260200160002081816114c79190612b5d565b90505060005b8484905081101561159a578484828181106114eb576114ea612580565b5b90506080020160056000600254815260200190815260200160002060008880604001906115189190612445565b8581811061152957611528612580565b5b905060200201602081019061153e9190611bda565b73ffffffffffffffffffffffffffffffffffffffff1673ffffffffffffffffffffffffffffffffffffffff16815260200190815260200160002081816115849190612d8e565b905050808061159290612605565b9150506114cd565b5085600760008760000160208101906115b39190611bda565b73ffffffffffffffffffffffffffffffffffffffff1673ffffffffffffffffffffffffffffffffffffffff16815260200190815260200160002060008282546115fc91906125af565b925050819055506001915050949350505050565b60008060009050826005600086815260200190815260200160002060003373ffffffffffffffffffffffffffffffffffffffff1673ffffffffffffffffffffffffffffffffffffffff168152602001908152602001600020600101600082825461167a91906125af565b92505081905550600360009054906101000a900473ffffffffffffffffffffffffffffffffffffffff1673ffffffffffffffffffffffffffffffffffffffff166004600086815260200190815260200160002060000160009054906101000a900473ffffffffffffffffffffffffffffffffffffffff1673ffffffffffffffffffffffffffffffffffffffff16141561177e573373ffffffffffffffffffffffffffffffffffffffff1683604051611731906121c9565b60006040518083038185875af1925050503d806000811461176e576040519150601f19603f3d011682016040523d82523d6000602084013e611773565b606091505b505080915050611835565b6004600085815260200190815260200160002060000160009054906101000a900473ffffffffffffffffffffffffffffffffffffffff1673ffffffffffffffffffffffffffffffffffffffff1663a9059cbb33856040518363ffffffff1660e01b81526004016117ef92919061224a565b6020604051808303816000875af115801561180e573d6000803e3d6000fd5b505050506040513d601f19601f82011682018060405250810190611832919061229f565b90505b80611875576040517f08c379a000000000000000000000000000000000000000000000000000000000815260040161186c90612de8565b60405180910390fd5b600191505092915050565b600033905090565b60008060009054906101000a900473ffffffffffffffffffffffffffffffffffffffff169050816000806101000a81548173ffffffffffffffffffffffffffffffffffffffff021916908373ffffffffffffffffffffffffffffffffffffffff1602179055508173ffffffffffffffffffffffffffffffffffffffff168173ffffffffffffffffffffffffffffffffffffffff167f8be0079c531659141344cd1fd0a4f28419497f9722a3daafe3b4186f6b6457e060405160405180910390a35050565b6040518060600160405280600073ffffffffffffffffffffffffffffffffffffffff16815260200160608152602001606081525090565b600080fd5b600080fd5b6000819050919050565b6119a08161198d565b81146119ab57600080fd5b50565b6000813590506119bd81611997565b92915050565b600080fd5b6000606082840312156119de576119dd6119c3565b5b81905092915050565b600080fd5b600080fd5b600080fd5b60008083601f840112611a0c57611a0b6119e7565b5b8235905067ffffffffffffffff811115611a2957611a286119ec565b5b602083019150836080820283011115611a4557611a446119f1565b5b9250929050565b60008060008060608587031215611a6657611a65611983565b5b6000611a74878288016119ae565b945050602085013567ffffffffffffffff811115611a9557611a94611988565b5b611aa1878288016119c8565b935050604085013567ffffffffffffffff811115611ac257611ac1611988565b5b611ace878288016119f6565b925092505092959194509250565b60008115159050919050565b611af181611adc565b82525050565b6000602082019050611b0c6000830184611ae8565b92915050565b600073ffffffffffffffffffffffffffffffffffffffff82169050919050565b6000611b3d82611b12565b9050919050565b611b4d81611b32565b8114611b5857600080fd5b50565b600081359050611b6a81611b44565b92915050565b60008060408385031215611b8757611b86611983565b5b6000611b95858286016119ae565b9250506020611ba685828601611b5b565b9150509250929050565b611bb98161198d565b82525050565b6000602082019050611bd46000830184611bb0565b92915050565b600060208284031215611bf057611bef611983565b5b6000611bfe84828501611b5b565b91505092915050565b60008060408385031215611c1e57611c1d611983565b5b6000611c2c858286016119ae565b9250506020611c3d858286016119ae565b9150509250929050565b600060208284031215611c5d57611c5c611983565b5b6000611c6b848285016119ae565b91505092915050565b611c7d81611b32565b82525050565b6000602082019050611c986000830184611c74565b92915050565b600080600060608486031215611cb757611cb6611983565b5b6000611cc586828701611b5b565b9350506020611cd6868287016119ae565b9250506040611ce786828701611b5b565b9150509250925092565b611cfa81611b32565b82525050565b600081519050919050565b600082825260208201905092915050565b6000819050602082019050919050565b6000611d388383611cf1565b60208301905092915050565b6000602082019050919050565b6000611d5c82611d00565b611d668185611d0b565b9350611d7183611d1c565b8060005b83811015611da2578151611d898882611d2c565b9750611d9483611d44565b925050600181019050611d75565b5085935050505092915050565b6000606083016000830151611dc76000860182611cf1565b5060208301518482036020860152611ddf8282611d51565b91505060408301518482036040860152611df98282611d51565b9150508091505092915050565b60006020820190508181036000830152611e208184611daf565b905092915050565b7f4e487b7100000000000000000000000000000000000000000000000000000000600052601160045260246000fd5b6000611e628261198d565b9150611e6d8361198d565b925082821015611e8057611e7f611e28565b5b828203905092915050565b60006fffffffffffffffffffffffffffffffff82169050919050565b6000611eb282611e8b565b9150611ebd83611e8b565b925082821015611ed057611ecf611e28565b5b828203905092915050565b6000611ee68261198d565b9150611ef18361198d565b9250817fffffffffffffffffffffffffffffffffffffffffffffffffffffffffffffffff0483118215151615611f2a57611f29611e28565b5b828202905092915050565b7f4e487b7100000000000000000000000000000000000000000000000000000000600052601260045260246000fd5b6000611f6f8261198d565b9150611f7a8361198d565b925082611f8a57611f89611f35565b5b828204905092915050565b600081519050611fa481611997565b92915050565b600060208284031215611fc057611fbf611983565b5b6000611fce84828501611f95565b91505092915050565b600082825260208201905092915050565b7f564553543a20574954484452415741424c4520544f4f204c4f57000000000000600082015250565b600061201e601a83611fd7565b915061202982611fe8565b602082019050919050565b6000602082019050818103600083015261204d81612011565b9050919050565b7f4f776e61626c653a2063616c6c6572206973206e6f7420746865206f776e6572600082015250565b600061208a602083611fd7565b915061209582612054565b602082019050919050565b600060208201905081810360008301526120b98161207d565b9050919050565b7f564553543a20464545204d555354204245203c20313030250000000000000000600082015250565b60006120f6601883611fd7565b9150612101826120c0565b602082019050919050565b60006020820190508181036000830152612125816120e9565b9050919050565b7f564553543a20414d4f554e5420544f4f20484947480000000000000000000000600082015250565b6000612162601583611fd7565b915061216d8261212c565b602082019050919050565b6000602082019050818103600083015261219181612155565b9050919050565b600081905092915050565b50565b60006121b3600083612198565b91506121be826121a3565b600082019050919050565b60006121d4826121a6565b9150819050919050565b7f564553543a20455448205452414e53464552204641494c454400000000000000600082015250565b6000612214601983611fd7565b915061221f826121de565b602082019050919050565b6000602082019050818103600083015261224381612207565b9050919050565b600060408201905061225f6000830185611c74565b61226c6020830184611bb0565b9392505050565b61227c81611adc565b811461228757600080fd5b50565b60008151905061229981612273565b92915050565b6000602082840312156122b5576122b4611983565b5b60006122c38482850161228a565b91505092915050565b7f4f776e61626c653a206e6577206f776e657220697320746865207a65726f206160008201527f6464726573730000000000000000000000000000000000000000000000000000602082015250565b6000612328602683611fd7565b9150612333826122cc565b604082019050919050565b600060208201905081810360008301526123578161231b565b9050919050565b7f564553543a205a45524f2041444452204e4f5420544f4b454e00000000000000600082015250565b6000612394601983611fd7565b915061239f8261235e565b602082019050919050565b600060208201905081810360008301526123c381612387565b9050919050565b7f564553543a2043414e4e4f542056455354203020414d4f554e54000000000000600082015250565b6000612400601a83611fd7565b915061240b826123ca565b602082019050919050565b6000602082019050818103600083015261242f816123f3565b9050919050565b600080fd5b600080fd5b600080fd5b6000808335600160200384360303811261246257612461612436565b5b80840192508235915067ffffffffffffffff8211156124845761248361243b565b5b6020830192506020820236038313156124a05761249f612440565b5b509250929050565b7f564553543a204e4f20524543495049454e545300000000000000000000000000600082015250565b60006124de601383611fd7565b91506124e9826124a8565b602082019050919050565b6000602082019050818103600083015261250d816124d1565b9050919050565b7f564553543a2057524f4e47204143434f554e5453204152524159204c454e0000600082015250565b600061254a601e83611fd7565b915061255582612514565b602082019050919050565b600060208201905081810360008301526125798161253d565b9050919050565b7f4e487b7100000000000000000000000000000000000000000000000000000000600052603260045260246000fd5b60006125ba8261198d565b91506125c58361198d565b9250827fffffffffffffffffffffffffffffffffffffffffffffffffffffffffffffffff038211156125fa576125f9611e28565b5b828201905092915050565b60006126108261198d565b91507fffffffffffffffffffffffffffffffffffffffffffffffffffffffffffffffff82141561264357612642611e28565b5b600182019050919050565b7f564553543a20414d4f554e545320444f4e542053554d20544f20544f54414c00600082015250565b6000612684601f83611fd7565b915061268f8261264e565b602082019050919050565b600060208201905081810360008301526126b381612677565b9050919050565b60006060820190506126cf6000830186611c74565b6126dc6020830185611c74565b6126e96040830184611bb0565b949350505050565b7f564553543a20544f4b454e205452414e53464552204641494c45440000000000600082015250565b6000612727601b83611fd7565b9150612732826126f1565b602082019050919050565b600060208201905081810360008301526127568161271a565b9050919050565b6000813561276a81611b44565b80915050919050565b60008160001b9050919050565b600073ffffffffffffffffffffffffffffffffffffffff6127a084612773565b9350801983169250808416831791505092915050565b6000819050919050565b60006127db6127d66127d184611b12565b6127b6565b611b12565b9050919050565b60006127ed826127c0565b9050919050565b60006127ff826127e2565b9050919050565b6000819050919050565b612819826127f4565b61282c61282582612806565b8354612780565b8255505050565b6000819050919050565b7f4e487b7100000000000000000000000000000000000000000000000000000000600052604160045260246000fd5b600081549050919050565b60008190506001806001038301049050919050565b60008190508160005260206000209050919050565b600082821b905092915050565b6000600883026128de7fffffffffffffffffffffffffffffffffffffffffffffffffffffffffffffffff826128a1565b6128e886836128a1565b95508019841693508086168417925050509392505050565b600061291b6129166129118461198d565b6127b6565b61198d565b9050919050565b6000819050919050565b61293583612900565b61294961294182612922565b8484546128ae565b825550505050565b600090565b61295e612951565b61296981848461292c565b505050565b5b8181101561298d57612982600082612956565b60018101905061296f565b5050565b818310156129ca576129a282612877565b6129ab84612877565b6129b48361288c565b8181018382016129c4818361296e565b50505050505b505050565b680100000000000000008211156129e9576129e861283d565b5b6129f28161286c565b828255612a00838284612991565b505050565b600082905092915050565b600060088302612a3473ffffffffffffffffffffffffffffffffffffffff826128a1565b612a3e86836128a1565b95508019841693508086168417925050509392505050565b612a5f836127f4565b612a73612a6b82612806565b848454612a10565b825550505050565b612a858383612a05565b612a8f81836129cf565b612a9883612833565b612aa18361288c565b6000805b84811015612adc5783612ab78161275d565b9050612ac4818486612a56565b60208501945060018401935050600181019050612aa5565b5050505050505050565b612af1838383612a7b565b505050565b600081016000830180612b088161275d565b9050612b148184612810565b5050506001810160208301612b298185612445565b612b34818386612ae6565b505050506002810160408301612b4a8185612445565b612b55818386612ae6565b505050505050565b612b678282612af6565b5050565b60008135612b7881611997565b80915050919050565b60007fffffffffffffffffffffffffffffffffffffffffffffffffffffffffffffffff612bad84612773565b9350801983169250808416831791505092915050565b612bcc82612900565b612bdf612bd882612922565b8354612b81565b8255505050565b612bef81611e8b565b8114612bfa57600080fd5b50565b60008135612c0a81612be6565b80915050919050565b60006fffffffffffffffffffffffffffffffff612c2f84612773565b9350801983169250808416831791505092915050565b6000612c60612c5b612c5684611e8b565b6127b6565b611e8b565b9050919050565b6000819050919050565b612c7a82612c45565b612c8d612c8682612c67565b8354612c13565b8255505050565b60008160801b9050919050565b60007fffffffffffffffffffffffffffffffff00000000000000000000000000000000612ccd84612c94565b9350801983169250808416831791505092915050565b612cec82612c45565b612cff612cf882612c67565b8354612ca1565b8255505050565b600081016000830180612d1881612b6b565b9050612d248184612bc3565b505050600181016020830180612d3981612b6b565b9050612d458184612bc3565b505050600281016040830180612d5a81612bfd565b9050612d668184612c71565b505050600281016060830180612d7b81612bfd565b9050612d878184612ce3565b5050505050565b612d988282612d06565b5050565b7f564553543a205749544844524157204641494c45440000000000000000000000600082015250565b6000612dd2601583611fd7565b9150612ddd82612d9c565b602082019050919050565b60006020820190508181036000830152612e0181612dc5565b905091905056fea264697066735822122004d1113a493a1015456ea8c6903418fc2a3b0f8e74f2e7374dc75b0fce931d1664736f6c634300080a0033",
  "linkReferences": {},
  "deployedLinkReferences": {}
}