{
  "_format": "hh-sol-artifact-1",
  "contractName": "VestCore",
  "sourceName": "contracts/VestCore.sol",
  "abi": [
    {
      "inputs": [],
      "stateMutability": "nonpayable",
      "type": "constructor"
    },
    {
      "anonymous": false,
      "inputs": [
        {
          "indexed": true,
          "internalType": "address",
          "name": "previousOwner",
          "type": "address"
        },
        {
          "indexed": true,
          "internalType": "address",
          "name": "newOwner",
          "type": "address"
        }
      ],
      "name": "OwnershipTransferred",
      "type": "event"
    },
    {
      "anonymous": false,
      "inputs": [
        {
          "indexed": false,
          "internalType": "uint256",
          "name": "vBoxID",
          "type": "uint256"
        },
        {
          "indexed": false,
          "internalType": "address",
          "name": "token",
          "type": "address"
        },
        {
          "indexed": false,
          "internalType": "address",
          "name": "creator",
          "type": "address"
        }
      ],
      "name": "VestingBoxCreated",
      "type": "event"
    },
    {
      "inputs": [],
      "name": "ETH",
      "outputs": [
        {
          "internalType": "address",
          "name": "",
          "type": "address"
        }
      ],
      "stateMutability": "view",
      "type": "function"
    },
    {
      "inputs": [],
      "name": "SCALE",
      "outputs": [
        {
          "internalType": "uint256",
          "name": "",
          "type": "uint256"
        }
      ],
      "stateMutability": "view",
      "type": "function"
    },
    {
      "inputs": [
        {
          "internalType": "address",
          "name": "_token",
          "type": "address"
        },
        {
          "internalType": "uint256",
          "name": "_totalAmount",
          "type": "uint256"
        },
        {
          "internalType": "address[]",
          "name": "_recipients",
          "type": "address[]"
        },
        {
          "internalType": "uint256[]",
          "name": "_amounts",
          "type": "uint256[]"
        },
        {
          "internalType": "uint256[]",
          "name": "_startTimes",
          "type": "uint256[]"
        },
        {
          "internalType": "uint256[]",
          "name": "_endTimes",
          "type": "uint256[]"
        }
      ],
      "name": "createVestingBoxWithExistingToken",
      "outputs": [
        {
          "internalType": "bool",
          "name": "success",
          "type": "bool"
        }
      ],
      "stateMutability": "nonpayable",
      "type": "function"
    },
    {
      "inputs": [],
      "name": "fee",
      "outputs": [
        {
          "internalType": "uint256",
          "name": "",
          "type": "uint256"
        }
      ],
      "stateMutability": "view",
      "type": "function"
    },
    {
      "inputs": [
        {
          "internalType": "address",
          "name": "_account",
          "type": "address"
        },
        {
          "internalType": "uint256",
          "name": "_vBoxId",
          "type": "uint256"
        }
      ],
      "name": "getAmountVested",
      "outputs": [
        {
          "internalType": "uint256",
          "name": "",
          "type": "uint256"
        }
      ],
      "stateMutability": "view",
      "type": "function"
    },
    {
      "inputs": [
        {
          "internalType": "address",
          "name": "_token",
          "type": "address"
        }
      ],
      "name": "getProtocolFeesEarned",
      "outputs": [
        {
          "internalType": "uint256",
          "name": "",
          "type": "uint256"
        }
      ],
      "stateMutability": "view",
      "type": "function"
    },
    {
      "inputs": [
        {
          "internalType": "uint256",
          "name": "_vestingBoxId",
          "type": "uint256"
        }
      ],
      "name": "getVestingBox",
      "outputs": [
        {
          "components": [
            {
              "internalType": "address",
              "name": "token",
              "type": "address"
            },
            {
              "internalType": "address[]",
              "name": "recipients",
              "type": "address[]"
            },
            {
              "internalType": "uint256[]",
              "name": "amounts",
              "type": "uint256[]"
            },
            {
              "internalType": "uint256[]",
              "name": "withdrawn",
              "type": "uint256[]"
            },
            {
              "internalType": "uint256[]",
              "name": "startTimes",
              "type": "uint256[]"
            },
            {
              "internalType": "uint256[]",
              "name": "endTimes",
              "type": "uint256[]"
            }
          ],
          "internalType": "struct VestCore.VestingBox",
          "name": "vestingBox",
          "type": "tuple"
        }
      ],
      "stateMutability": "view",
      "type": "function"
    },
    {
      "inputs": [],
      "name": "owner",
      "outputs": [
        {
          "internalType": "address",
          "name": "",
          "type": "address"
        }
      ],
      "stateMutability": "view",
      "type": "function"
    },
    {
      "inputs": [],
      "name": "renounceOwnership",
      "outputs": [],
      "stateMutability": "nonpayable",
      "type": "function"
    },
    {
      "inputs": [
        {
          "internalType": "address",
          "name": "newOwner",
          "type": "address"
        }
      ],
      "name": "transferOwnership",
      "outputs": [],
      "stateMutability": "nonpayable",
      "type": "function"
    },
    {
      "inputs": [],
      "name": "vBoxCount",
      "outputs": [
        {
          "internalType": "uint256",
          "name": "",
          "type": "uint256"
        }
      ],
      "stateMutability": "view",
      "type": "function"
    },
    {
      "inputs": [
        {
          "internalType": "uint256",
          "name": "_amount",
          "type": "uint256"
        },
        {
          "internalType": "address",
          "name": "_to",
          "type": "address"
        }
      ],
      "name": "withdrawETHFees",
      "outputs": [],
      "stateMutability": "nonpayable",
      "type": "function"
    },
    {
      "inputs": [
        {
          "internalType": "address",
          "name": "_token",
          "type": "address"
        },
        {
          "internalType": "uint256",
          "name": "_amount",
          "type": "uint256"
        },
        {
          "internalType": "address",
          "name": "_to",
          "type": "address"
        }
      ],
      "name": "withdrawTokenFees",
      "outputs": [],
      "stateMutability": "nonpayable",
      "type": "function"
    }
  ],
  "bytecode": "0x608060405266038d7ea4c68000600155600060025573eeeeeeeeeeeeeeeeeeeeeeeeeeeeeeeeeeeeeeee600360006101000a81548173ffffffffffffffffffffffffffffffffffffffff021916908373ffffffffffffffffffffffffffffffffffffffff1602179055503480156200007657600080fd5b50620000976200008b6200009d60201b60201c565b620000a560201b60201c565b62000169565b600033905090565b60008060009054906101000a900473ffffffffffffffffffffffffffffffffffffffff169050816000806101000a81548173ffffffffffffffffffffffffffffffffffffffff021916908373ffffffffffffffffffffffffffffffffffffffff1602179055508173ffffffffffffffffffffffffffffffffffffffff168173ffffffffffffffffffffffffffffffffffffffff167f8be0079c531659141344cd1fd0a4f28419497f9722a3daafe3b4186f6b6457e060405160405180910390a35050565b61262e80620001796000396000f3fe608060405234801561001057600080fd5b50600436106100cf5760003560e01c80638da5cb5b1161008c578063ddca3f4311610066578063ddca3f4314610212578063e9b3663e14610230578063eced55261461024e578063f2fde38b1461026c576100cf565b80638da5cb5b146101a857806395be5498146101c6578063c68482a7146101e2576100cf565b80634a918a0c146100d45780634be887de14610104578063715018a61461013457806371b4e6e71461013e5780637ab1ab731461015a5780638322fff21461018a575b600080fd5b6100ee60048036038101906100e9919061179d565b610288565b6040516100fb91906117e3565b60405180910390f35b61011e600480360381019061011991906118e5565b6102d1565b60405161012b9190611a10565b60405180910390f35b61013c6109c8565b005b61015860048036038101906101539190611a2b565b610a50565b005b610174600480360381019061016f9190611a6b565b610c38565b60405161018191906117e3565b60405180910390f35b610192610f65565b60405161019f9190611aba565b60405180910390f35b6101b0610f8b565b6040516101bd9190611aba565b60405180910390f35b6101e060048036038101906101db9190611ad5565b610fb4565b005b6101fc60048036038101906101f79190611b28565b61118c565b6040516102099190611d76565b60405180910390f35b61021a611419565b60405161022791906117e3565b60405180910390f35b61023861141f565b60405161024591906117e3565b60405180910390f35b610256611425565b60405161026391906117e3565b60405180910390f35b6102866004803603810190610281919061179d565b611431565b005b6000600660008373ffffffffffffffffffffffffffffffffffffffff1673ffffffffffffffffffffffffffffffffffffffff168152602001908152602001600020549050919050565b600080898990509050600073ffffffffffffffffffffffffffffffffffffffff168c73ffffffffffffffffffffffffffffffffffffffff16141561034a576040517f08c379a000000000000000000000000000000000000000000000000000000000815260040161034190611df5565b60405180910390fd5b60008b1161038d576040517f08c379a000000000000000000000000000000000000000000000000000000000815260040161038490611e61565b60405180910390fd5b600081116103d0576040517f08c379a00000000000000000000000000000000000000000000000000000000081526004016103c790611ecd565b60405180910390fd5b878790508114610415576040517f08c379a000000000000000000000000000000000000000000000000000000000815260040161040c90611f39565b60405180910390fd5b85859050811461045a576040517f08c379a000000000000000000000000000000000000000000000000000000000815260040161045190611fa5565b60405180910390fd5b83839050811461049f576040517f08c379a000000000000000000000000000000000000000000000000000000000815260040161049690612011565b60405180910390fd5b6000805b828110156104e5578989828181106104be576104bd612031565b5b90506020020135826104d0919061208f565b915080806104dd906120e5565b9150506104a3565b508b8114610528576040517f08c379a000000000000000000000000000000000000000000000000000000000815260040161051f9061217a565b60405180910390fd5b8c73ffffffffffffffffffffffffffffffffffffffff166323b872dd33308f6040518463ffffffff1660e01b81526004016105659392919061219a565b6020604051808303816000875af1158015610584573d6000803e3d6000fd5b505050506040513d601f19601f820116820180604052508101906105a891906121fd565b6105e7576040517f08c379a00000000000000000000000000000000000000000000000000000000081526004016105de90612276565b60405180910390fd5b60006040518060c001604052808f73ffffffffffffffffffffffffffffffffffffffff1681526020018d8d80806020026020016040519081016040528093929190818152602001838360200280828437600081840152601f19601f8201169050808301925050505050505081526020018b8b80806020026020016040519081016040528093929190818152602001838360200280828437600081840152601f19601f8201169050808301925050505050505081526020018467ffffffffffffffff8111156106b8576106b7612296565b5b6040519080825280602002602001820160405280156106e65781602001602082028036833780820191505090505b508152602001898980806020026020016040519081016040528093929190818152602001838360200280828437600081840152601f19601f820116905080830192505050505050508152602001878780806020026020016040519081016040528093929190818152602001838360200280828437600081840152601f19601f8201169050808301925050505050505081525090506002600081548092919061078d906120e5565b91905055508060046000600254815260200190815260200160002060008201518160000160006101000a81548173ffffffffffffffffffffffffffffffffffffffff021916908373ffffffffffffffffffffffffffffffffffffffff160217905550602082015181600101908051906020019061080b9291906115f5565b50604082015181600201908051906020019061082892919061167f565b50606082015181600301908051906020019061084592919061167f565b50608082015181600401908051906020019061086292919061167f565b5060a082015181600501908051906020019061087f92919061167f565b5090505060005b838110156109b25760405180608001604052808c8c848181106108ac576108ab612031565b5b905060200201358152602001600081526020018a8a848181106108d2576108d1612031565b5b9050602002013581526020018888848181106108f1576108f0612031565b5b9050602002013581525060056000600254815260200190815260200160002060008f8f8581811061092557610924612031565b5b905060200201602081019061093a919061179d565b73ffffffffffffffffffffffffffffffffffffffff1673ffffffffffffffffffffffffffffffffffffffff1681526020019081526020016000206000820151816000015560208201518160010155604082015181600201556060820151816003015590505080806109aa906120e5565b915050610886565b50600193505050509a9950505050505050505050565b6109d0611529565b73ffffffffffffffffffffffffffffffffffffffff166109ee610f8b565b73ffffffffffffffffffffffffffffffffffffffff1614610a44576040517f08c379a0000000000000000000000000000000000000000000000000000000008152600401610a3b90612311565b60405180910390fd5b610a4e6000611531565b565b610a58611529565b73ffffffffffffffffffffffffffffffffffffffff16610a76610f8b565b73ffffffffffffffffffffffffffffffffffffffff1614610acc576040517f08c379a0000000000000000000000000000000000000000000000000000000008152600401610ac390612311565b60405180910390fd5b81471015610b0f576040517f08c379a0000000000000000000000000000000000000000000000000000000008152600401610b069061237d565b60405180910390fd5b8160066000600360009054906101000a900473ffffffffffffffffffffffffffffffffffffffff1673ffffffffffffffffffffffffffffffffffffffff1673ffffffffffffffffffffffffffffffffffffffff1681526020019081526020016000206000828254610b80919061239d565b9250508190555060008173ffffffffffffffffffffffffffffffffffffffff1683604051610bad90612402565b60006040518083038185875af1925050503d8060008114610bea576040519150601f19603f3d011682016040523d82523d6000602084013e610bef565b606091505b5050905080610c33576040517f08c379a0000000000000000000000000000000000000000000000000000000008152600401610c2a90612463565b60405180910390fd5b505050565b60006005600083815260200190815260200160002060008473ffffffffffffffffffffffffffffffffffffffff1673ffffffffffffffffffffffffffffffffffffffff168152602001908152602001600020600301544210610d4d576005600083815260200190815260200160002060008473ffffffffffffffffffffffffffffffffffffffff1673ffffffffffffffffffffffffffffffffffffffff168152602001908152602001600020600101546005600084815260200190815260200160002060008573ffffffffffffffffffffffffffffffffffffffff1673ffffffffffffffffffffffffffffffffffffffff16815260200190815260200160002060000154610d46919061239d565b9050610f5f565b60006005600084815260200190815260200160002060008573ffffffffffffffffffffffffffffffffffffffff1673ffffffffffffffffffffffffffffffffffffffff1681526020019081526020016000206002015442610dae919061239d565b905060006005600085815260200190815260200160002060008673ffffffffffffffffffffffffffffffffffffffff1673ffffffffffffffffffffffffffffffffffffffff168152602001908152602001600020600201546005600086815260200190815260200160002060008773ffffffffffffffffffffffffffffffffffffffff1673ffffffffffffffffffffffffffffffffffffffff16815260200190815260200160002060030154610e64919061239d565b90506000670de0b6b3a764000082610e7c9190612483565b670de0b6b3a7640000846005600089815260200190815260200160002060008a73ffffffffffffffffffffffffffffffffffffffff1673ffffffffffffffffffffffffffffffffffffffff16815260200190815260200160002060000154610ee49190612483565b610eee9190612483565b610ef8919061250c565b90506005600086815260200190815260200160002060008773ffffffffffffffffffffffffffffffffffffffff1673ffffffffffffffffffffffffffffffffffffffff1681526020019081526020016000206001015481610f59919061239d565b93505050505b92915050565b600360009054906101000a900473ffffffffffffffffffffffffffffffffffffffff1681565b60008060009054906101000a900473ffffffffffffffffffffffffffffffffffffffff16905090565b610fbc611529565b73ffffffffffffffffffffffffffffffffffffffff16610fda610f8b565b73ffffffffffffffffffffffffffffffffffffffff1614611030576040517f08c379a000000000000000000000000000000000000000000000000000000000815260040161102790612311565b60405180910390fd5b81600660008573ffffffffffffffffffffffffffffffffffffffff1673ffffffffffffffffffffffffffffffffffffffff1681526020019081526020016000205410156110b2576040517f08c379a00000000000000000000000000000000000000000000000000000000081526004016110a99061237d565b60405180910390fd5b81600660008573ffffffffffffffffffffffffffffffffffffffff1673ffffffffffffffffffffffffffffffffffffffff1681526020019081526020016000206000828254611101919061239d565b925050819055508273ffffffffffffffffffffffffffffffffffffffff1663a9059cbb82846040518363ffffffff1660e01b815260040161114392919061253d565b6020604051808303816000875af1158015611162573d6000803e3d6000fd5b505050506040513d601f19601f8201168201806040525081019061118691906121fd565b50505050565b6111946116cc565b600082116111a157600080fd5b6002548211156111b057600080fd5b600460008381526020019081526020016000206040518060c00160405290816000820160009054906101000a900473ffffffffffffffffffffffffffffffffffffffff1673ffffffffffffffffffffffffffffffffffffffff1673ffffffffffffffffffffffffffffffffffffffff168152602001600182018054806020026020016040519081016040528092919081815260200182805480156112a957602002820191906000526020600020905b8160009054906101000a900473ffffffffffffffffffffffffffffffffffffffff1673ffffffffffffffffffffffffffffffffffffffff168152602001906001019080831161125f575b505050505081526020016002820180548060200260200160405190810160405280929190818152602001828054801561130157602002820191906000526020600020905b8154815260200190600101908083116112ed575b505050505081526020016003820180548060200260200160405190810160405280929190818152602001828054801561135957602002820191906000526020600020905b815481526020019060010190808311611345575b50505050508152602001600482018054806020026020016040519081016040528092919081815260200182805480156113b157602002820191906000526020600020905b81548152602001906001019080831161139d575b505050505081526020016005820180548060200260200160405190810160405280929190818152602001828054801561140957602002820191906000526020600020905b8154815260200190600101908083116113f5575b5050505050815250509050919050565b60015481565b60025481565b670de0b6b3a764000081565b611439611529565b73ffffffffffffffffffffffffffffffffffffffff16611457610f8b565b73ffffffffffffffffffffffffffffffffffffffff16146114ad576040517f08c379a00000000000000000000000000000000000000000000000000000000081526004016114a490612311565b60405180910390fd5b600073ffffffffffffffffffffffffffffffffffffffff168173ffffffffffffffffffffffffffffffffffffffff16141561151d576040517f08c379a0000000000000000000000000000000000000000000000000000000008152600401611514906125d8565b60405180910390fd5b61152681611531565b50565b600033905090565b60008060009054906101000a900473ffffffffffffffffffffffffffffffffffffffff169050816000806101000a81548173ffffffffffffffffffffffffffffffffffffffff021916908373ffffffffffffffffffffffffffffffffffffffff1602179055508173ffffffffffffffffffffffffffffffffffffffff168173ffffffffffffffffffffffffffffffffffffffff167f8be0079c531659141344cd1fd0a4f28419497f9722a3daafe3b4186f6b6457e060405160405180910390a35050565b82805482825590600052602060002090810192821561166e579160200282015b8281111561166d5782518260006101000a81548173ffffffffffffffffffffffffffffffffffffffff021916908373ffffffffffffffffffffffffffffffffffffffff16021790555091602001919060010190611615565b5b50905061167b9190611718565b5090565b8280548282559060005260206000209081019282156116bb579160200282015b828111156116ba57825182559160200191906001019061169f565b5b5090506116c89190611718565b5090565b6040518060c00160405280600073ffffffffffffffffffffffffffffffffffffffff16815260200160608152602001606081526020016060815260200160608152602001606081525090565b5b80821115611731576000816000905550600101611719565b5090565b600080fd5b600080fd5b600073ffffffffffffffffffffffffffffffffffffffff82169050919050565b600061176a8261173f565b9050919050565b61177a8161175f565b811461178557600080fd5b50565b60008135905061179781611771565b92915050565b6000602082840312156117b3576117b2611735565b5b60006117c184828501611788565b91505092915050565b6000819050919050565b6117dd816117ca565b82525050565b60006020820190506117f860008301846117d4565b92915050565b611807816117ca565b811461181257600080fd5b50565b600081359050611824816117fe565b92915050565b600080fd5b600080fd5b600080fd5b60008083601f84011261184f5761184e61182a565b5b8235905067ffffffffffffffff81111561186c5761186b61182f565b5b60208301915083602082028301111561188857611887611834565b5b9250929050565b60008083601f8401126118a5576118a461182a565b5b8235905067ffffffffffffffff8111156118c2576118c161182f565b5b6020830191508360208202830111156118de576118dd611834565b5b9250929050565b60008060008060008060008060008060c08b8d03121561190857611907611735565b5b60006119168d828e01611788565b9a505060206119278d828e01611815565b99505060408b013567ffffffffffffffff8111156119485761194761173a565b5b6119548d828e01611839565b985098505060608b013567ffffffffffffffff8111156119775761197661173a565b5b6119838d828e0161188f565b965096505060808b013567ffffffffffffffff8111156119a6576119a561173a565b5b6119b28d828e0161188f565b945094505060a08b013567ffffffffffffffff8111156119d5576119d461173a565b5b6119e18d828e0161188f565b92509250509295989b9194979a5092959850565b60008115159050919050565b611a0a816119f5565b82525050565b6000602082019050611a256000830184611a01565b92915050565b60008060408385031215611a4257611a41611735565b5b6000611a5085828601611815565b9250506020611a6185828601611788565b9150509250929050565b60008060408385031215611a8257611a81611735565b5b6000611a9085828601611788565b9250506020611aa185828601611815565b9150509250929050565b611ab48161175f565b82525050565b6000602082019050611acf6000830184611aab565b92915050565b600080600060608486031215611aee57611aed611735565b5b6000611afc86828701611788565b9350506020611b0d86828701611815565b9250506040611b1e86828701611788565b9150509250925092565b600060208284031215611b3e57611b3d611735565b5b6000611b4c84828501611815565b91505092915050565b611b5e8161175f565b82525050565b600081519050919050565b600082825260208201905092915050565b6000819050602082019050919050565b6000611b9c8383611b55565b60208301905092915050565b6000602082019050919050565b6000611bc082611b64565b611bca8185611b6f565b9350611bd583611b80565b8060005b83811015611c06578151611bed8882611b90565b9750611bf883611ba8565b925050600181019050611bd9565b5085935050505092915050565b600081519050919050565b600082825260208201905092915050565b6000819050602082019050919050565b611c48816117ca565b82525050565b6000611c5a8383611c3f565b60208301905092915050565b6000602082019050919050565b6000611c7e82611c13565b611c888185611c1e565b9350611c9383611c2f565b8060005b83811015611cc4578151611cab8882611c4e565b9750611cb683611c66565b925050600181019050611c97565b5085935050505092915050565b600060c083016000830151611ce96000860182611b55565b5060208301518482036020860152611d018282611bb5565b91505060408301518482036040860152611d1b8282611c73565b91505060608301518482036060860152611d358282611c73565b91505060808301518482036080860152611d4f8282611c73565b91505060a083015184820360a0860152611d698282611c73565b9150508091505092915050565b60006020820190508181036000830152611d908184611cd1565b905092915050565b600082825260208201905092915050565b7f564553543a205a45524f2041444452204e4f5420544f4b454e00000000000000600082015250565b6000611ddf601983611d98565b9150611dea82611da9565b602082019050919050565b60006020820190508181036000830152611e0e81611dd2565b9050919050565b7f564553543a2043414e4e4f542056455354203020414d4f554e54000000000000600082015250565b6000611e4b601a83611d98565b9150611e5682611e15565b602082019050919050565b60006020820190508181036000830152611e7a81611e3e565b9050919050565b7f564553543a204e4f20524543495049454e545300000000000000000000000000600082015250565b6000611eb7601383611d98565b9150611ec282611e81565b602082019050919050565b60006020820190508181036000830152611ee681611eaa565b9050919050565b7f564553543a2057524f4e4720414d4f554e5453204152524159204c454e475448600082015250565b6000611f23602083611d98565b9150611f2e82611eed565b602082019050919050565b60006020820190508181036000830152611f5281611f16565b9050919050565b7f564553543a2057524f4e472053544152542054494d4553204c454e4754480000600082015250565b6000611f8f601e83611d98565b9150611f9a82611f59565b602082019050919050565b60006020820190508181036000830152611fbe81611f82565b9050919050565b7f564553543a2057524f4e4720454e442054494d4553204c454e47544800000000600082015250565b6000611ffb601c83611d98565b915061200682611fc5565b602082019050919050565b6000602082019050818103600083015261202a81611fee565b9050919050565b7f4e487b7100000000000000000000000000000000000000000000000000000000600052603260045260246000fd5b7f4e487b7100000000000000000000000000000000000000000000000000000000600052601160045260246000fd5b600061209a826117ca565b91506120a5836117ca565b9250827fffffffffffffffffffffffffffffffffffffffffffffffffffffffffffffffff038211156120da576120d9612060565b5b828201905092915050565b60006120f0826117ca565b91507fffffffffffffffffffffffffffffffffffffffffffffffffffffffffffffffff82141561212357612122612060565b5b600182019050919050565b7f564553543a20414d4f554e545320444f4e542053554d20544f20544f54414c00600082015250565b6000612164601f83611d98565b915061216f8261212e565b602082019050919050565b6000602082019050818103600083015261219381612157565b9050919050565b60006060820190506121af6000830186611aab565b6121bc6020830185611aab565b6121c960408301846117d4565b949350505050565b6121da816119f5565b81146121e557600080fd5b50565b6000815190506121f7816121d1565b92915050565b60006020828403121561221357612212611735565b5b6000612221848285016121e8565b91505092915050565b7f564553543a20544f4b454e205452414e53464552204641494c45440000000000600082015250565b6000612260601b83611d98565b915061226b8261222a565b602082019050919050565b6000602082019050818103600083015261228f81612253565b9050919050565b7f4e487b7100000000000000000000000000000000000000000000000000000000600052604160045260246000fd5b7f4f776e61626c653a2063616c6c6572206973206e6f7420746865206f776e6572600082015250565b60006122fb602083611d98565b9150612306826122c5565b602082019050919050565b6000602082019050818103600083015261232a816122ee565b9050919050565b7f564553543a20414d4f554e5420544f4f20484947480000000000000000000000600082015250565b6000612367601583611d98565b915061237282612331565b602082019050919050565b600060208201905081810360008301526123968161235a565b9050919050565b60006123a8826117ca565b91506123b3836117ca565b9250828210156123c6576123c5612060565b5b828203905092915050565b600081905092915050565b50565b60006123ec6000836123d1565b91506123f7826123dc565b600082019050919050565b600061240d826123df565b9150819050919050565b7f564553543a20455448205452414e53464552204641494c454400000000000000600082015250565b600061244d601983611d98565b915061245882612417565b602082019050919050565b6000602082019050818103600083015261247c81612440565b9050919050565b600061248e826117ca565b9150612499836117ca565b9250817fffffffffffffffffffffffffffffffffffffffffffffffffffffffffffffffff04831182151516156124d2576124d1612060565b5b828202905092915050565b7f4e487b7100000000000000000000000000000000000000000000000000000000600052601260045260246000fd5b6000612517826117ca565b9150612522836117ca565b925082612532576125316124dd565b5b828204905092915050565b60006040820190506125526000830185611aab565b61255f60208301846117d4565b9392505050565b7f4f776e61626c653a206e6577206f776e657220697320746865207a65726f206160008201527f6464726573730000000000000000000000000000000000000000000000000000602082015250565b60006125c2602683611d98565b91506125cd82612566565b604082019050919050565b600060208201905081810360008301526125f1816125b5565b905091905056fea264697066735822122009a3904ab9e1a9bb3ae2b38e8bf69f3c3fa1c548fb28263bc90d0a4f43beb7b864736f6c634300080a0033",
  "linkReferences": {},
  "deployedLinkReferences": {}
}