{
  "_format": "hh-sol-artifact-1",
  "contractName": "VestCore",
  "sourceName": "contracts/VestCore.sol",
  "abi": [
    {
      "inputs": [],
      "stateMutability": "nonpayable",
      "type": "constructor"
    },
    {
      "anonymous": false,
      "inputs": [
        {
          "indexed": true,
          "internalType": "address",
          "name": "previousOwner",
          "type": "address"
        },
        {
          "indexed": true,
          "internalType": "address",
          "name": "newOwner",
          "type": "address"
        }
      ],
      "name": "OwnershipTransferred",
      "type": "event"
    },
    {
      "anonymous": false,
      "inputs": [
        {
          "indexed": false,
          "internalType": "uint256",
          "name": "vBoxID",
          "type": "uint256"
        },
        {
          "indexed": false,
          "internalType": "address",
          "name": "token",
          "type": "address"
        },
        {
          "indexed": false,
          "internalType": "address",
          "name": "creator",
          "type": "address"
        }
      ],
      "name": "VestingBoxCreated",
      "type": "event"
    },
    {
      "inputs": [],
      "name": "SCALE",
      "outputs": [
        {
          "internalType": "uint256",
          "name": "",
          "type": "uint256"
        }
      ],
      "stateMutability": "view",
      "type": "function"
    },
    {
      "inputs": [
        {
          "internalType": "address",
          "name": "_token",
          "type": "address"
        },
        {
          "internalType": "uint256",
          "name": "_totalAmount",
          "type": "uint256"
        },
        {
          "internalType": "address[]",
          "name": "_recipients",
          "type": "address[]"
        },
        {
          "internalType": "uint256[]",
          "name": "_amounts",
          "type": "uint256[]"
        },
        {
          "internalType": "uint256[]",
          "name": "_startTimes",
          "type": "uint256[]"
        },
        {
          "internalType": "uint256[]",
          "name": "_endTimes",
          "type": "uint256[]"
        }
      ],
      "name": "createVestingBoxWithExistingToken",
      "outputs": [
        {
          "internalType": "bool",
          "name": "success",
          "type": "bool"
        }
      ],
      "stateMutability": "nonpayable",
      "type": "function"
    },
    {
      "inputs": [],
      "name": "fee",
      "outputs": [
        {
          "internalType": "uint256",
          "name": "",
          "type": "uint256"
        }
      ],
      "stateMutability": "view",
      "type": "function"
    },
    {
      "inputs": [
        {
          "internalType": "address",
          "name": "_token",
          "type": "address"
        }
      ],
      "name": "getProtocolFeesEarned",
      "outputs": [
        {
          "internalType": "uint256",
          "name": "",
          "type": "uint256"
        }
      ],
      "stateMutability": "view",
      "type": "function"
    },
    {
      "inputs": [
        {
          "internalType": "uint256",
          "name": "_vestingBoxId",
          "type": "uint256"
        }
      ],
      "name": "getVestingBox",
      "outputs": [
        {
          "components": [
            {
              "internalType": "address",
              "name": "token",
              "type": "address"
            },
            {
              "internalType": "address[]",
              "name": "recipients",
              "type": "address[]"
            },
            {
              "internalType": "uint256[]",
              "name": "amounts",
              "type": "uint256[]"
            },
            {
              "internalType": "uint256[]",
              "name": "withdrawn",
              "type": "uint256[]"
            },
            {
              "internalType": "uint256[]",
              "name": "startTimes",
              "type": "uint256[]"
            },
            {
              "internalType": "uint256[]",
              "name": "endTimes",
              "type": "uint256[]"
            }
          ],
          "internalType": "struct VestCore.VestingBox",
          "name": "vestingBox",
          "type": "tuple"
        }
      ],
      "stateMutability": "view",
      "type": "function"
    },
    {
      "inputs": [],
      "name": "owner",
      "outputs": [
        {
          "internalType": "address",
          "name": "",
          "type": "address"
        }
      ],
      "stateMutability": "view",
      "type": "function"
    },
    {
      "inputs": [],
      "name": "renounceOwnership",
      "outputs": [],
      "stateMutability": "nonpayable",
      "type": "function"
    },
    {
      "inputs": [
        {
          "internalType": "address",
          "name": "newOwner",
          "type": "address"
        }
      ],
      "name": "transferOwnership",
      "outputs": [],
      "stateMutability": "nonpayable",
      "type": "function"
    },
    {
      "inputs": [
        {
          "internalType": "address",
          "name": "_token",
          "type": "address"
        },
        {
          "internalType": "uint256",
          "name": "_amount",
          "type": "uint256"
        },
        {
          "internalType": "address",
          "name": "_to",
          "type": "address"
        }
      ],
      "name": "withdrawFees",
      "outputs": [],
      "stateMutability": "nonpayable",
      "type": "function"
    }
  ],
  "bytecode": "0x608060405266038d7ea4c68000600155600060025534801561002057600080fd5b5061003d61003261004260201b60201c565b61004a60201b60201c565b61010e565b600033905090565b60008060009054906101000a900473ffffffffffffffffffffffffffffffffffffffff169050816000806101000a81548173ffffffffffffffffffffffffffffffffffffffff021916908373ffffffffffffffffffffffffffffffffffffffff1602179055508173ffffffffffffffffffffffffffffffffffffffff168173ffffffffffffffffffffffffffffffffffffffff167f8be0079c531659141344cd1fd0a4f28419497f9722a3daafe3b4186f6b6457e060405160405180910390a35050565b611c1d8061011d6000396000f3fe608060405234801561001057600080fd5b50600436106100935760003560e01c80639ba372c2116100665780639ba372c214610120578063c68482a71461013c578063ddca3f431461016c578063eced55261461018a578063f2fde38b146101a857610093565b80634a918a0c146100985780634be887de146100c8578063715018a6146100f85780638da5cb5b14610102575b600080fd5b6100b260048036038101906100ad9190611041565b6101c4565b6040516100bf9190611087565b60405180910390f35b6100e260048036038101906100dd9190611189565b61020d565b6040516100ef91906112b4565b60405180910390f35b610100610904565b005b61010a61098c565b60405161011791906112de565b60405180910390f35b61013a600480360381019061013591906112f9565b6109b5565b005b6101566004803603810190610151919061134c565b610a36565b604051610163919061159a565b60405180910390f35b610174610cc3565b6040516101819190611087565b60405180910390f35b610192610cc9565b60405161019f9190611087565b60405180910390f35b6101c260048036038101906101bd9190611041565b610cd5565b005b6000600560008373ffffffffffffffffffffffffffffffffffffffff1673ffffffffffffffffffffffffffffffffffffffff168152602001908152602001600020549050919050565b600080898990509050600073ffffffffffffffffffffffffffffffffffffffff168c73ffffffffffffffffffffffffffffffffffffffff161415610286576040517f08c379a000000000000000000000000000000000000000000000000000000000815260040161027d90611619565b60405180910390fd5b60008b116102c9576040517f08c379a00000000000000000000000000000000000000000000000000000000081526004016102c090611685565b60405180910390fd5b6000811161030c576040517f08c379a0000000000000000000000000000000000000000000000000000000008152600401610303906116f1565b60405180910390fd5b878790508114610351576040517f08c379a00000000000000000000000000000000000000000000000000000000081526004016103489061175d565b60405180910390fd5b858590508114610396576040517f08c379a000000000000000000000000000000000000000000000000000000000815260040161038d906117c9565b60405180910390fd5b8383905081146103db576040517f08c379a00000000000000000000000000000000000000000000000000000000081526004016103d290611835565b60405180910390fd5b6000805b82811015610421578989828181106103fa576103f9611855565b5b905060200201358261040c91906118b3565b9150808061041990611909565b9150506103df565b508b8114610464576040517f08c379a000000000000000000000000000000000000000000000000000000000815260040161045b9061199e565b60405180910390fd5b8c73ffffffffffffffffffffffffffffffffffffffff166323b872dd33308f6040518463ffffffff1660e01b81526004016104a1939291906119be565b6020604051808303816000875af11580156104c0573d6000803e3d6000fd5b505050506040513d601f19601f820116820180604052508101906104e49190611a21565b610523576040517f08c379a000000000000000000000000000000000000000000000000000000000815260040161051a90611a9a565b60405180910390fd5b60006040518060c001604052808f73ffffffffffffffffffffffffffffffffffffffff1681526020018d8d80806020026020016040519081016040528093929190818152602001838360200280828437600081840152601f19601f8201169050808301925050505050505081526020018b8b80806020026020016040519081016040528093929190818152602001838360200280828437600081840152601f19601f8201169050808301925050505050505081526020018467ffffffffffffffff8111156105f4576105f3611aba565b5b6040519080825280602002602001820160405280156106225781602001602082028036833780820191505090505b508152602001898980806020026020016040519081016040528093929190818152602001838360200280828437600081840152601f19601f820116905080830192505050505050508152602001878780806020026020016040519081016040528093929190818152602001838360200280828437600081840152601f19601f820116905080830192505050505050508152509050600260008154809291906106c990611909565b91905055508060036000600254815260200190815260200160002060008201518160000160006101000a81548173ffffffffffffffffffffffffffffffffffffffff021916908373ffffffffffffffffffffffffffffffffffffffff1602179055506020820151816001019080519060200190610747929190610e99565b506040820151816002019080519060200190610764929190610f23565b506060820151816003019080519060200190610781929190610f23565b50608082015181600401908051906020019061079e929190610f23565b5060a08201518160050190805190602001906107bb929190610f23565b5090505060005b838110156108ee5760405180608001604052808c8c848181106107e8576107e7611855565b5b905060200201358152602001600081526020018a8a8481811061080e5761080d611855565b5b90506020020135815260200188888481811061082d5761082c611855565b5b9050602002013581525060046000600254815260200190815260200160002060008f8f8581811061086157610860611855565b5b90506020020160208101906108769190611041565b73ffffffffffffffffffffffffffffffffffffffff1673ffffffffffffffffffffffffffffffffffffffff1681526020019081526020016000206000820151816000015560208201518160010155604082015181600201556060820151816003015590505080806108e690611909565b9150506107c2565b50600193505050509a9950505050505050505050565b61090c610dcd565b73ffffffffffffffffffffffffffffffffffffffff1661092a61098c565b73ffffffffffffffffffffffffffffffffffffffff1614610980576040517f08c379a000000000000000000000000000000000000000000000000000000000815260040161097790611b35565b60405180910390fd5b61098a6000610dd5565b565b60008060009054906101000a900473ffffffffffffffffffffffffffffffffffffffff16905090565b6109bd610dcd565b73ffffffffffffffffffffffffffffffffffffffff166109db61098c565b73ffffffffffffffffffffffffffffffffffffffff1614610a31576040517f08c379a0000000000000000000000000000000000000000000000000000000008152600401610a2890611b35565b60405180910390fd5b505050565b610a3e610f70565b60008211610a4b57600080fd5b600254821115610a5a57600080fd5b600360008381526020019081526020016000206040518060c00160405290816000820160009054906101000a900473ffffffffffffffffffffffffffffffffffffffff1673ffffffffffffffffffffffffffffffffffffffff1673ffffffffffffffffffffffffffffffffffffffff16815260200160018201805480602002602001604051908101604052809291908181526020018280548015610b5357602002820191906000526020600020905b8160009054906101000a900473ffffffffffffffffffffffffffffffffffffffff1673ffffffffffffffffffffffffffffffffffffffff1681526020019060010190808311610b09575b5050505050815260200160028201805480602002602001604051908101604052809291908181526020018280548015610bab57602002820191906000526020600020905b815481526020019060010190808311610b97575b5050505050815260200160038201805480602002602001604051908101604052809291908181526020018280548015610c0357602002820191906000526020600020905b815481526020019060010190808311610bef575b5050505050815260200160048201805480602002602001604051908101604052809291908181526020018280548015610c5b57602002820191906000526020600020905b815481526020019060010190808311610c47575b5050505050815260200160058201805480602002602001604051908101604052809291908181526020018280548015610cb357602002820191906000526020600020905b815481526020019060010190808311610c9f575b5050505050815250509050919050565b60015481565b670de0b6b3a764000081565b610cdd610dcd565b73ffffffffffffffffffffffffffffffffffffffff16610cfb61098c565b73ffffffffffffffffffffffffffffffffffffffff1614610d51576040517f08c379a0000000000000000000000000000000000000000000000000000000008152600401610d4890611b35565b60405180910390fd5b600073ffffffffffffffffffffffffffffffffffffffff168173ffffffffffffffffffffffffffffffffffffffff161415610dc1576040517f08c379a0000000000000000000000000000000000000000000000000000000008152600401610db890611bc7565b60405180910390fd5b610dca81610dd5565b50565b600033905090565b60008060009054906101000a900473ffffffffffffffffffffffffffffffffffffffff169050816000806101000a81548173ffffffffffffffffffffffffffffffffffffffff021916908373ffffffffffffffffffffffffffffffffffffffff1602179055508173ffffffffffffffffffffffffffffffffffffffff168173ffffffffffffffffffffffffffffffffffffffff167f8be0079c531659141344cd1fd0a4f28419497f9722a3daafe3b4186f6b6457e060405160405180910390a35050565b828054828255906000526020600020908101928215610f12579160200282015b82811115610f115782518260006101000a81548173ffffffffffffffffffffffffffffffffffffffff021916908373ffffffffffffffffffffffffffffffffffffffff16021790555091602001919060010190610eb9565b5b509050610f1f9190610fbc565b5090565b828054828255906000526020600020908101928215610f5f579160200282015b82811115610f5e578251825591602001919060010190610f43565b5b509050610f6c9190610fbc565b5090565b6040518060c00160405280600073ffffffffffffffffffffffffffffffffffffffff16815260200160608152602001606081526020016060815260200160608152602001606081525090565b5b80821115610fd5576000816000905550600101610fbd565b5090565b600080fd5b600080fd5b600073ffffffffffffffffffffffffffffffffffffffff82169050919050565b600061100e82610fe3565b9050919050565b61101e81611003565b811461102957600080fd5b50565b60008135905061103b81611015565b92915050565b60006020828403121561105757611056610fd9565b5b60006110658482850161102c565b91505092915050565b6000819050919050565b6110818161106e565b82525050565b600060208201905061109c6000830184611078565b92915050565b6110ab8161106e565b81146110b657600080fd5b50565b6000813590506110c8816110a2565b92915050565b600080fd5b600080fd5b600080fd5b60008083601f8401126110f3576110f26110ce565b5b8235905067ffffffffffffffff8111156111105761110f6110d3565b5b60208301915083602082028301111561112c5761112b6110d8565b5b9250929050565b60008083601f840112611149576111486110ce565b5b8235905067ffffffffffffffff811115611166576111656110d3565b5b602083019150836020820283011115611182576111816110d8565b5b9250929050565b60008060008060008060008060008060c08b8d0312156111ac576111ab610fd9565b5b60006111ba8d828e0161102c565b9a505060206111cb8d828e016110b9565b99505060408b013567ffffffffffffffff8111156111ec576111eb610fde565b5b6111f88d828e016110dd565b985098505060608b013567ffffffffffffffff81111561121b5761121a610fde565b5b6112278d828e01611133565b965096505060808b013567ffffffffffffffff81111561124a57611249610fde565b5b6112568d828e01611133565b945094505060a08b013567ffffffffffffffff81111561127957611278610fde565b5b6112858d828e01611133565b92509250509295989b9194979a5092959850565b60008115159050919050565b6112ae81611299565b82525050565b60006020820190506112c960008301846112a5565b92915050565b6112d881611003565b82525050565b60006020820190506112f360008301846112cf565b92915050565b60008060006060848603121561131257611311610fd9565b5b60006113208682870161102c565b9350506020611331868287016110b9565b92505060406113428682870161102c565b9150509250925092565b60006020828403121561136257611361610fd9565b5b6000611370848285016110b9565b91505092915050565b61138281611003565b82525050565b600081519050919050565b600082825260208201905092915050565b6000819050602082019050919050565b60006113c08383611379565b60208301905092915050565b6000602082019050919050565b60006113e482611388565b6113ee8185611393565b93506113f9836113a4565b8060005b8381101561142a57815161141188826113b4565b975061141c836113cc565b9250506001810190506113fd565b5085935050505092915050565b600081519050919050565b600082825260208201905092915050565b6000819050602082019050919050565b61146c8161106e565b82525050565b600061147e8383611463565b60208301905092915050565b6000602082019050919050565b60006114a282611437565b6114ac8185611442565b93506114b783611453565b8060005b838110156114e85781516114cf8882611472565b97506114da8361148a565b9250506001810190506114bb565b5085935050505092915050565b600060c08301600083015161150d6000860182611379565b506020830151848203602086015261152582826113d9565b9150506040830151848203604086015261153f8282611497565b915050606083015184820360608601526115598282611497565b915050608083015184820360808601526115738282611497565b91505060a083015184820360a086015261158d8282611497565b9150508091505092915050565b600060208201905081810360008301526115b481846114f5565b905092915050565b600082825260208201905092915050565b7f564553543a205a45524f2041444452204e4f5420544f4b454e00000000000000600082015250565b60006116036019836115bc565b915061160e826115cd565b602082019050919050565b60006020820190508181036000830152611632816115f6565b9050919050565b7f564553543a2043414e4e4f542056455354203020414d4f554e54000000000000600082015250565b600061166f601a836115bc565b915061167a82611639565b602082019050919050565b6000602082019050818103600083015261169e81611662565b9050919050565b7f564553543a204e4f20524543495049454e545300000000000000000000000000600082015250565b60006116db6013836115bc565b91506116e6826116a5565b602082019050919050565b6000602082019050818103600083015261170a816116ce565b9050919050565b7f564553543a2057524f4e4720414d4f554e5453204152524159204c454e475448600082015250565b60006117476020836115bc565b915061175282611711565b602082019050919050565b600060208201905081810360008301526117768161173a565b9050919050565b7f564553543a2057524f4e472053544152542054494d4553204c454e4754480000600082015250565b60006117b3601e836115bc565b91506117be8261177d565b602082019050919050565b600060208201905081810360008301526117e2816117a6565b9050919050565b7f564553543a2057524f4e4720454e442054494d4553204c454e47544800000000600082015250565b600061181f601c836115bc565b915061182a826117e9565b602082019050919050565b6000602082019050818103600083015261184e81611812565b9050919050565b7f4e487b7100000000000000000000000000000000000000000000000000000000600052603260045260246000fd5b7f4e487b7100000000000000000000000000000000000000000000000000000000600052601160045260246000fd5b60006118be8261106e565b91506118c98361106e565b9250827fffffffffffffffffffffffffffffffffffffffffffffffffffffffffffffffff038211156118fe576118fd611884565b5b828201905092915050565b60006119148261106e565b91507fffffffffffffffffffffffffffffffffffffffffffffffffffffffffffffffff82141561194757611946611884565b5b600182019050919050565b7f564553543a20414d4f554e545320444f4e542053554d20544f20544f54414c00600082015250565b6000611988601f836115bc565b915061199382611952565b602082019050919050565b600060208201905081810360008301526119b78161197b565b9050919050565b60006060820190506119d360008301866112cf565b6119e060208301856112cf565b6119ed6040830184611078565b949350505050565b6119fe81611299565b8114611a0957600080fd5b50565b600081519050611a1b816119f5565b92915050565b600060208284031215611a3757611a36610fd9565b5b6000611a4584828501611a0c565b91505092915050565b7f564553543a20544f4b454e205452414e53464552204641494c45440000000000600082015250565b6000611a84601b836115bc565b9150611a8f82611a4e565b602082019050919050565b60006020820190508181036000830152611ab381611a77565b9050919050565b7f4e487b7100000000000000000000000000000000000000000000000000000000600052604160045260246000fd5b7f4f776e61626c653a2063616c6c6572206973206e6f7420746865206f776e6572600082015250565b6000611b1f6020836115bc565b9150611b2a82611ae9565b602082019050919050565b60006020820190508181036000830152611b4e81611b12565b9050919050565b7f4f776e61626c653a206e6577206f776e657220697320746865207a65726f206160008201527f6464726573730000000000000000000000000000000000000000000000000000602082015250565b6000611bb16026836115bc565b9150611bbc82611b55565b604082019050919050565b60006020820190508181036000830152611be081611ba4565b905091905056fea264697066735822122066289c6ab0f623dd4e253d70667633eff520c930fee5e6edf693f21000d9dc4a64736f6c634300080a0033",
  "linkReferences": {},
  "deployedLinkReferences": {}
}