{
  "_format": "hh-sol-artifact-1",
  "contractName": "VestCore",
  "sourceName": "contracts/VestCore.sol",
  "abi": [
    {
      "inputs": [],
      "stateMutability": "nonpayable",
      "type": "constructor"
    },
    {
      "anonymous": false,
      "inputs": [
        {
          "indexed": true,
          "internalType": "uint256",
          "name": "vBoxID",
          "type": "uint256"
        },
        {
          "indexed": false,
          "internalType": "address",
          "name": "account",
          "type": "address"
        },
        {
          "indexed": false,
          "internalType": "uint256",
          "name": "amount",
          "type": "uint256"
        },
        {
          "indexed": false,
          "internalType": "uint128",
          "name": "startTime",
          "type": "uint128"
        },
        {
          "indexed": false,
          "internalType": "uint128",
          "name": "endTime",
          "type": "uint128"
        }
      ],
      "name": "AccountAddedToVestingBox",
      "type": "event"
    },
    {
      "anonymous": false,
      "inputs": [
        {
          "indexed": true,
          "internalType": "uint256",
          "name": "vBoxID",
          "type": "uint256"
        },
        {
          "indexed": false,
          "internalType": "address",
          "name": "account",
          "type": "address"
        },
        {
          "indexed": false,
          "internalType": "uint256",
          "name": "amountVested",
          "type": "uint256"
        },
        {
          "indexed": false,
          "internalType": "uint256",
          "name": "amountForfeited",
          "type": "uint256"
        }
      ],
      "name": "AccountRemovedFromVestingBox",
      "type": "event"
    },
    {
      "anonymous": false,
      "inputs": [
        {
          "indexed": false,
          "internalType": "address",
          "name": "tokenAddress",
          "type": "address"
        }
      ],
      "name": "ERC20Created",
      "type": "event"
    },
    {
      "anonymous": false,
      "inputs": [
        {
          "indexed": false,
          "internalType": "uint256",
          "name": "oldFee",
          "type": "uint256"
        },
        {
          "indexed": false,
          "internalType": "uint256",
          "name": "newFee",
          "type": "uint256"
        }
      ],
      "name": "FeesSet",
      "type": "event"
    },
    {
      "anonymous": false,
      "inputs": [
        {
          "indexed": false,
          "internalType": "address",
          "name": "token",
          "type": "address"
        },
        {
          "indexed": false,
          "internalType": "uint256",
          "name": "amount",
          "type": "uint256"
        },
        {
          "indexed": false,
          "internalType": "address",
          "name": "_to",
          "type": "address"
        }
      ],
      "name": "FeesWithdrawn",
      "type": "event"
    },
    {
      "anonymous": false,
      "inputs": [
        {
          "indexed": true,
          "internalType": "address",
          "name": "previousOwner",
          "type": "address"
        },
        {
          "indexed": true,
          "internalType": "address",
          "name": "newOwner",
          "type": "address"
        }
      ],
      "name": "OwnershipTransferred",
      "type": "event"
    },
    {
      "anonymous": false,
      "inputs": [
        {
          "indexed": true,
          "internalType": "uint256",
          "name": "vBoxID",
          "type": "uint256"
        },
        {
          "indexed": true,
          "internalType": "address",
          "name": "token",
          "type": "address"
        },
        {
          "indexed": false,
          "internalType": "uint256",
          "name": "amountClaimed",
          "type": "uint256"
        },
        {
          "indexed": false,
          "internalType": "address",
          "name": "recipient",
          "type": "address"
        }
      ],
      "name": "VestedTokensClaimed",
      "type": "event"
    },
    {
      "anonymous": false,
      "inputs": [
        {
          "indexed": true,
          "internalType": "uint256",
          "name": "vBoxID",
          "type": "uint256"
        },
        {
          "indexed": false,
          "internalType": "address",
          "name": "account",
          "type": "address"
        },
        {
          "indexed": false,
          "internalType": "bool",
          "name": "isAdmin",
          "type": "bool"
        }
      ],
      "name": "VestingBoxAdminSet",
      "type": "event"
    },
    {
      "anonymous": false,
      "inputs": [
        {
          "indexed": true,
          "internalType": "uint256",
          "name": "vBoxID",
          "type": "uint256"
        },
        {
          "indexed": true,
          "internalType": "address",
          "name": "token",
          "type": "address"
        },
        {
          "indexed": false,
          "internalType": "address",
          "name": "creator",
          "type": "address"
        },
        {
          "indexed": false,
          "internalType": "uint256",
          "name": "totalBoxAmount",
          "type": "uint256"
        }
      ],
      "name": "VestingBoxCreated",
      "type": "event"
    },
    {
      "inputs": [],
      "name": "ETH",
      "outputs": [
        {
          "internalType": "address",
          "name": "",
          "type": "address"
        }
      ],
      "stateMutability": "view",
      "type": "function"
    },
    {
      "inputs": [],
      "name": "SCALE",
      "outputs": [
        {
          "internalType": "uint256",
          "name": "",
          "type": "uint256"
        }
      ],
      "stateMutability": "view",
      "type": "function"
    },
    {
      "inputs": [
        {
          "internalType": "uint256",
          "name": "_vBoxId",
          "type": "uint256"
        },
        {
          "internalType": "address",
          "name": "_recipient",
          "type": "address"
        },
        {
          "components": [
            {
              "internalType": "uint256",
              "name": "amount",
              "type": "uint256"
            },
            {
              "internalType": "uint256",
              "name": "withdrawn",
              "type": "uint256"
            },
            {
              "internalType": "uint128",
              "name": "startTime",
              "type": "uint128"
            },
            {
              "internalType": "uint128",
              "name": "endTime",
              "type": "uint128"
            }
          ],
          "internalType": "struct VestCore.VestingBoxAccount",
          "name": "_vBoxAccount",
          "type": "tuple"
        }
      ],
      "name": "addAccountToVestingBox",
      "outputs": [],
      "stateMutability": "nonpayable",
      "type": "function"
    },
    {
      "inputs": [
        {
          "internalType": "uint256",
          "name": "_vBoxId",
          "type": "uint256"
        },
        {
          "internalType": "uint256",
          "name": "_amountToClaim",
          "type": "uint256"
        }
      ],
      "name": "claimVestedTokens",
      "outputs": [
        {
          "internalType": "bool",
          "name": "",
          "type": "bool"
        }
      ],
      "stateMutability": "nonpayable",
      "type": "function"
    },
    {
      "inputs": [
        {
          "internalType": "uint256",
          "name": "_totalAmount",
          "type": "uint256"
        },
        {
          "components": [
            {
              "internalType": "address",
              "name": "token",
              "type": "address"
            },
            {
              "internalType": "address[]",
              "name": "admins",
              "type": "address[]"
            },
            {
              "internalType": "address[]",
              "name": "recipients",
              "type": "address[]"
            }
          ],
          "internalType": "struct VestCore.VestingBox",
          "name": "_vBox",
          "type": "tuple"
        },
        {
          "components": [
            {
              "internalType": "uint256",
              "name": "amount",
              "type": "uint256"
            },
            {
              "internalType": "uint256",
              "name": "withdrawn",
              "type": "uint256"
            },
            {
              "internalType": "uint128",
              "name": "startTime",
              "type": "uint128"
            },
            {
              "internalType": "uint128",
              "name": "endTime",
              "type": "uint128"
            }
          ],
          "internalType": "struct VestCore.VestingBoxAccount[]",
          "name": "_vBoxAccounts",
          "type": "tuple[]"
        }
      ],
      "name": "createVestingBoxWithETH",
      "outputs": [
        {
          "internalType": "bool",
          "name": "",
          "type": "bool"
        }
      ],
      "stateMutability": "payable",
      "type": "function"
    },
    {
      "inputs": [
        {
          "internalType": "uint256",
          "name": "_totalAmount",
          "type": "uint256"
        },
        {
          "components": [
            {
              "internalType": "address",
              "name": "token",
              "type": "address"
            },
            {
              "internalType": "address[]",
              "name": "admins",
              "type": "address[]"
            },
            {
              "internalType": "address[]",
              "name": "recipients",
              "type": "address[]"
            }
          ],
          "internalType": "struct VestCore.VestingBox",
          "name": "_vBox",
          "type": "tuple"
        },
        {
          "components": [
            {
              "internalType": "uint256",
              "name": "amount",
              "type": "uint256"
            },
            {
              "internalType": "uint256",
              "name": "withdrawn",
              "type": "uint256"
            },
            {
              "internalType": "uint128",
              "name": "startTime",
              "type": "uint128"
            },
            {
              "internalType": "uint128",
              "name": "endTime",
              "type": "uint128"
            }
          ],
          "internalType": "struct VestCore.VestingBoxAccount[]",
          "name": "_vBoxAccounts",
          "type": "tuple[]"
        }
      ],
      "name": "createVestingBoxWithExistingToken",
      "outputs": [
        {
          "internalType": "bool",
          "name": "",
          "type": "bool"
        }
      ],
      "stateMutability": "nonpayable",
      "type": "function"
    },
    {
      "inputs": [
        {
          "internalType": "uint256",
          "name": "_totalAmount",
          "type": "uint256"
        },
        {
          "components": [
            {
              "internalType": "address",
              "name": "token",
              "type": "address"
            },
            {
              "internalType": "address[]",
              "name": "admins",
              "type": "address[]"
            },
            {
              "internalType": "address[]",
              "name": "recipients",
              "type": "address[]"
            }
          ],
          "internalType": "struct VestCore.VestingBox",
          "name": "_vBox",
          "type": "tuple"
        },
        {
          "components": [
            {
              "internalType": "uint256",
              "name": "amount",
              "type": "uint256"
            },
            {
              "internalType": "uint256",
              "name": "withdrawn",
              "type": "uint256"
            },
            {
              "internalType": "uint128",
              "name": "startTime",
              "type": "uint128"
            },
            {
              "internalType": "uint128",
              "name": "endTime",
              "type": "uint128"
            }
          ],
          "internalType": "struct VestCore.VestingBoxAccount[]",
          "name": "_vBoxAccounts",
          "type": "tuple[]"
        },
        {
          "internalType": "string",
          "name": "_tokenName",
          "type": "string"
        },
        {
          "internalType": "string",
          "name": "_tokenSymbol",
          "type": "string"
        },
        {
          "internalType": "uint256",
          "name": "_tokenTotalSupply",
          "type": "uint256"
        }
      ],
      "name": "createVestingBoxWithNewToken",
      "outputs": [
        {
          "internalType": "bool",
          "name": "",
          "type": "bool"
        }
      ],
      "stateMutability": "nonpayable",
      "type": "function"
    },
    {
      "inputs": [],
      "name": "fee",
      "outputs": [
        {
          "internalType": "uint256",
          "name": "",
          "type": "uint256"
        }
      ],
      "stateMutability": "view",
      "type": "function"
    },
    {
      "inputs": [
        {
          "internalType": "address",
          "name": "_token",
          "type": "address"
        }
      ],
      "name": "getAssetHeldForVesting",
      "outputs": [
        {
          "internalType": "uint256",
          "name": "",
          "type": "uint256"
        }
      ],
      "stateMutability": "view",
      "type": "function"
    },
    {
      "inputs": [
        {
          "internalType": "address",
          "name": "_token",
          "type": "address"
        }
      ],
      "name": "getProtocolFeesEarned",
      "outputs": [
        {
          "internalType": "uint256",
          "name": "",
          "type": "uint256"
        }
      ],
      "stateMutability": "view",
      "type": "function"
    },
    {
      "inputs": [
        {
          "internalType": "uint256",
          "name": "_vestingBoxId",
          "type": "uint256"
        }
      ],
      "name": "getVestingBox",
      "outputs": [
        {
          "components": [
            {
              "internalType": "address",
              "name": "token",
              "type": "address"
            },
            {
              "internalType": "address[]",
              "name": "admins",
              "type": "address[]"
            },
            {
              "internalType": "address[]",
              "name": "recipients",
              "type": "address[]"
            }
          ],
          "internalType": "struct VestCore.VestingBox",
          "name": "vestingBox",
          "type": "tuple"
        }
      ],
      "stateMutability": "view",
      "type": "function"
    },
    {
      "inputs": [
        {
          "internalType": "uint256",
          "name": "_vBoxId",
          "type": "uint256"
        },
        {
          "internalType": "address",
          "name": "_account",
          "type": "address"
        }
      ],
      "name": "getWithdrawableAmount",
      "outputs": [
        {
          "internalType": "uint256",
          "name": "",
          "type": "uint256"
        }
      ],
      "stateMutability": "view",
      "type": "function"
    },
    {
      "inputs": [],
      "name": "owner",
      "outputs": [
        {
          "internalType": "address",
          "name": "",
          "type": "address"
        }
      ],
      "stateMutability": "view",
      "type": "function"
    },
    {
      "inputs": [
        {
          "internalType": "uint256",
          "name": "_vBoxId",
          "type": "uint256"
        },
        {
          "internalType": "address",
          "name": "_recipient",
          "type": "address"
        }
      ],
      "name": "removeAccountFromVestingBox",
      "outputs": [],
      "stateMutability": "nonpayable",
      "type": "function"
    },
    {
      "inputs": [],
      "name": "renounceOwnership",
      "outputs": [],
      "stateMutability": "nonpayable",
      "type": "function"
    },
    {
      "inputs": [
        {
          "internalType": "uint256",
          "name": "_fee",
          "type": "uint256"
        }
      ],
      "name": "setFee",
      "outputs": [],
      "stateMutability": "nonpayable",
      "type": "function"
    },
    {
      "inputs": [
        {
          "internalType": "contract IVestERC20Factory",
          "name": "_newFactory",
          "type": "address"
        }
      ],
      "name": "setTokenFactory",
      "outputs": [],
      "stateMutability": "nonpayable",
      "type": "function"
    },
    {
      "inputs": [
        {
          "internalType": "uint256",
          "name": "_vBoxId",
          "type": "uint256"
        },
        {
          "internalType": "address",
          "name": "_account",
          "type": "address"
        },
        {
          "internalType": "bool",
          "name": "_isAdmin",
          "type": "bool"
        }
      ],
      "name": "setVestingBoxAdmin",
      "outputs": [],
      "stateMutability": "nonpayable",
      "type": "function"
    },
    {
      "inputs": [],
      "name": "tokenFactory",
      "outputs": [
        {
          "internalType": "contract IVestERC20Factory",
          "name": "",
          "type": "address"
        }
      ],
      "stateMutability": "view",
      "type": "function"
    },
    {
      "inputs": [
        {
          "internalType": "address",
          "name": "newOwner",
          "type": "address"
        }
      ],
      "name": "transferOwnership",
      "outputs": [],
      "stateMutability": "nonpayable",
      "type": "function"
    },
    {
      "inputs": [],
      "name": "vBoxCount",
      "outputs": [
        {
          "internalType": "uint256",
          "name": "",
          "type": "uint256"
        }
      ],
      "stateMutability": "view",
      "type": "function"
    },
    {
      "inputs": [
        {
          "internalType": "uint256",
          "name": "_amount",
          "type": "uint256"
        },
        {
          "internalType": "address",
          "name": "_to",
          "type": "address"
        }
      ],
      "name": "withdrawETHFees",
      "outputs": [],
      "stateMutability": "nonpayable",
      "type": "function"
    },
    {
      "inputs": [
        {
          "internalType": "address",
          "name": "_token",
          "type": "address"
        },
        {
          "internalType": "uint256",
          "name": "_amount",
          "type": "uint256"
        },
        {
          "internalType": "address",
          "name": "_to",
          "type": "address"
        }
      ],
      "name": "withdrawTokenFees",
      "outputs": [],
      "stateMutability": "nonpayable",
      "type": "function"
    }
  ],
  "bytecode": "0x608060405266038d7ea4c68000600155600060025573eeeeeeeeeeeeeeeeeeeeeeeeeeeeeeeeeeeeeeee600460006101000a81548173ffffffffffffffffffffffffffffffffffffffff021916908373ffffffffffffffffffffffffffffffffffffffff1602179055503480156200007657600080fd5b50620000976200008b6200009d60201b60201c565b620000a560201b60201c565b62000169565b600033905090565b60008060009054906101000a900473ffffffffffffffffffffffffffffffffffffffff169050816000806101000a81548173ffffffffffffffffffffffffffffffffffffffff021916908373ffffffffffffffffffffffffffffffffffffffff1602179055508173ffffffffffffffffffffffffffffffffffffffff168173ffffffffffffffffffffffffffffffffffffffff167f8be0079c531659141344cd1fd0a4f28419497f9722a3daafe3b4186f6b6457e060405160405180910390a35050565b613a0f80620001796000396000f3fe6080604052600436106101405760003560e01c80638da5cb5b116100b6578063ddca3f431161006f578063ddca3f4314610483578063e77772fe146104ae578063e9b3663e146104d9578063ec4d26cf14610504578063eced55261461052d578063f2fde38b1461055857610140565b80638da5cb5b1461034f57806394e4bb421461037a57806395be5498146103b7578063c6530006146103e0578063c68482a71461041d578063d3d072cc1461045a57610140565b80635188723911610108578063518872391461025557806369fe0e2d14610292578063715018a6146102bb57806371b4e6e7146102d25780638322fff2146102fb5780638cfe046e1461032657610140565b80632f73a9f8146101455780633336289f1461016e578063359cd45e146101ab5780633b2b9e8a146101e85780634a918a0c14610218575b600080fd5b34801561015157600080fd5b5061016c600480360381019061016791906124b4565b610581565b005b34801561017a57600080fd5b50610195600480360381019061019091906128c5565b6106b1565b6040516101a2919061296b565b60405180910390f35b3480156101b757600080fd5b506101d260048036038101906101cd9190612986565b6106c9565b6040516101df91906129d5565b60405180910390f35b61020260048036038101906101fd91906128c5565b610a9c565b60405161020f919061296b565b60405180910390f35b34801561022457600080fd5b5061023f600480360381019061023a91906129f0565b610b0e565b60405161024c91906129d5565b60405180910390f35b34801561026157600080fd5b5061027c60048036038101906102779190612a1d565b610ca6565b604051610289919061296b565b60405180910390f35b34801561029e57600080fd5b506102b960048036038101906102b49190612a5d565b610d95565b005b3480156102c757600080fd5b506102d0610e66565b005b3480156102de57600080fd5b506102f960048036038101906102f49190612986565b610eee565b005b34801561030757600080fd5b506103106110ca565b60405161031d9190612a99565b60405180910390f35b34801561033257600080fd5b5061034d60048036038101906103489190612ab4565b6110f0565b005b34801561035b57600080fd5b50610364611196565b6040516103719190612a99565b60405180910390f35b34801561038657600080fd5b506103a1600480360381019061039c9190612b62565b6111bf565b6040516103ae919061296b565b60405180910390f35b3480156103c357600080fd5b506103de60048036038101906103d99190612c69565b611220565b005b3480156103ec57600080fd5b50610407600480360381019061040291906129f0565b611426565b60405161041491906129d5565b60405180910390f35b34801561042957600080fd5b50610444600480360381019061043f9190612a5d565b61146f565b6040516104519190612dd1565b60405180910390f35b34801561046657600080fd5b50610481600480360381019061047c9190612e1f565b61162a565b005b34801561048f57600080fd5b50610498611772565b6040516104a591906129d5565b60405180910390f35b3480156104ba57600080fd5b506104c3611778565b6040516104d09190612ed1565b60405180910390f35b3480156104e557600080fd5b506104ee61179e565b6040516104fb91906129d5565b60405180910390f35b34801561051057600080fd5b5061052b60048036038101906105269190612986565b6117a4565b005b34801561053957600080fd5b50610542611849565b60405161054f91906129d5565b60405180910390f35b34801561056457600080fd5b5061057f600480360381019061057a91906129f0565b611855565b005b61058961194d565b73ffffffffffffffffffffffffffffffffffffffff166105a7611196565b73ffffffffffffffffffffffffffffffffffffffff16146105fd576040517f08c379a00000000000000000000000000000000000000000000000000000000081526004016105f490612f49565b60405180910390fd5b600073ffffffffffffffffffffffffffffffffffffffff168173ffffffffffffffffffffffffffffffffffffffff16141561066d576040517f08c379a000000000000000000000000000000000000000000000000000000000815260040161066490612fb5565b60405180910390fd5b80600360006101000a81548173ffffffffffffffffffffffffffffffffffffffff021916908373ffffffffffffffffffffffffffffffffffffffff16021790555050565b60006106c08484846000611955565b90509392505050565b60006006600084815260200190815260200160002060008373ffffffffffffffffffffffffffffffffffffffff1673ffffffffffffffffffffffffffffffffffffffff16815260200190815260200160002060020160109054906101000a90046fffffffffffffffffffffffffffffffff166fffffffffffffffffffffffffffffffff16421061080c576006600084815260200190815260200160002060008373ffffffffffffffffffffffffffffffffffffffff1673ffffffffffffffffffffffffffffffffffffffff168152602001908152602001600020600101546006600085815260200190815260200160002060008473ffffffffffffffffffffffffffffffffffffffff1673ffffffffffffffffffffffffffffffffffffffff168152602001908152602001600020600001546108059190613004565b9050610a96565b60006006600085815260200190815260200160002060008473ffffffffffffffffffffffffffffffffffffffff1673ffffffffffffffffffffffffffffffffffffffff16815260200190815260200160002060020160009054906101000a90046fffffffffffffffffffffffffffffffff166fffffffffffffffffffffffffffffffff164261089b9190613004565b905060006006600086815260200190815260200160002060008573ffffffffffffffffffffffffffffffffffffffff1673ffffffffffffffffffffffffffffffffffffffff16815260200190815260200160002060020160009054906101000a90046fffffffffffffffffffffffffffffffff166006600087815260200190815260200160002060008673ffffffffffffffffffffffffffffffffffffffff1673ffffffffffffffffffffffffffffffffffffffff16815260200190815260200160002060020160109054906101000a90046fffffffffffffffffffffffffffffffff166109899190613038565b6fffffffffffffffffffffffffffffffff1690506000670de0b6b3a7640000826109b3919061306c565b670de0b6b3a764000084600660008a815260200190815260200160002060008973ffffffffffffffffffffffffffffffffffffffff1673ffffffffffffffffffffffffffffffffffffffff16815260200190815260200160002060000154610a1b919061306c565b610a25919061306c565b610a2f91906130f5565b90506006600087815260200190815260200160002060008673ffffffffffffffffffffffffffffffffffffffff1673ffffffffffffffffffffffffffffffffffffffff1681526020019081526020016000206001015481610a909190613004565b93505050505b92915050565b6000600460009054906101000a900473ffffffffffffffffffffffffffffffffffffffff16836000019073ffffffffffffffffffffffffffffffffffffffff16908173ffffffffffffffffffffffffffffffffffffffff1681525050610b058484846000611955565b90509392505050565b6000600460009054906101000a900473ffffffffffffffffffffffffffffffffffffffff1673ffffffffffffffffffffffffffffffffffffffff168273ffffffffffffffffffffffffffffffffffffffff161415610bda5760086000600460009054906101000a900473ffffffffffffffffffffffffffffffffffffffff1673ffffffffffffffffffffffffffffffffffffffff1673ffffffffffffffffffffffffffffffffffffffff1681526020019081526020016000205447610bd39190613004565b9050610ca1565b600860008373ffffffffffffffffffffffffffffffffffffffff1673ffffffffffffffffffffffffffffffffffffffff168152602001908152602001600020548273ffffffffffffffffffffffffffffffffffffffff166370a08231306040518263ffffffff1660e01b8152600401610c539190612a99565b602060405180830381865afa158015610c70573d6000803e3d6000fd5b505050506040513d601f19601f82011682018060405250810190610c94919061313b565b610c9e9190613004565b90505b919050565b600080610cb384336106c9565b905082811015610cf8576040517f08c379a0000000000000000000000000000000000000000000000000000000008152600401610cef906131b4565b60405180910390fd5b610d028484611f2f565b506005600085815260200190815260200160002060000160009054906101000a900473ffffffffffffffffffffffffffffffffffffffff1673ffffffffffffffffffffffffffffffffffffffff16847f8eb0865c9da68f6f207dae091828f315df4736814a358375142237af0e0d374b8533604051610d829291906131d4565b60405180910390a3600191505092915050565b610d9d61194d565b73ffffffffffffffffffffffffffffffffffffffff16610dbb611196565b73ffffffffffffffffffffffffffffffffffffffff1614610e11576040517f08c379a0000000000000000000000000000000000000000000000000000000008152600401610e0890612f49565b60405180910390fd5b670de0b6b3a7640000811115610e5c576040517f08c379a0000000000000000000000000000000000000000000000000000000008152600401610e5390613249565b60405180910390fd5b8060018190555050565b610e6e61194d565b73ffffffffffffffffffffffffffffffffffffffff16610e8c611196565b73ffffffffffffffffffffffffffffffffffffffff1614610ee2576040517f08c379a0000000000000000000000000000000000000000000000000000000008152600401610ed990612f49565b60405180910390fd5b610eec600061219f565b565b610ef661194d565b73ffffffffffffffffffffffffffffffffffffffff16610f14611196565b73ffffffffffffffffffffffffffffffffffffffff1614610f6a576040517f08c379a0000000000000000000000000000000000000000000000000000000008152600401610f6190612f49565b60405180910390fd5b8160086000600460009054906101000a900473ffffffffffffffffffffffffffffffffffffffff1673ffffffffffffffffffffffffffffffffffffffff1673ffffffffffffffffffffffffffffffffffffffff1681526020019081526020016000205447610fd89190613004565b1015611019576040517f08c379a0000000000000000000000000000000000000000000000000000000008152600401611010906132b5565b60405180910390fd5b60008173ffffffffffffffffffffffffffffffffffffffff168360405161103f90613306565b60006040518083038185875af1925050503d806000811461107c576040519150601f19603f3d011682016040523d82523d6000602084013e611081565b606091505b50509050806110c5576040517f08c379a00000000000000000000000000000000000000000000000000000000081526004016110bc90613367565b60405180910390fd5b505050565b600460009054906101000a900473ffffffffffffffffffffffffffffffffffffffff1681565b82336007600083815260200190815260200160002060008273ffffffffffffffffffffffffffffffffffffffff1673ffffffffffffffffffffffffffffffffffffffff16815260200190815260200160002060009054906101000a900460ff1661118f576040517f08c379a0000000000000000000000000000000000000000000000000000000008152600401611186906133d3565b60405180910390fd5b5050505050565b60008060009054906101000a900473ffffffffffffffffffffffffffffffffffffffff16905090565b60006111ce8686868686612263565b886000019073ffffffffffffffffffffffffffffffffffffffff16908173ffffffffffffffffffffffffffffffffffffffff16815250506112128989896001611955565b905098975050505050505050565b61122861194d565b73ffffffffffffffffffffffffffffffffffffffff16611246611196565b73ffffffffffffffffffffffffffffffffffffffff161461129c576040517f08c379a000000000000000000000000000000000000000000000000000000000815260040161129390612f49565b60405180910390fd5b81600860008573ffffffffffffffffffffffffffffffffffffffff1673ffffffffffffffffffffffffffffffffffffffff168152602001908152602001600020548473ffffffffffffffffffffffffffffffffffffffff166370a08231306040518263ffffffff1660e01b81526004016113169190612a99565b602060405180830381865afa158015611333573d6000803e3d6000fd5b505050506040513d601f19601f82011682018060405250810190611357919061313b565b6113619190613004565b10156113a2576040517f08c379a0000000000000000000000000000000000000000000000000000000008152600401611399906132b5565b60405180910390fd5b8273ffffffffffffffffffffffffffffffffffffffff1663a9059cbb82846040518363ffffffff1660e01b81526004016113dd9291906133f3565b6020604051808303816000875af11580156113fc573d6000803e3d6000fd5b505050506040513d601f19601f820116820180604052508101906114209190613431565b50505050565b6000600860008373ffffffffffffffffffffffffffffffffffffffff1673ffffffffffffffffffffffffffffffffffffffff168152602001908152602001600020549050919050565b611477612352565b6000821161148457600080fd5b60025482111561149357600080fd5b600560008381526020019081526020016000206040518060600160405290816000820160009054906101000a900473ffffffffffffffffffffffffffffffffffffffff1673ffffffffffffffffffffffffffffffffffffffff1673ffffffffffffffffffffffffffffffffffffffff1681526020016001820180548060200260200160405190810160405280929190818152602001828054801561158c57602002820191906000526020600020905b8160009054906101000a900473ffffffffffffffffffffffffffffffffffffffff1673ffffffffffffffffffffffffffffffffffffffff1681526020019060010190808311611542575b505050505081526020016002820180548060200260200160405190810160405280929190818152602001828054801561161a57602002820191906000526020600020905b8160009054906101000a900473ffffffffffffffffffffffffffffffffffffffff1673ffffffffffffffffffffffffffffffffffffffff16815260200190600101908083116115d0575b5050505050815250509050919050565b82336007600083815260200190815260200160002060008273ffffffffffffffffffffffffffffffffffffffff1673ffffffffffffffffffffffffffffffffffffffff16815260200190815260200160002060009054906101000a900460ff166116c9576040517f08c379a00000000000000000000000000000000000000000000000000000000081526004016116c0906133d3565b60405180910390fd5b826007600087815260200190815260200160002060008673ffffffffffffffffffffffffffffffffffffffff1673ffffffffffffffffffffffffffffffffffffffff16815260200190815260200160002060006101000a81548160ff021916908315150217905550847f3f82e6ad49df50c375ed08891b7f6c57d8827a148033a02f32ca1ae3aa265a42858560405161176392919061345e565b60405180910390a25050505050565b60015481565b600360009054906101000a900473ffffffffffffffffffffffffffffffffffffffff1681565b60025481565b81336007600083815260200190815260200160002060008273ffffffffffffffffffffffffffffffffffffffff1673ffffffffffffffffffffffffffffffffffffffff16815260200190815260200160002060009054906101000a900460ff16611843576040517f08c379a000000000000000000000000000000000000000000000000000000000815260040161183a906133d3565b60405180910390fd5b50505050565b670de0b6b3a764000081565b61185d61194d565b73ffffffffffffffffffffffffffffffffffffffff1661187b611196565b73ffffffffffffffffffffffffffffffffffffffff16146118d1576040517f08c379a00000000000000000000000000000000000000000000000000000000081526004016118c890612f49565b60405180910390fd5b600073ffffffffffffffffffffffffffffffffffffffff168173ffffffffffffffffffffffffffffffffffffffff161415611941576040517f08c379a0000000000000000000000000000000000000000000000000000000008152600401611938906134f9565b60405180910390fd5b61194a8161219f565b50565b600033905090565b6000808511611999576040517f08c379a000000000000000000000000000000000000000000000000000000000815260040161199090613565565b60405180910390fd5b6000846040015151116119e1576040517f08c379a00000000000000000000000000000000000000000000000000000000081526004016119d8906135d1565b60405180910390fd5b825184604001515114611a29576040517f08c379a0000000000000000000000000000000000000000000000000000000008152600401611a209061363d565b60405180910390fd5b600460009054906101000a900473ffffffffffffffffffffffffffffffffffffffff1673ffffffffffffffffffffffffffffffffffffffff16846000015173ffffffffffffffffffffffffffffffffffffffff161415611ac75784341015611ac6576040517f08c379a0000000000000000000000000000000000000000000000000000000008152600401611abd906136a9565b60405180910390fd5b5b6000805b8451811015611b1357848181518110611ae757611ae66136c9565b5b60200260200101516000015182611afe91906136f8565b91508080611b0b9061374e565b915050611acb565b50858114611b56576040517f08c379a0000000000000000000000000000000000000000000000000000000008152600401611b4d906137e3565b60405180910390fd5b600460009054906101000a900473ffffffffffffffffffffffffffffffffffffffff1673ffffffffffffffffffffffffffffffffffffffff16856000015173ffffffffffffffffffffffffffffffffffffffff1614158015611bb6575082155b15611c7f57846000015173ffffffffffffffffffffffffffffffffffffffff166323b872dd3330896040518463ffffffff1660e01b8152600401611bfc93929190613803565b6020604051808303816000875af1158015611c1b573d6000803e3d6000fd5b505050506040513d601f19601f82011682018060405250810190611c3f9190613431565b611c7e576040517f08c379a0000000000000000000000000000000000000000000000000000000008152600401611c7590613886565b60405180910390fd5b5b60026000815480929190611c929061374e565b91905055508460056000600254815260200190815260200160002060008201518160000160006101000a81548173ffffffffffffffffffffffffffffffffffffffff021916908373ffffffffffffffffffffffffffffffffffffffff1602179055506020820151816001019080519060200190611d10929190612389565b506040820151816002019080519060200190611d2d929190612389565b5090505060005b8451811015611e7057848181518110611d5057611d4f6136c9565b5b6020026020010151600660006002548152602001908152602001600020600088604001518481518110611d8657611d856136c9565b5b602002602001015173ffffffffffffffffffffffffffffffffffffffff1673ffffffffffffffffffffffffffffffffffffffff168152602001908152602001600020600082015181600001556020820151816001015560408201518160020160006101000a8154816fffffffffffffffffffffffffffffffff02191690836fffffffffffffffffffffffffffffffff16021790555060608201518160020160106101000a8154816fffffffffffffffffffffffffffffffff02191690836fffffffffffffffffffffffffffffffff1602179055509050508080611e689061374e565b915050611d34565b508560086000876000015173ffffffffffffffffffffffffffffffffffffffff1673ffffffffffffffffffffffffffffffffffffffff1681526020019081526020016000206000828254611ec491906136f8565b92505081905550846000015173ffffffffffffffffffffffffffffffffffffffff166002547f09f269811cffd09fb630ee319c1b845625b319c2446953fc766a761a64c47bc43389604051611f1a9291906133f3565b60405180910390a36001915050949350505050565b60008060009050826006600086815260200190815260200160002060003373ffffffffffffffffffffffffffffffffffffffff1673ffffffffffffffffffffffffffffffffffffffff1681526020019081526020016000206001016000828254611f9991906136f8565b92505081905550600460009054906101000a900473ffffffffffffffffffffffffffffffffffffffff1673ffffffffffffffffffffffffffffffffffffffff166005600086815260200190815260200160002060000160009054906101000a900473ffffffffffffffffffffffffffffffffffffffff1673ffffffffffffffffffffffffffffffffffffffff16141561209d573373ffffffffffffffffffffffffffffffffffffffff168360405161205090613306565b60006040518083038185875af1925050503d806000811461208d576040519150601f19603f3d011682016040523d82523d6000602084013e612092565b606091505b505080915050612154565b6005600085815260200190815260200160002060000160009054906101000a900473ffffffffffffffffffffffffffffffffffffffff1673ffffffffffffffffffffffffffffffffffffffff1663a9059cbb33856040518363ffffffff1660e01b815260040161210e9291906133f3565b6020604051808303816000875af115801561212d573d6000803e3d6000fd5b505050506040513d601f19601f820116820180604052508101906121519190613431565b90505b80612194576040517f08c379a000000000000000000000000000000000000000000000000000000000815260040161218b906138f2565b60405180910390fd5b600191505092915050565b60008060009054906101000a900473ffffffffffffffffffffffffffffffffffffffff169050816000806101000a81548173ffffffffffffffffffffffffffffffffffffffff021916908373ffffffffffffffffffffffffffffffffffffffff1602179055508173ffffffffffffffffffffffffffffffffffffffff168173ffffffffffffffffffffffffffffffffffffffff167f8be0079c531659141344cd1fd0a4f28419497f9722a3daafe3b4186f6b6457e060405160405180910390a35050565b600080600360009054906101000a900473ffffffffffffffffffffffffffffffffffffffff1673ffffffffffffffffffffffffffffffffffffffff166372e4352d88888888886040518663ffffffff1660e01b81526004016122c995949392919061394e565b6020604051808303816000875af11580156122e8573d6000803e3d6000fd5b505050506040513d601f19601f8201168201806040525081019061230c91906139ac565b90507f41039c8b82bb5a365f56b4f9d87cee99e069b450bfdc3d87696fcd87783f24c18160405161233d9190612a99565b60405180910390a18091505095945050505050565b6040518060600160405280600073ffffffffffffffffffffffffffffffffffffffff16815260200160608152602001606081525090565b828054828255906000526020600020908101928215612402579160200282015b828111156124015782518260006101000a81548173ffffffffffffffffffffffffffffffffffffffff021916908373ffffffffffffffffffffffffffffffffffffffff160217905550916020019190600101906123a9565b5b50905061240f9190612413565b5090565b5b8082111561242c576000816000905550600101612414565b5090565b6000604051905090565b600080fd5b600080fd5b600073ffffffffffffffffffffffffffffffffffffffff82169050919050565b600061246f82612444565b9050919050565b600061248182612464565b9050919050565b61249181612476565b811461249c57600080fd5b50565b6000813590506124ae81612488565b92915050565b6000602082840312156124ca576124c961243a565b5b60006124d88482850161249f565b91505092915050565b6000819050919050565b6124f4816124e1565b81146124ff57600080fd5b50565b600081359050612511816124eb565b92915050565b600080fd5b6000601f19601f8301169050919050565b7f4e487b7100000000000000000000000000000000000000000000000000000000600052604160045260246000fd5b6125658261251c565b810181811067ffffffffffffffff821117156125845761258361252d565b5b80604052505050565b6000612597612430565b90506125a3828261255c565b919050565b600080fd5b6125b681612464565b81146125c157600080fd5b50565b6000813590506125d3816125ad565b92915050565b600080fd5b600067ffffffffffffffff8211156125f9576125f861252d565b5b602082029050602081019050919050565b600080fd5b600061262261261d846125de565b61258d565b905080838252602082019050602084028301858111156126455761264461260a565b5b835b8181101561266e578061265a88826125c4565b845260208401935050602081019050612647565b5050509392505050565b600082601f83011261268d5761268c6125d9565b5b813561269d84826020860161260f565b91505092915050565b6000606082840312156126bc576126bb612517565b5b6126c6606061258d565b905060006126d6848285016125c4565b600083015250602082013567ffffffffffffffff8111156126fa576126f96125a8565b5b61270684828501612678565b602083015250604082013567ffffffffffffffff81111561272a576127296125a8565b5b61273684828501612678565b60408301525092915050565b600067ffffffffffffffff82111561275d5761275c61252d565b5b602082029050602081019050919050565b60006fffffffffffffffffffffffffffffffff82169050919050565b6127938161276e565b811461279e57600080fd5b50565b6000813590506127b08161278a565b92915050565b6000608082840312156127cc576127cb612517565b5b6127d6608061258d565b905060006127e684828501612502565b60008301525060206127fa84828501612502565b602083015250604061280e848285016127a1565b6040830152506060612822848285016127a1565b60608301525092915050565b600061284161283c84612742565b61258d565b905080838252602082019050608084028301858111156128645761286361260a565b5b835b8181101561288d578061287988826127b6565b845260208401935050608081019050612866565b5050509392505050565b600082601f8301126128ac576128ab6125d9565b5b81356128bc84826020860161282e565b91505092915050565b6000806000606084860312156128de576128dd61243a565b5b60006128ec86828701612502565b935050602084013567ffffffffffffffff81111561290d5761290c61243f565b5b612919868287016126a6565b925050604084013567ffffffffffffffff81111561293a5761293961243f565b5b61294686828701612897565b9150509250925092565b60008115159050919050565b61296581612950565b82525050565b6000602082019050612980600083018461295c565b92915050565b6000806040838503121561299d5761299c61243a565b5b60006129ab85828601612502565b92505060206129bc858286016125c4565b9150509250929050565b6129cf816124e1565b82525050565b60006020820190506129ea60008301846129c6565b92915050565b600060208284031215612a0657612a0561243a565b5b6000612a14848285016125c4565b91505092915050565b60008060408385031215612a3457612a3361243a565b5b6000612a4285828601612502565b9250506020612a5385828601612502565b9150509250929050565b600060208284031215612a7357612a7261243a565b5b6000612a8184828501612502565b91505092915050565b612a9381612464565b82525050565b6000602082019050612aae6000830184612a8a565b92915050565b600080600060c08486031215612acd57612acc61243a565b5b6000612adb86828701612502565b9350506020612aec868287016125c4565b9250506040612afd868287016127b6565b9150509250925092565b600080fd5b60008083601f840112612b2257612b216125d9565b5b8235905067ffffffffffffffff811115612b3f57612b3e612b07565b5b602083019150836001820283011115612b5b57612b5a61260a565b5b9250929050565b60008060008060008060008060c0898b031215612b8257612b8161243a565b5b6000612b908b828c01612502565b985050602089013567ffffffffffffffff811115612bb157612bb061243f565b5b612bbd8b828c016126a6565b975050604089013567ffffffffffffffff811115612bde57612bdd61243f565b5b612bea8b828c01612897565b965050606089013567ffffffffffffffff811115612c0b57612c0a61243f565b5b612c178b828c01612b0c565b9550955050608089013567ffffffffffffffff811115612c3a57612c3961243f565b5b612c468b828c01612b0c565b935093505060a0612c598b828c01612502565b9150509295985092959890939650565b600080600060608486031215612c8257612c8161243a565b5b6000612c90868287016125c4565b9350506020612ca186828701612502565b9250506040612cb2868287016125c4565b9150509250925092565b612cc581612464565b82525050565b600081519050919050565b600082825260208201905092915050565b6000819050602082019050919050565b6000612d038383612cbc565b60208301905092915050565b6000602082019050919050565b6000612d2782612ccb565b612d318185612cd6565b9350612d3c83612ce7565b8060005b83811015612d6d578151612d548882612cf7565b9750612d5f83612d0f565b925050600181019050612d40565b5085935050505092915050565b6000606083016000830151612d926000860182612cbc565b5060208301518482036020860152612daa8282612d1c565b91505060408301518482036040860152612dc48282612d1c565b9150508091505092915050565b60006020820190508181036000830152612deb8184612d7a565b905092915050565b612dfc81612950565b8114612e0757600080fd5b50565b600081359050612e1981612df3565b92915050565b600080600060608486031215612e3857612e3761243a565b5b6000612e4686828701612502565b9350506020612e57868287016125c4565b9250506040612e6886828701612e0a565b9150509250925092565b6000819050919050565b6000612e97612e92612e8d84612444565b612e72565b612444565b9050919050565b6000612ea982612e7c565b9050919050565b6000612ebb82612e9e565b9050919050565b612ecb81612eb0565b82525050565b6000602082019050612ee66000830184612ec2565b92915050565b600082825260208201905092915050565b7f4f776e61626c653a2063616c6c6572206973206e6f7420746865206f776e6572600082015250565b6000612f33602083612eec565b9150612f3e82612efd565b602082019050919050565b60006020820190508181036000830152612f6281612f26565b9050919050565b7f564553543a20464143544f5259204e4f54205a45524f20414444524553530000600082015250565b6000612f9f601e83612eec565b9150612faa82612f69565b602082019050919050565b60006020820190508181036000830152612fce81612f92565b9050919050565b7f4e487b7100000000000000000000000000000000000000000000000000000000600052601160045260246000fd5b600061300f826124e1565b915061301a836124e1565b92508282101561302d5761302c612fd5565b5b828203905092915050565b60006130438261276e565b915061304e8361276e565b92508282101561306157613060612fd5565b5b828203905092915050565b6000613077826124e1565b9150613082836124e1565b9250817fffffffffffffffffffffffffffffffffffffffffffffffffffffffffffffffff04831182151516156130bb576130ba612fd5565b5b828202905092915050565b7f4e487b7100000000000000000000000000000000000000000000000000000000600052601260045260246000fd5b6000613100826124e1565b915061310b836124e1565b92508261311b5761311a6130c6565b5b828204905092915050565b600081519050613135816124eb565b92915050565b6000602082840312156131515761315061243a565b5b600061315f84828501613126565b91505092915050565b7f564553543a204e4f5420454e4f55474820564553544544000000000000000000600082015250565b600061319e601783612eec565b91506131a982613168565b602082019050919050565b600060208201905081810360008301526131cd81613191565b9050919050565b60006040820190506131e960008301856129c6565b6131f66020830184612a8a565b9392505050565b7f564553543a20464545204d555354204245203c20313030250000000000000000600082015250565b6000613233601883612eec565b915061323e826131fd565b602082019050919050565b6000602082019050818103600083015261326281613226565b9050919050565b7f564553543a20414d4f554e5420544f4f20484947480000000000000000000000600082015250565b600061329f601583612eec565b91506132aa82613269565b602082019050919050565b600060208201905081810360008301526132ce81613292565b9050919050565b600081905092915050565b50565b60006132f06000836132d5565b91506132fb826132e0565b600082019050919050565b6000613311826132e3565b9150819050919050565b7f564553543a20455448205452414e53464552204641494c454400000000000000600082015250565b6000613351601983612eec565b915061335c8261331b565b602082019050919050565b6000602082019050818103600083015261338081613344565b9050919050565b7f564553543a204e4f542056424f582041444d494e000000000000000000000000600082015250565b60006133bd601483612eec565b91506133c882613387565b602082019050919050565b600060208201905081810360008301526133ec816133b0565b9050919050565b60006040820190506134086000830185612a8a565b61341560208301846129c6565b9392505050565b60008151905061342b81612df3565b92915050565b6000602082840312156134475761344661243a565b5b60006134558482850161341c565b91505092915050565b60006040820190506134736000830185612a8a565b613480602083018461295c565b9392505050565b7f4f776e61626c653a206e6577206f776e657220697320746865207a65726f206160008201527f6464726573730000000000000000000000000000000000000000000000000000602082015250565b60006134e3602683612eec565b91506134ee82613487565b604082019050919050565b60006020820190508181036000830152613512816134d6565b9050919050565b7f564553543a2043414e4e4f542056455354203020414d4f554e54000000000000600082015250565b600061354f601a83612eec565b915061355a82613519565b602082019050919050565b6000602082019050818103600083015261357e81613542565b9050919050565b7f564553543a204e4f20524543495049454e545300000000000000000000000000600082015250565b60006135bb601383612eec565b91506135c682613585565b602082019050919050565b600060208201905081810360008301526135ea816135ae565b9050919050565b7f564553543a2057524f4e47204143434f554e5453204152524159204c454e0000600082015250565b6000613627601e83612eec565b9150613632826135f1565b602082019050919050565b600060208201905081810360008301526136568161361a565b9050919050565b7f564553543a2045544820414d4f554e5420544f4f204c4f570000000000000000600082015250565b6000613693601883612eec565b915061369e8261365d565b602082019050919050565b600060208201905081810360008301526136c281613686565b9050919050565b7f4e487b7100000000000000000000000000000000000000000000000000000000600052603260045260246000fd5b6000613703826124e1565b915061370e836124e1565b9250827fffffffffffffffffffffffffffffffffffffffffffffffffffffffffffffffff0382111561374357613742612fd5565b5b828201905092915050565b6000613759826124e1565b91507fffffffffffffffffffffffffffffffffffffffffffffffffffffffffffffffff82141561378c5761378b612fd5565b5b600182019050919050565b7f564553543a20414d4f554e545320444f4e542053554d20544f20544f54414c00600082015250565b60006137cd601f83612eec565b91506137d882613797565b602082019050919050565b600060208201905081810360008301526137fc816137c0565b9050919050565b60006060820190506138186000830186612a8a565b6138256020830185612a8a565b61383260408301846129c6565b949350505050565b7f564553543a20544f4b454e205452414e53464552204641494c45440000000000600082015250565b6000613870601b83612eec565b915061387b8261383a565b602082019050919050565b6000602082019050818103600083015261389f81613863565b9050919050565b7f564553543a205749544844524157204641494c45440000000000000000000000600082015250565b60006138dc601583612eec565b91506138e7826138a6565b602082019050919050565b6000602082019050818103600083015261390b816138cf565b9050919050565b82818337600083830152505050565b600061392d8385612eec565b935061393a838584613912565b6139438361251c565b840190509392505050565b60006060820190508181036000830152613969818789613921565b9050818103602083015261397e818587613921565b905061398d60408301846129c6565b9695505050505050565b6000815190506139a6816125ad565b92915050565b6000602082840312156139c2576139c161243a565b5b60006139d084828501613997565b9150509291505056fea2646970667358221220eba5d407f373b54e6c38b277ab5d5f7f89f1f64b0aefb57abcfd74e9194edc1d64736f6c634300080a0033",
  "linkReferences": {},
  "deployedLinkReferences": {}
}