{
  "_format": "hh-sol-artifact-1",
  "contractName": "VestCore",
  "sourceName": "contracts/VestCore.sol",
  "abi": [
    {
      "inputs": [],
      "stateMutability": "nonpayable",
      "type": "constructor"
    },
    {
      "anonymous": false,
      "inputs": [
        {
          "indexed": true,
          "internalType": "uint256",
          "name": "vBoxID",
          "type": "uint256"
        },
        {
          "indexed": false,
          "internalType": "address",
          "name": "account",
          "type": "address"
        },
        {
          "indexed": false,
          "internalType": "uint256",
          "name": "amount",
          "type": "uint256"
        },
        {
          "indexed": false,
          "internalType": "uint128",
          "name": "startTime",
          "type": "uint128"
        },
        {
          "indexed": false,
          "internalType": "uint128",
          "name": "endTime",
          "type": "uint128"
        }
      ],
      "name": "AccountAddedToVestingBox",
      "type": "event"
    },
    {
      "anonymous": false,
      "inputs": [
        {
          "indexed": true,
          "internalType": "uint256",
          "name": "vBoxID",
          "type": "uint256"
        },
        {
          "indexed": false,
          "internalType": "address",
          "name": "account",
          "type": "address"
        },
        {
          "indexed": false,
          "internalType": "uint256",
          "name": "amountVested",
          "type": "uint256"
        },
        {
          "indexed": false,
          "internalType": "uint256",
          "name": "amountForfeited",
          "type": "uint256"
        }
      ],
      "name": "AccountRemovedFromVestingBox",
      "type": "event"
    },
    {
      "anonymous": false,
      "inputs": [
        {
          "indexed": false,
          "internalType": "address",
          "name": "tokenAddress",
          "type": "address"
        }
      ],
      "name": "ERC20Created",
      "type": "event"
    },
    {
      "anonymous": false,
      "inputs": [
        {
          "indexed": false,
          "internalType": "uint256",
          "name": "oldFee",
          "type": "uint256"
        },
        {
          "indexed": false,
          "internalType": "uint256",
          "name": "newFee",
          "type": "uint256"
        }
      ],
      "name": "FeesSet",
      "type": "event"
    },
    {
      "anonymous": false,
      "inputs": [
        {
          "indexed": false,
          "internalType": "address",
          "name": "token",
          "type": "address"
        },
        {
          "indexed": false,
          "internalType": "uint256",
          "name": "amount",
          "type": "uint256"
        },
        {
          "indexed": false,
          "internalType": "address",
          "name": "_to",
          "type": "address"
        }
      ],
      "name": "FeesWithdrawn",
      "type": "event"
    },
    {
      "anonymous": false,
      "inputs": [
        {
          "indexed": true,
          "internalType": "address",
          "name": "previousOwner",
          "type": "address"
        },
        {
          "indexed": true,
          "internalType": "address",
          "name": "newOwner",
          "type": "address"
        }
      ],
      "name": "OwnershipTransferred",
      "type": "event"
    },
    {
      "anonymous": false,
      "inputs": [
        {
          "indexed": true,
          "internalType": "uint256",
          "name": "vBoxID",
          "type": "uint256"
        },
        {
          "indexed": true,
          "internalType": "address",
          "name": "token",
          "type": "address"
        },
        {
          "indexed": false,
          "internalType": "uint256",
          "name": "amountClaimed",
          "type": "uint256"
        },
        {
          "indexed": false,
          "internalType": "address",
          "name": "recipient",
          "type": "address"
        }
      ],
      "name": "VestedTokensClaimed",
      "type": "event"
    },
    {
      "anonymous": false,
      "inputs": [
        {
          "indexed": true,
          "internalType": "uint256",
          "name": "vBoxID",
          "type": "uint256"
        },
        {
          "indexed": false,
          "internalType": "address",
          "name": "account",
          "type": "address"
        },
        {
          "indexed": false,
          "internalType": "bool",
          "name": "isAdmin",
          "type": "bool"
        }
      ],
      "name": "VestingBoxAdminSet",
      "type": "event"
    },
    {
      "anonymous": false,
      "inputs": [
        {
          "indexed": true,
          "internalType": "uint256",
          "name": "vBoxID",
          "type": "uint256"
        },
        {
          "indexed": true,
          "internalType": "address",
          "name": "token",
          "type": "address"
        },
        {
          "indexed": false,
          "internalType": "address",
          "name": "creator",
          "type": "address"
        },
        {
          "indexed": false,
          "internalType": "uint256",
          "name": "totalBoxAmount",
          "type": "uint256"
        }
      ],
      "name": "VestingBoxCreated",
      "type": "event"
    },
    {
      "inputs": [],
      "name": "ETH",
      "outputs": [
        {
          "internalType": "address",
          "name": "",
          "type": "address"
        }
      ],
      "stateMutability": "view",
      "type": "function"
    },
    {
      "inputs": [],
      "name": "SCALE",
      "outputs": [
        {
          "internalType": "uint256",
          "name": "",
          "type": "uint256"
        }
      ],
      "stateMutability": "view",
      "type": "function"
    },
    {
      "inputs": [
        {
          "internalType": "uint256",
          "name": "_vBoxId",
          "type": "uint256"
        },
        {
          "internalType": "address",
          "name": "_recipient",
          "type": "address"
        },
        {
          "components": [
            {
              "internalType": "uint256",
              "name": "amount",
              "type": "uint256"
            },
            {
              "internalType": "uint256",
              "name": "withdrawn",
              "type": "uint256"
            },
            {
              "internalType": "uint128",
              "name": "startTime",
              "type": "uint128"
            },
            {
              "internalType": "uint128",
              "name": "endTime",
              "type": "uint128"
            }
          ],
          "internalType": "struct VestCore.VestingBoxAccount",
          "name": "_vBoxAccount",
          "type": "tuple"
        }
      ],
      "name": "addAccountToVestingBox",
      "outputs": [],
      "stateMutability": "nonpayable",
      "type": "function"
    },
    {
      "inputs": [
        {
          "internalType": "uint256",
          "name": "_vBoxId",
          "type": "uint256"
        },
        {
          "internalType": "uint256",
          "name": "_amountToClaim",
          "type": "uint256"
        }
      ],
      "name": "claimVestedTokens",
      "outputs": [
        {
          "internalType": "bool",
          "name": "",
          "type": "bool"
        }
      ],
      "stateMutability": "nonpayable",
      "type": "function"
    },
    {
      "inputs": [
        {
          "internalType": "uint256",
          "name": "_totalAmount",
          "type": "uint256"
        },
        {
          "components": [
            {
              "internalType": "address",
              "name": "token",
              "type": "address"
            },
            {
              "internalType": "address[]",
              "name": "admins",
              "type": "address[]"
            },
            {
              "internalType": "address[]",
              "name": "recipients",
              "type": "address[]"
            }
          ],
          "internalType": "struct VestCore.VestingBox",
          "name": "_vBox",
          "type": "tuple"
        },
        {
          "components": [
            {
              "internalType": "uint256",
              "name": "amount",
              "type": "uint256"
            },
            {
              "internalType": "uint256",
              "name": "withdrawn",
              "type": "uint256"
            },
            {
              "internalType": "uint128",
              "name": "startTime",
              "type": "uint128"
            },
            {
              "internalType": "uint128",
              "name": "endTime",
              "type": "uint128"
            }
          ],
          "internalType": "struct VestCore.VestingBoxAccount[]",
          "name": "_vBoxAccounts",
          "type": "tuple[]"
        }
      ],
      "name": "createVestingBoxWithETH",
      "outputs": [
        {
          "internalType": "bool",
          "name": "",
          "type": "bool"
        }
      ],
      "stateMutability": "payable",
      "type": "function"
    },
    {
      "inputs": [
        {
          "internalType": "uint256",
          "name": "_totalAmount",
          "type": "uint256"
        },
        {
          "components": [
            {
              "internalType": "address",
              "name": "token",
              "type": "address"
            },
            {
              "internalType": "address[]",
              "name": "admins",
              "type": "address[]"
            },
            {
              "internalType": "address[]",
              "name": "recipients",
              "type": "address[]"
            }
          ],
          "internalType": "struct VestCore.VestingBox",
          "name": "_vBox",
          "type": "tuple"
        },
        {
          "components": [
            {
              "internalType": "uint256",
              "name": "amount",
              "type": "uint256"
            },
            {
              "internalType": "uint256",
              "name": "withdrawn",
              "type": "uint256"
            },
            {
              "internalType": "uint128",
              "name": "startTime",
              "type": "uint128"
            },
            {
              "internalType": "uint128",
              "name": "endTime",
              "type": "uint128"
            }
          ],
          "internalType": "struct VestCore.VestingBoxAccount[]",
          "name": "_vBoxAccounts",
          "type": "tuple[]"
        }
      ],
      "name": "createVestingBoxWithExistingToken",
      "outputs": [
        {
          "internalType": "bool",
          "name": "",
          "type": "bool"
        }
      ],
      "stateMutability": "nonpayable",
      "type": "function"
    },
    {
      "inputs": [
        {
          "internalType": "uint256",
          "name": "_totalAmount",
          "type": "uint256"
        },
        {
          "components": [
            {
              "internalType": "address",
              "name": "token",
              "type": "address"
            },
            {
              "internalType": "address[]",
              "name": "admins",
              "type": "address[]"
            },
            {
              "internalType": "address[]",
              "name": "recipients",
              "type": "address[]"
            }
          ],
          "internalType": "struct VestCore.VestingBox",
          "name": "_vBox",
          "type": "tuple"
        },
        {
          "components": [
            {
              "internalType": "uint256",
              "name": "amount",
              "type": "uint256"
            },
            {
              "internalType": "uint256",
              "name": "withdrawn",
              "type": "uint256"
            },
            {
              "internalType": "uint128",
              "name": "startTime",
              "type": "uint128"
            },
            {
              "internalType": "uint128",
              "name": "endTime",
              "type": "uint128"
            }
          ],
          "internalType": "struct VestCore.VestingBoxAccount[]",
          "name": "_vBoxAccounts",
          "type": "tuple[]"
        },
        {
          "internalType": "string",
          "name": "_tokenName",
          "type": "string"
        },
        {
          "internalType": "string",
          "name": "_tokenSymbol",
          "type": "string"
        },
        {
          "internalType": "uint256",
          "name": "_tokenTotalSupply",
          "type": "uint256"
        }
      ],
      "name": "createVestingBoxWithNewToken",
      "outputs": [
        {
          "internalType": "bool",
          "name": "",
          "type": "bool"
        }
      ],
      "stateMutability": "nonpayable",
      "type": "function"
    },
    {
      "inputs": [],
      "name": "fee",
      "outputs": [
        {
          "internalType": "uint256",
          "name": "",
          "type": "uint256"
        }
      ],
      "stateMutability": "view",
      "type": "function"
    },
    {
      "inputs": [
        {
          "internalType": "address",
          "name": "_token",
          "type": "address"
        }
      ],
      "name": "getAssetHeldForVesting",
      "outputs": [
        {
          "internalType": "uint256",
          "name": "",
          "type": "uint256"
        }
      ],
      "stateMutability": "view",
      "type": "function"
    },
    {
      "inputs": [
        {
          "internalType": "address",
          "name": "_token",
          "type": "address"
        }
      ],
      "name": "getProtocolFeesEarned",
      "outputs": [
        {
          "internalType": "uint256",
          "name": "",
          "type": "uint256"
        }
      ],
      "stateMutability": "view",
      "type": "function"
    },
    {
      "inputs": [
        {
          "internalType": "uint256",
          "name": "_vBoxId",
          "type": "uint256"
        },
        {
          "internalType": "address",
          "name": "_account",
          "type": "address"
        }
      ],
      "name": "getVestedAmount",
      "outputs": [
        {
          "internalType": "uint256",
          "name": "",
          "type": "uint256"
        }
      ],
      "stateMutability": "view",
      "type": "function"
    },
    {
      "inputs": [
        {
          "internalType": "uint256",
          "name": "_vestingBoxId",
          "type": "uint256"
        }
      ],
      "name": "getVestingBox",
      "outputs": [
        {
          "components": [
            {
              "internalType": "address",
              "name": "token",
              "type": "address"
            },
            {
              "internalType": "address[]",
              "name": "admins",
              "type": "address[]"
            },
            {
              "internalType": "address[]",
              "name": "recipients",
              "type": "address[]"
            }
          ],
          "internalType": "struct VestCore.VestingBox",
          "name": "vestingBox",
          "type": "tuple"
        }
      ],
      "stateMutability": "view",
      "type": "function"
    },
    {
      "inputs": [
        {
          "internalType": "uint256",
          "name": "_vBoxId",
          "type": "uint256"
        },
        {
          "internalType": "address",
          "name": "_account",
          "type": "address"
        }
      ],
      "name": "getWithdrawableAmount",
      "outputs": [
        {
          "internalType": "uint256",
          "name": "",
          "type": "uint256"
        }
      ],
      "stateMutability": "view",
      "type": "function"
    },
    {
      "inputs": [],
      "name": "owner",
      "outputs": [
        {
          "internalType": "address",
          "name": "",
          "type": "address"
        }
      ],
      "stateMutability": "view",
      "type": "function"
    },
    {
      "inputs": [
        {
          "internalType": "uint256",
          "name": "_vBoxId",
          "type": "uint256"
        },
        {
          "internalType": "address",
          "name": "_recipient",
          "type": "address"
        }
      ],
      "name": "removeAccountFromVestingBox",
      "outputs": [],
      "stateMutability": "nonpayable",
      "type": "function"
    },
    {
      "inputs": [],
      "name": "renounceOwnership",
      "outputs": [],
      "stateMutability": "nonpayable",
      "type": "function"
    },
    {
      "inputs": [
        {
          "internalType": "uint256",
          "name": "_fee",
          "type": "uint256"
        }
      ],
      "name": "setFee",
      "outputs": [],
      "stateMutability": "nonpayable",
      "type": "function"
    },
    {
      "inputs": [
        {
          "internalType": "contract IVestERC20Factory",
          "name": "_newFactory",
          "type": "address"
        }
      ],
      "name": "setTokenFactory",
      "outputs": [],
      "stateMutability": "nonpayable",
      "type": "function"
    },
    {
      "inputs": [
        {
          "internalType": "uint256",
          "name": "_vBoxId",
          "type": "uint256"
        },
        {
          "internalType": "address",
          "name": "_account",
          "type": "address"
        },
        {
          "internalType": "bool",
          "name": "_isAdmin",
          "type": "bool"
        }
      ],
      "name": "setVestingBoxAdmin",
      "outputs": [],
      "stateMutability": "nonpayable",
      "type": "function"
    },
    {
      "inputs": [],
      "name": "tokenFactory",
      "outputs": [
        {
          "internalType": "contract IVestERC20Factory",
          "name": "",
          "type": "address"
        }
      ],
      "stateMutability": "view",
      "type": "function"
    },
    {
      "inputs": [
        {
          "internalType": "address",
          "name": "newOwner",
          "type": "address"
        }
      ],
      "name": "transferOwnership",
      "outputs": [],
      "stateMutability": "nonpayable",
      "type": "function"
    },
    {
      "inputs": [],
      "name": "vBoxCount",
      "outputs": [
        {
          "internalType": "uint256",
          "name": "",
          "type": "uint256"
        }
      ],
      "stateMutability": "view",
      "type": "function"
    },
    {
      "inputs": [
        {
          "internalType": "uint256",
          "name": "_amount",
          "type": "uint256"
        },
        {
          "internalType": "address",
          "name": "_to",
          "type": "address"
        }
      ],
      "name": "withdrawETHFees",
      "outputs": [],
      "stateMutability": "nonpayable",
      "type": "function"
    },
    {
      "inputs": [
        {
          "internalType": "address",
          "name": "_token",
          "type": "address"
        },
        {
          "internalType": "uint256",
          "name": "_amount",
          "type": "uint256"
        },
        {
          "internalType": "address",
          "name": "_to",
          "type": "address"
        }
      ],
      "name": "withdrawTokenFees",
      "outputs": [],
      "stateMutability": "nonpayable",
      "type": "function"
    }
  ],
  "bytecode": "0x608060405266038d7ea4c68000600155600060025573eeeeeeeeeeeeeeeeeeeeeeeeeeeeeeeeeeeeeeee600460006101000a81548173ffffffffffffffffffffffffffffffffffffffff021916908373ffffffffffffffffffffffffffffffffffffffff1602179055503480156200007657600080fd5b50620000976200008b6200009d60201b60201c565b620000a560201b60201c565b62000169565b600033905090565b60008060009054906101000a900473ffffffffffffffffffffffffffffffffffffffff169050816000806101000a81548173ffffffffffffffffffffffffffffffffffffffff021916908373ffffffffffffffffffffffffffffffffffffffff1602179055508173ffffffffffffffffffffffffffffffffffffffff168173ffffffffffffffffffffffffffffffffffffffff167f8be0079c531659141344cd1fd0a4f28419497f9722a3daafe3b4186f6b6457e060405160405180910390a35050565b61457080620001796000396000f3fe60806040526004361061014b5760003560e01c806394e4bb42116100b6578063ddca3f431161006f578063ddca3f43146104cb578063e77772fe146104f6578063e9b3663e14610521578063ec4d26cf1461054c578063eced552614610575578063f2fde38b146105a05761014b565b806394e4bb421461038557806395be5498146103c2578063c6530006146103eb578063c68482a714610428578063c8c5074214610465578063d3d072cc146104a25761014b565b806369fe0e2d1161010857806369fe0e2d1461029d578063715018a6146102c657806371b4e6e7146102dd5780638322fff2146103065780638cfe046e146103315780638da5cb5b1461035a5761014b565b80632f73a9f8146101505780633336289f14610179578063359cd45e146101b65780633b2b9e8a146101f35780634a918a0c146102235780635188723914610260575b600080fd5b34801561015c57600080fd5b5061017760048036038101906101729190612e11565b6105c9565b005b34801561018557600080fd5b506101a0600480360381019061019b9190613222565b6106f9565b6040516101ad91906132c8565b60405180910390f35b3480156101c257600080fd5b506101dd60048036038101906101d891906132e3565b610711565b6040516101ea9190613332565b60405180910390f35b61020d60048036038101906102089190613222565b610ae4565b60405161021a91906132c8565b60405180910390f35b34801561022f57600080fd5b5061024a6004803603810190610245919061334d565b610b56565b6040516102579190613332565b60405180910390f35b34801561026c57600080fd5b506102876004803603810190610282919061337a565b610cee565b60405161029491906132c8565b60405180910390f35b3480156102a957600080fd5b506102c460048036038101906102bf91906133ba565b610ddd565b005b3480156102d257600080fd5b506102db610eae565b005b3480156102e957600080fd5b5061030460048036038101906102ff91906132e3565b610f36565b005b34801561031257600080fd5b5061031b611112565b60405161032891906133f6565b60405180910390f35b34801561033d57600080fd5b5061035860048036038101906103539190613411565b611138565b005b34801561036657600080fd5b5061036f611536565b60405161037c91906133f6565b60405180910390f35b34801561039157600080fd5b506103ac60048036038101906103a791906134bf565b61155f565b6040516103b991906132c8565b60405180910390f35b3480156103ce57600080fd5b506103e960048036038101906103e491906135c6565b6115c0565b005b3480156103f757600080fd5b50610412600480360381019061040d919061334d565b6117c6565b60405161041f9190613332565b60405180910390f35b34801561043457600080fd5b5061044f600480360381019061044a91906133ba565b61180f565b60405161045c919061372e565b60405180910390f35b34801561047157600080fd5b5061048c600480360381019061048791906132e3565b6119ca565b6040516104999190613332565b60405180910390f35b3480156104ae57600080fd5b506104c960048036038101906104c4919061377c565b611ce1565b005b3480156104d757600080fd5b506104e0611e29565b6040516104ed9190613332565b60405180910390f35b34801561050257600080fd5b5061050b611e2f565b604051610518919061382e565b60405180910390f35b34801561052d57600080fd5b50610536611e55565b6040516105439190613332565b60405180910390f35b34801561055857600080fd5b50610573600480360381019061056e91906132e3565b611e5b565b005b34801561058157600080fd5b5061058a612073565b6040516105979190613332565b60405180910390f35b3480156105ac57600080fd5b506105c760048036038101906105c2919061334d565b61207f565b005b6105d1612177565b73ffffffffffffffffffffffffffffffffffffffff166105ef611536565b73ffffffffffffffffffffffffffffffffffffffff1614610645576040517f08c379a000000000000000000000000000000000000000000000000000000000815260040161063c906138a6565b60405180910390fd5b600073ffffffffffffffffffffffffffffffffffffffff168173ffffffffffffffffffffffffffffffffffffffff1614156106b5576040517f08c379a00000000000000000000000000000000000000000000000000000000081526004016106ac90613912565b60405180910390fd5b80600360006101000a81548173ffffffffffffffffffffffffffffffffffffffff021916908373ffffffffffffffffffffffffffffffffffffffff16021790555050565b6000610708848484600061217f565b90509392505050565b60006006600084815260200190815260200160002060008373ffffffffffffffffffffffffffffffffffffffff1673ffffffffffffffffffffffffffffffffffffffff16815260200190815260200160002060020160109054906101000a90046fffffffffffffffffffffffffffffffff166fffffffffffffffffffffffffffffffff164210610854576006600084815260200190815260200160002060008373ffffffffffffffffffffffffffffffffffffffff1673ffffffffffffffffffffffffffffffffffffffff168152602001908152602001600020600101546006600085815260200190815260200160002060008473ffffffffffffffffffffffffffffffffffffffff1673ffffffffffffffffffffffffffffffffffffffff1681526020019081526020016000206000015461084d9190613961565b9050610ade565b60006006600085815260200190815260200160002060008473ffffffffffffffffffffffffffffffffffffffff1673ffffffffffffffffffffffffffffffffffffffff16815260200190815260200160002060020160009054906101000a90046fffffffffffffffffffffffffffffffff166fffffffffffffffffffffffffffffffff16426108e39190613961565b905060006006600086815260200190815260200160002060008573ffffffffffffffffffffffffffffffffffffffff1673ffffffffffffffffffffffffffffffffffffffff16815260200190815260200160002060020160009054906101000a90046fffffffffffffffffffffffffffffffff166006600087815260200190815260200160002060008673ffffffffffffffffffffffffffffffffffffffff1673ffffffffffffffffffffffffffffffffffffffff16815260200190815260200160002060020160109054906101000a90046fffffffffffffffffffffffffffffffff166109d19190613995565b6fffffffffffffffffffffffffffffffff1690506000670de0b6b3a7640000826109fb91906139c9565b670de0b6b3a764000084600660008a815260200190815260200160002060008973ffffffffffffffffffffffffffffffffffffffff1673ffffffffffffffffffffffffffffffffffffffff16815260200190815260200160002060000154610a6391906139c9565b610a6d91906139c9565b610a779190613a52565b90506006600087815260200190815260200160002060008673ffffffffffffffffffffffffffffffffffffffff1673ffffffffffffffffffffffffffffffffffffffff1681526020019081526020016000206001015481610ad89190613961565b93505050505b92915050565b6000600460009054906101000a900473ffffffffffffffffffffffffffffffffffffffff16836000019073ffffffffffffffffffffffffffffffffffffffff16908173ffffffffffffffffffffffffffffffffffffffff1681525050610b4d848484600061217f565b90509392505050565b6000600460009054906101000a900473ffffffffffffffffffffffffffffffffffffffff1673ffffffffffffffffffffffffffffffffffffffff168273ffffffffffffffffffffffffffffffffffffffff161415610c225760086000600460009054906101000a900473ffffffffffffffffffffffffffffffffffffffff1673ffffffffffffffffffffffffffffffffffffffff1673ffffffffffffffffffffffffffffffffffffffff1681526020019081526020016000205447610c1b9190613961565b9050610ce9565b600860008373ffffffffffffffffffffffffffffffffffffffff1673ffffffffffffffffffffffffffffffffffffffff168152602001908152602001600020548273ffffffffffffffffffffffffffffffffffffffff166370a08231306040518263ffffffff1660e01b8152600401610c9b91906133f6565b602060405180830381865afa158015610cb8573d6000803e3d6000fd5b505050506040513d601f19601f82011682018060405250810190610cdc9190613a98565b610ce69190613961565b90505b919050565b600080610cfb8433610711565b905082811015610d40576040517f08c379a0000000000000000000000000000000000000000000000000000000008152600401610d3790613b11565b60405180910390fd5b610d4a848461277c565b506005600085815260200190815260200160002060000160009054906101000a900473ffffffffffffffffffffffffffffffffffffffff1673ffffffffffffffffffffffffffffffffffffffff16847f8eb0865c9da68f6f207dae091828f315df4736814a358375142237af0e0d374b8533604051610dca929190613b31565b60405180910390a3600191505092915050565b610de5612177565b73ffffffffffffffffffffffffffffffffffffffff16610e03611536565b73ffffffffffffffffffffffffffffffffffffffff1614610e59576040517f08c379a0000000000000000000000000000000000000000000000000000000008152600401610e50906138a6565b60405180910390fd5b670de0b6b3a7640000811115610ea4576040517f08c379a0000000000000000000000000000000000000000000000000000000008152600401610e9b90613ba6565b60405180910390fd5b8060018190555050565b610eb6612177565b73ffffffffffffffffffffffffffffffffffffffff16610ed4611536565b73ffffffffffffffffffffffffffffffffffffffff1614610f2a576040517f08c379a0000000000000000000000000000000000000000000000000000000008152600401610f21906138a6565b60405180910390fd5b610f3460006129ec565b565b610f3e612177565b73ffffffffffffffffffffffffffffffffffffffff16610f5c611536565b73ffffffffffffffffffffffffffffffffffffffff1614610fb2576040517f08c379a0000000000000000000000000000000000000000000000000000000008152600401610fa9906138a6565b60405180910390fd5b8160086000600460009054906101000a900473ffffffffffffffffffffffffffffffffffffffff1673ffffffffffffffffffffffffffffffffffffffff1673ffffffffffffffffffffffffffffffffffffffff16815260200190815260200160002054476110209190613961565b1015611061576040517f08c379a000000000000000000000000000000000000000000000000000000000815260040161105890613c12565b60405180910390fd5b60008173ffffffffffffffffffffffffffffffffffffffff168360405161108790613c63565b60006040518083038185875af1925050503d80600081146110c4576040519150601f19603f3d011682016040523d82523d6000602084013e6110c9565b606091505b505090508061110d576040517f08c379a000000000000000000000000000000000000000000000000000000000815260040161110490613cc4565b60405180910390fd5b505050565b600460009054906101000a900473ffffffffffffffffffffffffffffffffffffffff1681565b82336007600083815260200190815260200160002060008273ffffffffffffffffffffffffffffffffffffffff1673ffffffffffffffffffffffffffffffffffffffff16815260200190815260200160002060009054906101000a900460ff166111d7576040517f08c379a00000000000000000000000000000000000000000000000000000000081526004016111ce90613d30565b60405180910390fd5b60006006600087815260200190815260200160002060008673ffffffffffffffffffffffffffffffffffffffff1673ffffffffffffffffffffffffffffffffffffffff168152602001908152602001600020600001541461126d576040517f08c379a000000000000000000000000000000000000000000000000000000000815260040161126490613d9c565b60405180910390fd5b61127683612ab0565b6005600086815260200190815260200160002060000160009054906101000a900473ffffffffffffffffffffffffffffffffffffffff1673ffffffffffffffffffffffffffffffffffffffff166323b872dd333086600001516040518463ffffffff1660e01b81526004016112ed93929190613dbc565b6020604051808303816000875af115801561130c573d6000803e3d6000fd5b505050506040513d601f19601f820116820180604052508101906113309190613e08565b61136f576040517f08c379a000000000000000000000000000000000000000000000000000000000815260040161136690613e81565b60405180910390fd5b826006600087815260200190815260200160002060008673ffffffffffffffffffffffffffffffffffffffff1673ffffffffffffffffffffffffffffffffffffffff168152602001908152602001600020600082015181600001556020820151816001015560408201518160020160006101000a8154816fffffffffffffffffffffffffffffffff02191690836fffffffffffffffffffffffffffffffff16021790555060608201518160020160106101000a8154816fffffffffffffffffffffffffffffffff02191690836fffffffffffffffffffffffffffffffff1602179055509050508260000151600860006005600089815260200190815260200160002060000160009054906101000a900473ffffffffffffffffffffffffffffffffffffffff1673ffffffffffffffffffffffffffffffffffffffff1673ffffffffffffffffffffffffffffffffffffffff16815260200190815260200160002060008282546114de9190613ea1565b92505081905550847f236863ed9b5b67391d1853c2b5e55b684b717ef915bbb6d230a449be56125e0e858560000151866040015187606001516040516115279493929190613f06565b60405180910390a25050505050565b60008060009054906101000a900473ffffffffffffffffffffffffffffffffffffffff16905090565b600061156e8686868686612bc0565b886000019073ffffffffffffffffffffffffffffffffffffffff16908173ffffffffffffffffffffffffffffffffffffffff16815250506115b2898989600161217f565b905098975050505050505050565b6115c8612177565b73ffffffffffffffffffffffffffffffffffffffff166115e6611536565b73ffffffffffffffffffffffffffffffffffffffff161461163c576040517f08c379a0000000000000000000000000000000000000000000000000000000008152600401611633906138a6565b60405180910390fd5b81600860008573ffffffffffffffffffffffffffffffffffffffff1673ffffffffffffffffffffffffffffffffffffffff168152602001908152602001600020548473ffffffffffffffffffffffffffffffffffffffff166370a08231306040518263ffffffff1660e01b81526004016116b691906133f6565b602060405180830381865afa1580156116d3573d6000803e3d6000fd5b505050506040513d601f19601f820116820180604052508101906116f79190613a98565b6117019190613961565b1015611742576040517f08c379a000000000000000000000000000000000000000000000000000000000815260040161173990613c12565b60405180910390fd5b8273ffffffffffffffffffffffffffffffffffffffff1663a9059cbb82846040518363ffffffff1660e01b815260040161177d929190613f4b565b6020604051808303816000875af115801561179c573d6000803e3d6000fd5b505050506040513d601f19601f820116820180604052508101906117c09190613e08565b50505050565b6000600860008373ffffffffffffffffffffffffffffffffffffffff1673ffffffffffffffffffffffffffffffffffffffff168152602001908152602001600020549050919050565b611817612caf565b6000821161182457600080fd5b60025482111561183357600080fd5b600560008381526020019081526020016000206040518060600160405290816000820160009054906101000a900473ffffffffffffffffffffffffffffffffffffffff1673ffffffffffffffffffffffffffffffffffffffff1673ffffffffffffffffffffffffffffffffffffffff1681526020016001820180548060200260200160405190810160405280929190818152602001828054801561192c57602002820191906000526020600020905b8160009054906101000a900473ffffffffffffffffffffffffffffffffffffffff1673ffffffffffffffffffffffffffffffffffffffff16815260200190600101908083116118e2575b50505050508152602001600282018054806020026020016040519081016040528092919081815260200182805480156119ba57602002820191906000526020600020905b8160009054906101000a900473ffffffffffffffffffffffffffffffffffffffff1673ffffffffffffffffffffffffffffffffffffffff1681526020019060010190808311611970575b5050505050815250509050919050565b60006006600084815260200190815260200160002060008373ffffffffffffffffffffffffffffffffffffffff1673ffffffffffffffffffffffffffffffffffffffff16815260200190815260200160002060020160109054906101000a90046fffffffffffffffffffffffffffffffff166fffffffffffffffffffffffffffffffff164210611aaf576006600084815260200190815260200160002060008373ffffffffffffffffffffffffffffffffffffffff1673ffffffffffffffffffffffffffffffffffffffff168152602001908152602001600020600001549050611cdb565b60006006600085815260200190815260200160002060008473ffffffffffffffffffffffffffffffffffffffff1673ffffffffffffffffffffffffffffffffffffffff16815260200190815260200160002060020160009054906101000a90046fffffffffffffffffffffffffffffffff166fffffffffffffffffffffffffffffffff1642611b3e9190613961565b905060006006600086815260200190815260200160002060008573ffffffffffffffffffffffffffffffffffffffff1673ffffffffffffffffffffffffffffffffffffffff16815260200190815260200160002060020160009054906101000a90046fffffffffffffffffffffffffffffffff166006600087815260200190815260200160002060008673ffffffffffffffffffffffffffffffffffffffff1673ffffffffffffffffffffffffffffffffffffffff16815260200190815260200160002060020160109054906101000a90046fffffffffffffffffffffffffffffffff16611c2c9190613995565b6fffffffffffffffffffffffffffffffff1690506000670de0b6b3a764000082611c5691906139c9565b670de0b6b3a764000084600660008a815260200190815260200160002060008973ffffffffffffffffffffffffffffffffffffffff1673ffffffffffffffffffffffffffffffffffffffff16815260200190815260200160002060000154611cbe91906139c9565b611cc891906139c9565b611cd29190613a52565b90508093505050505b92915050565b82336007600083815260200190815260200160002060008273ffffffffffffffffffffffffffffffffffffffff1673ffffffffffffffffffffffffffffffffffffffff16815260200190815260200160002060009054906101000a900460ff16611d80576040517f08c379a0000000000000000000000000000000000000000000000000000000008152600401611d7790613d30565b60405180910390fd5b826007600087815260200190815260200160002060008673ffffffffffffffffffffffffffffffffffffffff1673ffffffffffffffffffffffffffffffffffffffff16815260200190815260200160002060006101000a81548160ff021916908315150217905550847f3f82e6ad49df50c375ed08891b7f6c57d8827a148033a02f32ca1ae3aa265a428585604051611e1a929190613f74565b60405180910390a25050505050565b60015481565b600360009054906101000a900473ffffffffffffffffffffffffffffffffffffffff1681565b60025481565b81336007600083815260200190815260200160002060008273ffffffffffffffffffffffffffffffffffffffff1673ffffffffffffffffffffffffffffffffffffffff16815260200190815260200160002060009054906101000a900460ff16611efa576040517f08c379a0000000000000000000000000000000000000000000000000000000008152600401611ef190613d30565b60405180910390fd5b60006006600086815260200190815260200160002060008573ffffffffffffffffffffffffffffffffffffffff1673ffffffffffffffffffffffffffffffffffffffff16815260200190815260200160002060405180608001604052908160008201548152602001600182015481526020016002820160009054906101000a90046fffffffffffffffffffffffffffffffff166fffffffffffffffffffffffffffffffff166fffffffffffffffffffffffffffffffff1681526020016002820160109054906101000a90046fffffffffffffffffffffffffffffffff166fffffffffffffffffffffffffffffffff166fffffffffffffffffffffffffffffffff168152505090504281606001516fffffffffffffffffffffffffffffffff1611612059576040517f08c379a000000000000000000000000000000000000000000000000000000000815260040161205090613fe9565b60405180910390fd5b61206385856119ca565b8160000181815250505050505050565b670de0b6b3a764000081565b612087612177565b73ffffffffffffffffffffffffffffffffffffffff166120a5611536565b73ffffffffffffffffffffffffffffffffffffffff16146120fb576040517f08c379a00000000000000000000000000000000000000000000000000000000081526004016120f2906138a6565b60405180910390fd5b600073ffffffffffffffffffffffffffffffffffffffff168173ffffffffffffffffffffffffffffffffffffffff16141561216b576040517f08c379a00000000000000000000000000000000000000000000000000000000081526004016121629061407b565b60405180910390fd5b612174816129ec565b50565b600033905090565b60008085116121c3576040517f08c379a00000000000000000000000000000000000000000000000000000000081526004016121ba906140e7565b60405180910390fd5b60008460400151511161220b576040517f08c379a000000000000000000000000000000000000000000000000000000000815260040161220290614153565b60405180910390fd5b825184604001515114612253576040517f08c379a000000000000000000000000000000000000000000000000000000000815260040161224a906141bf565b60405180910390fd5b600460009054906101000a900473ffffffffffffffffffffffffffffffffffffffff1673ffffffffffffffffffffffffffffffffffffffff16846000015173ffffffffffffffffffffffffffffffffffffffff1614156122f157843410156122f0576040517f08c379a00000000000000000000000000000000000000000000000000000000081526004016122e79061422b565b60405180910390fd5b5b6000805b845181101561233d578481815181106123115761231061424b565b5b602002602001015160000151826123289190613ea1565b915080806123359061427a565b9150506122f5565b50858114612380576040517f08c379a00000000000000000000000000000000000000000000000000000000081526004016123779061430f565b60405180910390fd5b600460009054906101000a900473ffffffffffffffffffffffffffffffffffffffff1673ffffffffffffffffffffffffffffffffffffffff16856000015173ffffffffffffffffffffffffffffffffffffffff16141580156123e0575082155b156124a957846000015173ffffffffffffffffffffffffffffffffffffffff166323b872dd3330896040518463ffffffff1660e01b815260040161242693929190613dbc565b6020604051808303816000875af1158015612445573d6000803e3d6000fd5b505050506040513d601f19601f820116820180604052508101906124699190613e08565b6124a8576040517f08c379a000000000000000000000000000000000000000000000000000000000815260040161249f90613e81565b60405180910390fd5b5b600260008154809291906124bc9061427a565b91905055508460056000600254815260200190815260200160002060008201518160000160006101000a81548173ffffffffffffffffffffffffffffffffffffffff021916908373ffffffffffffffffffffffffffffffffffffffff160217905550602082015181600101908051906020019061253a929190612ce6565b506040820151816002019080519060200190612557929190612ce6565b5090505060005b84518110156126bd5761258a85828151811061257d5761257c61424b565b5b6020026020010151612ab0565b84818151811061259d5761259c61424b565b5b60200260200101516006600060025481526020019081526020016000206000886040015184815181106125d3576125d261424b565b5b602002602001015173ffffffffffffffffffffffffffffffffffffffff1673ffffffffffffffffffffffffffffffffffffffff168152602001908152602001600020600082015181600001556020820151816001015560408201518160020160006101000a8154816fffffffffffffffffffffffffffffffff02191690836fffffffffffffffffffffffffffffffff16021790555060608201518160020160106101000a8154816fffffffffffffffffffffffffffffffff02191690836fffffffffffffffffffffffffffffffff16021790555090505080806126b59061427a565b91505061255e565b508560086000876000015173ffffffffffffffffffffffffffffffffffffffff1673ffffffffffffffffffffffffffffffffffffffff16815260200190815260200160002060008282546127119190613ea1565b92505081905550846000015173ffffffffffffffffffffffffffffffffffffffff166002547f09f269811cffd09fb630ee319c1b845625b319c2446953fc766a761a64c47bc43389604051612767929190613f4b565b60405180910390a36001915050949350505050565b60008060009050826006600086815260200190815260200160002060003373ffffffffffffffffffffffffffffffffffffffff1673ffffffffffffffffffffffffffffffffffffffff16815260200190815260200160002060010160008282546127e69190613ea1565b92505081905550600460009054906101000a900473ffffffffffffffffffffffffffffffffffffffff1673ffffffffffffffffffffffffffffffffffffffff166005600086815260200190815260200160002060000160009054906101000a900473ffffffffffffffffffffffffffffffffffffffff1673ffffffffffffffffffffffffffffffffffffffff1614156128ea573373ffffffffffffffffffffffffffffffffffffffff168360405161289d90613c63565b60006040518083038185875af1925050503d80600081146128da576040519150601f19603f3d011682016040523d82523d6000602084013e6128df565b606091505b5050809150506129a1565b6005600085815260200190815260200160002060000160009054906101000a900473ffffffffffffffffffffffffffffffffffffffff1673ffffffffffffffffffffffffffffffffffffffff1663a9059cbb33856040518363ffffffff1660e01b815260040161295b929190613f4b565b6020604051808303816000875af115801561297a573d6000803e3d6000fd5b505050506040513d601f19601f8201168201806040525081019061299e9190613e08565b90505b806129e1576040517f08c379a00000000000000000000000000000000000000000000000000000000081526004016129d89061437b565b60405180910390fd5b600191505092915050565b60008060009054906101000a900473ffffffffffffffffffffffffffffffffffffffff169050816000806101000a81548173ffffffffffffffffffffffffffffffffffffffff021916908373ffffffffffffffffffffffffffffffffffffffff1602179055508173ffffffffffffffffffffffffffffffffffffffff168173ffffffffffffffffffffffffffffffffffffffff167f8be0079c531659141344cd1fd0a4f28419497f9722a3daafe3b4186f6b6457e060405160405180910390a35050565b80606001516fffffffffffffffffffffffffffffffff1681604001516fffffffffffffffffffffffffffffffff1610612b1e576040517f08c379a0000000000000000000000000000000000000000000000000000000008152600401612b15906143e7565b60405180910390fd5b4281606001516fffffffffffffffffffffffffffffffff1611612b76576040517f08c379a0000000000000000000000000000000000000000000000000000000008152600401612b6d90614453565b60405180910390fd5b6000816000015111612bbd576040517f08c379a0000000000000000000000000000000000000000000000000000000008152600401612bb4906140e7565b60405180910390fd5b50565b600080600360009054906101000a900473ffffffffffffffffffffffffffffffffffffffff1673ffffffffffffffffffffffffffffffffffffffff166372e4352d88888888886040518663ffffffff1660e01b8152600401612c269594939291906144af565b6020604051808303816000875af1158015612c45573d6000803e3d6000fd5b505050506040513d601f19601f82011682018060405250810190612c69919061450d565b90507f41039c8b82bb5a365f56b4f9d87cee99e069b450bfdc3d87696fcd87783f24c181604051612c9a91906133f6565b60405180910390a18091505095945050505050565b6040518060600160405280600073ffffffffffffffffffffffffffffffffffffffff16815260200160608152602001606081525090565b828054828255906000526020600020908101928215612d5f579160200282015b82811115612d5e5782518260006101000a81548173ffffffffffffffffffffffffffffffffffffffff021916908373ffffffffffffffffffffffffffffffffffffffff16021790555091602001919060010190612d06565b5b509050612d6c9190612d70565b5090565b5b80821115612d89576000816000905550600101612d71565b5090565b6000604051905090565b600080fd5b600080fd5b600073ffffffffffffffffffffffffffffffffffffffff82169050919050565b6000612dcc82612da1565b9050919050565b6000612dde82612dc1565b9050919050565b612dee81612dd3565b8114612df957600080fd5b50565b600081359050612e0b81612de5565b92915050565b600060208284031215612e2757612e26612d97565b5b6000612e3584828501612dfc565b91505092915050565b6000819050919050565b612e5181612e3e565b8114612e5c57600080fd5b50565b600081359050612e6e81612e48565b92915050565b600080fd5b6000601f19601f8301169050919050565b7f4e487b7100000000000000000000000000000000000000000000000000000000600052604160045260246000fd5b612ec282612e79565b810181811067ffffffffffffffff82111715612ee157612ee0612e8a565b5b80604052505050565b6000612ef4612d8d565b9050612f008282612eb9565b919050565b600080fd5b612f1381612dc1565b8114612f1e57600080fd5b50565b600081359050612f3081612f0a565b92915050565b600080fd5b600067ffffffffffffffff821115612f5657612f55612e8a565b5b602082029050602081019050919050565b600080fd5b6000612f7f612f7a84612f3b565b612eea565b90508083825260208201905060208402830185811115612fa257612fa1612f67565b5b835b81811015612fcb5780612fb78882612f21565b845260208401935050602081019050612fa4565b5050509392505050565b600082601f830112612fea57612fe9612f36565b5b8135612ffa848260208601612f6c565b91505092915050565b60006060828403121561301957613018612e74565b5b6130236060612eea565b9050600061303384828501612f21565b600083015250602082013567ffffffffffffffff81111561305757613056612f05565b5b61306384828501612fd5565b602083015250604082013567ffffffffffffffff81111561308757613086612f05565b5b61309384828501612fd5565b60408301525092915050565b600067ffffffffffffffff8211156130ba576130b9612e8a565b5b602082029050602081019050919050565b60006fffffffffffffffffffffffffffffffff82169050919050565b6130f0816130cb565b81146130fb57600080fd5b50565b60008135905061310d816130e7565b92915050565b60006080828403121561312957613128612e74565b5b6131336080612eea565b9050600061314384828501612e5f565b600083015250602061315784828501612e5f565b602083015250604061316b848285016130fe565b604083015250606061317f848285016130fe565b60608301525092915050565b600061319e6131998461309f565b612eea565b905080838252602082019050608084028301858111156131c1576131c0612f67565b5b835b818110156131ea57806131d68882613113565b8452602084019350506080810190506131c3565b5050509392505050565b600082601f83011261320957613208612f36565b5b813561321984826020860161318b565b91505092915050565b60008060006060848603121561323b5761323a612d97565b5b600061324986828701612e5f565b935050602084013567ffffffffffffffff81111561326a57613269612d9c565b5b61327686828701613003565b925050604084013567ffffffffffffffff81111561329757613296612d9c565b5b6132a3868287016131f4565b9150509250925092565b60008115159050919050565b6132c2816132ad565b82525050565b60006020820190506132dd60008301846132b9565b92915050565b600080604083850312156132fa576132f9612d97565b5b600061330885828601612e5f565b925050602061331985828601612f21565b9150509250929050565b61332c81612e3e565b82525050565b60006020820190506133476000830184613323565b92915050565b60006020828403121561336357613362612d97565b5b600061337184828501612f21565b91505092915050565b6000806040838503121561339157613390612d97565b5b600061339f85828601612e5f565b92505060206133b085828601612e5f565b9150509250929050565b6000602082840312156133d0576133cf612d97565b5b60006133de84828501612e5f565b91505092915050565b6133f081612dc1565b82525050565b600060208201905061340b60008301846133e7565b92915050565b600080600060c0848603121561342a57613429612d97565b5b600061343886828701612e5f565b935050602061344986828701612f21565b925050604061345a86828701613113565b9150509250925092565b600080fd5b60008083601f84011261347f5761347e612f36565b5b8235905067ffffffffffffffff81111561349c5761349b613464565b5b6020830191508360018202830111156134b8576134b7612f67565b5b9250929050565b60008060008060008060008060c0898b0312156134df576134de612d97565b5b60006134ed8b828c01612e5f565b985050602089013567ffffffffffffffff81111561350e5761350d612d9c565b5b61351a8b828c01613003565b975050604089013567ffffffffffffffff81111561353b5761353a612d9c565b5b6135478b828c016131f4565b965050606089013567ffffffffffffffff81111561356857613567612d9c565b5b6135748b828c01613469565b9550955050608089013567ffffffffffffffff81111561359757613596612d9c565b5b6135a38b828c01613469565b935093505060a06135b68b828c01612e5f565b9150509295985092959890939650565b6000806000606084860312156135df576135de612d97565b5b60006135ed86828701612f21565b93505060206135fe86828701612e5f565b925050604061360f86828701612f21565b9150509250925092565b61362281612dc1565b82525050565b600081519050919050565b600082825260208201905092915050565b6000819050602082019050919050565b60006136608383613619565b60208301905092915050565b6000602082019050919050565b600061368482613628565b61368e8185613633565b935061369983613644565b8060005b838110156136ca5781516136b18882613654565b97506136bc8361366c565b92505060018101905061369d565b5085935050505092915050565b60006060830160008301516136ef6000860182613619565b50602083015184820360208601526137078282613679565b915050604083015184820360408601526137218282613679565b9150508091505092915050565b6000602082019050818103600083015261374881846136d7565b905092915050565b613759816132ad565b811461376457600080fd5b50565b60008135905061377681613750565b92915050565b60008060006060848603121561379557613794612d97565b5b60006137a386828701612e5f565b93505060206137b486828701612f21565b92505060406137c586828701613767565b9150509250925092565b6000819050919050565b60006137f46137ef6137ea84612da1565b6137cf565b612da1565b9050919050565b6000613806826137d9565b9050919050565b6000613818826137fb565b9050919050565b6138288161380d565b82525050565b6000602082019050613843600083018461381f565b92915050565b600082825260208201905092915050565b7f4f776e61626c653a2063616c6c6572206973206e6f7420746865206f776e6572600082015250565b6000613890602083613849565b915061389b8261385a565b602082019050919050565b600060208201905081810360008301526138bf81613883565b9050919050565b7f564553543a20464143544f5259204e4f54205a45524f20414444524553530000600082015250565b60006138fc601e83613849565b9150613907826138c6565b602082019050919050565b6000602082019050818103600083015261392b816138ef565b9050919050565b7f4e487b7100000000000000000000000000000000000000000000000000000000600052601160045260246000fd5b600061396c82612e3e565b915061397783612e3e565b92508282101561398a57613989613932565b5b828203905092915050565b60006139a0826130cb565b91506139ab836130cb565b9250828210156139be576139bd613932565b5b828203905092915050565b60006139d482612e3e565b91506139df83612e3e565b9250817fffffffffffffffffffffffffffffffffffffffffffffffffffffffffffffffff0483118215151615613a1857613a17613932565b5b828202905092915050565b7f4e487b7100000000000000000000000000000000000000000000000000000000600052601260045260246000fd5b6000613a5d82612e3e565b9150613a6883612e3e565b925082613a7857613a77613a23565b5b828204905092915050565b600081519050613a9281612e48565b92915050565b600060208284031215613aae57613aad612d97565b5b6000613abc84828501613a83565b91505092915050565b7f564553543a204e4f5420454e4f55474820564553544544000000000000000000600082015250565b6000613afb601783613849565b9150613b0682613ac5565b602082019050919050565b60006020820190508181036000830152613b2a81613aee565b9050919050565b6000604082019050613b466000830185613323565b613b5360208301846133e7565b9392505050565b7f564553543a20464545204d555354204245203c20313030250000000000000000600082015250565b6000613b90601883613849565b9150613b9b82613b5a565b602082019050919050565b60006020820190508181036000830152613bbf81613b83565b9050919050565b7f564553543a20414d4f554e5420544f4f20484947480000000000000000000000600082015250565b6000613bfc601583613849565b9150613c0782613bc6565b602082019050919050565b60006020820190508181036000830152613c2b81613bef565b9050919050565b600081905092915050565b50565b6000613c4d600083613c32565b9150613c5882613c3d565b600082019050919050565b6000613c6e82613c40565b9150819050919050565b7f564553543a20455448205452414e53464552204641494c454400000000000000600082015250565b6000613cae601983613849565b9150613cb982613c78565b602082019050919050565b60006020820190508181036000830152613cdd81613ca1565b9050919050565b7f564553543a204e4f542056424f582041444d494e000000000000000000000000600082015250565b6000613d1a601483613849565b9150613d2582613ce4565b602082019050919050565b60006020820190508181036000830152613d4981613d0d565b9050919050565b7f564553543a204143434f554e5420414c524541445920494e20424f5800000000600082015250565b6000613d86601c83613849565b9150613d9182613d50565b602082019050919050565b60006020820190508181036000830152613db581613d79565b9050919050565b6000606082019050613dd160008301866133e7565b613dde60208301856133e7565b613deb6040830184613323565b949350505050565b600081519050613e0281613750565b92915050565b600060208284031215613e1e57613e1d612d97565b5b6000613e2c84828501613df3565b91505092915050565b7f564553543a20544f4b454e205452414e53464552204641494c45440000000000600082015250565b6000613e6b601b83613849565b9150613e7682613e35565b602082019050919050565b60006020820190508181036000830152613e9a81613e5e565b9050919050565b6000613eac82612e3e565b9150613eb783612e3e565b9250827fffffffffffffffffffffffffffffffffffffffffffffffffffffffffffffffff03821115613eec57613eeb613932565b5b828201905092915050565b613f00816130cb565b82525050565b6000608082019050613f1b60008301876133e7565b613f286020830186613323565b613f356040830185613ef7565b613f426060830184613ef7565b95945050505050565b6000604082019050613f6060008301856133e7565b613f6d6020830184613323565b9392505050565b6000604082019050613f8960008301856133e7565b613f9660208301846132b9565b9392505050565b7f564553543a20414c52454144592046554c4c5920564553544544000000000000600082015250565b6000613fd3601a83613849565b9150613fde82613f9d565b602082019050919050565b6000602082019050818103600083015261400281613fc6565b9050919050565b7f4f776e61626c653a206e6577206f776e657220697320746865207a65726f206160008201527f6464726573730000000000000000000000000000000000000000000000000000602082015250565b6000614065602683613849565b915061407082614009565b604082019050919050565b6000602082019050818103600083015261409481614058565b9050919050565b7f564553543a2043414e4e4f542056455354203020414d4f554e54000000000000600082015250565b60006140d1601a83613849565b91506140dc8261409b565b602082019050919050565b60006020820190508181036000830152614100816140c4565b9050919050565b7f564553543a204e4f20524543495049454e545300000000000000000000000000600082015250565b600061413d601383613849565b915061414882614107565b602082019050919050565b6000602082019050818103600083015261416c81614130565b9050919050565b7f564553543a2057524f4e47204143434f554e5453204152524159204c454e0000600082015250565b60006141a9601e83613849565b91506141b482614173565b602082019050919050565b600060208201905081810360008301526141d88161419c565b9050919050565b7f564553543a2045544820414d4f554e5420544f4f204c4f570000000000000000600082015250565b6000614215601883613849565b9150614220826141df565b602082019050919050565b6000602082019050818103600083015261424481614208565b9050919050565b7f4e487b7100000000000000000000000000000000000000000000000000000000600052603260045260246000fd5b600061428582612e3e565b91507fffffffffffffffffffffffffffffffffffffffffffffffffffffffffffffffff8214156142b8576142b7613932565b5b600182019050919050565b7f564553543a20414d4f554e545320444f4e542053554d20544f20544f54414c00600082015250565b60006142f9601f83613849565b9150614304826142c3565b602082019050919050565b60006020820190508181036000830152614328816142ec565b9050919050565b7f564553543a205749544844524157204641494c45440000000000000000000000600082015250565b6000614365601583613849565b91506143708261432f565b602082019050919050565b6000602082019050818103600083015261439481614358565b9050919050565b7f564553543a2053544152542054494d4520414654455220454e442054494d4500600082015250565b60006143d1601f83613849565b91506143dc8261439b565b602082019050919050565b60006020820190508181036000830152614400816143c4565b9050919050565b7f564553543a20454e442054494d4520494e205448452050415354000000000000600082015250565b600061443d601a83613849565b915061444882614407565b602082019050919050565b6000602082019050818103600083015261446c81614430565b9050919050565b82818337600083830152505050565b600061448e8385613849565b935061449b838584614473565b6144a483612e79565b840190509392505050565b600060608201905081810360008301526144ca818789614482565b905081810360208301526144df818587614482565b90506144ee6040830184613323565b9695505050505050565b60008151905061450781612f0a565b92915050565b60006020828403121561452357614522612d97565b5b6000614531848285016144f8565b9150509291505056fea26469706673582212201827298a21ad3b7866cf729db7a2983fbf09c35dd9cfb3dc82f84fc69cbf37e464736f6c634300080a0033",
  "linkReferences": {},
  "deployedLinkReferences": {}
}