{
  "_format": "hh-sol-artifact-1",
  "contractName": "VestCore",
  "sourceName": "contracts/VestCore.sol",
  "abi": [
    {
      "inputs": [],
      "stateMutability": "nonpayable",
      "type": "constructor"
    },
    {
      "anonymous": false,
      "inputs": [],
      "name": "AccountAddedToVestingBox",
      "type": "event"
    },
    {
      "anonymous": false,
      "inputs": [],
      "name": "AccountRemovedFromVestingBox",
      "type": "event"
    },
    {
      "anonymous": false,
      "inputs": [
        {
          "indexed": false,
          "internalType": "address",
          "name": "tokenAddress",
          "type": "address"
        }
      ],
      "name": "ERC20Created",
      "type": "event"
    },
    {
      "anonymous": false,
      "inputs": [
        {
          "indexed": false,
          "internalType": "uint256",
          "name": "oldFee",
          "type": "uint256"
        },
        {
          "indexed": false,
          "internalType": "uint256",
          "name": "newFee",
          "type": "uint256"
        }
      ],
      "name": "FeesSet",
      "type": "event"
    },
    {
      "anonymous": false,
      "inputs": [
        {
          "indexed": false,
          "internalType": "address",
          "name": "token",
          "type": "address"
        },
        {
          "indexed": false,
          "internalType": "uint256",
          "name": "amount",
          "type": "uint256"
        },
        {
          "indexed": false,
          "internalType": "address",
          "name": "_to",
          "type": "address"
        }
      ],
      "name": "FeesWithdrawn",
      "type": "event"
    },
    {
      "anonymous": false,
      "inputs": [
        {
          "indexed": true,
          "internalType": "address",
          "name": "previousOwner",
          "type": "address"
        },
        {
          "indexed": true,
          "internalType": "address",
          "name": "newOwner",
          "type": "address"
        }
      ],
      "name": "OwnershipTransferred",
      "type": "event"
    },
    {
      "anonymous": false,
      "inputs": [
        {
          "indexed": true,
          "internalType": "uint256",
          "name": "vBoxID",
          "type": "uint256"
        },
        {
          "indexed": true,
          "internalType": "address",
          "name": "token",
          "type": "address"
        },
        {
          "indexed": false,
          "internalType": "uint256",
          "name": "amountClaimed",
          "type": "uint256"
        },
        {
          "indexed": false,
          "internalType": "address",
          "name": "recipient",
          "type": "address"
        }
      ],
      "name": "VestedTokensClaimed",
      "type": "event"
    },
    {
      "anonymous": false,
      "inputs": [
        {
          "indexed": true,
          "internalType": "uint256",
          "name": "vBoxID",
          "type": "uint256"
        },
        {
          "indexed": false,
          "internalType": "address",
          "name": "admin",
          "type": "address"
        },
        {
          "indexed": false,
          "internalType": "bool",
          "name": "isAdmin",
          "type": "bool"
        }
      ],
      "name": "VestingBoxAdminSet",
      "type": "event"
    },
    {
      "anonymous": false,
      "inputs": [
        {
          "indexed": true,
          "internalType": "uint256",
          "name": "vBoxID",
          "type": "uint256"
        },
        {
          "indexed": true,
          "internalType": "address",
          "name": "token",
          "type": "address"
        },
        {
          "indexed": false,
          "internalType": "address",
          "name": "creator",
          "type": "address"
        },
        {
          "indexed": false,
          "internalType": "uint256",
          "name": "totalBoxAmount",
          "type": "uint256"
        }
      ],
      "name": "VestingBoxCreated",
      "type": "event"
    },
    {
      "inputs": [],
      "name": "ETH",
      "outputs": [
        {
          "internalType": "address",
          "name": "",
          "type": "address"
        }
      ],
      "stateMutability": "view",
      "type": "function"
    },
    {
      "inputs": [],
      "name": "SCALE",
      "outputs": [
        {
          "internalType": "uint256",
          "name": "",
          "type": "uint256"
        }
      ],
      "stateMutability": "view",
      "type": "function"
    },
    {
      "inputs": [
        {
          "internalType": "uint256",
          "name": "_vBoxId",
          "type": "uint256"
        },
        {
          "internalType": "address",
          "name": "_recipient",
          "type": "address"
        },
        {
          "components": [
            {
              "internalType": "uint256",
              "name": "amount",
              "type": "uint256"
            },
            {
              "internalType": "uint256",
              "name": "withdrawn",
              "type": "uint256"
            },
            {
              "internalType": "uint128",
              "name": "startTime",
              "type": "uint128"
            },
            {
              "internalType": "uint128",
              "name": "endTime",
              "type": "uint128"
            }
          ],
          "internalType": "struct VestCore.VestingBoxAccount",
          "name": "_vBoxAccount",
          "type": "tuple"
        }
      ],
      "name": "addAccountToVestingBox",
      "outputs": [],
      "stateMutability": "nonpayable",
      "type": "function"
    },
    {
      "inputs": [
        {
          "internalType": "uint256",
          "name": "_vBoxId",
          "type": "uint256"
        },
        {
          "internalType": "uint256",
          "name": "_amountToClaim",
          "type": "uint256"
        }
      ],
      "name": "claimVestedTokens",
      "outputs": [
        {
          "internalType": "bool",
          "name": "",
          "type": "bool"
        }
      ],
      "stateMutability": "nonpayable",
      "type": "function"
    },
    {
      "inputs": [
        {
          "internalType": "uint256",
          "name": "_totalAmount",
          "type": "uint256"
        },
        {
          "components": [
            {
              "internalType": "address",
              "name": "token",
              "type": "address"
            },
            {
              "internalType": "address[]",
              "name": "admins",
              "type": "address[]"
            },
            {
              "internalType": "address[]",
              "name": "recipients",
              "type": "address[]"
            }
          ],
          "internalType": "struct VestCore.VestingBox",
          "name": "_vBox",
          "type": "tuple"
        },
        {
          "components": [
            {
              "internalType": "uint256",
              "name": "amount",
              "type": "uint256"
            },
            {
              "internalType": "uint256",
              "name": "withdrawn",
              "type": "uint256"
            },
            {
              "internalType": "uint128",
              "name": "startTime",
              "type": "uint128"
            },
            {
              "internalType": "uint128",
              "name": "endTime",
              "type": "uint128"
            }
          ],
          "internalType": "struct VestCore.VestingBoxAccount[]",
          "name": "_vBoxAccounts",
          "type": "tuple[]"
        }
      ],
      "name": "createVestingBoxWithETH",
      "outputs": [
        {
          "internalType": "bool",
          "name": "",
          "type": "bool"
        }
      ],
      "stateMutability": "payable",
      "type": "function"
    },
    {
      "inputs": [
        {
          "internalType": "uint256",
          "name": "_totalAmount",
          "type": "uint256"
        },
        {
          "components": [
            {
              "internalType": "address",
              "name": "token",
              "type": "address"
            },
            {
              "internalType": "address[]",
              "name": "admins",
              "type": "address[]"
            },
            {
              "internalType": "address[]",
              "name": "recipients",
              "type": "address[]"
            }
          ],
          "internalType": "struct VestCore.VestingBox",
          "name": "_vBox",
          "type": "tuple"
        },
        {
          "components": [
            {
              "internalType": "uint256",
              "name": "amount",
              "type": "uint256"
            },
            {
              "internalType": "uint256",
              "name": "withdrawn",
              "type": "uint256"
            },
            {
              "internalType": "uint128",
              "name": "startTime",
              "type": "uint128"
            },
            {
              "internalType": "uint128",
              "name": "endTime",
              "type": "uint128"
            }
          ],
          "internalType": "struct VestCore.VestingBoxAccount[]",
          "name": "_vBoxAccounts",
          "type": "tuple[]"
        }
      ],
      "name": "createVestingBoxWithExistingToken",
      "outputs": [
        {
          "internalType": "bool",
          "name": "",
          "type": "bool"
        }
      ],
      "stateMutability": "nonpayable",
      "type": "function"
    },
    {
      "inputs": [
        {
          "internalType": "uint256",
          "name": "_totalAmount",
          "type": "uint256"
        },
        {
          "components": [
            {
              "internalType": "address",
              "name": "token",
              "type": "address"
            },
            {
              "internalType": "address[]",
              "name": "admins",
              "type": "address[]"
            },
            {
              "internalType": "address[]",
              "name": "recipients",
              "type": "address[]"
            }
          ],
          "internalType": "struct VestCore.VestingBox",
          "name": "_vBox",
          "type": "tuple"
        },
        {
          "components": [
            {
              "internalType": "uint256",
              "name": "amount",
              "type": "uint256"
            },
            {
              "internalType": "uint256",
              "name": "withdrawn",
              "type": "uint256"
            },
            {
              "internalType": "uint128",
              "name": "startTime",
              "type": "uint128"
            },
            {
              "internalType": "uint128",
              "name": "endTime",
              "type": "uint128"
            }
          ],
          "internalType": "struct VestCore.VestingBoxAccount[]",
          "name": "_vBoxAccounts",
          "type": "tuple[]"
        },
        {
          "internalType": "string",
          "name": "_tokenName",
          "type": "string"
        },
        {
          "internalType": "string",
          "name": "_tokenSymbol",
          "type": "string"
        },
        {
          "internalType": "uint256",
          "name": "_tokenTotalSupply",
          "type": "uint256"
        }
      ],
      "name": "createVestingBoxWithNewToken",
      "outputs": [
        {
          "internalType": "bool",
          "name": "",
          "type": "bool"
        }
      ],
      "stateMutability": "nonpayable",
      "type": "function"
    },
    {
      "inputs": [],
      "name": "fee",
      "outputs": [
        {
          "internalType": "uint256",
          "name": "",
          "type": "uint256"
        }
      ],
      "stateMutability": "view",
      "type": "function"
    },
    {
      "inputs": [
        {
          "internalType": "address",
          "name": "_token",
          "type": "address"
        }
      ],
      "name": "getAssetHeldForVesting",
      "outputs": [
        {
          "internalType": "uint256",
          "name": "",
          "type": "uint256"
        }
      ],
      "stateMutability": "view",
      "type": "function"
    },
    {
      "inputs": [
        {
          "internalType": "address",
          "name": "_token",
          "type": "address"
        }
      ],
      "name": "getProtocolFeesEarned",
      "outputs": [
        {
          "internalType": "uint256",
          "name": "",
          "type": "uint256"
        }
      ],
      "stateMutability": "view",
      "type": "function"
    },
    {
      "inputs": [
        {
          "internalType": "uint256",
          "name": "_vestingBoxId",
          "type": "uint256"
        }
      ],
      "name": "getVestingBox",
      "outputs": [
        {
          "components": [
            {
              "internalType": "address",
              "name": "token",
              "type": "address"
            },
            {
              "internalType": "address[]",
              "name": "admins",
              "type": "address[]"
            },
            {
              "internalType": "address[]",
              "name": "recipients",
              "type": "address[]"
            }
          ],
          "internalType": "struct VestCore.VestingBox",
          "name": "vestingBox",
          "type": "tuple"
        }
      ],
      "stateMutability": "view",
      "type": "function"
    },
    {
      "inputs": [
        {
          "internalType": "uint256",
          "name": "_vBoxId",
          "type": "uint256"
        },
        {
          "internalType": "address",
          "name": "_account",
          "type": "address"
        }
      ],
      "name": "getWithdrawableAmount",
      "outputs": [
        {
          "internalType": "uint256",
          "name": "",
          "type": "uint256"
        }
      ],
      "stateMutability": "view",
      "type": "function"
    },
    {
      "inputs": [],
      "name": "owner",
      "outputs": [
        {
          "internalType": "address",
          "name": "",
          "type": "address"
        }
      ],
      "stateMutability": "view",
      "type": "function"
    },
    {
      "inputs": [
        {
          "internalType": "uint256",
          "name": "_vBoxId",
          "type": "uint256"
        },
        {
          "internalType": "address",
          "name": "_recipient",
          "type": "address"
        }
      ],
      "name": "removeAccountFromVestingBox",
      "outputs": [],
      "stateMutability": "nonpayable",
      "type": "function"
    },
    {
      "inputs": [],
      "name": "renounceOwnership",
      "outputs": [],
      "stateMutability": "nonpayable",
      "type": "function"
    },
    {
      "inputs": [
        {
          "internalType": "uint256",
          "name": "_fee",
          "type": "uint256"
        }
      ],
      "name": "setFee",
      "outputs": [],
      "stateMutability": "nonpayable",
      "type": "function"
    },
    {
      "inputs": [
        {
          "internalType": "contract IVestERC20Factory",
          "name": "_newFactory",
          "type": "address"
        }
      ],
      "name": "setTokenFactory",
      "outputs": [],
      "stateMutability": "nonpayable",
      "type": "function"
    },
    {
      "inputs": [
        {
          "internalType": "uint256",
          "name": "_vBoxId",
          "type": "uint256"
        },
        {
          "internalType": "address",
          "name": "_account",
          "type": "address"
        },
        {
          "internalType": "bool",
          "name": "_isAdmin",
          "type": "bool"
        }
      ],
      "name": "setVestingBoxAdmin",
      "outputs": [],
      "stateMutability": "nonpayable",
      "type": "function"
    },
    {
      "inputs": [],
      "name": "tokenFactory",
      "outputs": [
        {
          "internalType": "contract IVestERC20Factory",
          "name": "",
          "type": "address"
        }
      ],
      "stateMutability": "view",
      "type": "function"
    },
    {
      "inputs": [
        {
          "internalType": "address",
          "name": "newOwner",
          "type": "address"
        }
      ],
      "name": "transferOwnership",
      "outputs": [],
      "stateMutability": "nonpayable",
      "type": "function"
    },
    {
      "inputs": [],
      "name": "vBoxCount",
      "outputs": [
        {
          "internalType": "uint256",
          "name": "",
          "type": "uint256"
        }
      ],
      "stateMutability": "view",
      "type": "function"
    },
    {
      "inputs": [
        {
          "internalType": "uint256",
          "name": "_amount",
          "type": "uint256"
        },
        {
          "internalType": "address",
          "name": "_to",
          "type": "address"
        }
      ],
      "name": "withdrawETHFees",
      "outputs": [],
      "stateMutability": "nonpayable",
      "type": "function"
    },
    {
      "inputs": [
        {
          "internalType": "address",
          "name": "_token",
          "type": "address"
        },
        {
          "internalType": "uint256",
          "name": "_amount",
          "type": "uint256"
        },
        {
          "internalType": "address",
          "name": "_to",
          "type": "address"
        }
      ],
      "name": "withdrawTokenFees",
      "outputs": [],
      "stateMutability": "nonpayable",
      "type": "function"
    }
  ],
  "bytecode": "0x608060405266038d7ea4c68000600155600060025573eeeeeeeeeeeeeeeeeeeeeeeeeeeeeeeeeeeeeeee600460006101000a81548173ffffffffffffffffffffffffffffffffffffffff021916908373ffffffffffffffffffffffffffffffffffffffff1602179055503480156200007657600080fd5b50620000976200008b6200009d60201b60201c565b620000a560201b60201c565b62000169565b600033905090565b60008060009054906101000a900473ffffffffffffffffffffffffffffffffffffffff169050816000806101000a81548173ffffffffffffffffffffffffffffffffffffffff021916908373ffffffffffffffffffffffffffffffffffffffff1602179055508173ffffffffffffffffffffffffffffffffffffffff168173ffffffffffffffffffffffffffffffffffffffff167f8be0079c531659141344cd1fd0a4f28419497f9722a3daafe3b4186f6b6457e060405160405180910390a35050565b61394480620001796000396000f3fe6080604052600436106101405760003560e01c80638da5cb5b116100b6578063ddca3f431161006f578063ddca3f4314610483578063e77772fe146104ae578063e9b3663e146104d9578063ec4d26cf14610504578063eced55261461052d578063f2fde38b1461055857610140565b80638da5cb5b1461034f57806394e4bb421461037a57806395be5498146103b7578063c6530006146103e0578063c68482a71461041d578063d3d072cc1461045a57610140565b80635188723911610108578063518872391461025557806369fe0e2d14610292578063715018a6146102bb57806371b4e6e7146102d25780638322fff2146102fb5780638cfe046e1461032657610140565b80632f73a9f8146101455780633336289f1461016e578063359cd45e146101ab5780633b2b9e8a146101e85780634a918a0c14610218575b600080fd5b34801561015157600080fd5b5061016c60048036038101906101679190612412565b610581565b005b34801561017a57600080fd5b5061019560048036038101906101909190612823565b6106b1565b6040516101a291906128c9565b60405180910390f35b3480156101b757600080fd5b506101d260048036038101906101cd91906128e4565b6106c9565b6040516101df9190612933565b60405180910390f35b61020260048036038101906101fd9190612823565b610a9c565b60405161020f91906128c9565b60405180910390f35b34801561022457600080fd5b5061023f600480360381019061023a919061294e565b610b0e565b60405161024c9190612933565b60405180910390f35b34801561026157600080fd5b5061027c6004803603810190610277919061297b565b610ca6565b60405161028991906128c9565b60405180910390f35b34801561029e57600080fd5b506102b960048036038101906102b491906129bb565b610d95565b005b3480156102c757600080fd5b506102d0610e66565b005b3480156102de57600080fd5b506102f960048036038101906102f491906128e4565b610eee565b005b34801561030757600080fd5b506103106110ca565b60405161031d91906129f7565b60405180910390f35b34801561033257600080fd5b5061034d60048036038101906103489190612a12565b6110f0565b005b34801561035b57600080fd5b50610364611196565b60405161037191906129f7565b60405180910390f35b34801561038657600080fd5b506103a1600480360381019061039c9190612ac0565b6111bf565b6040516103ae91906128c9565b60405180910390f35b3480156103c357600080fd5b506103de60048036038101906103d99190612bc7565b611220565b005b3480156103ec57600080fd5b506104076004803603810190610402919061294e565b611426565b6040516104149190612933565b60405180910390f35b34801561042957600080fd5b50610444600480360381019061043f91906129bb565b61146f565b6040516104519190612d2f565b60405180910390f35b34801561046657600080fd5b50610481600480360381019061047c9190612d7d565b61162a565b005b34801561048f57600080fd5b506104986116d0565b6040516104a59190612933565b60405180910390f35b3480156104ba57600080fd5b506104c36116d6565b6040516104d09190612e2f565b60405180910390f35b3480156104e557600080fd5b506104ee6116fc565b6040516104fb9190612933565b60405180910390f35b34801561051057600080fd5b5061052b600480360381019061052691906128e4565b611702565b005b34801561053957600080fd5b506105426117a7565b60405161054f9190612933565b60405180910390f35b34801561056457600080fd5b5061057f600480360381019061057a919061294e565b6117b3565b005b6105896118ab565b73ffffffffffffffffffffffffffffffffffffffff166105a7611196565b73ffffffffffffffffffffffffffffffffffffffff16146105fd576040517f08c379a00000000000000000000000000000000000000000000000000000000081526004016105f490612ea7565b60405180910390fd5b600073ffffffffffffffffffffffffffffffffffffffff168173ffffffffffffffffffffffffffffffffffffffff16141561066d576040517f08c379a000000000000000000000000000000000000000000000000000000000815260040161066490612f13565b60405180910390fd5b80600360006101000a81548173ffffffffffffffffffffffffffffffffffffffff021916908373ffffffffffffffffffffffffffffffffffffffff16021790555050565b60006106c084848460006118b3565b90509392505050565b60006006600084815260200190815260200160002060008373ffffffffffffffffffffffffffffffffffffffff1673ffffffffffffffffffffffffffffffffffffffff16815260200190815260200160002060020160109054906101000a90046fffffffffffffffffffffffffffffffff166fffffffffffffffffffffffffffffffff16421061080c576006600084815260200190815260200160002060008373ffffffffffffffffffffffffffffffffffffffff1673ffffffffffffffffffffffffffffffffffffffff168152602001908152602001600020600101546006600085815260200190815260200160002060008473ffffffffffffffffffffffffffffffffffffffff1673ffffffffffffffffffffffffffffffffffffffff168152602001908152602001600020600001546108059190612f62565b9050610a96565b60006006600085815260200190815260200160002060008473ffffffffffffffffffffffffffffffffffffffff1673ffffffffffffffffffffffffffffffffffffffff16815260200190815260200160002060020160009054906101000a90046fffffffffffffffffffffffffffffffff166fffffffffffffffffffffffffffffffff164261089b9190612f62565b905060006006600086815260200190815260200160002060008573ffffffffffffffffffffffffffffffffffffffff1673ffffffffffffffffffffffffffffffffffffffff16815260200190815260200160002060020160009054906101000a90046fffffffffffffffffffffffffffffffff166006600087815260200190815260200160002060008673ffffffffffffffffffffffffffffffffffffffff1673ffffffffffffffffffffffffffffffffffffffff16815260200190815260200160002060020160109054906101000a90046fffffffffffffffffffffffffffffffff166109899190612f96565b6fffffffffffffffffffffffffffffffff1690506000670de0b6b3a7640000826109b39190612fca565b670de0b6b3a764000084600660008a815260200190815260200160002060008973ffffffffffffffffffffffffffffffffffffffff1673ffffffffffffffffffffffffffffffffffffffff16815260200190815260200160002060000154610a1b9190612fca565b610a259190612fca565b610a2f9190613053565b90506006600087815260200190815260200160002060008673ffffffffffffffffffffffffffffffffffffffff1673ffffffffffffffffffffffffffffffffffffffff1681526020019081526020016000206001015481610a909190612f62565b93505050505b92915050565b6000600460009054906101000a900473ffffffffffffffffffffffffffffffffffffffff16836000019073ffffffffffffffffffffffffffffffffffffffff16908173ffffffffffffffffffffffffffffffffffffffff1681525050610b0584848460006118b3565b90509392505050565b6000600460009054906101000a900473ffffffffffffffffffffffffffffffffffffffff1673ffffffffffffffffffffffffffffffffffffffff168273ffffffffffffffffffffffffffffffffffffffff161415610bda5760086000600460009054906101000a900473ffffffffffffffffffffffffffffffffffffffff1673ffffffffffffffffffffffffffffffffffffffff1673ffffffffffffffffffffffffffffffffffffffff1681526020019081526020016000205447610bd39190612f62565b9050610ca1565b600860008373ffffffffffffffffffffffffffffffffffffffff1673ffffffffffffffffffffffffffffffffffffffff168152602001908152602001600020548273ffffffffffffffffffffffffffffffffffffffff166370a08231306040518263ffffffff1660e01b8152600401610c5391906129f7565b602060405180830381865afa158015610c70573d6000803e3d6000fd5b505050506040513d601f19601f82011682018060405250810190610c949190613099565b610c9e9190612f62565b90505b919050565b600080610cb384336106c9565b905082811015610cf8576040517f08c379a0000000000000000000000000000000000000000000000000000000008152600401610cef90613112565b60405180910390fd5b610d028484611e8d565b506005600085815260200190815260200160002060000160009054906101000a900473ffffffffffffffffffffffffffffffffffffffff1673ffffffffffffffffffffffffffffffffffffffff16847f8eb0865c9da68f6f207dae091828f315df4736814a358375142237af0e0d374b8533604051610d82929190613132565b60405180910390a3600191505092915050565b610d9d6118ab565b73ffffffffffffffffffffffffffffffffffffffff16610dbb611196565b73ffffffffffffffffffffffffffffffffffffffff1614610e11576040517f08c379a0000000000000000000000000000000000000000000000000000000008152600401610e0890612ea7565b60405180910390fd5b670de0b6b3a7640000811115610e5c576040517f08c379a0000000000000000000000000000000000000000000000000000000008152600401610e53906131a7565b60405180910390fd5b8060018190555050565b610e6e6118ab565b73ffffffffffffffffffffffffffffffffffffffff16610e8c611196565b73ffffffffffffffffffffffffffffffffffffffff1614610ee2576040517f08c379a0000000000000000000000000000000000000000000000000000000008152600401610ed990612ea7565b60405180910390fd5b610eec60006120fd565b565b610ef66118ab565b73ffffffffffffffffffffffffffffffffffffffff16610f14611196565b73ffffffffffffffffffffffffffffffffffffffff1614610f6a576040517f08c379a0000000000000000000000000000000000000000000000000000000008152600401610f6190612ea7565b60405180910390fd5b8160086000600460009054906101000a900473ffffffffffffffffffffffffffffffffffffffff1673ffffffffffffffffffffffffffffffffffffffff1673ffffffffffffffffffffffffffffffffffffffff1681526020019081526020016000205447610fd89190612f62565b1015611019576040517f08c379a000000000000000000000000000000000000000000000000000000000815260040161101090613213565b60405180910390fd5b60008173ffffffffffffffffffffffffffffffffffffffff168360405161103f90613264565b60006040518083038185875af1925050503d806000811461107c576040519150601f19603f3d011682016040523d82523d6000602084013e611081565b606091505b50509050806110c5576040517f08c379a00000000000000000000000000000000000000000000000000000000081526004016110bc906132c5565b60405180910390fd5b505050565b600460009054906101000a900473ffffffffffffffffffffffffffffffffffffffff1681565b82336007600083815260200190815260200160002060008273ffffffffffffffffffffffffffffffffffffffff1673ffffffffffffffffffffffffffffffffffffffff16815260200190815260200160002060009054906101000a900460ff1661118f576040517f08c379a000000000000000000000000000000000000000000000000000000000815260040161118690613331565b60405180910390fd5b5050505050565b60008060009054906101000a900473ffffffffffffffffffffffffffffffffffffffff16905090565b60006111ce86868686866121c1565b886000019073ffffffffffffffffffffffffffffffffffffffff16908173ffffffffffffffffffffffffffffffffffffffff168152505061121289898960016118b3565b905098975050505050505050565b6112286118ab565b73ffffffffffffffffffffffffffffffffffffffff16611246611196565b73ffffffffffffffffffffffffffffffffffffffff161461129c576040517f08c379a000000000000000000000000000000000000000000000000000000000815260040161129390612ea7565b60405180910390fd5b81600860008573ffffffffffffffffffffffffffffffffffffffff1673ffffffffffffffffffffffffffffffffffffffff168152602001908152602001600020548473ffffffffffffffffffffffffffffffffffffffff166370a08231306040518263ffffffff1660e01b815260040161131691906129f7565b602060405180830381865afa158015611333573d6000803e3d6000fd5b505050506040513d601f19601f820116820180604052508101906113579190613099565b6113619190612f62565b10156113a2576040517f08c379a000000000000000000000000000000000000000000000000000000000815260040161139990613213565b60405180910390fd5b8273ffffffffffffffffffffffffffffffffffffffff1663a9059cbb82846040518363ffffffff1660e01b81526004016113dd929190613351565b6020604051808303816000875af11580156113fc573d6000803e3d6000fd5b505050506040513d601f19601f82011682018060405250810190611420919061338f565b50505050565b6000600860008373ffffffffffffffffffffffffffffffffffffffff1673ffffffffffffffffffffffffffffffffffffffff168152602001908152602001600020549050919050565b6114776122b0565b6000821161148457600080fd5b60025482111561149357600080fd5b600560008381526020019081526020016000206040518060600160405290816000820160009054906101000a900473ffffffffffffffffffffffffffffffffffffffff1673ffffffffffffffffffffffffffffffffffffffff1673ffffffffffffffffffffffffffffffffffffffff1681526020016001820180548060200260200160405190810160405280929190818152602001828054801561158c57602002820191906000526020600020905b8160009054906101000a900473ffffffffffffffffffffffffffffffffffffffff1673ffffffffffffffffffffffffffffffffffffffff1681526020019060010190808311611542575b505050505081526020016002820180548060200260200160405190810160405280929190818152602001828054801561161a57602002820191906000526020600020905b8160009054906101000a900473ffffffffffffffffffffffffffffffffffffffff1673ffffffffffffffffffffffffffffffffffffffff16815260200190600101908083116115d0575b5050505050815250509050919050565b82336007600083815260200190815260200160002060008273ffffffffffffffffffffffffffffffffffffffff1673ffffffffffffffffffffffffffffffffffffffff16815260200190815260200160002060009054906101000a900460ff166116c9576040517f08c379a00000000000000000000000000000000000000000000000000000000081526004016116c090613331565b60405180910390fd5b5050505050565b60015481565b600360009054906101000a900473ffffffffffffffffffffffffffffffffffffffff1681565b60025481565b81336007600083815260200190815260200160002060008273ffffffffffffffffffffffffffffffffffffffff1673ffffffffffffffffffffffffffffffffffffffff16815260200190815260200160002060009054906101000a900460ff166117a1576040517f08c379a000000000000000000000000000000000000000000000000000000000815260040161179890613331565b60405180910390fd5b50505050565b670de0b6b3a764000081565b6117bb6118ab565b73ffffffffffffffffffffffffffffffffffffffff166117d9611196565b73ffffffffffffffffffffffffffffffffffffffff161461182f576040517f08c379a000000000000000000000000000000000000000000000000000000000815260040161182690612ea7565b60405180910390fd5b600073ffffffffffffffffffffffffffffffffffffffff168173ffffffffffffffffffffffffffffffffffffffff16141561189f576040517f08c379a00000000000000000000000000000000000000000000000000000000081526004016118969061342e565b60405180910390fd5b6118a8816120fd565b50565b600033905090565b60008085116118f7576040517f08c379a00000000000000000000000000000000000000000000000000000000081526004016118ee9061349a565b60405180910390fd5b60008460400151511161193f576040517f08c379a000000000000000000000000000000000000000000000000000000000815260040161193690613506565b60405180910390fd5b825184604001515114611987576040517f08c379a000000000000000000000000000000000000000000000000000000000815260040161197e90613572565b60405180910390fd5b600460009054906101000a900473ffffffffffffffffffffffffffffffffffffffff1673ffffffffffffffffffffffffffffffffffffffff16846000015173ffffffffffffffffffffffffffffffffffffffff161415611a255784341015611a24576040517f08c379a0000000000000000000000000000000000000000000000000000000008152600401611a1b906135de565b60405180910390fd5b5b6000805b8451811015611a7157848181518110611a4557611a446135fe565b5b60200260200101516000015182611a5c919061362d565b91508080611a6990613683565b915050611a29565b50858114611ab4576040517f08c379a0000000000000000000000000000000000000000000000000000000008152600401611aab90613718565b60405180910390fd5b600460009054906101000a900473ffffffffffffffffffffffffffffffffffffffff1673ffffffffffffffffffffffffffffffffffffffff16856000015173ffffffffffffffffffffffffffffffffffffffff1614158015611b14575082155b15611bdd57846000015173ffffffffffffffffffffffffffffffffffffffff166323b872dd3330896040518463ffffffff1660e01b8152600401611b5a93929190613738565b6020604051808303816000875af1158015611b79573d6000803e3d6000fd5b505050506040513d601f19601f82011682018060405250810190611b9d919061338f565b611bdc576040517f08c379a0000000000000000000000000000000000000000000000000000000008152600401611bd3906137bb565b60405180910390fd5b5b60026000815480929190611bf090613683565b91905055508460056000600254815260200190815260200160002060008201518160000160006101000a81548173ffffffffffffffffffffffffffffffffffffffff021916908373ffffffffffffffffffffffffffffffffffffffff1602179055506020820151816001019080519060200190611c6e9291906122e7565b506040820151816002019080519060200190611c8b9291906122e7565b5090505060005b8451811015611dce57848181518110611cae57611cad6135fe565b5b6020026020010151600660006002548152602001908152602001600020600088604001518481518110611ce457611ce36135fe565b5b602002602001015173ffffffffffffffffffffffffffffffffffffffff1673ffffffffffffffffffffffffffffffffffffffff168152602001908152602001600020600082015181600001556020820151816001015560408201518160020160006101000a8154816fffffffffffffffffffffffffffffffff02191690836fffffffffffffffffffffffffffffffff16021790555060608201518160020160106101000a8154816fffffffffffffffffffffffffffffffff02191690836fffffffffffffffffffffffffffffffff1602179055509050508080611dc690613683565b915050611c92565b508560086000876000015173ffffffffffffffffffffffffffffffffffffffff1673ffffffffffffffffffffffffffffffffffffffff1681526020019081526020016000206000828254611e22919061362d565b92505081905550846000015173ffffffffffffffffffffffffffffffffffffffff166002547f09f269811cffd09fb630ee319c1b845625b319c2446953fc766a761a64c47bc43389604051611e78929190613351565b60405180910390a36001915050949350505050565b60008060009050826006600086815260200190815260200160002060003373ffffffffffffffffffffffffffffffffffffffff1673ffffffffffffffffffffffffffffffffffffffff1681526020019081526020016000206001016000828254611ef7919061362d565b92505081905550600460009054906101000a900473ffffffffffffffffffffffffffffffffffffffff1673ffffffffffffffffffffffffffffffffffffffff166005600086815260200190815260200160002060000160009054906101000a900473ffffffffffffffffffffffffffffffffffffffff1673ffffffffffffffffffffffffffffffffffffffff161415611ffb573373ffffffffffffffffffffffffffffffffffffffff1683604051611fae90613264565b60006040518083038185875af1925050503d8060008114611feb576040519150601f19603f3d011682016040523d82523d6000602084013e611ff0565b606091505b5050809150506120b2565b6005600085815260200190815260200160002060000160009054906101000a900473ffffffffffffffffffffffffffffffffffffffff1673ffffffffffffffffffffffffffffffffffffffff1663a9059cbb33856040518363ffffffff1660e01b815260040161206c929190613351565b6020604051808303816000875af115801561208b573d6000803e3d6000fd5b505050506040513d601f19601f820116820180604052508101906120af919061338f565b90505b806120f2576040517f08c379a00000000000000000000000000000000000000000000000000000000081526004016120e990613827565b60405180910390fd5b600191505092915050565b60008060009054906101000a900473ffffffffffffffffffffffffffffffffffffffff169050816000806101000a81548173ffffffffffffffffffffffffffffffffffffffff021916908373ffffffffffffffffffffffffffffffffffffffff1602179055508173ffffffffffffffffffffffffffffffffffffffff168173ffffffffffffffffffffffffffffffffffffffff167f8be0079c531659141344cd1fd0a4f28419497f9722a3daafe3b4186f6b6457e060405160405180910390a35050565b600080600360009054906101000a900473ffffffffffffffffffffffffffffffffffffffff1673ffffffffffffffffffffffffffffffffffffffff166372e4352d88888888886040518663ffffffff1660e01b8152600401612227959493929190613883565b6020604051808303816000875af1158015612246573d6000803e3d6000fd5b505050506040513d601f19601f8201168201806040525081019061226a91906138e1565b90507f41039c8b82bb5a365f56b4f9d87cee99e069b450bfdc3d87696fcd87783f24c18160405161229b91906129f7565b60405180910390a18091505095945050505050565b6040518060600160405280600073ffffffffffffffffffffffffffffffffffffffff16815260200160608152602001606081525090565b828054828255906000526020600020908101928215612360579160200282015b8281111561235f5782518260006101000a81548173ffffffffffffffffffffffffffffffffffffffff021916908373ffffffffffffffffffffffffffffffffffffffff16021790555091602001919060010190612307565b5b50905061236d9190612371565b5090565b5b8082111561238a576000816000905550600101612372565b5090565b6000604051905090565b600080fd5b600080fd5b600073ffffffffffffffffffffffffffffffffffffffff82169050919050565b60006123cd826123a2565b9050919050565b60006123df826123c2565b9050919050565b6123ef816123d4565b81146123fa57600080fd5b50565b60008135905061240c816123e6565b92915050565b60006020828403121561242857612427612398565b5b6000612436848285016123fd565b91505092915050565b6000819050919050565b6124528161243f565b811461245d57600080fd5b50565b60008135905061246f81612449565b92915050565b600080fd5b6000601f19601f8301169050919050565b7f4e487b7100000000000000000000000000000000000000000000000000000000600052604160045260246000fd5b6124c38261247a565b810181811067ffffffffffffffff821117156124e2576124e161248b565b5b80604052505050565b60006124f561238e565b905061250182826124ba565b919050565b600080fd5b612514816123c2565b811461251f57600080fd5b50565b6000813590506125318161250b565b92915050565b600080fd5b600067ffffffffffffffff8211156125575761255661248b565b5b602082029050602081019050919050565b600080fd5b600061258061257b8461253c565b6124eb565b905080838252602082019050602084028301858111156125a3576125a2612568565b5b835b818110156125cc57806125b88882612522565b8452602084019350506020810190506125a5565b5050509392505050565b600082601f8301126125eb576125ea612537565b5b81356125fb84826020860161256d565b91505092915050565b60006060828403121561261a57612619612475565b5b61262460606124eb565b9050600061263484828501612522565b600083015250602082013567ffffffffffffffff81111561265857612657612506565b5b612664848285016125d6565b602083015250604082013567ffffffffffffffff81111561268857612687612506565b5b612694848285016125d6565b60408301525092915050565b600067ffffffffffffffff8211156126bb576126ba61248b565b5b602082029050602081019050919050565b60006fffffffffffffffffffffffffffffffff82169050919050565b6126f1816126cc565b81146126fc57600080fd5b50565b60008135905061270e816126e8565b92915050565b60006080828403121561272a57612729612475565b5b61273460806124eb565b9050600061274484828501612460565b600083015250602061275884828501612460565b602083015250604061276c848285016126ff565b6040830152506060612780848285016126ff565b60608301525092915050565b600061279f61279a846126a0565b6124eb565b905080838252602082019050608084028301858111156127c2576127c1612568565b5b835b818110156127eb57806127d78882612714565b8452602084019350506080810190506127c4565b5050509392505050565b600082601f83011261280a57612809612537565b5b813561281a84826020860161278c565b91505092915050565b60008060006060848603121561283c5761283b612398565b5b600061284a86828701612460565b935050602084013567ffffffffffffffff81111561286b5761286a61239d565b5b61287786828701612604565b925050604084013567ffffffffffffffff8111156128985761289761239d565b5b6128a4868287016127f5565b9150509250925092565b60008115159050919050565b6128c3816128ae565b82525050565b60006020820190506128de60008301846128ba565b92915050565b600080604083850312156128fb576128fa612398565b5b600061290985828601612460565b925050602061291a85828601612522565b9150509250929050565b61292d8161243f565b82525050565b60006020820190506129486000830184612924565b92915050565b60006020828403121561296457612963612398565b5b600061297284828501612522565b91505092915050565b6000806040838503121561299257612991612398565b5b60006129a085828601612460565b92505060206129b185828601612460565b9150509250929050565b6000602082840312156129d1576129d0612398565b5b60006129df84828501612460565b91505092915050565b6129f1816123c2565b82525050565b6000602082019050612a0c60008301846129e8565b92915050565b600080600060c08486031215612a2b57612a2a612398565b5b6000612a3986828701612460565b9350506020612a4a86828701612522565b9250506040612a5b86828701612714565b9150509250925092565b600080fd5b60008083601f840112612a8057612a7f612537565b5b8235905067ffffffffffffffff811115612a9d57612a9c612a65565b5b602083019150836001820283011115612ab957612ab8612568565b5b9250929050565b60008060008060008060008060c0898b031215612ae057612adf612398565b5b6000612aee8b828c01612460565b985050602089013567ffffffffffffffff811115612b0f57612b0e61239d565b5b612b1b8b828c01612604565b975050604089013567ffffffffffffffff811115612b3c57612b3b61239d565b5b612b488b828c016127f5565b965050606089013567ffffffffffffffff811115612b6957612b6861239d565b5b612b758b828c01612a6a565b9550955050608089013567ffffffffffffffff811115612b9857612b9761239d565b5b612ba48b828c01612a6a565b935093505060a0612bb78b828c01612460565b9150509295985092959890939650565b600080600060608486031215612be057612bdf612398565b5b6000612bee86828701612522565b9350506020612bff86828701612460565b9250506040612c1086828701612522565b9150509250925092565b612c23816123c2565b82525050565b600081519050919050565b600082825260208201905092915050565b6000819050602082019050919050565b6000612c618383612c1a565b60208301905092915050565b6000602082019050919050565b6000612c8582612c29565b612c8f8185612c34565b9350612c9a83612c45565b8060005b83811015612ccb578151612cb28882612c55565b9750612cbd83612c6d565b925050600181019050612c9e565b5085935050505092915050565b6000606083016000830151612cf06000860182612c1a565b5060208301518482036020860152612d088282612c7a565b91505060408301518482036040860152612d228282612c7a565b9150508091505092915050565b60006020820190508181036000830152612d498184612cd8565b905092915050565b612d5a816128ae565b8114612d6557600080fd5b50565b600081359050612d7781612d51565b92915050565b600080600060608486031215612d9657612d95612398565b5b6000612da486828701612460565b9350506020612db586828701612522565b9250506040612dc686828701612d68565b9150509250925092565b6000819050919050565b6000612df5612df0612deb846123a2565b612dd0565b6123a2565b9050919050565b6000612e0782612dda565b9050919050565b6000612e1982612dfc565b9050919050565b612e2981612e0e565b82525050565b6000602082019050612e446000830184612e20565b92915050565b600082825260208201905092915050565b7f4f776e61626c653a2063616c6c6572206973206e6f7420746865206f776e6572600082015250565b6000612e91602083612e4a565b9150612e9c82612e5b565b602082019050919050565b60006020820190508181036000830152612ec081612e84565b9050919050565b7f564553543a20464143544f5259204e4f54205a45524f20414444524553530000600082015250565b6000612efd601e83612e4a565b9150612f0882612ec7565b602082019050919050565b60006020820190508181036000830152612f2c81612ef0565b9050919050565b7f4e487b7100000000000000000000000000000000000000000000000000000000600052601160045260246000fd5b6000612f6d8261243f565b9150612f788361243f565b925082821015612f8b57612f8a612f33565b5b828203905092915050565b6000612fa1826126cc565b9150612fac836126cc565b925082821015612fbf57612fbe612f33565b5b828203905092915050565b6000612fd58261243f565b9150612fe08361243f565b9250817fffffffffffffffffffffffffffffffffffffffffffffffffffffffffffffffff048311821515161561301957613018612f33565b5b828202905092915050565b7f4e487b7100000000000000000000000000000000000000000000000000000000600052601260045260246000fd5b600061305e8261243f565b91506130698361243f565b92508261307957613078613024565b5b828204905092915050565b60008151905061309381612449565b92915050565b6000602082840312156130af576130ae612398565b5b60006130bd84828501613084565b91505092915050565b7f564553543a204e4f5420454e4f55474820564553544544000000000000000000600082015250565b60006130fc601783612e4a565b9150613107826130c6565b602082019050919050565b6000602082019050818103600083015261312b816130ef565b9050919050565b60006040820190506131476000830185612924565b61315460208301846129e8565b9392505050565b7f564553543a20464545204d555354204245203c20313030250000000000000000600082015250565b6000613191601883612e4a565b915061319c8261315b565b602082019050919050565b600060208201905081810360008301526131c081613184565b9050919050565b7f564553543a20414d4f554e5420544f4f20484947480000000000000000000000600082015250565b60006131fd601583612e4a565b9150613208826131c7565b602082019050919050565b6000602082019050818103600083015261322c816131f0565b9050919050565b600081905092915050565b50565b600061324e600083613233565b91506132598261323e565b600082019050919050565b600061326f82613241565b9150819050919050565b7f564553543a20455448205452414e53464552204641494c454400000000000000600082015250565b60006132af601983612e4a565b91506132ba82613279565b602082019050919050565b600060208201905081810360008301526132de816132a2565b9050919050565b7f564553543a204e4f542056424f582041444d494e000000000000000000000000600082015250565b600061331b601483612e4a565b9150613326826132e5565b602082019050919050565b6000602082019050818103600083015261334a8161330e565b9050919050565b600060408201905061336660008301856129e8565b6133736020830184612924565b9392505050565b60008151905061338981612d51565b92915050565b6000602082840312156133a5576133a4612398565b5b60006133b38482850161337a565b91505092915050565b7f4f776e61626c653a206e6577206f776e657220697320746865207a65726f206160008201527f6464726573730000000000000000000000000000000000000000000000000000602082015250565b6000613418602683612e4a565b9150613423826133bc565b604082019050919050565b600060208201905081810360008301526134478161340b565b9050919050565b7f564553543a2043414e4e4f542056455354203020414d4f554e54000000000000600082015250565b6000613484601a83612e4a565b915061348f8261344e565b602082019050919050565b600060208201905081810360008301526134b381613477565b9050919050565b7f564553543a204e4f20524543495049454e545300000000000000000000000000600082015250565b60006134f0601383612e4a565b91506134fb826134ba565b602082019050919050565b6000602082019050818103600083015261351f816134e3565b9050919050565b7f564553543a2057524f4e47204143434f554e5453204152524159204c454e0000600082015250565b600061355c601e83612e4a565b915061356782613526565b602082019050919050565b6000602082019050818103600083015261358b8161354f565b9050919050565b7f564553543a2045544820414d4f554e5420544f4f204c4f570000000000000000600082015250565b60006135c8601883612e4a565b91506135d382613592565b602082019050919050565b600060208201905081810360008301526135f7816135bb565b9050919050565b7f4e487b7100000000000000000000000000000000000000000000000000000000600052603260045260246000fd5b60006136388261243f565b91506136438361243f565b9250827fffffffffffffffffffffffffffffffffffffffffffffffffffffffffffffffff0382111561367857613677612f33565b5b828201905092915050565b600061368e8261243f565b91507fffffffffffffffffffffffffffffffffffffffffffffffffffffffffffffffff8214156136c1576136c0612f33565b5b600182019050919050565b7f564553543a20414d4f554e545320444f4e542053554d20544f20544f54414c00600082015250565b6000613702601f83612e4a565b915061370d826136cc565b602082019050919050565b60006020820190508181036000830152613731816136f5565b9050919050565b600060608201905061374d60008301866129e8565b61375a60208301856129e8565b6137676040830184612924565b949350505050565b7f564553543a20544f4b454e205452414e53464552204641494c45440000000000600082015250565b60006137a5601b83612e4a565b91506137b08261376f565b602082019050919050565b600060208201905081810360008301526137d481613798565b9050919050565b7f564553543a205749544844524157204641494c45440000000000000000000000600082015250565b6000613811601583612e4a565b915061381c826137db565b602082019050919050565b6000602082019050818103600083015261384081613804565b9050919050565b82818337600083830152505050565b60006138628385612e4a565b935061386f838584613847565b6138788361247a565b840190509392505050565b6000606082019050818103600083015261389e818789613856565b905081810360208301526138b3818587613856565b90506138c26040830184612924565b9695505050505050565b6000815190506138db8161250b565b92915050565b6000602082840312156138f7576138f6612398565b5b6000613905848285016138cc565b9150509291505056fea2646970667358221220764ce8b9be42535cf845a3f73037e5d966a15dc7df201efe0aac3c580505031564736f6c634300080a0033",
  "linkReferences": {},
  "deployedLinkReferences": {}
}