{
  "_format": "hh-sol-artifact-1",
  "contractName": "VestCore",
  "sourceName": "contracts/VestCore.sol",
  "abi": [
    {
      "inputs": [],
      "stateMutability": "nonpayable",
      "type": "constructor"
    },
    {
      "anonymous": false,
      "inputs": [
        {
          "indexed": true,
          "internalType": "uint256",
          "name": "vBoxID",
          "type": "uint256"
        },
        {
          "indexed": true,
          "internalType": "address",
          "name": "account",
          "type": "address"
        },
        {
          "indexed": false,
          "internalType": "uint256",
          "name": "amount",
          "type": "uint256"
        },
        {
          "indexed": false,
          "internalType": "uint128",
          "name": "startTime",
          "type": "uint128"
        },
        {
          "indexed": false,
          "internalType": "uint128",
          "name": "endTime",
          "type": "uint128"
        }
      ],
      "name": "AccountAddedToVestingBox",
      "type": "event"
    },
    {
      "anonymous": false,
      "inputs": [
        {
          "indexed": true,
          "internalType": "uint256",
          "name": "vBoxID",
          "type": "uint256"
        },
        {
          "indexed": true,
          "internalType": "address",
          "name": "account",
          "type": "address"
        },
        {
          "indexed": false,
          "internalType": "uint256",
          "name": "amountVested",
          "type": "uint256"
        },
        {
          "indexed": false,
          "internalType": "uint256",
          "name": "amountForfeited",
          "type": "uint256"
        }
      ],
      "name": "AccountRemovedFromVestingBox",
      "type": "event"
    },
    {
      "anonymous": false,
      "inputs": [
        {
          "indexed": false,
          "internalType": "address",
          "name": "tokenAddress",
          "type": "address"
        }
      ],
      "name": "ERC20Created",
      "type": "event"
    },
    {
      "anonymous": false,
      "inputs": [
        {
          "indexed": false,
          "internalType": "uint256",
          "name": "oldFee",
          "type": "uint256"
        },
        {
          "indexed": false,
          "internalType": "uint256",
          "name": "newFee",
          "type": "uint256"
        }
      ],
      "name": "FeeChanged",
      "type": "event"
    },
    {
      "anonymous": false,
      "inputs": [
        {
          "indexed": false,
          "internalType": "address",
          "name": "token",
          "type": "address"
        },
        {
          "indexed": false,
          "internalType": "uint256",
          "name": "feesEarned",
          "type": "uint256"
        }
      ],
      "name": "FeesEarned",
      "type": "event"
    },
    {
      "anonymous": false,
      "inputs": [
        {
          "indexed": false,
          "internalType": "address",
          "name": "token",
          "type": "address"
        },
        {
          "indexed": false,
          "internalType": "uint256",
          "name": "feesWithdrawn",
          "type": "uint256"
        },
        {
          "indexed": false,
          "internalType": "address",
          "name": "_to",
          "type": "address"
        }
      ],
      "name": "FeesWithdrawn",
      "type": "event"
    },
    {
      "anonymous": false,
      "inputs": [
        {
          "indexed": true,
          "internalType": "address",
          "name": "previousOwner",
          "type": "address"
        },
        {
          "indexed": true,
          "internalType": "address",
          "name": "newOwner",
          "type": "address"
        }
      ],
      "name": "OwnershipTransferred",
      "type": "event"
    },
    {
      "anonymous": false,
      "inputs": [
        {
          "indexed": true,
          "internalType": "uint256",
          "name": "vBoxID",
          "type": "uint256"
        },
        {
          "indexed": true,
          "internalType": "address",
          "name": "token",
          "type": "address"
        },
        {
          "indexed": false,
          "internalType": "uint256",
          "name": "amountClaimed",
          "type": "uint256"
        },
        {
          "indexed": false,
          "internalType": "address",
          "name": "recipient",
          "type": "address"
        }
      ],
      "name": "VestedTokensClaimed",
      "type": "event"
    },
    {
      "anonymous": false,
      "inputs": [
        {
          "indexed": true,
          "internalType": "uint256",
          "name": "vBoxID",
          "type": "uint256"
        },
        {
          "indexed": false,
          "internalType": "address",
          "name": "account",
          "type": "address"
        },
        {
          "indexed": false,
          "internalType": "bool",
          "name": "isAdmin",
          "type": "bool"
        }
      ],
      "name": "VestingBoxAdminSet",
      "type": "event"
    },
    {
      "anonymous": false,
      "inputs": [
        {
          "indexed": true,
          "internalType": "uint256",
          "name": "vBoxID",
          "type": "uint256"
        },
        {
          "indexed": true,
          "internalType": "address",
          "name": "token",
          "type": "address"
        },
        {
          "indexed": false,
          "internalType": "address",
          "name": "creator",
          "type": "address"
        },
        {
          "indexed": false,
          "internalType": "uint256",
          "name": "totalBoxAmount",
          "type": "uint256"
        }
      ],
      "name": "VestingBoxCreated",
      "type": "event"
    },
    {
      "inputs": [],
      "name": "ETH",
      "outputs": [
        {
          "internalType": "address",
          "name": "",
          "type": "address"
        }
      ],
      "stateMutability": "view",
      "type": "function"
    },
    {
      "inputs": [],
      "name": "SCALE",
      "outputs": [
        {
          "internalType": "uint256",
          "name": "",
          "type": "uint256"
        }
      ],
      "stateMutability": "view",
      "type": "function"
    },
    {
      "inputs": [
        {
          "internalType": "uint256",
          "name": "_vBoxId",
          "type": "uint256"
        },
        {
          "internalType": "address",
          "name": "_recipient",
          "type": "address"
        },
        {
          "components": [
            {
              "internalType": "uint256",
              "name": "amount",
              "type": "uint256"
            },
            {
              "internalType": "uint256",
              "name": "withdrawn",
              "type": "uint256"
            },
            {
              "internalType": "uint128",
              "name": "startTime",
              "type": "uint128"
            },
            {
              "internalType": "uint128",
              "name": "endTime",
              "type": "uint128"
            }
          ],
          "internalType": "struct VestCore.VestingBoxAccount",
          "name": "_vBoxAccount",
          "type": "tuple"
        }
      ],
      "name": "addAccountToVestingBox",
      "outputs": [],
      "stateMutability": "nonpayable",
      "type": "function"
    },
    {
      "inputs": [
        {
          "internalType": "address",
          "name": "",
          "type": "address"
        }
      ],
      "name": "assetsHeldForVesting",
      "outputs": [
        {
          "internalType": "uint256",
          "name": "",
          "type": "uint256"
        }
      ],
      "stateMutability": "view",
      "type": "function"
    },
    {
      "inputs": [
        {
          "internalType": "uint256",
          "name": "_beforeFeeAmount",
          "type": "uint256"
        }
      ],
      "name": "calcAfterFeeAmount",
      "outputs": [
        {
          "internalType": "uint256",
          "name": "",
          "type": "uint256"
        }
      ],
      "stateMutability": "view",
      "type": "function"
    },
    {
      "inputs": [
        {
          "internalType": "uint256",
          "name": "_afterFeeAmount",
          "type": "uint256"
        }
      ],
      "name": "calcBeforeFeeAmount",
      "outputs": [
        {
          "internalType": "uint256",
          "name": "",
          "type": "uint256"
        }
      ],
      "stateMutability": "view",
      "type": "function"
    },
    {
      "inputs": [
        {
          "internalType": "uint256",
          "name": "_vBoxId",
          "type": "uint256"
        },
        {
          "internalType": "uint256",
          "name": "_amountClaimedAfterFee",
          "type": "uint256"
        }
      ],
      "name": "claimVestedTokens",
      "outputs": [
        {
          "internalType": "bool",
          "name": "",
          "type": "bool"
        }
      ],
      "stateMutability": "nonpayable",
      "type": "function"
    },
    {
      "inputs": [
        {
          "internalType": "uint256",
          "name": "_totalAmount",
          "type": "uint256"
        },
        {
          "components": [
            {
              "internalType": "address",
              "name": "token",
              "type": "address"
            },
            {
              "internalType": "address",
              "name": "creator",
              "type": "address"
            }
          ],
          "internalType": "struct VestCore.VestingBox",
          "name": "_vBox",
          "type": "tuple"
        },
        {
          "components": [
            {
              "internalType": "uint256",
              "name": "amount",
              "type": "uint256"
            },
            {
              "internalType": "uint256",
              "name": "withdrawn",
              "type": "uint256"
            },
            {
              "internalType": "uint128",
              "name": "startTime",
              "type": "uint128"
            },
            {
              "internalType": "uint128",
              "name": "endTime",
              "type": "uint128"
            }
          ],
          "internalType": "struct VestCore.VestingBoxAccount[]",
          "name": "_vBoxAccounts",
          "type": "tuple[]"
        },
        {
          "components": [
            {
              "internalType": "address[]",
              "name": "admins",
              "type": "address[]"
            },
            {
              "internalType": "address[]",
              "name": "recipients",
              "type": "address[]"
            }
          ],
          "internalType": "struct VestCore.VestingBoxAddresses",
          "name": "_vBoxAddresses",
          "type": "tuple"
        }
      ],
      "name": "createVestingBoxWithETH",
      "outputs": [
        {
          "internalType": "bool",
          "name": "",
          "type": "bool"
        }
      ],
      "stateMutability": "payable",
      "type": "function"
    },
    {
      "inputs": [
        {
          "internalType": "uint256",
          "name": "_totalAmount",
          "type": "uint256"
        },
        {
          "components": [
            {
              "internalType": "address",
              "name": "token",
              "type": "address"
            },
            {
              "internalType": "address",
              "name": "creator",
              "type": "address"
            }
          ],
          "internalType": "struct VestCore.VestingBox",
          "name": "_vBox",
          "type": "tuple"
        },
        {
          "components": [
            {
              "internalType": "uint256",
              "name": "amount",
              "type": "uint256"
            },
            {
              "internalType": "uint256",
              "name": "withdrawn",
              "type": "uint256"
            },
            {
              "internalType": "uint128",
              "name": "startTime",
              "type": "uint128"
            },
            {
              "internalType": "uint128",
              "name": "endTime",
              "type": "uint128"
            }
          ],
          "internalType": "struct VestCore.VestingBoxAccount[]",
          "name": "_vBoxAccounts",
          "type": "tuple[]"
        },
        {
          "components": [
            {
              "internalType": "address[]",
              "name": "admins",
              "type": "address[]"
            },
            {
              "internalType": "address[]",
              "name": "recipients",
              "type": "address[]"
            }
          ],
          "internalType": "struct VestCore.VestingBoxAddresses",
          "name": "_vBoxAddresses",
          "type": "tuple"
        }
      ],
      "name": "createVestingBoxWithExistingToken",
      "outputs": [
        {
          "internalType": "bool",
          "name": "",
          "type": "bool"
        }
      ],
      "stateMutability": "nonpayable",
      "type": "function"
    },
    {
      "inputs": [
        {
          "internalType": "uint256",
          "name": "_totalAmount",
          "type": "uint256"
        },
        {
          "components": [
            {
              "internalType": "address",
              "name": "token",
              "type": "address"
            },
            {
              "internalType": "address",
              "name": "creator",
              "type": "address"
            }
          ],
          "internalType": "struct VestCore.VestingBox",
          "name": "_vBox",
          "type": "tuple"
        },
        {
          "components": [
            {
              "internalType": "uint256",
              "name": "amount",
              "type": "uint256"
            },
            {
              "internalType": "uint256",
              "name": "withdrawn",
              "type": "uint256"
            },
            {
              "internalType": "uint128",
              "name": "startTime",
              "type": "uint128"
            },
            {
              "internalType": "uint128",
              "name": "endTime",
              "type": "uint128"
            }
          ],
          "internalType": "struct VestCore.VestingBoxAccount[]",
          "name": "_vBoxAccounts",
          "type": "tuple[]"
        },
        {
          "components": [
            {
              "internalType": "address[]",
              "name": "admins",
              "type": "address[]"
            },
            {
              "internalType": "address[]",
              "name": "recipients",
              "type": "address[]"
            }
          ],
          "internalType": "struct VestCore.VestingBoxAddresses",
          "name": "_vBoxAddresses",
          "type": "tuple"
        },
        {
          "internalType": "string",
          "name": "_tokenName",
          "type": "string"
        },
        {
          "internalType": "string",
          "name": "_tokenSymbol",
          "type": "string"
        },
        {
          "internalType": "uint256",
          "name": "_tokenTotalSupply",
          "type": "uint256"
        }
      ],
      "name": "createVestingBoxWithNewToken",
      "outputs": [
        {
          "internalType": "bool",
          "name": "",
          "type": "bool"
        }
      ],
      "stateMutability": "nonpayable",
      "type": "function"
    },
    {
      "inputs": [],
      "name": "fee",
      "outputs": [
        {
          "internalType": "uint256",
          "name": "",
          "type": "uint256"
        }
      ],
      "stateMutability": "view",
      "type": "function"
    },
    {
      "inputs": [
        {
          "internalType": "address",
          "name": "_token",
          "type": "address"
        }
      ],
      "name": "getProtocolFeesEarned",
      "outputs": [
        {
          "internalType": "uint256",
          "name": "",
          "type": "uint256"
        }
      ],
      "stateMutability": "view",
      "type": "function"
    },
    {
      "inputs": [
        {
          "internalType": "uint256",
          "name": "_vBoxId",
          "type": "uint256"
        },
        {
          "internalType": "address",
          "name": "_account",
          "type": "address"
        }
      ],
      "name": "getVestedAmount",
      "outputs": [
        {
          "internalType": "uint256",
          "name": "",
          "type": "uint256"
        }
      ],
      "stateMutability": "view",
      "type": "function"
    },
    {
      "inputs": [
        {
          "internalType": "uint256",
          "name": "_vBoxId",
          "type": "uint256"
        },
        {
          "internalType": "address",
          "name": "_account",
          "type": "address"
        }
      ],
      "name": "getWithdrawableAmount",
      "outputs": [
        {
          "internalType": "uint256",
          "name": "",
          "type": "uint256"
        }
      ],
      "stateMutability": "view",
      "type": "function"
    },
    {
      "inputs": [
        {
          "internalType": "uint256",
          "name": "",
          "type": "uint256"
        },
        {
          "internalType": "address",
          "name": "",
          "type": "address"
        }
      ],
      "name": "isAdminOfVBox",
      "outputs": [
        {
          "internalType": "bool",
          "name": "",
          "type": "bool"
        }
      ],
      "stateMutability": "view",
      "type": "function"
    },
    {
      "inputs": [],
      "name": "owner",
      "outputs": [
        {
          "internalType": "address",
          "name": "",
          "type": "address"
        }
      ],
      "stateMutability": "view",
      "type": "function"
    },
    {
      "inputs": [
        {
          "internalType": "uint256",
          "name": "_vBoxId",
          "type": "uint256"
        },
        {
          "internalType": "address",
          "name": "_account",
          "type": "address"
        }
      ],
      "name": "removeAccountFromVestingBox",
      "outputs": [],
      "stateMutability": "nonpayable",
      "type": "function"
    },
    {
      "inputs": [],
      "name": "renounceOwnership",
      "outputs": [],
      "stateMutability": "nonpayable",
      "type": "function"
    },
    {
      "inputs": [
        {
          "internalType": "uint256",
          "name": "_fee",
          "type": "uint256"
        }
      ],
      "name": "setFee",
      "outputs": [],
      "stateMutability": "nonpayable",
      "type": "function"
    },
    {
      "inputs": [
        {
          "internalType": "contract IVestERC20Factory",
          "name": "_newFactory",
          "type": "address"
        }
      ],
      "name": "setTokenFactory",
      "outputs": [],
      "stateMutability": "nonpayable",
      "type": "function"
    },
    {
      "inputs": [
        {
          "internalType": "uint256",
          "name": "_vBoxId",
          "type": "uint256"
        },
        {
          "internalType": "address",
          "name": "_account",
          "type": "address"
        },
        {
          "internalType": "bool",
          "name": "_isAdmin",
          "type": "bool"
        }
      ],
      "name": "setVestingBoxAdmin",
      "outputs": [],
      "stateMutability": "nonpayable",
      "type": "function"
    },
    {
      "inputs": [],
      "name": "tokenFactory",
      "outputs": [
        {
          "internalType": "contract IVestERC20Factory",
          "name": "",
          "type": "address"
        }
      ],
      "stateMutability": "view",
      "type": "function"
    },
    {
      "inputs": [
        {
          "internalType": "address",
          "name": "newOwner",
          "type": "address"
        }
      ],
      "name": "transferOwnership",
      "outputs": [],
      "stateMutability": "nonpayable",
      "type": "function"
    },
    {
      "inputs": [
        {
          "internalType": "uint256",
          "name": "",
          "type": "uint256"
        },
        {
          "internalType": "address",
          "name": "",
          "type": "address"
        }
      ],
      "name": "vBoxAccounts",
      "outputs": [
        {
          "internalType": "uint256",
          "name": "amount",
          "type": "uint256"
        },
        {
          "internalType": "uint256",
          "name": "withdrawn",
          "type": "uint256"
        },
        {
          "internalType": "uint128",
          "name": "startTime",
          "type": "uint128"
        },
        {
          "internalType": "uint128",
          "name": "endTime",
          "type": "uint128"
        }
      ],
      "stateMutability": "view",
      "type": "function"
    },
    {
      "inputs": [],
      "name": "vBoxCount",
      "outputs": [
        {
          "internalType": "uint256",
          "name": "",
          "type": "uint256"
        }
      ],
      "stateMutability": "view",
      "type": "function"
    },
    {
      "inputs": [
        {
          "internalType": "uint256",
          "name": "",
          "type": "uint256"
        }
      ],
      "name": "vBoxes",
      "outputs": [
        {
          "internalType": "address",
          "name": "token",
          "type": "address"
        },
        {
          "internalType": "address",
          "name": "creator",
          "type": "address"
        }
      ],
      "stateMutability": "view",
      "type": "function"
    },
    {
      "inputs": [
        {
          "internalType": "uint256",
          "name": "_amount",
          "type": "uint256"
        },
        {
          "internalType": "address",
          "name": "_to",
          "type": "address"
        }
      ],
      "name": "withdrawETHFees",
      "outputs": [],
      "stateMutability": "nonpayable",
      "type": "function"
    },
    {
      "inputs": [
        {
          "internalType": "address",
          "name": "_token",
          "type": "address"
        },
        {
          "internalType": "uint256",
          "name": "_amount",
          "type": "uint256"
        },
        {
          "internalType": "address",
          "name": "_to",
          "type": "address"
        }
      ],
      "name": "withdrawTokenFees",
      "outputs": [],
      "stateMutability": "nonpayable",
      "type": "function"
    }
  ],
  "bytecode": "0x608060405266038d7ea4c68000600155600060025573eeeeeeeeeeeeeeeeeeeeeeeeeeeeeeeeeeeeeeee600460006101000a81548173ffffffffffffffffffffffffffffffffffffffff021916908373ffffffffffffffffffffffffffffffffffffffff1602179055503480156200007657600080fd5b50620000976200008b6200009d60201b60201c565b620000a560201b60201c565b62000169565b600033905090565b60008060009054906101000a900473ffffffffffffffffffffffffffffffffffffffff169050816000806101000a81548173ffffffffffffffffffffffffffffffffffffffff021916908373ffffffffffffffffffffffffffffffffffffffff1602179055508173ffffffffffffffffffffffffffffffffffffffff168173ffffffffffffffffffffffffffffffffffffffff167f8be0079c531659141344cd1fd0a4f28419497f9722a3daafe3b4186f6b6457e060405160405180910390a35050565b6146e180620001796000396000f3fe6080604052600436106101b75760003560e01c80638cfe046e116100ec578063d3d072cc1161008a578063e9b3663e11610064578063e9b3663e14610685578063ec4d26cf146106b0578063eced5526146106d9578063f2fde38b14610704576101b7565b8063d3d072cc14610606578063ddca3f431461062f578063e77772fe1461065a576101b7565b8063b63922ed116100c6578063b63922ed14610511578063b92c1b6c1461054e578063c8c507421461058c578063ce21131a146105c9576101b7565b80638cfe046e146104945780638da5cb5b146104bd57806395be5498146104e8576101b7565b806356be3a601161015957806371b4e6e71161013357806371b4e6e7146103c357806379c626b6146103ec578063816d6280146104295780638322fff214610469576101b7565b806356be3a601461034657806369fe0e2d14610383578063715018a6146103ac576101b7565b80633c966fc1116101955780633c966fc1146102525780634a918a0c1461028f5780634edaf0e3146102cc5780635188723914610309576101b7565b80632f73a9f8146101bc578063359cd45e146101e55780633c89d06b14610222575b600080fd5b3480156101c857600080fd5b506101e360048036038101906101de919061304f565b61072d565b005b3480156101f157600080fd5b5061020c600480360381019061020791906130de565b6107ed565b604051610219919061312d565b60405180910390f35b61023c600480360381019061023791906133da565b6109f0565b6040516102499190613494565b60405180910390f35b34801561025e57600080fd5b50610279600480360381019061027491906130de565b610a64565b6040516102869190613494565b60405180910390f35b34801561029b57600080fd5b506102b660048036038101906102b191906134af565b610a93565b6040516102c3919061312d565b60405180910390f35b3480156102d857600080fd5b506102f360048036038101906102ee91906134af565b610c2b565b604051610300919061312d565b60405180910390f35b34801561031557600080fd5b50610330600480360381019061032b91906134dc565b610c43565b60405161033d9190613494565b60405180910390f35b34801561035257600080fd5b5061036d60048036038101906103689190613577565b610d32565b60405161037a9190613494565b60405180910390f35b34801561038f57600080fd5b506103aa60048036038101906103a59190613692565b610d95565b005b3480156103b857600080fd5b506103c1610ea6565b005b3480156103cf57600080fd5b506103ea60048036038101906103e591906130de565b610f2e565b005b3480156103f857600080fd5b50610413600480360381019061040e9190613692565b611167565b604051610420919061312d565b60405180910390f35b34801561043557600080fd5b50610450600480360381019061044b91906130de565b6111a4565b60405161046094939291906136ce565b60405180910390f35b34801561047557600080fd5b5061047e611219565b60405161048b9190613722565b60405180910390f35b3480156104a057600080fd5b506104bb60048036038101906104b6919061373d565b61123f565b005b3480156104c957600080fd5b506104d2611652565b6040516104df9190613722565b60405180910390f35b3480156104f457600080fd5b5061050f600480360381019061050a9190613790565b61167b565b005b34801561051d57600080fd5b5061053860048036038101906105339190613692565b6118bc565b604051610545919061312d565b60405180910390f35b34801561055a57600080fd5b5061057560048036038101906105709190613692565b6118f9565b6040516105839291906137e3565b60405180910390f35b34801561059857600080fd5b506105b360048036038101906105ae91906130de565b61195d565b6040516105c0919061312d565b60405180910390f35b3480156105d557600080fd5b506105f060048036038101906105eb91906133da565b611b32565b6040516105fd9190613494565b60405180910390f35b34801561061257600080fd5b5061062d60048036038101906106289190613838565b611b4c565b005b34801561063b57600080fd5b50610644611c94565b604051610651919061312d565b60405180910390f35b34801561066657600080fd5b5061066f611c9a565b60405161067c91906138ea565b60405180910390f35b34801561069157600080fd5b5061069a611cc0565b6040516106a7919061312d565b60405180910390f35b3480156106bc57600080fd5b506106d760048036038101906106d291906130de565b611cc6565b005b3480156106e557600080fd5b506106ee612183565b6040516106fb919061312d565b60405180910390f35b34801561071057600080fd5b5061072b600480360381019061072691906134af565b61218f565b005b610735612287565b73ffffffffffffffffffffffffffffffffffffffff16610753611652565b73ffffffffffffffffffffffffffffffffffffffff16146107a9576040517f08c379a00000000000000000000000000000000000000000000000000000000081526004016107a090613962565b60405180910390fd5b80600360006101000a81548173ffffffffffffffffffffffffffffffffffffffff021916908373ffffffffffffffffffffffffffffffffffffffff16021790555050565b6000806006600085815260200190815260200160002060008473ffffffffffffffffffffffffffffffffffffffff1673ffffffffffffffffffffffffffffffffffffffff16815260200190815260200160002060405180608001604052908160008201548152602001600182015481526020016002820160009054906101000a90046fffffffffffffffffffffffffffffffff166fffffffffffffffffffffffffffffffff166fffffffffffffffffffffffffffffffff1681526020016002820160109054906101000a90046fffffffffffffffffffffffffffffffff166fffffffffffffffffffffffffffffffff166fffffffffffffffffffffffffffffffff1681525050905080606001516fffffffffffffffffffffffffffffffff1642106109365761092e8160200151826000015161092991906139b1565b6118bc565b9150506109ea565b600081604001516fffffffffffffffffffffffffffffffff164261095a91906139b1565b905060008260400151836060015161097291906139e5565b6fffffffffffffffffffffffffffffffff1690506000670de0b6b3a76400008261099c9190613a19565b670de0b6b3a76400008486600001516109b59190613a19565b6109bf9190613a19565b6109c99190613aa2565b90506109e38460200151826109de91906139b1565b6118bc565b9450505050505b92915050565b6000600460009054906101000a900473ffffffffffffffffffffffffffffffffffffffff16846000019073ffffffffffffffffffffffffffffffffffffffff16908173ffffffffffffffffffffffffffffffffffffffff1681525050610a5a85858585600061228f565b9050949350505050565b60076020528160005260406000206020528060005260406000206000915091509054906101000a900460ff1681565b6000600460009054906101000a900473ffffffffffffffffffffffffffffffffffffffff1673ffffffffffffffffffffffffffffffffffffffff168273ffffffffffffffffffffffffffffffffffffffff161415610b5f5760086000600460009054906101000a900473ffffffffffffffffffffffffffffffffffffffff1673ffffffffffffffffffffffffffffffffffffffff1673ffffffffffffffffffffffffffffffffffffffff1681526020019081526020016000205447610b5891906139b1565b9050610c26565b600860008373ffffffffffffffffffffffffffffffffffffffff1673ffffffffffffffffffffffffffffffffffffffff168152602001908152602001600020548273ffffffffffffffffffffffffffffffffffffffff166370a08231306040518263ffffffff1660e01b8152600401610bd89190613722565b602060405180830381865afa158015610bf5573d6000803e3d6000fd5b505050506040513d601f19601f82011682018060405250810190610c199190613ae8565b610c2391906139b1565b90505b919050565b60086020528060005260406000206000915090505481565b600080610c5084336107ed565b905082811015610c95576040517f08c379a0000000000000000000000000000000000000000000000000000000008152600401610c8c90613b61565b60405180910390fd5b610c9f8484612989565b506005600085815260200190815260200160002060000160009054906101000a900473ffffffffffffffffffffffffffffffffffffffff1673ffffffffffffffffffffffffffffffffffffffff16847f8eb0865c9da68f6f207dae091828f315df4736814a358375142237af0e0d374b8533604051610d1f929190613b81565b60405180910390a3600191505092915050565b6000610d418686868686612c3c565b896000019073ffffffffffffffffffffffffffffffffffffffff16908173ffffffffffffffffffffffffffffffffffffffff1681525050610d868a8a8a8a600161228f565b90509998505050505050505050565b610d9d612287565b73ffffffffffffffffffffffffffffffffffffffff16610dbb611652565b73ffffffffffffffffffffffffffffffffffffffff1614610e11576040517f08c379a0000000000000000000000000000000000000000000000000000000008152600401610e0890613962565b60405180910390fd5b60006001549050670de0b6b3a76400008210610e62576040517f08c379a0000000000000000000000000000000000000000000000000000000008152600401610e5990613bf6565b60405180910390fd5b816001819055507f5fc463da23c1b063e66f9e352006a7fbe8db7223c455dc429e881a2dfe2f94f18183604051610e9a929190613c16565b60405180910390a15050565b610eae612287565b73ffffffffffffffffffffffffffffffffffffffff16610ecc611652565b73ffffffffffffffffffffffffffffffffffffffff1614610f22576040517f08c379a0000000000000000000000000000000000000000000000000000000008152600401610f1990613962565b60405180910390fd5b610f2c6000612d2b565b565b610f36612287565b73ffffffffffffffffffffffffffffffffffffffff16610f54611652565b73ffffffffffffffffffffffffffffffffffffffff1614610faa576040517f08c379a0000000000000000000000000000000000000000000000000000000008152600401610fa190613962565b60405180910390fd5b8160086000600460009054906101000a900473ffffffffffffffffffffffffffffffffffffffff1673ffffffffffffffffffffffffffffffffffffffff1673ffffffffffffffffffffffffffffffffffffffff168152602001908152602001600020544761101891906139b1565b1015611059576040517f08c379a000000000000000000000000000000000000000000000000000000000815260040161105090613c8b565b60405180910390fd5b60008173ffffffffffffffffffffffffffffffffffffffff168360405161107f90613cdc565b60006040518083038185875af1925050503d80600081146110bc576040519150601f19603f3d011682016040523d82523d6000602084013e6110c1565b606091505b5050905080611105576040517f08c379a00000000000000000000000000000000000000000000000000000000081526004016110fc90613d3d565b60405180910390fd5b7f87044da2612407bc001bb0985725dcc651a0dc71eaabfd1d7e8617ca85a8c19c600460009054906101000a900473ffffffffffffffffffffffffffffffffffffffff16848460405161115a93929190613d5d565b60405180910390a1505050565b6000600154670de0b6b3a764000061117f91906139b1565b670de0b6b3a7640000836111939190613a19565b61119d9190613aa2565b9050919050565b6006602052816000526040600020602052806000526040600020600091509150508060000154908060010154908060020160009054906101000a90046fffffffffffffffffffffffffffffffff16908060020160109054906101000a90046fffffffffffffffffffffffffffffffff16905084565b600460009054906101000a900473ffffffffffffffffffffffffffffffffffffffff1681565b82336007600083815260200190815260200160002060008273ffffffffffffffffffffffffffffffffffffffff1673ffffffffffffffffffffffffffffffffffffffff16815260200190815260200160002060009054906101000a900460ff166112de576040517f08c379a00000000000000000000000000000000000000000000000000000000081526004016112d590613de0565b60405180910390fd5b60006006600087815260200190815260200160002060008673ffffffffffffffffffffffffffffffffffffffff1673ffffffffffffffffffffffffffffffffffffffff1681526020019081526020016000206000015414611374576040517f08c379a000000000000000000000000000000000000000000000000000000000815260040161136b90613e4c565b60405180910390fd5b61137d83612def565b6005600086815260200190815260200160002060000160009054906101000a900473ffffffffffffffffffffffffffffffffffffffff1673ffffffffffffffffffffffffffffffffffffffff166323b872dd333086600001516040518463ffffffff1660e01b81526004016113f493929190613e6c565b6020604051808303816000875af1158015611413573d6000803e3d6000fd5b505050506040513d601f19601f820116820180604052508101906114379190613eb8565b611476576040517f08c379a000000000000000000000000000000000000000000000000000000000815260040161146d90613f31565b60405180910390fd5b826006600087815260200190815260200160002060008673ffffffffffffffffffffffffffffffffffffffff1673ffffffffffffffffffffffffffffffffffffffff168152602001908152602001600020600082015181600001556020820151816001015560408201518160020160006101000a8154816fffffffffffffffffffffffffffffffff02191690836fffffffffffffffffffffffffffffffff16021790555060608201518160020160106101000a8154816fffffffffffffffffffffffffffffffff02191690836fffffffffffffffffffffffffffffffff1602179055509050508260000151600860006005600089815260200190815260200160002060000160009054906101000a900473ffffffffffffffffffffffffffffffffffffffff1673ffffffffffffffffffffffffffffffffffffffff1673ffffffffffffffffffffffffffffffffffffffff16815260200190815260200160002060008282546115e59190613f51565b925050819055508373ffffffffffffffffffffffffffffffffffffffff16857f236863ed9b5b67391d1853c2b5e55b684b717ef915bbb6d230a449be56125e0e85600001518660400151876060015160405161164393929190613fa7565b60405180910390a35050505050565b60008060009054906101000a900473ffffffffffffffffffffffffffffffffffffffff16905090565b611683612287565b73ffffffffffffffffffffffffffffffffffffffff166116a1611652565b73ffffffffffffffffffffffffffffffffffffffff16146116f7576040517f08c379a00000000000000000000000000000000000000000000000000000000081526004016116ee90613962565b60405180910390fd5b81600860008573ffffffffffffffffffffffffffffffffffffffff1673ffffffffffffffffffffffffffffffffffffffff168152602001908152602001600020548473ffffffffffffffffffffffffffffffffffffffff166370a08231306040518263ffffffff1660e01b81526004016117719190613722565b602060405180830381865afa15801561178e573d6000803e3d6000fd5b505050506040513d601f19601f820116820180604052508101906117b29190613ae8565b6117bc91906139b1565b10156117fd576040517f08c379a00000000000000000000000000000000000000000000000000000000081526004016117f490613c8b565b60405180910390fd5b8273ffffffffffffffffffffffffffffffffffffffff1663a9059cbb82846040518363ffffffff1660e01b8152600401611838929190613fde565b6020604051808303816000875af1158015611857573d6000803e3d6000fd5b505050506040513d601f19601f8201168201806040525081019061187b9190613eb8565b507f87044da2612407bc001bb0985725dcc651a0dc71eaabfd1d7e8617ca85a8c19c8383836040516118af93929190613d5d565b60405180910390a1505050565b6000670de0b6b3a7640000600154670de0b6b3a76400006118dd91906139b1565b836118e89190613a19565b6118f29190613aa2565b9050919050565b60056020528060005260406000206000915090508060000160009054906101000a900473ffffffffffffffffffffffffffffffffffffffff16908060010160009054906101000a900473ffffffffffffffffffffffffffffffffffffffff16905082565b6000806006600085815260200190815260200160002060008473ffffffffffffffffffffffffffffffffffffffff1673ffffffffffffffffffffffffffffffffffffffff16815260200190815260200160002060405180608001604052908160008201548152602001600182015481526020016002820160009054906101000a90046fffffffffffffffffffffffffffffffff166fffffffffffffffffffffffffffffffff166fffffffffffffffffffffffffffffffff1681526020016002820160109054906101000a90046fffffffffffffffffffffffffffffffff166fffffffffffffffffffffffffffffffff166fffffffffffffffffffffffffffffffff1681525050905080606001516fffffffffffffffffffffffffffffffff164210611a8f578060000151915050611b2c565b600081604001516fffffffffffffffffffffffffffffffff1642611ab391906139b1565b9050600082604001518360600151611acb91906139e5565b6fffffffffffffffffffffffffffffffff1690506000670de0b6b3a764000082611af59190613a19565b670de0b6b3a7640000848660000151611b0e9190613a19565b611b189190613a19565b611b229190613aa2565b9050809450505050505b92915050565b6000611b4285858585600061228f565b9050949350505050565b82336007600083815260200190815260200160002060008273ffffffffffffffffffffffffffffffffffffffff1673ffffffffffffffffffffffffffffffffffffffff16815260200190815260200160002060009054906101000a900460ff16611beb576040517f08c379a0000000000000000000000000000000000000000000000000000000008152600401611be290613de0565b60405180910390fd5b826007600087815260200190815260200160002060008673ffffffffffffffffffffffffffffffffffffffff1673ffffffffffffffffffffffffffffffffffffffff16815260200190815260200160002060006101000a81548160ff021916908315150217905550847f3f82e6ad49df50c375ed08891b7f6c57d8827a148033a02f32ca1ae3aa265a428585604051611c85929190614007565b60405180910390a25050505050565b60015481565b600360009054906101000a900473ffffffffffffffffffffffffffffffffffffffff1681565b60025481565b81336007600083815260200190815260200160002060008273ffffffffffffffffffffffffffffffffffffffff1673ffffffffffffffffffffffffffffffffffffffff16815260200190815260200160002060009054906101000a900460ff16611d65576040517f08c379a0000000000000000000000000000000000000000000000000000000008152600401611d5c90613de0565b60405180910390fd5b60006006600086815260200190815260200160002060008573ffffffffffffffffffffffffffffffffffffffff1673ffffffffffffffffffffffffffffffffffffffff16815260200190815260200160002060405180608001604052908160008201548152602001600182015481526020016002820160009054906101000a90046fffffffffffffffffffffffffffffffff166fffffffffffffffffffffffffffffffff166fffffffffffffffffffffffffffffffff1681526020016002820160109054906101000a90046fffffffffffffffffffffffffffffffff166fffffffffffffffffffffffffffffffff166fffffffffffffffffffffffffffffffff168152505090506000600560008781526020019081526020016000206040518060400160405290816000820160009054906101000a900473ffffffffffffffffffffffffffffffffffffffff1673ffffffffffffffffffffffffffffffffffffffff1673ffffffffffffffffffffffffffffffffffffffff1681526020016001820160009054906101000a900473ffffffffffffffffffffffffffffffffffffffff1673ffffffffffffffffffffffffffffffffffffffff1673ffffffffffffffffffffffffffffffffffffffff168152505090504282606001516fffffffffffffffffffffffffffffffff1611611f92576040517f08c379a0000000000000000000000000000000000000000000000000000000008152600401611f899061407c565b60405180910390fd5b600082600001519050611fa5878761195d565b8360000181815250504283606001906fffffffffffffffffffffffffffffffff1690816fffffffffffffffffffffffffffffffff16815250506000836000015182611ff091906139b1565b90506000612002846000015183612eff565b90508060086000866000015173ffffffffffffffffffffffffffffffffffffffff1673ffffffffffffffffffffffffffffffffffffffff168152602001908152602001600020600082825461205791906139b1565b92505081905550836000015173ffffffffffffffffffffffffffffffffffffffff1663a9059cbb8560200151836040518363ffffffff1660e01b81526004016120a1929190613fde565b6020604051808303816000875af11580156120c0573d6000803e3d6000fd5b505050506040513d601f19601f820116820180604052508101906120e49190613eb8565b612123576040517f08c379a000000000000000000000000000000000000000000000000000000000815260040161211a906140e8565b60405180910390fd5b8773ffffffffffffffffffffffffffffffffffffffff16897fad772910df1874c8842aff0676e9915104973cf4a210c66a8149079c1851e3cd876000015185604051612170929190613c16565b60405180910390a3505050505050505050565b670de0b6b3a764000081565b612197612287565b73ffffffffffffffffffffffffffffffffffffffff166121b5611652565b73ffffffffffffffffffffffffffffffffffffffff161461220b576040517f08c379a000000000000000000000000000000000000000000000000000000000815260040161220290613962565b60405180910390fd5b600073ffffffffffffffffffffffffffffffffffffffff168173ffffffffffffffffffffffffffffffffffffffff16141561227b576040517f08c379a00000000000000000000000000000000000000000000000000000000081526004016122729061417a565b60405180910390fd5b61228481612d2b565b50565b600033905090565b60008086116122d3576040517f08c379a00000000000000000000000000000000000000000000000000000000081526004016122ca906141e6565b60405180910390fd5b60008380602001906122e59190614215565b905011612327576040517f08c379a000000000000000000000000000000000000000000000000000000000815260040161231e906142c4565b60405180910390fd5b83518380602001906123399190614215565b90501461237b576040517f08c379a000000000000000000000000000000000000000000000000000000000815260040161237290614330565b60405180910390fd5b600460009054906101000a900473ffffffffffffffffffffffffffffffffffffffff1673ffffffffffffffffffffffffffffffffffffffff16856000015173ffffffffffffffffffffffffffffffffffffffff1614156124195785341015612418576040517f08c379a000000000000000000000000000000000000000000000000000000000815260040161240f9061439c565b60405180910390fd5b5b6000805b855181101561246557858181518110612439576124386143bc565b5b602002602001015160000151826124509190613f51565b9150808061245d906143eb565b91505061241d565b508681146124a8576040517f08c379a000000000000000000000000000000000000000000000000000000000815260040161249f90614480565b60405180910390fd5b600460009054906101000a900473ffffffffffffffffffffffffffffffffffffffff1673ffffffffffffffffffffffffffffffffffffffff16866000015173ffffffffffffffffffffffffffffffffffffffff1614158015612508575082155b156125d157856000015173ffffffffffffffffffffffffffffffffffffffff166323b872dd33308a6040518463ffffffff1660e01b815260040161254e93929190613e6c565b6020604051808303816000875af115801561256d573d6000803e3d6000fd5b505050506040513d601f19601f820116820180604052508101906125919190613eb8565b6125d0576040517f08c379a00000000000000000000000000000000000000000000000000000000081526004016125c790613f31565b60405180910390fd5b5b600260008154809291906125e4906143eb565b91905055508560056000600254815260200190815260200160002060008201518160000160006101000a81548173ffffffffffffffffffffffffffffffffffffffff021916908373ffffffffffffffffffffffffffffffffffffffff16021790555060208201518160010160006101000a81548173ffffffffffffffffffffffffffffffffffffffff021916908373ffffffffffffffffffffffffffffffffffffffff16021790555090505060005b8551811015612809576126bf8682815181106126b2576126b16143bc565b5b6020026020010151612def565b8581815181106126d2576126d16143bc565b5b602002602001015160066000600254815260200190815260200160002060008780602001906127019190614215565b85818110612712576127116143bc565b5b905060200201602081019061272791906134af565b73ffffffffffffffffffffffffffffffffffffffff1673ffffffffffffffffffffffffffffffffffffffff168152602001908152602001600020600082015181600001556020820151816001015560408201518160020160006101000a8154816fffffffffffffffffffffffffffffffff02191690836fffffffffffffffffffffffffffffffff16021790555060608201518160020160106101000a8154816fffffffffffffffffffffffffffffffff02191690836fffffffffffffffffffffffffffffffff1602179055509050508080612801906143eb565b915050612693565b5060005b85518110156128c9576001600760006002548152602001908152602001600020600087806000019061283f9190614215565b858181106128505761284f6143bc565b5b905060200201602081019061286591906134af565b73ffffffffffffffffffffffffffffffffffffffff1673ffffffffffffffffffffffffffffffffffffffff16815260200190815260200160002060006101000a81548160ff02191690831515021790555080806128c1906143eb565b91505061280d565b508660086000886000015173ffffffffffffffffffffffffffffffffffffffff1673ffffffffffffffffffffffffffffffffffffffff168152602001908152602001600020600082825461291d9190613f51565b92505081905550856000015173ffffffffffffffffffffffffffffffffffffffff166002547f09f269811cffd09fb630ee319c1b845625b319c2446953fc766a761a64c47bc4338a604051612973929190613fde565b60405180910390a3600191505095945050505050565b6000806000905060006005600086815260200190815260200160002060000160009054906101000a900473ffffffffffffffffffffffffffffffffffffffff16905060006129d685611167565b905060006129e48383612eff565b905080600860008573ffffffffffffffffffffffffffffffffffffffff1673ffffffffffffffffffffffffffffffffffffffff1681526020019081526020016000206000828254612a3591906139b1565b92505081905550816006600089815260200190815260200160002060003373ffffffffffffffffffffffffffffffffffffffff1673ffffffffffffffffffffffffffffffffffffffff1681526020019081526020016000206001016000828254612a9f9190613f51565b92505081905550600460009054906101000a900473ffffffffffffffffffffffffffffffffffffffff1673ffffffffffffffffffffffffffffffffffffffff168373ffffffffffffffffffffffffffffffffffffffff161415612b6d573373ffffffffffffffffffffffffffffffffffffffff1686604051612b2090613cdc565b60006040518083038185875af1925050503d8060008114612b5d576040519150601f19603f3d011682016040523d82523d6000602084013e612b62565b606091505b505080945050612bee565b8273ffffffffffffffffffffffffffffffffffffffff1663a9059cbb33886040518363ffffffff1660e01b8152600401612ba8929190613fde565b6020604051808303816000875af1158015612bc7573d6000803e3d6000fd5b505050506040513d601f19601f82011682018060405250810190612beb9190613eb8565b93505b83612c2e576040517f08c379a0000000000000000000000000000000000000000000000000000000008152600401612c25906144ec565b60405180910390fd5b600194505050505092915050565b600080600360009054906101000a900473ffffffffffffffffffffffffffffffffffffffff1673ffffffffffffffffffffffffffffffffffffffff166372e4352d88888888886040518663ffffffff1660e01b8152600401612ca2959493929190614548565b6020604051808303816000875af1158015612cc1573d6000803e3d6000fd5b505050506040513d601f19601f82011682018060405250810190612ce591906145a6565b90507f41039c8b82bb5a365f56b4f9d87cee99e069b450bfdc3d87696fcd87783f24c181604051612d169190613722565b60405180910390a18091505095945050505050565b60008060009054906101000a900473ffffffffffffffffffffffffffffffffffffffff169050816000806101000a81548173ffffffffffffffffffffffffffffffffffffffff021916908373ffffffffffffffffffffffffffffffffffffffff1602179055508173ffffffffffffffffffffffffffffffffffffffff168173ffffffffffffffffffffffffffffffffffffffff167f8be0079c531659141344cd1fd0a4f28419497f9722a3daafe3b4186f6b6457e060405160405180910390a35050565b80606001516fffffffffffffffffffffffffffffffff1681604001516fffffffffffffffffffffffffffffffff1610612e5d576040517f08c379a0000000000000000000000000000000000000000000000000000000008152600401612e549061461f565b60405180910390fd5b4281606001516fffffffffffffffffffffffffffffffff1611612eb5576040517f08c379a0000000000000000000000000000000000000000000000000000000008152600401612eac9061468b565b60405180910390fd5b6000816000015111612efc576040517f08c379a0000000000000000000000000000000000000000000000000000000008152600401612ef3906141e6565b60405180910390fd5b50565b6000806001541415612f1357819050612fc5565b6000612f1e836118bc565b905060008184612f2e91906139b1565b905080600860008773ffffffffffffffffffffffffffffffffffffffff1673ffffffffffffffffffffffffffffffffffffffff1681526020019081526020016000206000828254612f7f91906139b1565b925050819055507fb45e9da67b01ce03fb67208335da576c75af6443e886268b76b79afb01349a558582604051612fb7929190613fde565b60405180910390a181925050505b92915050565b6000604051905090565b600080fd5b600080fd5b600073ffffffffffffffffffffffffffffffffffffffff82169050919050565b600061300a82612fdf565b9050919050565b600061301c82612fff565b9050919050565b61302c81613011565b811461303757600080fd5b50565b60008135905061304981613023565b92915050565b60006020828403121561306557613064612fd5565b5b60006130738482850161303a565b91505092915050565b6000819050919050565b61308f8161307c565b811461309a57600080fd5b50565b6000813590506130ac81613086565b92915050565b6130bb81612fff565b81146130c657600080fd5b50565b6000813590506130d8816130b2565b92915050565b600080604083850312156130f5576130f4612fd5565b5b60006131038582860161309d565b9250506020613114858286016130c9565b9150509250929050565b6131278161307c565b82525050565b6000602082019050613142600083018461311e565b92915050565b600080fd5b6000601f19601f8301169050919050565b7f4e487b7100000000000000000000000000000000000000000000000000000000600052604160045260246000fd5b6131968261314d565b810181811067ffffffffffffffff821117156131b5576131b461315e565b5b80604052505050565b60006131c8612fcb565b90506131d4828261318d565b919050565b6000604082840312156131ef576131ee613148565b5b6131f960406131be565b90506000613209848285016130c9565b600083015250602061321d848285016130c9565b60208301525092915050565b600080fd5b600067ffffffffffffffff8211156132495761324861315e565b5b602082029050602081019050919050565b600080fd5b60006fffffffffffffffffffffffffffffffff82169050919050565b6132848161325f565b811461328f57600080fd5b50565b6000813590506132a18161327b565b92915050565b6000608082840312156132bd576132bc613148565b5b6132c760806131be565b905060006132d78482850161309d565b60008301525060206132eb8482850161309d565b60208301525060406132ff84828501613292565b604083015250606061331384828501613292565b60608301525092915050565b600061333261332d8461322e565b6131be565b905080838252602082019050608084028301858111156133555761335461325a565b5b835b8181101561337e578061336a88826132a7565b845260208401935050608081019050613357565b5050509392505050565b600082601f83011261339d5761339c613229565b5b81356133ad84826020860161331f565b91505092915050565b600080fd5b6000604082840312156133d1576133d06133b6565b5b81905092915050565b60008060008060a085870312156133f4576133f3612fd5565b5b60006134028782880161309d565b9450506020613413878288016131d9565b935050606085013567ffffffffffffffff81111561343457613433612fda565b5b61344087828801613388565b925050608085013567ffffffffffffffff81111561346157613460612fda565b5b61346d878288016133bb565b91505092959194509250565b60008115159050919050565b61348e81613479565b82525050565b60006020820190506134a96000830184613485565b92915050565b6000602082840312156134c5576134c4612fd5565b5b60006134d3848285016130c9565b91505092915050565b600080604083850312156134f3576134f2612fd5565b5b60006135018582860161309d565b92505060206135128582860161309d565b9150509250929050565b600080fd5b60008083601f84011261353757613536613229565b5b8235905067ffffffffffffffff8111156135545761355361351c565b5b6020830191508360018202830111156135705761356f61325a565b5b9250929050565b60008060008060008060008060006101008a8c03121561359a57613599612fd5565b5b60006135a88c828d0161309d565b99505060206135b98c828d016131d9565b98505060608a013567ffffffffffffffff8111156135da576135d9612fda565b5b6135e68c828d01613388565b97505060808a013567ffffffffffffffff81111561360757613606612fda565b5b6136138c828d016133bb565b96505060a08a013567ffffffffffffffff81111561363457613633612fda565b5b6136408c828d01613521565b955095505060c08a013567ffffffffffffffff81111561366357613662612fda565b5b61366f8c828d01613521565b935093505060e06136828c828d0161309d565b9150509295985092959850929598565b6000602082840312156136a8576136a7612fd5565b5b60006136b68482850161309d565b91505092915050565b6136c88161325f565b82525050565b60006080820190506136e3600083018761311e565b6136f0602083018661311e565b6136fd60408301856136bf565b61370a60608301846136bf565b95945050505050565b61371c81612fff565b82525050565b60006020820190506137376000830184613713565b92915050565b600080600060c0848603121561375657613755612fd5565b5b60006137648682870161309d565b9350506020613775868287016130c9565b9250506040613786868287016132a7565b9150509250925092565b6000806000606084860312156137a9576137a8612fd5565b5b60006137b7868287016130c9565b93505060206137c88682870161309d565b92505060406137d9868287016130c9565b9150509250925092565b60006040820190506137f86000830185613713565b6138056020830184613713565b9392505050565b61381581613479565b811461382057600080fd5b50565b6000813590506138328161380c565b92915050565b60008060006060848603121561385157613850612fd5565b5b600061385f8682870161309d565b9350506020613870868287016130c9565b925050604061388186828701613823565b9150509250925092565b6000819050919050565b60006138b06138ab6138a684612fdf565b61388b565b612fdf565b9050919050565b60006138c282613895565b9050919050565b60006138d4826138b7565b9050919050565b6138e4816138c9565b82525050565b60006020820190506138ff60008301846138db565b92915050565b600082825260208201905092915050565b7f4f776e61626c653a2063616c6c6572206973206e6f7420746865206f776e6572600082015250565b600061394c602083613905565b915061395782613916565b602082019050919050565b6000602082019050818103600083015261397b8161393f565b9050919050565b7f4e487b7100000000000000000000000000000000000000000000000000000000600052601160045260246000fd5b60006139bc8261307c565b91506139c78361307c565b9250828210156139da576139d9613982565b5b828203905092915050565b60006139f08261325f565b91506139fb8361325f565b925082821015613a0e57613a0d613982565b5b828203905092915050565b6000613a248261307c565b9150613a2f8361307c565b9250817fffffffffffffffffffffffffffffffffffffffffffffffffffffffffffffffff0483118215151615613a6857613a67613982565b5b828202905092915050565b7f4e487b7100000000000000000000000000000000000000000000000000000000600052601260045260246000fd5b6000613aad8261307c565b9150613ab88361307c565b925082613ac857613ac7613a73565b5b828204905092915050565b600081519050613ae281613086565b92915050565b600060208284031215613afe57613afd612fd5565b5b6000613b0c84828501613ad3565b91505092915050565b7f564553543a204e4f5420454e4f55474820564553544544000000000000000000600082015250565b6000613b4b601783613905565b9150613b5682613b15565b602082019050919050565b60006020820190508181036000830152613b7a81613b3e565b9050919050565b6000604082019050613b96600083018561311e565b613ba36020830184613713565b9392505050565b7f564553543a20464545204d555354204245203c20313030250000000000000000600082015250565b6000613be0601883613905565b9150613beb82613baa565b602082019050919050565b60006020820190508181036000830152613c0f81613bd3565b9050919050565b6000604082019050613c2b600083018561311e565b613c38602083018461311e565b9392505050565b7f564553543a20414d4f554e5420544f4f20484947480000000000000000000000600082015250565b6000613c75601583613905565b9150613c8082613c3f565b602082019050919050565b60006020820190508181036000830152613ca481613c68565b9050919050565b600081905092915050565b50565b6000613cc6600083613cab565b9150613cd182613cb6565b600082019050919050565b6000613ce782613cb9565b9150819050919050565b7f564553543a20455448205452414e53464552204641494c454400000000000000600082015250565b6000613d27601983613905565b9150613d3282613cf1565b602082019050919050565b60006020820190508181036000830152613d5681613d1a565b9050919050565b6000606082019050613d726000830186613713565b613d7f602083018561311e565b613d8c6040830184613713565b949350505050565b7f564553543a204e4f542056424f582041444d494e000000000000000000000000600082015250565b6000613dca601483613905565b9150613dd582613d94565b602082019050919050565b60006020820190508181036000830152613df981613dbd565b9050919050565b7f564553543a204143434f554e5420414c524541445920494e20424f5800000000600082015250565b6000613e36601c83613905565b9150613e4182613e00565b602082019050919050565b60006020820190508181036000830152613e6581613e29565b9050919050565b6000606082019050613e816000830186613713565b613e8e6020830185613713565b613e9b604083018461311e565b949350505050565b600081519050613eb28161380c565b92915050565b600060208284031215613ece57613ecd612fd5565b5b6000613edc84828501613ea3565b91505092915050565b7f564553543a20544f4b454e205452414e53464552204641494c45440000000000600082015250565b6000613f1b601b83613905565b9150613f2682613ee5565b602082019050919050565b60006020820190508181036000830152613f4a81613f0e565b9050919050565b6000613f5c8261307c565b9150613f678361307c565b9250827fffffffffffffffffffffffffffffffffffffffffffffffffffffffffffffffff03821115613f9c57613f9b613982565b5b828201905092915050565b6000606082019050613fbc600083018661311e565b613fc960208301856136bf565b613fd660408301846136bf565b949350505050565b6000604082019050613ff36000830185613713565b614000602083018461311e565b9392505050565b600060408201905061401c6000830185613713565b6140296020830184613485565b9392505050565b7f564553543a20414c52454144592046554c4c5920564553544544000000000000600082015250565b6000614066601a83613905565b915061407182614030565b602082019050919050565b6000602082019050818103600083015261409581614059565b9050919050565b7f564553543a20464f524645495420544f4b454e53204641494c45440000000000600082015250565b60006140d2601b83613905565b91506140dd8261409c565b602082019050919050565b60006020820190508181036000830152614101816140c5565b9050919050565b7f4f776e61626c653a206e6577206f776e657220697320746865207a65726f206160008201527f6464726573730000000000000000000000000000000000000000000000000000602082015250565b6000614164602683613905565b915061416f82614108565b604082019050919050565b6000602082019050818103600083015261419381614157565b9050919050565b7f564553543a2043414e4e4f542056455354203020414d4f554e54000000000000600082015250565b60006141d0601a83613905565b91506141db8261419a565b602082019050919050565b600060208201905081810360008301526141ff816141c3565b9050919050565b600080fd5b600080fd5b600080fd5b6000808335600160200384360303811261423257614231614206565b5b80840192508235915067ffffffffffffffff8211156142545761425361420b565b5b6020830192506020820236038313156142705761426f614210565b5b509250929050565b7f564553543a204e4f20524543495049454e545300000000000000000000000000600082015250565b60006142ae601383613905565b91506142b982614278565b602082019050919050565b600060208201905081810360008301526142dd816142a1565b9050919050565b7f564553543a2057524f4e47204143434f554e5453204152524159204c454e0000600082015250565b600061431a601e83613905565b9150614325826142e4565b602082019050919050565b600060208201905081810360008301526143498161430d565b9050919050565b7f564553543a2045544820414d4f554e5420544f4f204c4f570000000000000000600082015250565b6000614386601883613905565b915061439182614350565b602082019050919050565b600060208201905081810360008301526143b581614379565b9050919050565b7f4e487b7100000000000000000000000000000000000000000000000000000000600052603260045260246000fd5b60006143f68261307c565b91507fffffffffffffffffffffffffffffffffffffffffffffffffffffffffffffffff82141561442957614428613982565b5b600182019050919050565b7f564553543a20414d4f554e545320444f4e542053554d20544f20544f54414c00600082015250565b600061446a601f83613905565b915061447582614434565b602082019050919050565b600060208201905081810360008301526144998161445d565b9050919050565b7f564553543a205749544844524157204641494c45440000000000000000000000600082015250565b60006144d6601583613905565b91506144e1826144a0565b602082019050919050565b60006020820190508181036000830152614505816144c9565b9050919050565b82818337600083830152505050565b60006145278385613905565b935061453483858461450c565b61453d8361314d565b840190509392505050565b6000606082019050818103600083015261456381878961451b565b9050818103602083015261457881858761451b565b9050614587604083018461311e565b9695505050505050565b6000815190506145a0816130b2565b92915050565b6000602082840312156145bc576145bb612fd5565b5b60006145ca84828501614591565b91505092915050565b7f564553543a2053544152542054494d4520414654455220454e442054494d4500600082015250565b6000614609601f83613905565b9150614614826145d3565b602082019050919050565b60006020820190508181036000830152614638816145fc565b9050919050565b7f564553543a20454e442054494d4520494e205448452050415354000000000000600082015250565b6000614675601a83613905565b91506146808261463f565b602082019050919050565b600060208201905081810360008301526146a481614668565b905091905056fea26469706673582212209bdea43d7806d0d5e4023acff36a8e97a6c6d7c5969bdf3761881603416050c764736f6c634300080a0033",
  "linkReferences": {},
  "deployedLinkReferences": {}
}